{
	"contracts/TesseraFeeSplitter.sol": {
		"TesseraFeeSplitter": {
			"abi": [
				{
					"inputs": [
						{
							"internalType": "address",
							"name": "_token",
							"type": "address"
						},
						{
							"internalType": "address",
							"name": "_publisher",
							"type": "address"
						},
						{
							"internalType": "address",
							"name": "_devs",
							"type": "address"
						},
						{
							"internalType": "uint16",
							"name": "_publisherBps",
							"type": "uint16"
						},
						{
							"internalType": "uint16",
							"name": "_devsBps",
							"type": "uint16"
						},
						{
							"internalType": "address",
							"name": "admin",
							"type": "address"
						}
					],
					"stateMutability": "nonpayable",
					"type": "constructor"
				},
				{
					"inputs": [],
					"name": "AccessControlBadConfirmation",
					"type": "error"
				},
				{
					"inputs": [
						{
							"internalType": "address",
							"name": "account",
							"type": "address"
						},
						{
							"internalType": "bytes32",
							"name": "neededRole",
							"type": "bytes32"
						}
					],
					"name": "AccessControlUnauthorizedAccount",
					"type": "error"
				},
				{
					"anonymous": false,
					"inputs": [
						{
							"indexed": false,
							"internalType": "uint256",
							"name": "total",
							"type": "uint256"
						},
						{
							"indexed": false,
							"internalType": "uint256",
							"name": "publisherAmount",
							"type": "uint256"
						},
						{
							"indexed": false,
							"internalType": "uint256",
							"name": "devsAmount",
							"type": "uint256"
						}
					],
					"name": "Distributed",
					"type": "event"
				},
				{
					"anonymous": false,
					"inputs": [
						{
							"indexed": false,
							"internalType": "address",
							"name": "recipient",
							"type": "address"
						},
						{
							"indexed": false,
							"internalType": "uint256",
							"name": "amount",
							"type": "uint256"
						}
					],
					"name": "EmergencyWithdraw",
					"type": "event"
				},
				{
					"anonymous": false,
					"inputs": [
						{
							"indexed": false,
							"internalType": "uint16",
							"name": "publisherBps",
							"type": "uint16"
						},
						{
							"indexed": false,
							"internalType": "uint16",
							"name": "devsBps",
							"type": "uint16"
						}
					],
					"name": "PercentagesUpdated",
					"type": "event"
				},
				{
					"anonymous": false,
					"inputs": [
						{
							"indexed": false,
							"internalType": "address",
							"name": "publisher",
							"type": "address"
						},
						{
							"indexed": false,
							"internalType": "address",
							"name": "devs",
							"type": "address"
						}
					],
					"name": "RecipientsUpdated",
					"type": "event"
				},
				{
					"anonymous": false,
					"inputs": [
						{
							"indexed": true,
							"internalType": "bytes32",
							"name": "role",
							"type": "bytes32"
						},
						{
							"indexed": true,
							"internalType": "bytes32",
							"name": "previousAdminRole",
							"type": "bytes32"
						},
						{
							"indexed": true,
							"internalType": "bytes32",
							"name": "newAdminRole",
							"type": "bytes32"
						}
					],
					"name": "RoleAdminChanged",
					"type": "event"
				},
				{
					"anonymous": false,
					"inputs": [
						{
							"indexed": true,
							"internalType": "bytes32",
							"name": "role",
							"type": "bytes32"
						},
						{
							"indexed": true,
							"internalType": "address",
							"name": "account",
							"type": "address"
						},
						{
							"indexed": true,
							"internalType": "address",
							"name": "sender",
							"type": "address"
						}
					],
					"name": "RoleGranted",
					"type": "event"
				},
				{
					"anonymous": false,
					"inputs": [
						{
							"indexed": true,
							"internalType": "bytes32",
							"name": "role",
							"type": "bytes32"
						},
						{
							"indexed": true,
							"internalType": "address",
							"name": "account",
							"type": "address"
						},
						{
							"indexed": true,
							"internalType": "address",
							"name": "sender",
							"type": "address"
						}
					],
					"name": "RoleRevoked",
					"type": "event"
				},
				{
					"inputs": [],
					"name": "DEFAULT_ADMIN_ROLE",
					"outputs": [
						{
							"internalType": "bytes32",
							"name": "",
							"type": "bytes32"
						}
					],
					"stateMutability": "view",
					"type": "function"
				},
				{
					"inputs": [],
					"name": "MANAGER_ROLE",
					"outputs": [
						{
							"internalType": "bytes32",
							"name": "",
							"type": "bytes32"
						}
					],
					"stateMutability": "view",
					"type": "function"
				},
				{
					"inputs": [],
					"name": "SPLITTER_ROLE",
					"outputs": [
						{
							"internalType": "bytes32",
							"name": "",
							"type": "bytes32"
						}
					],
					"stateMutability": "view",
					"type": "function"
				},
				{
					"inputs": [],
					"name": "devs",
					"outputs": [
						{
							"internalType": "address",
							"name": "",
							"type": "address"
						}
					],
					"stateMutability": "view",
					"type": "function"
				},
				{
					"inputs": [],
					"name": "devsBps",
					"outputs": [
						{
							"internalType": "uint16",
							"name": "",
							"type": "uint16"
						}
					],
					"stateMutability": "view",
					"type": "function"
				},
				{
					"inputs": [],
					"name": "distribute",
					"outputs": [],
					"stateMutability": "nonpayable",
					"type": "function"
				},
				{
					"inputs": [],
					"name": "emergencyWithdraw",
					"outputs": [],
					"stateMutability": "nonpayable",
					"type": "function"
				},
				{
					"inputs": [],
					"name": "getBalance",
					"outputs": [
						{
							"internalType": "uint256",
							"name": "",
							"type": "uint256"
						}
					],
					"stateMutability": "view",
					"type": "function"
				},
				{
					"inputs": [
						{
							"internalType": "bytes32",
							"name": "role",
							"type": "bytes32"
						}
					],
					"name": "getRoleAdmin",
					"outputs": [
						{
							"internalType": "bytes32",
							"name": "",
							"type": "bytes32"
						}
					],
					"stateMutability": "view",
					"type": "function"
				},
				{
					"inputs": [
						{
							"internalType": "bytes32",
							"name": "role",
							"type": "bytes32"
						},
						{
							"internalType": "address",
							"name": "account",
							"type": "address"
						}
					],
					"name": "grantRole",
					"outputs": [],
					"stateMutability": "nonpayable",
					"type": "function"
				},
				{
					"inputs": [
						{
							"internalType": "bytes32",
							"name": "role",
							"type": "bytes32"
						},
						{
							"internalType": "address",
							"name": "account",
							"type": "address"
						}
					],
					"name": "hasRole",
					"outputs": [
						{
							"internalType": "bool",
							"name": "",
							"type": "bool"
						}
					],
					"stateMutability": "view",
					"type": "function"
				},
				{
					"inputs": [],
					"name": "publisher",
					"outputs": [
						{
							"internalType": "address",
							"name": "",
							"type": "address"
						}
					],
					"stateMutability": "view",
					"type": "function"
				},
				{
					"inputs": [],
					"name": "publisherBps",
					"outputs": [
						{
							"internalType": "uint16",
							"name": "",
							"type": "uint16"
						}
					],
					"stateMutability": "view",
					"type": "function"
				},
				{
					"inputs": [
						{
							"internalType": "bytes32",
							"name": "role",
							"type": "bytes32"
						},
						{
							"internalType": "address",
							"name": "callerConfirmation",
							"type": "address"
						}
					],
					"name": "renounceRole",
					"outputs": [],
					"stateMutability": "nonpayable",
					"type": "function"
				},
				{
					"inputs": [
						{
							"internalType": "bytes32",
							"name": "role",
							"type": "bytes32"
						},
						{
							"internalType": "address",
							"name": "account",
							"type": "address"
						}
					],
					"name": "revokeRole",
					"outputs": [],
					"stateMutability": "nonpayable",
					"type": "function"
				},
				{
					"inputs": [
						{
							"internalType": "bytes4",
							"name": "interfaceId",
							"type": "bytes4"
						}
					],
					"name": "supportsInterface",
					"outputs": [
						{
							"internalType": "bool",
							"name": "",
							"type": "bool"
						}
					],
					"stateMutability": "view",
					"type": "function"
				},
				{
					"inputs": [],
					"name": "token",
					"outputs": [
						{
							"internalType": "contract IERC20",
							"name": "",
							"type": "address"
						}
					],
					"stateMutability": "view",
					"type": "function"
				}
			],
			"devdoc": {
				"errors": {
					"AccessControlBadConfirmation()": [
						{
							"details": "The caller of a function is not the expected one. NOTE: Don't confuse with {AccessControlUnauthorizedAccount}."
						}
					],
					"AccessControlUnauthorizedAccount(address,bytes32)": [
						{
							"details": "The `account` is missing a role."
						}
					]
				},
				"events": {
					"RoleAdminChanged(bytes32,bytes32,bytes32)": {
						"details": "Emitted when `newAdminRole` is set as ``role``'s admin role, replacing `previousAdminRole` `DEFAULT_ADMIN_ROLE` is the starting admin for all roles, despite {RoleAdminChanged} not being emitted to signal this."
					},
					"RoleGranted(bytes32,address,address)": {
						"details": "Emitted when `account` is granted `role`. `sender` is the account that originated the contract call. This account bears the admin role (for the granted role). Expected in cases where the role was granted using the internal {AccessControl-_grantRole}."
					},
					"RoleRevoked(bytes32,address,address)": {
						"details": "Emitted when `account` is revoked `role`. `sender` is the account that originated the contract call:   - if using `revokeRole`, it is the admin role bearer   - if using `renounceRole`, it is the role bearer (i.e. `account`)"
					}
				},
				"kind": "dev",
				"methods": {
					"getRoleAdmin(bytes32)": {
						"details": "Returns the admin role that controls `role`. See {grantRole} and {revokeRole}. To change a role's admin, use {_setRoleAdmin}."
					},
					"grantRole(bytes32,address)": {
						"details": "Grants `role` to `account`. If `account` had not been already granted `role`, emits a {RoleGranted} event. Requirements: - the caller must have ``role``'s admin role. May emit a {RoleGranted} event."
					},
					"hasRole(bytes32,address)": {
						"details": "Returns `true` if `account` has been granted `role`."
					},
					"renounceRole(bytes32,address)": {
						"details": "Revokes `role` from the calling account. Roles are often managed via {grantRole} and {revokeRole}: this function's purpose is to provide a mechanism for accounts to lose their privileges if they are compromised (such as when a trusted device is misplaced). If the calling account had been revoked `role`, emits a {RoleRevoked} event. Requirements: - the caller must be `callerConfirmation`. May emit a {RoleRevoked} event."
					},
					"revokeRole(bytes32,address)": {
						"details": "Revokes `role` from `account`. If `account` had been granted `role`, emits a {RoleRevoked} event. Requirements: - the caller must have ``role``'s admin role. May emit a {RoleRevoked} event."
					},
					"supportsInterface(bytes4)": {
						"details": "Returns true if this contract implements the interface defined by `interfaceId`. See the corresponding https://eips.ethereum.org/EIPS/eip-165#how-interfaces-are-identified[ERC section] to learn more about how these ids are created. This function call must use less than 30 000 gas."
					}
				},
				"version": 1
			},
			"evm": {
				"assembly": "    /* \"contracts/TesseraFeeSplitter.sol\":245:3028  contract TesseraFeeSplitter is AccessControl, ReentrancyGuard {... */\n  mstore(0x40, 0xa0)\n    /* \"contracts/TesseraFeeSplitter.sol\":956:1793  constructor (... */\n  callvalue\n  dup1\n  iszero\n  tag_1\n  jumpi\n  revert(0x00, 0x00)\ntag_1:\n  pop\n  mload(0x40)\n  sub(codesize, bytecodeSize)\n  dup1\n  bytecodeSize\n  dup4\n  codecopy\n  dup2\n  add\n  0x40\n  dup2\n  swap1\n  mstore\n  tag_2\n  swap2\n  tag_3\n  jump\t// in\ntag_2:\n    /* \"@openzeppelin/contracts/security/ReentrancyGuard.sol\":1716:1717  1 */\n  0x01\n    /* \"@openzeppelin/contracts/security/ReentrancyGuard.sol\":1821:1843  _status = _NOT_ENTERED */\n  dup1\n  sstore\n  sub(shl(0xa0, 0x01), 0x01)\n    /* \"contracts/TesseraFeeSplitter.sol\":1156:1176  _token != address(0) */\n  dup7\n  and\n    /* \"contracts/TesseraFeeSplitter.sol\":1148:1188  require(_token != address(0), \"token=0\") */\n  tag_8\n  jumpi\n  mload(0x40)\n  shl(0xe5, 0x461bcd)\n  dup2\n  mstore\n    /* \"#utility.yul\":1203:1205   */\n  0x20\n    /* \"contracts/TesseraFeeSplitter.sol\":1148:1188  require(_token != address(0), \"token=0\") */\n  0x04\n  dup3\n  add\n    /* \"#utility.yul\":1185:1206   */\n  mstore\n    /* \"#utility.yul\":1242:1243   */\n  0x07\n    /* \"#utility.yul\":1222:1240   */\n  0x24\n  dup3\n  add\n    /* \"#utility.yul\":1215:1244   */\n  mstore\n  shl(0xcc, 0x0746f6b656e3d3)\n    /* \"#utility.yul\":1260:1278   */\n  0x44\n  dup3\n  add\n    /* \"#utility.yul\":1253:1290   */\n  mstore\n    /* \"#utility.yul\":1307:1325   */\n  0x64\n  add\n    /* \"contracts/TesseraFeeSplitter.sol\":1148:1188  require(_token != address(0), \"token=0\") */\ntag_9:\n  mload(0x40)\n  dup1\n  swap2\n  sub\n  swap1\n  revert\ntag_8:\n  sub(shl(0xa0, 0x01), 0x01)\n    /* \"contracts/TesseraFeeSplitter.sol\":1207:1231  _publisher != address(0) */\n  dup6\n  and\n    /* \"contracts/TesseraFeeSplitter.sol\":1199:1241  require(_publisher != address(0), \"pub=0\") */\n  tag_11\n  jumpi\n  mload(0x40)\n  shl(0xe5, 0x461bcd)\n  dup2\n  mstore\n    /* \"#utility.yul\":1538:1540   */\n  0x20\n    /* \"contracts/TesseraFeeSplitter.sol\":1199:1241  require(_publisher != address(0), \"pub=0\") */\n  0x04\n  dup3\n  add\n    /* \"#utility.yul\":1520:1541   */\n  mstore\n    /* \"#utility.yul\":1577:1578   */\n  0x05\n    /* \"#utility.yul\":1557:1575   */\n  0x24\n  dup3\n  add\n    /* \"#utility.yul\":1550:1579   */\n  mstore\n  shl(0xdc, 0x07075623d3)\n    /* \"#utility.yul\":1595:1613   */\n  0x44\n  dup3\n  add\n    /* \"#utility.yul\":1588:1623   */\n  mstore\n    /* \"#utility.yul\":1640:1658   */\n  0x64\n  add\n    /* \"contracts/TesseraFeeSplitter.sol\":1199:1241  require(_publisher != address(0), \"pub=0\") */\n  tag_9\n    /* \"#utility.yul\":1336:1664   */\n  jump\n    /* \"contracts/TesseraFeeSplitter.sol\":1199:1241  require(_publisher != address(0), \"pub=0\") */\ntag_11:\n  sub(shl(0xa0, 0x01), 0x01)\n    /* \"contracts/TesseraFeeSplitter.sol\":1260:1279  _devs != address(0) */\n  dup5\n  and\n    /* \"contracts/TesseraFeeSplitter.sol\":1252:1290  require(_devs != address(0), \"devs=0\") */\n  tag_14\n  jumpi\n  mload(0x40)\n  shl(0xe5, 0x461bcd)\n  dup2\n  mstore\n    /* \"#utility.yul\":1871:1873   */\n  0x20\n    /* \"contracts/TesseraFeeSplitter.sol\":1252:1290  require(_devs != address(0), \"devs=0\") */\n  0x04\n  dup3\n  add\n    /* \"#utility.yul\":1853:1874   */\n  mstore\n    /* \"#utility.yul\":1910:1911   */\n  0x06\n    /* \"#utility.yul\":1890:1908   */\n  0x24\n  dup3\n  add\n    /* \"#utility.yul\":1883:1912   */\n  mstore\n  shl(0xd4, 0x0646576733d3)\n    /* \"#utility.yul\":1928:1946   */\n  0x44\n  dup3\n  add\n    /* \"#utility.yul\":1921:1957   */\n  mstore\n    /* \"#utility.yul\":1974:1992   */\n  0x64\n  add\n    /* \"contracts/TesseraFeeSplitter.sol\":1252:1290  require(_devs != address(0), \"devs=0\") */\n  tag_9\n    /* \"#utility.yul\":1669:1998   */\n  jump\n    /* \"contracts/TesseraFeeSplitter.sol\":1252:1290  require(_devs != address(0), \"devs=0\") */\ntag_14:\n    /* \"contracts/TesseraFeeSplitter.sol\":1309:1333  _publisherBps + _devsBps */\n  tag_17\n    /* \"contracts/TesseraFeeSplitter.sol\":1325:1333  _devsBps */\n  dup3\n    /* \"contracts/TesseraFeeSplitter.sol\":1309:1322  _publisherBps */\n  dup5\n    /* \"contracts/TesseraFeeSplitter.sol\":1309:1333  _publisherBps + _devsBps */\n  tag_18\n  jump\t// in\ntag_17:\n    /* \"contracts/TesseraFeeSplitter.sol\":1309:1342  _publisherBps + _devsBps == 10000 */\n  0xffff\n  and\n    /* \"contracts/TesseraFeeSplitter.sol\":1337:1342  10000 */\n  0x2710\n    /* \"contracts/TesseraFeeSplitter.sol\":1309:1342  _publisherBps + _devsBps == 10000 */\n  eq\n    /* \"contracts/TesseraFeeSplitter.sol\":1301:1363  require(_publisherBps + _devsBps == 10000, \"bps sum != 10000\") */\n  tag_19\n  jumpi\n  mload(0x40)\n  shl(0xe5, 0x461bcd)\n  dup2\n  mstore\n    /* \"#utility.yul\":2462:2464   */\n  0x20\n    /* \"contracts/TesseraFeeSplitter.sol\":1301:1363  require(_publisherBps + _devsBps == 10000, \"bps sum != 10000\") */\n  0x04\n  dup3\n  add\n    /* \"#utility.yul\":2444:2465   */\n  mstore\n    /* \"#utility.yul\":2501:2503   */\n  0x10\n    /* \"#utility.yul\":2481:2499   */\n  0x24\n  dup3\n  add\n    /* \"#utility.yul\":2474:2504   */\n  mstore\n  shl(0x84, 0x06270732073756d20213d20313030303)\n    /* \"#utility.yul\":2520:2538   */\n  0x44\n  dup3\n  add\n    /* \"#utility.yul\":2513:2559   */\n  mstore\n    /* \"#utility.yul\":2576:2594   */\n  0x64\n  add\n    /* \"contracts/TesseraFeeSplitter.sol\":1301:1363  require(_publisherBps + _devsBps == 10000, \"bps sum != 10000\") */\n  tag_9\n    /* \"#utility.yul\":2260:2600   */\n  jump\n    /* \"contracts/TesseraFeeSplitter.sol\":1301:1363  require(_publisherBps + _devsBps == 10000, \"bps sum != 10000\") */\ntag_19:\n  sub(shl(0xa0, 0x01), 0x01)\n    /* \"contracts/TesseraFeeSplitter.sol\":1376:1398  token = IERC20(_token) */\n  dup1\n  dup8\n  and\n  0x80\n  mstore\n    /* \"contracts/TesseraFeeSplitter.sol\":1411:1420  publisher */\n  0x02\n    /* \"contracts/TesseraFeeSplitter.sol\":1411:1433  publisher = _publisher */\n  dup1\n  sload\n  dup8\n  dup4\n  and\n  not(sub(shl(0xa0, 0x01), 0x01))\n  swap1\n  swap2\n  and\n  or\n  swap1\n  sstore\n    /* \"contracts/TesseraFeeSplitter.sol\":1444:1448  devs */\n  0x03\n    /* \"contracts/TesseraFeeSplitter.sol\":1444:1456  devs = _devs */\n  dup1\n  sload\n    /* \"contracts/TesseraFeeSplitter.sol\":1467:1495  publisherBps = _publisherBps */\n  0xffff\n    /* \"contracts/TesseraFeeSplitter.sol\":1506:1524  devsBps = _devsBps */\n  dup6\n  dup2\n  and\n  shl(0xb0, 0x01)\n  mul\n  not(shl(0xb0, 0xffff))\n    /* \"contracts/TesseraFeeSplitter.sol\":1467:1495  publisherBps = _publisherBps */\n  swap2\n  dup9\n  and\n  shl(0xa0, 0x01)\n  mul\n  not(sub(shl(0xb0, 0x01), 0x01))\n  swap1\n  swap4\n  and\n    /* \"contracts/TesseraFeeSplitter.sol\":1444:1456  devs = _devs */\n  swap5\n  dup10\n  and\n    /* \"contracts/TesseraFeeSplitter.sol\":1467:1495  publisherBps = _publisherBps */\n  swap5\n  swap1\n  swap5\n  or\n  swap2\n  swap1\n  swap2\n  or\n    /* \"contracts/TesseraFeeSplitter.sol\":1506:1524  devsBps = _devsBps */\n  and\n  swap2\n  swap1\n  swap2\n  or\n  swap1\n  sstore\n    /* \"contracts/TesseraFeeSplitter.sol\":1560:1597  _grantRole(DEFAULT_ADMIN_ROLE, admin) */\n  tag_22\n    /* \"contracts/TesseraFeeSplitter.sol\":1411:1420  publisher */\n  0x00\n    /* \"contracts/TesseraFeeSplitter.sol\":1591:1596  admin */\n  dup3\n    /* \"contracts/TesseraFeeSplitter.sol\":1560:1570  _grantRole */\n  tag_23\n    /* \"contracts/TesseraFeeSplitter.sol\":1560:1597  _grantRole(DEFAULT_ADMIN_ROLE, admin) */\n  jump\t// in\ntag_22:\n  pop\n    /* \"contracts/TesseraFeeSplitter.sol\":1608:1639  _grantRole(MANAGER_ROLE, admin) */\n  tag_24\n    /* \"contracts/TesseraFeeSplitter.sol\":353:378  keccak256(\"MANAGER_ROLE\") */\n  0x241ecf16d79d0f8dbfb92cbc07fe17840425976cf0667f022fe9877caa831b08\n    /* \"contracts/TesseraFeeSplitter.sol\":1633:1638  admin */\n  dup3\n    /* \"contracts/TesseraFeeSplitter.sol\":1608:1618  _grantRole */\n  tag_23\n    /* \"contracts/TesseraFeeSplitter.sol\":1608:1639  _grantRole(MANAGER_ROLE, admin) */\n  jump\t// in\ntag_24:\n  pop\n    /* \"contracts/TesseraFeeSplitter.sol\":1705:1742  _grantRole(SPLITTER_ROLE, _publisher) */\n  tag_25\n  mload(0x00)\n  codecopy(0x00, data_4edf893ca5a9f02f81d8f477a97c35f29f12aaeb8e51e9a5aac3a24649676c78, 0x20)\n  mload(0x00)\n  swap1\n  0x00\n  mstore\n    /* \"contracts/TesseraFeeSplitter.sol\":1731:1741  _publisher */\n  dup7\n    /* \"contracts/TesseraFeeSplitter.sol\":1705:1715  _grantRole */\n  tag_23\n    /* \"contracts/TesseraFeeSplitter.sol\":1705:1742  _grantRole(SPLITTER_ROLE, _publisher) */\n  jump\t// in\ntag_25:\n  pop\n    /* \"contracts/TesseraFeeSplitter.sol\":1753:1785  _grantRole(SPLITTER_ROLE, _devs) */\n  tag_26\n  mload(0x00)\n  codecopy(0x00, data_4edf893ca5a9f02f81d8f477a97c35f29f12aaeb8e51e9a5aac3a24649676c78, 0x20)\n  mload(0x00)\n  swap1\n  0x00\n  mstore\n    /* \"contracts/TesseraFeeSplitter.sol\":1779:1784  _devs */\n  dup6\n    /* \"contracts/TesseraFeeSplitter.sol\":1753:1763  _grantRole */\n  tag_23\n    /* \"contracts/TesseraFeeSplitter.sol\":1753:1785  _grantRole(SPLITTER_ROLE, _devs) */\n  jump\t// in\ntag_26:\n  pop\n    /* \"contracts/TesseraFeeSplitter.sol\":956:1793  constructor (... */\n  pop\n  pop\n  pop\n  pop\n  pop\n  pop\n    /* \"contracts/TesseraFeeSplitter.sol\":245:3028  contract TesseraFeeSplitter is AccessControl, ReentrancyGuard {... */\n  jump(tag_39)\n    /* \"@openzeppelin/contracts/access/AccessControl.sol\":6155:6471  function _grantRole(bytes32 role, address account) internal virtual returns (bool) {... */\ntag_23:\n    /* \"@openzeppelin/contracts/access/AccessControl.sol\":6232:6236  bool */\n  0x00\n    /* \"@openzeppelin/contracts/access/AccessControl.sol\":2930:2942  _roles[role] */\n  dup3\n  dup2\n  mstore\n  0x20\n  dup2\n  dup2\n  mstore\n  0x40\n  dup1\n  dup4\n  keccak256\n  sub(shl(0xa0, 0x01), 0x01)\n    /* \"@openzeppelin/contracts/access/AccessControl.sol\":2930:2959  _roles[role].hasRole[account] */\n  dup6\n  and\n  dup5\n  mstore\n  swap1\n  swap2\n  mstore\n  dup2\n  keccak256\n  sload\n  0xff\n  and\n    /* \"@openzeppelin/contracts/access/AccessControl.sol\":6248:6465  if (!hasRole(role, account)) {... */\n  tag_31\n  jumpi\n    /* \"@openzeppelin/contracts/access/AccessControl.sol\":6291:6297  _roles */\n  0x00\n    /* \"@openzeppelin/contracts/access/AccessControl.sol\":6291:6303  _roles[role] */\n  dup4\n  dup2\n  mstore\n  0x20\n  dup2\n  dup2\n  mstore\n  0x40\n  dup1\n  dup4\n  keccak256\n  sub(shl(0xa0, 0x01), 0x01)\n    /* \"@openzeppelin/contracts/access/AccessControl.sol\":6291:6320  _roles[role].hasRole[account] */\n  dup7\n  and\n  dup5\n  mstore\n  swap1\n  swap2\n  mstore\n  swap1\n  keccak256\n    /* \"@openzeppelin/contracts/access/AccessControl.sol\":6291:6327  _roles[role].hasRole[account] = true */\n  dup1\n  sload\n  not(0xff)\n  and\n    /* \"@openzeppelin/contracts/access/AccessControl.sol\":6323:6327  true */\n  0x01\n    /* \"@openzeppelin/contracts/access/AccessControl.sol\":6291:6327  _roles[role].hasRole[account] = true */\n  or\n  swap1\n  sstore\n    /* \"@openzeppelin/contracts/access/AccessControl.sol\":6373:6385  _msgSender() */\n  tag_32\n    /* \"@openzeppelin/contracts/utils/Context.sol\":735:745  msg.sender */\n  caller\n  swap1\n    /* \"@openzeppelin/contracts/utils/Context.sol\":656:752  function _msgSender() internal view virtual returns (address) {... */\n  jump\n    /* \"@openzeppelin/contracts/access/AccessControl.sol\":6373:6385  _msgSender() */\ntag_32:\n  sub(shl(0xa0, 0x01), 0x01)\n    /* \"@openzeppelin/contracts/access/AccessControl.sol\":6346:6386  RoleGranted(role, account, _msgSender()) */\n  and\n    /* \"@openzeppelin/contracts/access/AccessControl.sol\":6364:6371  account */\n  dup3\n  sub(shl(0xa0, 0x01), 0x01)\n    /* \"@openzeppelin/contracts/access/AccessControl.sol\":6346:6386  RoleGranted(role, account, _msgSender()) */\n  and\n    /* \"@openzeppelin/contracts/access/AccessControl.sol\":6358:6362  role */\n  dup5\n    /* \"@openzeppelin/contracts/access/AccessControl.sol\":6346:6386  RoleGranted(role, account, _msgSender()) */\n  0x2f8788117e7eff1d82e926ec794901d17c78024a50270940304540a733656f0d\n  mload(0x40)\n  mload(0x40)\n  dup1\n  swap2\n  sub\n  swap1\n  log4\n  pop\n    /* \"@openzeppelin/contracts/access/AccessControl.sol\":6407:6411  true */\n  0x01\n    /* \"@openzeppelin/contracts/access/AccessControl.sol\":6400:6411  return true */\n  jump(tag_34)\n    /* \"@openzeppelin/contracts/access/AccessControl.sol\":6248:6465  if (!hasRole(role, account)) {... */\ntag_31:\n  pop\n    /* \"@openzeppelin/contracts/access/AccessControl.sol\":6449:6454  false */\n  0x00\n    /* \"@openzeppelin/contracts/access/AccessControl.sol\":6248:6465  if (!hasRole(role, account)) {... */\ntag_34:\n    /* \"@openzeppelin/contracts/access/AccessControl.sol\":6155:6471  function _grantRole(bytes32 role, address account) internal virtual returns (bool) {... */\n  swap3\n  swap2\n  pop\n  pop\n  jump\t// out\n    /* \"#utility.yul\":14:191   */\ntag_37:\n    /* \"#utility.yul\":93:106   */\n  dup1\n  mload\n  sub(shl(0xa0, 0x01), 0x01)\n    /* \"#utility.yul\":135:166   */\n  dup2\n  and\n    /* \"#utility.yul\":125:167   */\n  dup2\n  eq\n    /* \"#utility.yul\":115:185   */\n  tag_41\n  jumpi\n    /* \"#utility.yul\":181:182   */\n  0x00\n    /* \"#utility.yul\":178:179   */\n  0x00\n    /* \"#utility.yul\":171:183   */\n  revert\n    /* \"#utility.yul\":115:185   */\ntag_41:\n    /* \"#utility.yul\":14:191   */\n  swap2\n  swap1\n  pop\n  jump\t// out\n    /* \"#utility.yul\":196:359   */\ntag_38:\n    /* \"#utility.yul\":274:287   */\n  dup1\n  mload\n    /* \"#utility.yul\":327:333   */\n  0xffff\n    /* \"#utility.yul\":316:334   */\n  dup2\n  and\n    /* \"#utility.yul\":306:335   */\n  dup2\n  eq\n    /* \"#utility.yul\":296:353   */\n  tag_41\n  jumpi\n    /* \"#utility.yul\":349:350   */\n  0x00\n    /* \"#utility.yul\":346:347   */\n  0x00\n    /* \"#utility.yul\":339:351   */\n  revert\n    /* \"#utility.yul\":364:996   */\ntag_3:\n    /* \"#utility.yul\":477:483   */\n  0x00\n    /* \"#utility.yul\":485:491   */\n  0x00\n    /* \"#utility.yul\":493:499   */\n  0x00\n    /* \"#utility.yul\":501:507   */\n  0x00\n    /* \"#utility.yul\":509:515   */\n  0x00\n    /* \"#utility.yul\":517:523   */\n  0x00\n    /* \"#utility.yul\":570:573   */\n  0xc0\n    /* \"#utility.yul\":558:567   */\n  dup8\n    /* \"#utility.yul\":549:556   */\n  dup10\n    /* \"#utility.yul\":545:568   */\n  sub\n    /* \"#utility.yul\":541:574   */\n  slt\n    /* \"#utility.yul\":538:591   */\n  iszero\n  tag_45\n  jumpi\n    /* \"#utility.yul\":587:588   */\n  0x00\n    /* \"#utility.yul\":584:585   */\n  0x00\n    /* \"#utility.yul\":577:589   */\n  revert\n    /* \"#utility.yul\":538:591   */\ntag_45:\n    /* \"#utility.yul\":610:650   */\n  tag_46\n    /* \"#utility.yul\":640:649   */\n  dup8\n    /* \"#utility.yul\":610:650   */\n  tag_37\n  jump\t// in\ntag_46:\n    /* \"#utility.yul\":600:650   */\n  swap6\n  pop\n    /* \"#utility.yul\":669:718   */\n  tag_47\n    /* \"#utility.yul\":714:716   */\n  0x20\n    /* \"#utility.yul\":703:712   */\n  dup9\n    /* \"#utility.yul\":699:717   */\n  add\n    /* \"#utility.yul\":669:718   */\n  tag_37\n  jump\t// in\ntag_47:\n    /* \"#utility.yul\":659:718   */\n  swap5\n  pop\n    /* \"#utility.yul\":737:786   */\n  tag_48\n    /* \"#utility.yul\":782:784   */\n  0x40\n    /* \"#utility.yul\":771:780   */\n  dup9\n    /* \"#utility.yul\":767:785   */\n  add\n    /* \"#utility.yul\":737:786   */\n  tag_37\n  jump\t// in\ntag_48:\n    /* \"#utility.yul\":727:786   */\n  swap4\n  pop\n    /* \"#utility.yul\":805:853   */\n  tag_49\n    /* \"#utility.yul\":849:851   */\n  0x60\n    /* \"#utility.yul\":838:847   */\n  dup9\n    /* \"#utility.yul\":834:852   */\n  add\n    /* \"#utility.yul\":805:853   */\n  tag_38\n  jump\t// in\ntag_49:\n    /* \"#utility.yul\":795:853   */\n  swap3\n  pop\n    /* \"#utility.yul\":872:921   */\n  tag_50\n    /* \"#utility.yul\":916:919   */\n  0x80\n    /* \"#utility.yul\":905:914   */\n  dup9\n    /* \"#utility.yul\":901:920   */\n  add\n    /* \"#utility.yul\":872:921   */\n  tag_38\n  jump\t// in\ntag_50:\n    /* \"#utility.yul\":862:921   */\n  swap2\n  pop\n    /* \"#utility.yul\":940:990   */\n  tag_51\n    /* \"#utility.yul\":985:988   */\n  0xa0\n    /* \"#utility.yul\":974:983   */\n  dup9\n    /* \"#utility.yul\":970:989   */\n  add\n    /* \"#utility.yul\":940:990   */\n  tag_37\n  jump\t// in\ntag_51:\n    /* \"#utility.yul\":930:990   */\n  swap1\n  pop\n    /* \"#utility.yul\":364:996   */\n  swap3\n  swap6\n  pop\n  swap3\n  swap6\n  pop\n  swap3\n  swap6\n  jump\t// out\n    /* \"#utility.yul\":2003:2255   */\ntag_18:\n    /* \"#utility.yul\":2094:2100   */\n  0xffff\n    /* \"#utility.yul\":2071:2085   */\n  dup2\n  dup2\n  and\n    /* \"#utility.yul\":2087:2101   */\n  dup4\n  dup3\n  and\n    /* \"#utility.yul\":2067:2102   */\n  add\n  swap1\n    /* \"#utility.yul\":2114:2129   */\n  dup2\n  gt\n    /* \"#utility.yul\":2111:2249   */\n  iszero\n  tag_34\n  jumpi\n    /* \"#utility.yul\":2171:2181   */\n  0x4e487b71\n    /* \"#utility.yul\":2166:2169   */\n  0xe0\n    /* \"#utility.yul\":2162:2182   */\n  shl\n    /* \"#utility.yul\":2159:2160   */\n  0x00\n    /* \"#utility.yul\":2152:2183   */\n  mstore\n    /* \"#utility.yul\":2206:2210   */\n  0x11\n    /* \"#utility.yul\":2203:2204   */\n  0x04\n    /* \"#utility.yul\":2196:2211   */\n  mstore\n    /* \"#utility.yul\":2234:2238   */\n  0x24\n    /* \"#utility.yul\":2231:2232   */\n  0x00\n    /* \"#utility.yul\":2224:2239   */\n  revert\n    /* \"#utility.yul\":2260:2600   */\ntag_39:\n    /* \"contracts/TesseraFeeSplitter.sol\":245:3028  contract TesseraFeeSplitter is AccessControl, ReentrancyGuard {... */\n  mload(0x80)\n  codecopy(0x00, dataOffset(sub_0), dataSize(sub_0))\n  0x00\n  assignImmutable(\"0x9c7f7615d84833acb0a59ed6785953f717f36f0e32d2021eb527b2025773fa79\")\n  return(0x00, dataSize(sub_0))\nstop\ndata_4edf893ca5a9f02f81d8f477a97c35f29f12aaeb8e51e9a5aac3a24649676c78 ebea61bac29e76544ef1875472aaff98e28d2db11686c8cbef6c2b35dbe32407\n\nsub_0: assembly {\n        /* \"contracts/TesseraFeeSplitter.sol\":245:3028  contract TesseraFeeSplitter is AccessControl, ReentrancyGuard {... */\n      mstore(0x40, 0x80)\n      callvalue\n      dup1\n      iszero\n      tag_1\n      jumpi\n      revert(0x00, 0x00)\n    tag_1:\n      pop\n      jumpi(tag_2, lt(calldatasize, 0x04))\n      shr(0xe0, calldataload(0x00))\n      dup1\n      0xa217fddf\n      gt\n      tag_20\n      jumpi\n      dup1\n      0xe4fc6b6d\n      gt\n      tag_21\n      jumpi\n      dup1\n      0xe4fc6b6d\n      eq\n      tag_15\n      jumpi\n      dup1\n      0xe98c0990\n      eq\n      tag_16\n      jumpi\n      dup1\n      0xeb09c17c\n      eq\n      tag_17\n      jumpi\n      dup1\n      0xec87621c\n      eq\n      tag_18\n      jumpi\n      dup1\n      0xfc0c546a\n      eq\n      tag_19\n      jumpi\n      revert(0x00, 0x00)\n    tag_21:\n      dup1\n      0xa217fddf\n      eq\n      tag_11\n      jumpi\n      dup1\n      0xaaecfa63\n      eq\n      tag_12\n      jumpi\n      dup1\n      0xd547741f\n      eq\n      tag_13\n      jumpi\n      dup1\n      0xdb2e21bc\n      eq\n      tag_14\n      jumpi\n      revert(0x00, 0x00)\n    tag_20:\n      dup1\n      0x36568abe\n      gt\n      tag_22\n      jumpi\n      dup1\n      0x36568abe\n      eq\n      tag_7\n      jumpi\n      dup1\n      0x8c72c54e\n      eq\n      tag_8\n      jumpi\n      dup1\n      0x91d14854\n      eq\n      tag_9\n      jumpi\n      dup1\n      0x9a96f829\n      eq\n      tag_10\n      jumpi\n      revert(0x00, 0x00)\n    tag_22:\n      dup1\n      0x01ffc9a7\n      eq\n      tag_3\n      jumpi\n      dup1\n      0x12065fe0\n      eq\n      tag_4\n      jumpi\n      dup1\n      0x248a9ca3\n      eq\n      tag_5\n      jumpi\n      dup1\n      0x2f2ff15d\n      eq\n      tag_6\n      jumpi\n    tag_2:\n      revert(0x00, 0x00)\n        /* \"@openzeppelin/contracts/access/AccessControl.sol\":2541:2743  function supportsInterface(bytes4 interfaceId) public view virtual override returns (bool) {... */\n    tag_3:\n      tag_23\n      tag_24\n      calldatasize\n      0x04\n      tag_25\n      jump\t// in\n    tag_24:\n      tag_26\n      jump\t// in\n    tag_23:\n      mload(0x40)\n        /* \"#utility.yul\":470:484   */\n      swap1\n      iszero\n        /* \"#utility.yul\":463:485   */\n      iszero\n        /* \"#utility.yul\":445:486   */\n      dup2\n      mstore\n        /* \"#utility.yul\":433:435   */\n      0x20\n        /* \"#utility.yul\":418:436   */\n      add\n        /* \"@openzeppelin/contracts/access/AccessControl.sol\":2541:2743  function supportsInterface(bytes4 interfaceId) public view virtual override returns (bool) {... */\n    tag_27:\n      mload(0x40)\n      dup1\n      swap2\n      sub\n      swap1\n      return\n        /* \"contracts/TesseraFeeSplitter.sol\":2870:3014  function getBalance() ... */\n    tag_4:\n      tag_29\n      tag_30\n      jump\t// in\n    tag_29:\n      mload(0x40)\n        /* \"#utility.yul\":643:668   */\n      swap1\n      dup2\n      mstore\n        /* \"#utility.yul\":631:633   */\n      0x20\n        /* \"#utility.yul\":616:634   */\n      add\n        /* \"contracts/TesseraFeeSplitter.sol\":2870:3014  function getBalance() ... */\n      tag_27\n        /* \"#utility.yul\":497:674   */\n      jump\n        /* \"@openzeppelin/contracts/access/AccessControl.sol\":3786:3906  function getRoleAdmin(bytes32 role) public view virtual returns (bytes32) {... */\n    tag_5:\n      tag_29\n      tag_34\n      calldatasize\n      0x04\n      tag_35\n      jump\t// in\n    tag_34:\n        /* \"@openzeppelin/contracts/access/AccessControl.sol\":3851:3858  bytes32 */\n      0x00\n        /* \"@openzeppelin/contracts/access/AccessControl.sol\":3877:3889  _roles[role] */\n      swap1\n      dup2\n      mstore\n      0x20\n      dup2\n      swap1\n      mstore\n      0x40\n      swap1\n      keccak256\n        /* \"@openzeppelin/contracts/access/AccessControl.sol\":3877:3899  _roles[role].adminRole */\n      0x01\n      add\n      sload\n      swap1\n        /* \"@openzeppelin/contracts/access/AccessControl.sol\":3786:3906  function getRoleAdmin(bytes32 role) public view virtual returns (bytes32) {... */\n      jump\n        /* \"@openzeppelin/contracts/access/AccessControl.sol\":4202:4338  function grantRole(bytes32 role, address account) public virtual onlyRole(getRoleAdmin(role)) {... */\n    tag_6:\n      tag_39\n      tag_40\n      calldatasize\n      0x04\n      tag_41\n      jump\t// in\n    tag_40:\n      tag_42\n      jump\t// in\n    tag_39:\n      stop\n        /* \"@openzeppelin/contracts/access/AccessControl.sol\":5304:5549  function renounceRole(bytes32 role, address callerConfirmation) public virtual {... */\n    tag_7:\n      tag_39\n      tag_44\n      calldatasize\n      0x04\n      tag_41\n      jump\t// in\n    tag_44:\n      tag_45\n      jump\t// in\n        /* \"contracts/TesseraFeeSplitter.sol\":498:522  address public publisher */\n    tag_8:\n      sload(0x02)\n      tag_46\n      swap1\n      sub(shl(0xa0, 0x01), 0x01)\n      and\n      dup2\n      jump\n    tag_46:\n      mload(0x40)\n      sub(shl(0xa0, 0x01), 0x01)\n        /* \"#utility.yul\":1669:1701   */\n      swap1\n      swap2\n      and\n        /* \"#utility.yul\":1651:1702   */\n      dup2\n      mstore\n        /* \"#utility.yul\":1639:1641   */\n      0x20\n        /* \"#utility.yul\":1624:1642   */\n      add\n        /* \"contracts/TesseraFeeSplitter.sol\":498:522  address public publisher */\n      tag_27\n        /* \"#utility.yul\":1505:1708   */\n      jump\n        /* \"@openzeppelin/contracts/access/AccessControl.sol\":2830:2966  function hasRole(bytes32 role, address account) public view virtual returns (bool) {... */\n    tag_9:\n      tag_23\n      tag_51\n      calldatasize\n      0x04\n      tag_41\n      jump\t// in\n    tag_51:\n      tag_52\n      jump\t// in\n        /* \"contracts/TesseraFeeSplitter.sol\":529:548  address public devs */\n    tag_10:\n      sload(0x03)\n      tag_46\n      swap1\n      sub(shl(0xa0, 0x01), 0x01)\n      and\n      dup2\n      jump\n        /* \"@openzeppelin/contracts/access/AccessControl.sol\":2196:2245  bytes32 public constant DEFAULT_ADMIN_ROLE = 0x00 */\n    tag_11:\n      tag_29\n        /* \"@openzeppelin/contracts/access/AccessControl.sol\":2241:2245  0x00 */\n      0x00\n        /* \"@openzeppelin/contracts/access/AccessControl.sol\":2196:2245  bytes32 public constant DEFAULT_ADMIN_ROLE = 0x00 */\n      dup2\n      jump\n        /* \"contracts/TesseraFeeSplitter.sol\":557:583  uint16 public publisherBps */\n    tag_12:\n      sload(0x03)\n      tag_60\n      swap1\n      shl(0xa0, 0x01)\n      swap1\n      div\n      0xffff\n      and\n      dup2\n      jump\n    tag_60:\n      mload(0x40)\n        /* \"#utility.yul\":1887:1893   */\n      0xffff\n        /* \"#utility.yul\":1875:1894   */\n      swap1\n      swap2\n      and\n        /* \"#utility.yul\":1857:1895   */\n      dup2\n      mstore\n        /* \"#utility.yul\":1845:1847   */\n      0x20\n        /* \"#utility.yul\":1830:1848   */\n      add\n        /* \"contracts/TesseraFeeSplitter.sol\":557:583  uint16 public publisherBps */\n      tag_27\n        /* \"#utility.yul\":1713:1901   */\n      jump\n        /* \"@openzeppelin/contracts/access/AccessControl.sol\":4618:4756  function revokeRole(bytes32 role, address account) public virtual onlyRole(getRoleAdmin(role)) {... */\n    tag_13:\n      tag_39\n      tag_65\n      calldatasize\n      0x04\n      tag_41\n      jump\t// in\n    tag_65:\n      tag_66\n      jump\t// in\n        /* \"contracts/TesseraFeeSplitter.sol\":2466:2803  function emergencyWithdraw()... */\n    tag_14:\n      tag_39\n      tag_68\n      jump\t// in\n        /* \"contracts/TesseraFeeSplitter.sol\":1879:2395  function distribute() ... */\n    tag_15:\n      tag_39\n      tag_70\n      jump\t// in\n        /* \"contracts/TesseraFeeSplitter.sol\":600:621  uint16 public devsBps */\n    tag_16:\n      sload(0x03)\n      tag_60\n      swap1\n      shl(0xb0, 0x01)\n      swap1\n      div\n      0xffff\n      and\n      dup2\n      jump\n        /* \"contracts/TesseraFeeSplitter.sol\":385:451  bytes32 public constant SPLITTER_ROLE = keccak256(\"SPLITTER_ROLE\") */\n    tag_17:\n      tag_29\n        /* \"contracts/TesseraFeeSplitter.sol\":425:451  keccak256(\"SPLITTER_ROLE\") */\n      0xebea61bac29e76544ef1875472aaff98e28d2db11686c8cbef6c2b35dbe32407\n        /* \"contracts/TesseraFeeSplitter.sol\":385:451  bytes32 public constant SPLITTER_ROLE = keccak256(\"SPLITTER_ROLE\") */\n      dup2\n      jump\n        /* \"contracts/TesseraFeeSplitter.sol\":314:378  bytes32 public constant MANAGER_ROLE = keccak256(\"MANAGER_ROLE\") */\n    tag_18:\n      tag_29\n        /* \"contracts/TesseraFeeSplitter.sol\":353:378  keccak256(\"MANAGER_ROLE\") */\n      0x241ecf16d79d0f8dbfb92cbc07fe17840425976cf0667f022fe9877caa831b08\n        /* \"contracts/TesseraFeeSplitter.sol\":314:378  bytes32 public constant MANAGER_ROLE = keccak256(\"MANAGER_ROLE\") */\n      dup2\n      jump\n        /* \"contracts/TesseraFeeSplitter.sol\":460:489  IERC20 public immutable token */\n    tag_19:\n      tag_46\n      immutable(\"0x9c7f7615d84833acb0a59ed6785953f717f36f0e32d2021eb527b2025773fa79\")\n      dup2\n      jump\n        /* \"@openzeppelin/contracts/access/AccessControl.sol\":2541:2743  function supportsInterface(bytes4 interfaceId) public view virtual override returns (bool) {... */\n    tag_26:\n        /* \"@openzeppelin/contracts/access/AccessControl.sol\":2626:2630  bool */\n      0x00\n      not(sub(shl(0xe0, 0x01), 0x01))\n        /* \"@openzeppelin/contracts/access/AccessControl.sol\":2649:2696  interfaceId == type(IAccessControl).interfaceId */\n      dup3\n      and\n      shl(0xe0, 0x7965db0b)\n      eq\n      dup1\n        /* \"@openzeppelin/contracts/access/AccessControl.sol\":2649:2736  interfaceId == type(IAccessControl).interfaceId || super.supportsInterface(interfaceId) */\n      tag_86\n      jumpi\n      pop\n      shl(0xe0, 0x01ffc9a7)\n      not(sub(shl(0xe0, 0x01), 0x01))\n        /* \"@openzeppelin/contracts/utils/introspection/ERC165.sol\":829:869  interfaceId == type(IERC165).interfaceId */\n      dup4\n      and\n      eq\n        /* \"@openzeppelin/contracts/access/AccessControl.sol\":2700:2736  super.supportsInterface(interfaceId) */\n    tag_86:\n        /* \"@openzeppelin/contracts/access/AccessControl.sol\":2642:2736  return interfaceId == type(IAccessControl).interfaceId || super.supportsInterface(interfaceId) */\n      swap3\n        /* \"@openzeppelin/contracts/access/AccessControl.sol\":2541:2743  function supportsInterface(bytes4 interfaceId) public view virtual override returns (bool) {... */\n      swap2\n      pop\n      pop\n      jump\t// out\n        /* \"contracts/TesseraFeeSplitter.sol\":2870:3014  function getBalance() ... */\n    tag_30:\n        /* \"contracts/TesseraFeeSplitter.sol\":2976:3006  token.balanceOf(address(this)) */\n      mload(0x40)\n      shl(0xe0, 0x70a08231)\n      dup2\n      mstore\n        /* \"contracts/TesseraFeeSplitter.sol\":3000:3004  this */\n      address\n        /* \"contracts/TesseraFeeSplitter.sol\":2976:3006  token.balanceOf(address(this)) */\n      0x04\n      dup3\n      add\n        /* \"#utility.yul\":1651:1702   */\n      mstore\n        /* \"contracts/TesseraFeeSplitter.sol\":2943:2950  uint256 */\n      0x00\n      swap1\n        /* \"contracts/TesseraFeeSplitter.sol\":2976:2981  token */\n      immutable(\"0x9c7f7615d84833acb0a59ed6785953f717f36f0e32d2021eb527b2025773fa79\")\n      sub(shl(0xa0, 0x01), 0x01)\n        /* \"contracts/TesseraFeeSplitter.sol\":2976:2991  token.balanceOf */\n      and\n      swap1\n      0x70a08231\n      swap1\n        /* \"#utility.yul\":1624:1642   */\n      0x24\n      add\n        /* \"contracts/TesseraFeeSplitter.sol\":2976:3006  token.balanceOf(address(this)) */\n      0x20\n      mload(0x40)\n      dup1\n      dup4\n      sub\n      dup2\n      dup7\n      gas\n      staticcall\n      iszero\n      dup1\n      iszero\n      tag_91\n      jumpi\n      returndatacopy(0x00, 0x00, returndatasize)\n      revert(0x00, returndatasize)\n    tag_91:\n      pop\n      pop\n      pop\n      pop\n      mload(0x40)\n      returndatasize\n      not(0x1f)\n      0x1f\n      dup3\n      add\n      and\n      dup3\n      add\n      dup1\n      0x40\n      mstore\n      pop\n      dup2\n      add\n      swap1\n      tag_92\n      swap2\n      swap1\n      tag_93\n      jump\t// in\n    tag_92:\n        /* \"contracts/TesseraFeeSplitter.sol\":2969:3006  return token.balanceOf(address(this)) */\n      swap1\n      pop\n        /* \"contracts/TesseraFeeSplitter.sol\":2870:3014  function getBalance() ... */\n      swap1\n      jump\t// out\n        /* \"@openzeppelin/contracts/access/AccessControl.sol\":4202:4338  function grantRole(bytes32 role, address account) public virtual onlyRole(getRoleAdmin(role)) {... */\n    tag_42:\n        /* \"@openzeppelin/contracts/access/AccessControl.sol\":3851:3858  bytes32 */\n      0x00\n        /* \"@openzeppelin/contracts/access/AccessControl.sol\":3877:3889  _roles[role] */\n      dup3\n      dup2\n      mstore\n      0x20\n      dup2\n      swap1\n      mstore\n      0x40\n      swap1\n      keccak256\n        /* \"@openzeppelin/contracts/access/AccessControl.sol\":3877:3899  _roles[role].adminRole */\n      0x01\n      add\n      sload\n        /* \"@openzeppelin/contracts/access/AccessControl.sol\":2473:2489  _checkRole(role) */\n      tag_97\n        /* \"@openzeppelin/contracts/access/AccessControl.sol\":2484:2488  role */\n      dup2\n        /* \"@openzeppelin/contracts/access/AccessControl.sol\":2473:2483  _checkRole */\n      tag_98\n        /* \"@openzeppelin/contracts/access/AccessControl.sol\":2473:2489  _checkRole(role) */\n      jump\t// in\n    tag_97:\n        /* \"@openzeppelin/contracts/access/AccessControl.sol\":4306:4331  _grantRole(role, account) */\n      tag_100\n        /* \"@openzeppelin/contracts/access/AccessControl.sol\":4317:4321  role */\n      dup4\n        /* \"@openzeppelin/contracts/access/AccessControl.sol\":4323:4330  account */\n      dup4\n        /* \"@openzeppelin/contracts/access/AccessControl.sol\":4306:4316  _grantRole */\n      tag_101\n        /* \"@openzeppelin/contracts/access/AccessControl.sol\":4306:4331  _grantRole(role, account) */\n      jump\t// in\n    tag_100:\n      pop\n        /* \"@openzeppelin/contracts/access/AccessControl.sol\":4202:4338  function grantRole(bytes32 role, address account) public virtual onlyRole(getRoleAdmin(role)) {... */\n      pop\n      pop\n      pop\n      jump\t// out\n        /* \"@openzeppelin/contracts/access/AccessControl.sol\":5304:5549  function renounceRole(bytes32 role, address callerConfirmation) public virtual {... */\n    tag_45:\n      sub(shl(0xa0, 0x01), 0x01)\n        /* \"@openzeppelin/contracts/access/AccessControl.sol\":5397:5431  callerConfirmation != _msgSender() */\n      dup2\n      and\n        /* \"@openzeppelin/contracts/utils/Context.sol\":735:745  msg.sender */\n      caller\n        /* \"@openzeppelin/contracts/access/AccessControl.sol\":5397:5431  callerConfirmation != _msgSender() */\n      eq\n        /* \"@openzeppelin/contracts/access/AccessControl.sol\":5393:5495  if (callerConfirmation != _msgSender()) {... */\n      tag_105\n      jumpi\n        /* \"@openzeppelin/contracts/access/AccessControl.sol\":5454:5484  AccessControlBadConfirmation() */\n      mload(0x40)\n      shl(0xe1, 0x334bd919)\n      dup2\n      mstore\n      0x04\n      add\n      mload(0x40)\n      dup1\n      swap2\n      sub\n      swap1\n      revert\n        /* \"@openzeppelin/contracts/access/AccessControl.sol\":5393:5495  if (callerConfirmation != _msgSender()) {... */\n    tag_105:\n        /* \"@openzeppelin/contracts/access/AccessControl.sol\":5505:5542  _revokeRole(role, callerConfirmation) */\n      tag_106\n        /* \"@openzeppelin/contracts/access/AccessControl.sol\":5517:5521  role */\n      dup3\n        /* \"@openzeppelin/contracts/access/AccessControl.sol\":5523:5541  callerConfirmation */\n      dup3\n        /* \"@openzeppelin/contracts/access/AccessControl.sol\":5505:5516  _revokeRole */\n      tag_107\n        /* \"@openzeppelin/contracts/access/AccessControl.sol\":5505:5542  _revokeRole(role, callerConfirmation) */\n      jump\t// in\n    tag_106:\n      pop\n        /* \"@openzeppelin/contracts/access/AccessControl.sol\":5304:5549  function renounceRole(bytes32 role, address callerConfirmation) public virtual {... */\n      pop\n      pop\n      jump\t// out\n        /* \"@openzeppelin/contracts/access/AccessControl.sol\":2830:2966  function hasRole(bytes32 role, address account) public view virtual returns (bool) {... */\n    tag_52:\n        /* \"@openzeppelin/contracts/access/AccessControl.sol\":2907:2911  bool */\n      0x00\n        /* \"@openzeppelin/contracts/access/AccessControl.sol\":2930:2942  _roles[role] */\n      swap2\n      dup3\n      mstore\n      0x20\n      dup3\n      dup2\n      mstore\n      0x40\n      dup1\n      dup5\n      keccak256\n      sub(shl(0xa0, 0x01), 0x01)\n        /* \"@openzeppelin/contracts/access/AccessControl.sol\":2930:2959  _roles[role].hasRole[account] */\n      swap4\n      swap1\n      swap4\n      and\n      dup5\n      mstore\n      swap2\n      swap1\n      mstore\n      swap1\n      keccak256\n      sload\n      0xff\n      and\n      swap1\n        /* \"@openzeppelin/contracts/access/AccessControl.sol\":2830:2966  function hasRole(bytes32 role, address account) public view virtual returns (bool) {... */\n      jump\t// out\n        /* \"@openzeppelin/contracts/access/AccessControl.sol\":4618:4756  function revokeRole(bytes32 role, address account) public virtual onlyRole(getRoleAdmin(role)) {... */\n    tag_66:\n        /* \"@openzeppelin/contracts/access/AccessControl.sol\":3851:3858  bytes32 */\n      0x00\n        /* \"@openzeppelin/contracts/access/AccessControl.sol\":3877:3889  _roles[role] */\n      dup3\n      dup2\n      mstore\n      0x20\n      dup2\n      swap1\n      mstore\n      0x40\n      swap1\n      keccak256\n        /* \"@openzeppelin/contracts/access/AccessControl.sol\":3877:3899  _roles[role].adminRole */\n      0x01\n      add\n      sload\n        /* \"@openzeppelin/contracts/access/AccessControl.sol\":2473:2489  _checkRole(role) */\n      tag_111\n        /* \"@openzeppelin/contracts/access/AccessControl.sol\":2484:2488  role */\n      dup2\n        /* \"@openzeppelin/contracts/access/AccessControl.sol\":2473:2483  _checkRole */\n      tag_98\n        /* \"@openzeppelin/contracts/access/AccessControl.sol\":2473:2489  _checkRole(role) */\n      jump\t// in\n    tag_111:\n        /* \"@openzeppelin/contracts/access/AccessControl.sol\":4723:4749  _revokeRole(role, account) */\n      tag_100\n        /* \"@openzeppelin/contracts/access/AccessControl.sol\":4735:4739  role */\n      dup4\n        /* \"@openzeppelin/contracts/access/AccessControl.sol\":4741:4748  account */\n      dup4\n        /* \"@openzeppelin/contracts/access/AccessControl.sol\":4723:4734  _revokeRole */\n      tag_107\n        /* \"@openzeppelin/contracts/access/AccessControl.sol\":4723:4749  _revokeRole(role, account) */\n      jump\t// in\n        /* \"contracts/TesseraFeeSplitter.sol\":2466:2803  function emergencyWithdraw()... */\n    tag_68:\n        /* \"@openzeppelin/contracts/access/AccessControl.sol\":2241:2245  0x00 */\n      0x00\n        /* \"@openzeppelin/contracts/access/AccessControl.sol\":2473:2489  _checkRole(role) */\n      tag_115\n        /* \"@openzeppelin/contracts/access/AccessControl.sol\":2241:2245  0x00 */\n      dup2\n        /* \"@openzeppelin/contracts/access/AccessControl.sol\":2473:2483  _checkRole */\n      tag_98\n        /* \"@openzeppelin/contracts/access/AccessControl.sol\":2473:2489  _checkRole(role) */\n      jump\t// in\n    tag_115:\n        /* \"@openzeppelin/contracts/security/ReentrancyGuard.sol\":2261:2282  _nonReentrantBefore() */\n      tag_117\n        /* \"@openzeppelin/contracts/security/ReentrancyGuard.sol\":2261:2280  _nonReentrantBefore */\n      tag_118\n        /* \"@openzeppelin/contracts/security/ReentrancyGuard.sol\":2261:2282  _nonReentrantBefore() */\n      jump\t// in\n    tag_117:\n        /* \"contracts/TesseraFeeSplitter.sol\":2603:2633  token.balanceOf(address(this)) */\n      mload(0x40)\n      shl(0xe0, 0x70a08231)\n      dup2\n      mstore\n        /* \"contracts/TesseraFeeSplitter.sol\":2627:2631  this */\n      address\n        /* \"contracts/TesseraFeeSplitter.sol\":2603:2633  token.balanceOf(address(this)) */\n      0x04\n      dup3\n      add\n        /* \"#utility.yul\":1651:1702   */\n      mstore\n        /* \"contracts/TesseraFeeSplitter.sol\":2589:2600  uint256 bal */\n      0x00\n      swap1\n        /* \"contracts/TesseraFeeSplitter.sol\":2603:2608  token */\n      immutable(\"0x9c7f7615d84833acb0a59ed6785953f717f36f0e32d2021eb527b2025773fa79\")\n      sub(shl(0xa0, 0x01), 0x01)\n        /* \"contracts/TesseraFeeSplitter.sol\":2603:2618  token.balanceOf */\n      and\n      swap1\n      0x70a08231\n      swap1\n        /* \"#utility.yul\":1624:1642   */\n      0x24\n      add\n        /* \"contracts/TesseraFeeSplitter.sol\":2603:2633  token.balanceOf(address(this)) */\n      0x20\n      mload(0x40)\n      dup1\n      dup4\n      sub\n      dup2\n      dup7\n      gas\n      staticcall\n      iszero\n      dup1\n      iszero\n      tag_122\n      jumpi\n      returndatacopy(0x00, 0x00, returndatasize)\n      revert(0x00, returndatasize)\n    tag_122:\n      pop\n      pop\n      pop\n      pop\n      mload(0x40)\n      returndatasize\n      not(0x1f)\n      0x1f\n      dup3\n      add\n      and\n      dup3\n      add\n      dup1\n      0x40\n      mstore\n      pop\n      dup2\n      add\n      swap1\n      tag_123\n      swap2\n      swap1\n      tag_93\n      jump\t// in\n    tag_123:\n        /* \"contracts/TesseraFeeSplitter.sol\":2589:2633  uint256 bal = token.balanceOf(address(this)) */\n      swap1\n      pop\n        /* \"contracts/TesseraFeeSplitter.sol\":2658:2659  0 */\n      0x00\n        /* \"contracts/TesseraFeeSplitter.sol\":2652:2655  bal */\n      dup2\n        /* \"contracts/TesseraFeeSplitter.sol\":2652:2659  bal > 0 */\n      gt\n        /* \"contracts/TesseraFeeSplitter.sol\":2644:2673  require(bal > 0, \"no tokens\") */\n      tag_124\n      jumpi\n      mload(0x40)\n      shl(0xe5, 0x461bcd)\n      dup2\n      mstore\n        /* \"#utility.yul\":2519:2521   */\n      0x20\n        /* \"contracts/TesseraFeeSplitter.sol\":2644:2673  require(bal > 0, \"no tokens\") */\n      0x04\n      dup3\n      add\n        /* \"#utility.yul\":2501:2522   */\n      mstore\n        /* \"#utility.yul\":2558:2559   */\n      0x09\n        /* \"#utility.yul\":2538:2556   */\n      0x24\n      dup3\n      add\n        /* \"#utility.yul\":2531:2560   */\n      mstore\n      shl(0xb8, 0x6e6f20746f6b656e73)\n        /* \"#utility.yul\":2576:2594   */\n      0x44\n      dup3\n      add\n        /* \"#utility.yul\":2569:2608   */\n      mstore\n        /* \"#utility.yul\":2625:2643   */\n      0x64\n      add\n        /* \"contracts/TesseraFeeSplitter.sol\":2644:2673  require(bal > 0, \"no tokens\") */\n    tag_125:\n      mload(0x40)\n      dup1\n      swap2\n      sub\n      swap1\n      revert\n    tag_124:\n        /* \"contracts/TesseraFeeSplitter.sol\":2694:2725  token.transfer(msg.sender, bal) */\n      mload(0x40)\n      shl(0xe0, 0xa9059cbb)\n      dup2\n      mstore\n        /* \"contracts/TesseraFeeSplitter.sol\":2709:2719  msg.sender */\n      caller\n        /* \"contracts/TesseraFeeSplitter.sol\":2694:2725  token.transfer(msg.sender, bal) */\n      0x04\n      dup3\n      add\n        /* \"#utility.yul\":2828:2879   */\n      mstore\n        /* \"#utility.yul\":2895:2913   */\n      0x24\n      dup2\n      add\n        /* \"#utility.yul\":2888:2922   */\n      dup3\n      swap1\n      mstore\n        /* \"contracts/TesseraFeeSplitter.sol\":2694:2699  token */\n      immutable(\"0x9c7f7615d84833acb0a59ed6785953f717f36f0e32d2021eb527b2025773fa79\")\n      sub(shl(0xa0, 0x01), 0x01)\n        /* \"contracts/TesseraFeeSplitter.sol\":2694:2708  token.transfer */\n      and\n      swap1\n      0xa9059cbb\n      swap1\n        /* \"#utility.yul\":2801:2819   */\n      0x44\n      add\n        /* \"contracts/TesseraFeeSplitter.sol\":2694:2725  token.transfer(msg.sender, bal) */\n      0x20\n      mload(0x40)\n      dup1\n      dup4\n      sub\n      dup2\n      0x00\n      dup8\n      gas\n      call\n      iszero\n      dup1\n      iszero\n      tag_130\n      jumpi\n      returndatacopy(0x00, 0x00, returndatasize)\n      revert(0x00, returndatasize)\n    tag_130:\n      pop\n      pop\n      pop\n      pop\n      mload(0x40)\n      returndatasize\n      not(0x1f)\n      0x1f\n      dup3\n      add\n      and\n      dup3\n      add\n      dup1\n      0x40\n      mstore\n      pop\n      dup2\n      add\n      swap1\n      tag_131\n      swap2\n      swap1\n      tag_132\n      jump\t// in\n    tag_131:\n        /* \"contracts/TesseraFeeSplitter.sol\":2686:2743  require(token.transfer(msg.sender, bal), \"withdraw fail\") */\n      tag_133\n      jumpi\n      mload(0x40)\n      shl(0xe5, 0x461bcd)\n      dup2\n      mstore\n        /* \"#utility.yul\":3417:3419   */\n      0x20\n        /* \"contracts/TesseraFeeSplitter.sol\":2686:2743  require(token.transfer(msg.sender, bal), \"withdraw fail\") */\n      0x04\n      dup3\n      add\n        /* \"#utility.yul\":3399:3420   */\n      mstore\n        /* \"#utility.yul\":3456:3458   */\n      0x0d\n        /* \"#utility.yul\":3436:3454   */\n      0x24\n      dup3\n      add\n        /* \"#utility.yul\":3429:3459   */\n      mstore\n      shl(0x9a, 0x1dda5d1a191c985dc819985a5b)\n        /* \"#utility.yul\":3475:3493   */\n      0x44\n      dup3\n      add\n        /* \"#utility.yul\":3468:3511   */\n      mstore\n        /* \"#utility.yul\":3528:3546   */\n      0x64\n      add\n        /* \"contracts/TesseraFeeSplitter.sol\":2686:2743  require(token.transfer(msg.sender, bal), \"withdraw fail\") */\n      tag_125\n        /* \"#utility.yul\":3215:3552   */\n      jump\n        /* \"contracts/TesseraFeeSplitter.sol\":2686:2743  require(token.transfer(msg.sender, bal), \"withdraw fail\") */\n    tag_133:\n        /* \"contracts/TesseraFeeSplitter.sol\":2761:2795  EmergencyWithdraw(msg.sender, bal) */\n      0x40\n      dup1\n      mload\n        /* \"contracts/TesseraFeeSplitter.sol\":2779:2789  msg.sender */\n      caller\n        /* \"#utility.yul\":2828:2879   */\n      dup2\n      mstore\n        /* \"#utility.yul\":2910:2912   */\n      0x20\n        /* \"#utility.yul\":2895:2913   */\n      dup2\n      add\n        /* \"#utility.yul\":2888:2922   */\n      dup4\n      swap1\n      mstore\n        /* \"contracts/TesseraFeeSplitter.sol\":2761:2795  EmergencyWithdraw(msg.sender, bal) */\n      0x5fafa99d0643513820be26656b45130b01e1c03062e1266bf36f88cbd3bd9695\n      swap2\n        /* \"#utility.yul\":2801:2819   */\n      add\n        /* \"contracts/TesseraFeeSplitter.sol\":2761:2795  EmergencyWithdraw(msg.sender, bal) */\n      mload(0x40)\n      dup1\n      swap2\n      sub\n      swap1\n      log1\n        /* \"contracts/TesseraFeeSplitter.sol\":2578:2803  {... */\n      pop\n        /* \"@openzeppelin/contracts/security/ReentrancyGuard.sol\":2303:2323  _nonReentrantAfter() */\n      tag_137\n        /* \"@openzeppelin/contracts/security/ReentrancyGuard.sol\":1716:1717  1 */\n      0x01\n        /* \"@openzeppelin/contracts/security/ReentrancyGuard.sol\":2809:2831  _status = _NOT_ENTERED */\n      dup1\n      sstore\n        /* \"@openzeppelin/contracts/security/ReentrancyGuard.sol\":2629:2838  function _nonReentrantAfter() private {... */\n      jump\n        /* \"@openzeppelin/contracts/security/ReentrancyGuard.sol\":2303:2323  _nonReentrantAfter() */\n    tag_137:\n        /* \"contracts/TesseraFeeSplitter.sol\":2466:2803  function emergencyWithdraw()... */\n      pop\n      jump\t// out\n        /* \"contracts/TesseraFeeSplitter.sol\":1879:2395  function distribute() ... */\n    tag_70:\n        /* \"@openzeppelin/contracts/security/ReentrancyGuard.sol\":2261:2282  _nonReentrantBefore() */\n      tag_140\n        /* \"@openzeppelin/contracts/security/ReentrancyGuard.sol\":2261:2280  _nonReentrantBefore */\n      tag_118\n        /* \"@openzeppelin/contracts/security/ReentrancyGuard.sol\":2261:2282  _nonReentrantBefore() */\n      jump\t// in\n    tag_140:\n        /* \"contracts/TesseraFeeSplitter.sol\":425:451  keccak256(\"SPLITTER_ROLE\") */\n      0xebea61bac29e76544ef1875472aaff98e28d2db11686c8cbef6c2b35dbe32407\n        /* \"@openzeppelin/contracts/access/AccessControl.sol\":2473:2489  _checkRole(role) */\n      tag_142\n        /* \"@openzeppelin/contracts/access/AccessControl.sol\":2484:2488  role */\n      dup2\n        /* \"@openzeppelin/contracts/access/AccessControl.sol\":2473:2483  _checkRole */\n      tag_98\n        /* \"@openzeppelin/contracts/access/AccessControl.sol\":2473:2489  _checkRole(role) */\n      jump\t// in\n    tag_142:\n        /* \"contracts/TesseraFeeSplitter.sol\":2004:2034  token.balanceOf(address(this)) */\n      mload(0x40)\n      shl(0xe0, 0x70a08231)\n      dup2\n      mstore\n        /* \"contracts/TesseraFeeSplitter.sol\":2028:2032  this */\n      address\n        /* \"contracts/TesseraFeeSplitter.sol\":2004:2034  token.balanceOf(address(this)) */\n      0x04\n      dup3\n      add\n        /* \"#utility.yul\":1651:1702   */\n      mstore\n        /* \"contracts/TesseraFeeSplitter.sol\":1990:2001  uint256 bal */\n      0x00\n      swap1\n        /* \"contracts/TesseraFeeSplitter.sol\":2004:2009  token */\n      immutable(\"0x9c7f7615d84833acb0a59ed6785953f717f36f0e32d2021eb527b2025773fa79\")\n      sub(shl(0xa0, 0x01), 0x01)\n        /* \"contracts/TesseraFeeSplitter.sol\":2004:2019  token.balanceOf */\n      and\n      swap1\n      0x70a08231\n      swap1\n        /* \"#utility.yul\":1624:1642   */\n      0x24\n      add\n        /* \"contracts/TesseraFeeSplitter.sol\":2004:2034  token.balanceOf(address(this)) */\n      0x20\n      mload(0x40)\n      dup1\n      dup4\n      sub\n      dup2\n      dup7\n      gas\n      staticcall\n      iszero\n      dup1\n      iszero\n      tag_146\n      jumpi\n      returndatacopy(0x00, 0x00, returndatasize)\n      revert(0x00, returndatasize)\n    tag_146:\n      pop\n      pop\n      pop\n      pop\n      mload(0x40)\n      returndatasize\n      not(0x1f)\n      0x1f\n      dup3\n      add\n      and\n      dup3\n      add\n      dup1\n      0x40\n      mstore\n      pop\n      dup2\n      add\n      swap1\n      tag_147\n      swap2\n      swap1\n      tag_93\n      jump\t// in\n    tag_147:\n        /* \"contracts/TesseraFeeSplitter.sol\":1990:2034  uint256 bal = token.balanceOf(address(this)) */\n      swap1\n      pop\n        /* \"contracts/TesseraFeeSplitter.sol\":2059:2060  0 */\n      0x00\n        /* \"contracts/TesseraFeeSplitter.sol\":2053:2056  bal */\n      dup2\n        /* \"contracts/TesseraFeeSplitter.sol\":2053:2060  bal > 0 */\n      gt\n        /* \"contracts/TesseraFeeSplitter.sol\":2045:2074  require(bal > 0, \"no tokens\") */\n      tag_148\n      jumpi\n      mload(0x40)\n      shl(0xe5, 0x461bcd)\n      dup2\n      mstore\n        /* \"#utility.yul\":2519:2521   */\n      0x20\n        /* \"contracts/TesseraFeeSplitter.sol\":2045:2074  require(bal > 0, \"no tokens\") */\n      0x04\n      dup3\n      add\n        /* \"#utility.yul\":2501:2522   */\n      mstore\n        /* \"#utility.yul\":2558:2559   */\n      0x09\n        /* \"#utility.yul\":2538:2556   */\n      0x24\n      dup3\n      add\n        /* \"#utility.yul\":2531:2560   */\n      mstore\n      shl(0xb8, 0x6e6f20746f6b656e73)\n        /* \"#utility.yul\":2576:2594   */\n      0x44\n      dup3\n      add\n        /* \"#utility.yul\":2569:2608   */\n      mstore\n        /* \"#utility.yul\":2625:2643   */\n      0x64\n      add\n        /* \"contracts/TesseraFeeSplitter.sol\":2045:2074  require(bal > 0, \"no tokens\") */\n      tag_125\n        /* \"#utility.yul\":2317:2649   */\n      jump\n        /* \"contracts/TesseraFeeSplitter.sol\":2045:2074  require(bal > 0, \"no tokens\") */\n    tag_148:\n        /* \"contracts/TesseraFeeSplitter.sol\":2119:2131  publisherBps */\n      sload(0x03)\n        /* \"contracts/TesseraFeeSplitter.sol\":2087:2109  uint256 publisherShare */\n      0x00\n      swap1\n        /* \"contracts/TesseraFeeSplitter.sol\":2135:2140  10000 */\n      0x2710\n      swap1\n        /* \"contracts/TesseraFeeSplitter.sol\":2113:2131  bal * publisherBps */\n      tag_150\n      swap1\n      shl(0xa0, 0x01)\n        /* \"contracts/TesseraFeeSplitter.sol\":2119:2131  publisherBps */\n      swap1\n      div\n      0xffff\n      and\n        /* \"contracts/TesseraFeeSplitter.sol\":2113:2116  bal */\n      dup5\n        /* \"contracts/TesseraFeeSplitter.sol\":2113:2131  bal * publisherBps */\n      tag_151\n      jump\t// in\n    tag_150:\n        /* \"contracts/TesseraFeeSplitter.sol\":2112:2140  (bal * publisherBps) / 10000 */\n      tag_152\n      swap2\n      swap1\n      tag_153\n      jump\t// in\n    tag_152:\n        /* \"contracts/TesseraFeeSplitter.sol\":2087:2140  uint256 publisherShare = (bal * publisherBps) / 10000 */\n      swap1\n      pop\n        /* \"contracts/TesseraFeeSplitter.sol\":2151:2167  uint256 devShare */\n      0x00\n        /* \"contracts/TesseraFeeSplitter.sol\":2170:2190  bal - publisherShare */\n      tag_154\n        /* \"contracts/TesseraFeeSplitter.sol\":2087:2140  uint256 publisherShare = (bal * publisherBps) / 10000 */\n      dup3\n        /* \"contracts/TesseraFeeSplitter.sol\":2170:2173  bal */\n      dup5\n        /* \"contracts/TesseraFeeSplitter.sol\":2170:2190  bal - publisherShare */\n      tag_155\n      jump\t// in\n    tag_154:\n        /* \"contracts/TesseraFeeSplitter.sol\":2226:2235  publisher */\n      sload(0x02)\n        /* \"contracts/TesseraFeeSplitter.sol\":2211:2252  token.transfer(publisher, publisherShare) */\n      mload(0x40)\n      shl(0xe0, 0xa9059cbb)\n      dup2\n      mstore\n      sub(shl(0xa0, 0x01), 0x01)\n        /* \"contracts/TesseraFeeSplitter.sol\":2226:2235  publisher */\n      swap2\n      dup3\n      and\n        /* \"contracts/TesseraFeeSplitter.sol\":2211:2252  token.transfer(publisher, publisherShare) */\n      0x04\n      dup3\n      add\n        /* \"#utility.yul\":2828:2879   */\n      mstore\n        /* \"#utility.yul\":2895:2913   */\n      0x24\n      dup2\n      add\n        /* \"#utility.yul\":2888:2922   */\n      dup6\n      swap1\n      mstore\n        /* \"contracts/TesseraFeeSplitter.sol\":2151:2190  uint256 devShare = bal - publisherShare */\n      swap2\n      swap3\n      pop\n        /* \"contracts/TesseraFeeSplitter.sol\":2211:2216  token */\n      immutable(\"0x9c7f7615d84833acb0a59ed6785953f717f36f0e32d2021eb527b2025773fa79\")\n        /* \"contracts/TesseraFeeSplitter.sol\":2211:2225  token.transfer */\n      and\n      swap1\n      0xa9059cbb\n      swap1\n        /* \"#utility.yul\":2801:2819   */\n      0x44\n      add\n        /* \"contracts/TesseraFeeSplitter.sol\":2211:2252  token.transfer(publisher, publisherShare) */\n      0x20\n      mload(0x40)\n      dup1\n      dup4\n      sub\n      dup2\n      0x00\n      dup8\n      gas\n      call\n      iszero\n      dup1\n      iszero\n      tag_158\n      jumpi\n      returndatacopy(0x00, 0x00, returndatasize)\n      revert(0x00, returndatasize)\n    tag_158:\n      pop\n      pop\n      pop\n      pop\n      mload(0x40)\n      returndatasize\n      not(0x1f)\n      0x1f\n      dup3\n      add\n      and\n      dup3\n      add\n      dup1\n      0x40\n      mstore\n      pop\n      dup2\n      add\n      swap1\n      tag_159\n      swap2\n      swap1\n      tag_132\n      jump\t// in\n    tag_159:\n        /* \"contracts/TesseraFeeSplitter.sol\":2203:2265  require(token.transfer(publisher, publisherShare), \"pub fail\") */\n      tag_160\n      jumpi\n      mload(0x40)\n      shl(0xe5, 0x461bcd)\n      dup2\n      mstore\n        /* \"#utility.yul\":4419:4421   */\n      0x20\n        /* \"contracts/TesseraFeeSplitter.sol\":2203:2265  require(token.transfer(publisher, publisherShare), \"pub fail\") */\n      0x04\n      dup3\n      add\n        /* \"#utility.yul\":4401:4422   */\n      mstore\n        /* \"#utility.yul\":4458:4459   */\n      0x08\n        /* \"#utility.yul\":4438:4456   */\n      0x24\n      dup3\n      add\n        /* \"#utility.yul\":4431:4460   */\n      mstore\n      shl(0xc2, 0x1c1d588819985a5b)\n        /* \"#utility.yul\":4476:4494   */\n      0x44\n      dup3\n      add\n        /* \"#utility.yul\":4469:4507   */\n      mstore\n        /* \"#utility.yul\":4524:4542   */\n      0x64\n      add\n        /* \"contracts/TesseraFeeSplitter.sol\":2203:2265  require(token.transfer(publisher, publisherShare), \"pub fail\") */\n      tag_125\n        /* \"#utility.yul\":4217:4548   */\n      jump\n        /* \"contracts/TesseraFeeSplitter.sol\":2203:2265  require(token.transfer(publisher, publisherShare), \"pub fail\") */\n    tag_160:\n        /* \"contracts/TesseraFeeSplitter.sol\":2299:2303  devs */\n      sload(0x03)\n        /* \"contracts/TesseraFeeSplitter.sol\":2284:2314  token.transfer(devs, devShare) */\n      mload(0x40)\n      shl(0xe0, 0xa9059cbb)\n      dup2\n      mstore\n      sub(shl(0xa0, 0x01), 0x01)\n        /* \"contracts/TesseraFeeSplitter.sol\":2299:2303  devs */\n      swap2\n      dup3\n      and\n        /* \"contracts/TesseraFeeSplitter.sol\":2284:2314  token.transfer(devs, devShare) */\n      0x04\n      dup3\n      add\n        /* \"#utility.yul\":2828:2879   */\n      mstore\n        /* \"#utility.yul\":2895:2913   */\n      0x24\n      dup2\n      add\n        /* \"#utility.yul\":2888:2922   */\n      dup4\n      swap1\n      mstore\n        /* \"contracts/TesseraFeeSplitter.sol\":2284:2289  token */\n      immutable(\"0x9c7f7615d84833acb0a59ed6785953f717f36f0e32d2021eb527b2025773fa79\")\n        /* \"contracts/TesseraFeeSplitter.sol\":2284:2298  token.transfer */\n      swap1\n      swap2\n      and\n      swap1\n      0xa9059cbb\n      swap1\n        /* \"#utility.yul\":2801:2819   */\n      0x44\n      add\n        /* \"contracts/TesseraFeeSplitter.sol\":2284:2314  token.transfer(devs, devShare) */\n      0x20\n      mload(0x40)\n      dup1\n      dup4\n      sub\n      dup2\n      0x00\n      dup8\n      gas\n      call\n      iszero\n      dup1\n      iszero\n      tag_165\n      jumpi\n      returndatacopy(0x00, 0x00, returndatasize)\n      revert(0x00, returndatasize)\n    tag_165:\n      pop\n      pop\n      pop\n      pop\n      mload(0x40)\n      returndatasize\n      not(0x1f)\n      0x1f\n      dup3\n      add\n      and\n      dup3\n      add\n      dup1\n      0x40\n      mstore\n      pop\n      dup2\n      add\n      swap1\n      tag_166\n      swap2\n      swap1\n      tag_132\n      jump\t// in\n    tag_166:\n        /* \"contracts/TesseraFeeSplitter.sol\":2276:2327  require(token.transfer(devs, devShare), \"dev fail\") */\n      tag_167\n      jumpi\n      mload(0x40)\n      shl(0xe5, 0x461bcd)\n      dup2\n      mstore\n        /* \"#utility.yul\":4755:4757   */\n      0x20\n        /* \"contracts/TesseraFeeSplitter.sol\":2276:2327  require(token.transfer(devs, devShare), \"dev fail\") */\n      0x04\n      dup3\n      add\n        /* \"#utility.yul\":4737:4758   */\n      mstore\n        /* \"#utility.yul\":4794:4795   */\n      0x08\n        /* \"#utility.yul\":4774:4792   */\n      0x24\n      dup3\n      add\n        /* \"#utility.yul\":4767:4796   */\n      mstore\n      shl(0xc2, 0x19195d8819985a5b)\n        /* \"#utility.yul\":4812:4830   */\n      0x44\n      dup3\n      add\n        /* \"#utility.yul\":4805:4843   */\n      mstore\n        /* \"#utility.yul\":4860:4878   */\n      0x64\n      add\n        /* \"contracts/TesseraFeeSplitter.sol\":2276:2327  require(token.transfer(devs, devShare), \"dev fail\") */\n      tag_125\n        /* \"#utility.yul\":4553:4884   */\n      jump\n        /* \"contracts/TesseraFeeSplitter.sol\":2276:2327  require(token.transfer(devs, devShare), \"dev fail\") */\n    tag_167:\n        /* \"contracts/TesseraFeeSplitter.sol\":2345:2387  Distributed(bal, publisherShare, devShare) */\n      0x40\n      dup1\n      mload\n        /* \"#utility.yul\":5091:5116   */\n      dup5\n      dup2\n      mstore\n        /* \"#utility.yul\":5147:5149   */\n      0x20\n        /* \"#utility.yul\":5132:5150   */\n      dup2\n      add\n        /* \"#utility.yul\":5125:5159   */\n      dup5\n      swap1\n      mstore\n        /* \"#utility.yul\":5175:5193   */\n      swap1\n      dup2\n      add\n        /* \"#utility.yul\":5168:5202   */\n      dup3\n      swap1\n      mstore\n        /* \"contracts/TesseraFeeSplitter.sol\":2345:2387  Distributed(bal, publisherShare, devShare) */\n      0xc5d35a65af09b3042394b742529d10f7fbf9a37294d6b13e4d63d06f9909a15b\n      swap1\n        /* \"#utility.yul\":5079:5081   */\n      0x60\n        /* \"#utility.yul\":5064:5082   */\n      add\n        /* \"contracts/TesseraFeeSplitter.sol\":2345:2387  Distributed(bal, publisherShare, devShare) */\n      mload(0x40)\n      dup1\n      swap2\n      sub\n      swap1\n      log1\n        /* \"contracts/TesseraFeeSplitter.sol\":1979:2395  {... */\n      pop\n      pop\n      pop\n        /* \"@openzeppelin/contracts/security/ReentrancyGuard.sol\":2292:2293  _ */\n      pop\n        /* \"@openzeppelin/contracts/security/ReentrancyGuard.sol\":2303:2323  _nonReentrantAfter() */\n      tag_172\n        /* \"@openzeppelin/contracts/security/ReentrancyGuard.sol\":1716:1717  1 */\n      0x01\n        /* \"@openzeppelin/contracts/security/ReentrancyGuard.sol\":2809:2831  _status = _NOT_ENTERED */\n      dup1\n      sstore\n        /* \"@openzeppelin/contracts/security/ReentrancyGuard.sol\":2629:2838  function _nonReentrantAfter() private {... */\n      jump\n        /* \"@openzeppelin/contracts/security/ReentrancyGuard.sol\":2303:2323  _nonReentrantAfter() */\n    tag_172:\n        /* \"contracts/TesseraFeeSplitter.sol\":1879:2395  function distribute() ... */\n      jump\t// out\n        /* \"@openzeppelin/contracts/access/AccessControl.sol\":3175:3278  function _checkRole(bytes32 role) internal view virtual {... */\n    tag_98:\n        /* \"@openzeppelin/contracts/access/AccessControl.sol\":3241:3271  _checkRole(role, _msgSender()) */\n      tag_137\n        /* \"@openzeppelin/contracts/access/AccessControl.sol\":3252:3256  role */\n      dup2\n        /* \"@openzeppelin/contracts/utils/Context.sol\":735:745  msg.sender */\n      caller\n        /* \"@openzeppelin/contracts/access/AccessControl.sol\":3241:3251  _checkRole */\n      tag_177\n        /* \"@openzeppelin/contracts/access/AccessControl.sol\":3241:3271  _checkRole(role, _msgSender()) */\n      jump\t// in\n        /* \"@openzeppelin/contracts/access/AccessControl.sol\":6155:6471  function _grantRole(bytes32 role, address account) internal virtual returns (bool) {... */\n    tag_101:\n        /* \"@openzeppelin/contracts/access/AccessControl.sol\":6232:6236  bool */\n      0x00\n        /* \"@openzeppelin/contracts/access/AccessControl.sol\":6253:6275  hasRole(role, account) */\n      tag_179\n        /* \"@openzeppelin/contracts/access/AccessControl.sol\":6261:6265  role */\n      dup4\n        /* \"@openzeppelin/contracts/access/AccessControl.sol\":6267:6274  account */\n      dup4\n        /* \"@openzeppelin/contracts/access/AccessControl.sol\":6253:6260  hasRole */\n      tag_52\n        /* \"@openzeppelin/contracts/access/AccessControl.sol\":6253:6275  hasRole(role, account) */\n      jump\t// in\n    tag_179:\n        /* \"@openzeppelin/contracts/access/AccessControl.sol\":6248:6465  if (!hasRole(role, account)) {... */\n      tag_180\n      jumpi\n        /* \"@openzeppelin/contracts/access/AccessControl.sol\":6291:6297  _roles */\n      0x00\n        /* \"@openzeppelin/contracts/access/AccessControl.sol\":6291:6303  _roles[role] */\n      dup4\n      dup2\n      mstore\n      0x20\n      dup2\n      dup2\n      mstore\n      0x40\n      dup1\n      dup4\n      keccak256\n      sub(shl(0xa0, 0x01), 0x01)\n        /* \"@openzeppelin/contracts/access/AccessControl.sol\":6291:6320  _roles[role].hasRole[account] */\n      dup7\n      and\n      dup5\n      mstore\n      swap1\n      swap2\n      mstore\n      swap1\n      keccak256\n        /* \"@openzeppelin/contracts/access/AccessControl.sol\":6291:6327  _roles[role].hasRole[account] = true */\n      dup1\n      sload\n      not(0xff)\n      and\n        /* \"@openzeppelin/contracts/access/AccessControl.sol\":6323:6327  true */\n      0x01\n        /* \"@openzeppelin/contracts/access/AccessControl.sol\":6291:6327  _roles[role].hasRole[account] = true */\n      or\n      swap1\n      sstore\n        /* \"@openzeppelin/contracts/access/AccessControl.sol\":6373:6385  _msgSender() */\n      tag_181\n        /* \"@openzeppelin/contracts/utils/Context.sol\":735:745  msg.sender */\n      caller\n      swap1\n        /* \"@openzeppelin/contracts/utils/Context.sol\":656:752  function _msgSender() internal view virtual returns (address) {... */\n      jump\n        /* \"@openzeppelin/contracts/access/AccessControl.sol\":6373:6385  _msgSender() */\n    tag_181:\n      sub(shl(0xa0, 0x01), 0x01)\n        /* \"@openzeppelin/contracts/access/AccessControl.sol\":6346:6386  RoleGranted(role, account, _msgSender()) */\n      and\n        /* \"@openzeppelin/contracts/access/AccessControl.sol\":6364:6371  account */\n      dup3\n      sub(shl(0xa0, 0x01), 0x01)\n        /* \"@openzeppelin/contracts/access/AccessControl.sol\":6346:6386  RoleGranted(role, account, _msgSender()) */\n      and\n        /* \"@openzeppelin/contracts/access/AccessControl.sol\":6358:6362  role */\n      dup5\n        /* \"@openzeppelin/contracts/access/AccessControl.sol\":6346:6386  RoleGranted(role, account, _msgSender()) */\n      0x2f8788117e7eff1d82e926ec794901d17c78024a50270940304540a733656f0d\n      mload(0x40)\n      mload(0x40)\n      dup1\n      swap2\n      sub\n      swap1\n      log4\n      pop\n        /* \"@openzeppelin/contracts/access/AccessControl.sol\":6407:6411  true */\n      0x01\n        /* \"@openzeppelin/contracts/access/AccessControl.sol\":6400:6411  return true */\n      jump(tag_86)\n        /* \"@openzeppelin/contracts/access/AccessControl.sol\":6248:6465  if (!hasRole(role, account)) {... */\n    tag_180:\n      pop\n        /* \"@openzeppelin/contracts/access/AccessControl.sol\":6449:6454  false */\n      0x00\n        /* \"@openzeppelin/contracts/access/AccessControl.sol\":6442:6454  return false */\n      jump(tag_86)\n        /* \"@openzeppelin/contracts/access/AccessControl.sol\":6708:7025  function _revokeRole(bytes32 role, address account) internal virtual returns (bool) {... */\n    tag_107:\n        /* \"@openzeppelin/contracts/access/AccessControl.sol\":6786:6790  bool */\n      0x00\n        /* \"@openzeppelin/contracts/access/AccessControl.sol\":6806:6828  hasRole(role, account) */\n      tag_185\n        /* \"@openzeppelin/contracts/access/AccessControl.sol\":6814:6818  role */\n      dup4\n        /* \"@openzeppelin/contracts/access/AccessControl.sol\":6820:6827  account */\n      dup4\n        /* \"@openzeppelin/contracts/access/AccessControl.sol\":6806:6813  hasRole */\n      tag_52\n        /* \"@openzeppelin/contracts/access/AccessControl.sol\":6806:6828  hasRole(role, account) */\n      jump\t// in\n    tag_185:\n        /* \"@openzeppelin/contracts/access/AccessControl.sol\":6802:7019  if (hasRole(role, account)) {... */\n      iszero\n      tag_180\n      jumpi\n        /* \"@openzeppelin/contracts/access/AccessControl.sol\":6876:6881  false */\n      0x00\n        /* \"@openzeppelin/contracts/access/AccessControl.sol\":6844:6856  _roles[role] */\n      dup4\n      dup2\n      mstore\n      0x20\n      dup2\n      dup2\n      mstore\n      0x40\n      dup1\n      dup4\n      keccak256\n      sub(shl(0xa0, 0x01), 0x01)\n        /* \"@openzeppelin/contracts/access/AccessControl.sol\":6844:6873  _roles[role].hasRole[account] */\n      dup7\n      and\n      dup1\n      dup6\n      mstore\n      swap3\n      mstore\n      dup1\n      dup4\n      keccak256\n        /* \"@openzeppelin/contracts/access/AccessControl.sol\":6844:6881  _roles[role].hasRole[account] = false */\n      dup1\n      sload\n      not(0xff)\n      and\n      swap1\n      sstore\n        /* \"@openzeppelin/contracts/access/AccessControl.sol\":6900:6940  RoleRevoked(role, account, _msgSender()) */\n      mload\n        /* \"@openzeppelin/contracts/utils/Context.sol\":735:745  msg.sender */\n      caller\n      swap3\n        /* \"@openzeppelin/contracts/access/AccessControl.sol\":6844:6856  _roles[role] */\n      dup7\n      swap2\n        /* \"@openzeppelin/contracts/access/AccessControl.sol\":6900:6940  RoleRevoked(role, account, _msgSender()) */\n      0xf6391f5c32d9c69d2a47ea670b442974b53935d1edc7fd64eb21e047a839171b\n      swap2\n        /* \"@openzeppelin/contracts/access/AccessControl.sol\":6876:6881  false */\n      swap1\n        /* \"@openzeppelin/contracts/access/AccessControl.sol\":6900:6940  RoleRevoked(role, account, _msgSender()) */\n      log4\n      pop\n        /* \"@openzeppelin/contracts/access/AccessControl.sol\":6961:6965  true */\n      0x01\n        /* \"@openzeppelin/contracts/access/AccessControl.sol\":6954:6965  return true */\n      jump(tag_86)\n        /* \"@openzeppelin/contracts/security/ReentrancyGuard.sol\":2336:2623  function _nonReentrantBefore() private {... */\n    tag_118:\n        /* \"@openzeppelin/contracts/security/ReentrancyGuard.sol\":1759:1760  2 */\n      0x02\n        /* \"@openzeppelin/contracts/security/ReentrancyGuard.sol\":2468:2475  _status */\n      sload(0x01)\n        /* \"@openzeppelin/contracts/security/ReentrancyGuard.sol\":2468:2487  _status != _ENTERED */\n      sub\n        /* \"@openzeppelin/contracts/security/ReentrancyGuard.sol\":2460:2523  require(_status != _ENTERED, \"ReentrancyGuard: reentrant call\") */\n      tag_190\n      jumpi\n      mload(0x40)\n      shl(0xe5, 0x461bcd)\n      dup2\n      mstore\n        /* \"#utility.yul\":5415:5417   */\n      0x20\n        /* \"@openzeppelin/contracts/security/ReentrancyGuard.sol\":2460:2523  require(_status != _ENTERED, \"ReentrancyGuard: reentrant call\") */\n      0x04\n      dup3\n      add\n        /* \"#utility.yul\":5397:5418   */\n      mstore\n        /* \"#utility.yul\":5454:5456   */\n      0x1f\n        /* \"#utility.yul\":5434:5452   */\n      0x24\n      dup3\n      add\n        /* \"#utility.yul\":5427:5457   */\n      mstore\n        /* \"#utility.yul\":5493:5526   */\n      0x5265656e7472616e637947756172643a207265656e7472616e742063616c6c00\n        /* \"#utility.yul\":5473:5491   */\n      0x44\n      dup3\n      add\n        /* \"#utility.yul\":5466:5527   */\n      mstore\n        /* \"#utility.yul\":5544:5562   */\n      0x64\n      add\n        /* \"@openzeppelin/contracts/security/ReentrancyGuard.sol\":2460:2523  require(_status != _ENTERED, \"ReentrancyGuard: reentrant call\") */\n      tag_125\n        /* \"#utility.yul\":5213:5568   */\n      jump\n        /* \"@openzeppelin/contracts/security/ReentrancyGuard.sol\":2460:2523  require(_status != _ENTERED, \"ReentrancyGuard: reentrant call\") */\n    tag_190:\n        /* \"@openzeppelin/contracts/security/ReentrancyGuard.sol\":1759:1760  2 */\n      0x02\n        /* \"@openzeppelin/contracts/security/ReentrancyGuard.sol\":2598:2605  _status */\n      0x01\n        /* \"@openzeppelin/contracts/security/ReentrancyGuard.sol\":2598:2616  _status = _ENTERED */\n      sstore\n        /* \"@openzeppelin/contracts/security/ReentrancyGuard.sol\":2336:2623  function _nonReentrantBefore() private {... */\n      jump\t// out\n        /* \"@openzeppelin/contracts/access/AccessControl.sol\":3408:3605  function _checkRole(bytes32 role, address account) internal view virtual {... */\n    tag_177:\n        /* \"@openzeppelin/contracts/access/AccessControl.sol\":3496:3518  hasRole(role, account) */\n      tag_195\n        /* \"@openzeppelin/contracts/access/AccessControl.sol\":3504:3508  role */\n      dup3\n        /* \"@openzeppelin/contracts/access/AccessControl.sol\":3510:3517  account */\n      dup3\n        /* \"@openzeppelin/contracts/access/AccessControl.sol\":3496:3503  hasRole */\n      tag_52\n        /* \"@openzeppelin/contracts/access/AccessControl.sol\":3496:3518  hasRole(role, account) */\n      jump\t// in\n    tag_195:\n        /* \"@openzeppelin/contracts/access/AccessControl.sol\":3491:3599  if (!hasRole(role, account)) {... */\n      tag_196\n      jumpi\n        /* \"@openzeppelin/contracts/access/AccessControl.sol\":3541:3588  AccessControlUnauthorizedAccount(account, role) */\n      mload(0x40)\n      shl(0xe0, 0xe2517d3f)\n      dup2\n      mstore\n      sub(shl(0xa0, 0x01), 0x01)\n        /* \"#utility.yul\":2846:2878   */\n      dup3\n      and\n        /* \"@openzeppelin/contracts/access/AccessControl.sol\":3541:3588  AccessControlUnauthorizedAccount(account, role) */\n      0x04\n      dup3\n      add\n        /* \"#utility.yul\":2828:2879   */\n      mstore\n        /* \"#utility.yul\":2895:2913   */\n      0x24\n      dup2\n      add\n        /* \"#utility.yul\":2888:2922   */\n      dup4\n      swap1\n      mstore\n        /* \"#utility.yul\":2801:2819   */\n      0x44\n      add\n        /* \"@openzeppelin/contracts/access/AccessControl.sol\":3541:3588  AccessControlUnauthorizedAccount(account, role) */\n      tag_125\n        /* \"#utility.yul\":2654:2928   */\n      jump\n        /* \"@openzeppelin/contracts/access/AccessControl.sol\":3491:3599  if (!hasRole(role, account)) {... */\n    tag_196:\n        /* \"@openzeppelin/contracts/access/AccessControl.sol\":3408:3605  function _checkRole(bytes32 role, address account) internal view virtual {... */\n      pop\n      pop\n      jump\t// out\n        /* \"#utility.yul\":14:300   */\n    tag_25:\n        /* \"#utility.yul\":72:78   */\n      0x00\n        /* \"#utility.yul\":125:127   */\n      0x20\n        /* \"#utility.yul\":113:122   */\n      dup3\n        /* \"#utility.yul\":104:111   */\n      dup5\n        /* \"#utility.yul\":100:123   */\n      sub\n        /* \"#utility.yul\":96:128   */\n      slt\n        /* \"#utility.yul\":93:145   */\n      iszero\n      tag_202\n      jumpi\n        /* \"#utility.yul\":141:142   */\n      0x00\n        /* \"#utility.yul\":138:139   */\n      0x00\n        /* \"#utility.yul\":131:143   */\n      revert\n        /* \"#utility.yul\":93:145   */\n    tag_202:\n        /* \"#utility.yul\":167:190   */\n      dup2\n      calldataload\n      not(sub(shl(0xe0, 0x01), 0x01))\n        /* \"#utility.yul\":219:251   */\n      dup2\n      and\n        /* \"#utility.yul\":209:252   */\n      dup2\n      eq\n        /* \"#utility.yul\":199:270   */\n      tag_203\n      jumpi\n        /* \"#utility.yul\":266:267   */\n      0x00\n        /* \"#utility.yul\":263:264   */\n      0x00\n        /* \"#utility.yul\":256:268   */\n      revert\n        /* \"#utility.yul\":199:270   */\n    tag_203:\n        /* \"#utility.yul\":289:294   */\n      swap4\n        /* \"#utility.yul\":14:300   */\n      swap3\n      pop\n      pop\n      pop\n      jump\t// out\n        /* \"#utility.yul\":679:905   */\n    tag_35:\n        /* \"#utility.yul\":738:744   */\n      0x00\n        /* \"#utility.yul\":791:793   */\n      0x20\n        /* \"#utility.yul\":779:788   */\n      dup3\n        /* \"#utility.yul\":770:777   */\n      dup5\n        /* \"#utility.yul\":766:789   */\n      sub\n        /* \"#utility.yul\":762:794   */\n      slt\n        /* \"#utility.yul\":759:811   */\n      iszero\n      tag_207\n      jumpi\n        /* \"#utility.yul\":807:808   */\n      0x00\n        /* \"#utility.yul\":804:805   */\n      0x00\n        /* \"#utility.yul\":797:809   */\n      revert\n        /* \"#utility.yul\":759:811   */\n    tag_207:\n      pop\n        /* \"#utility.yul\":852:875   */\n      calldataload\n      swap2\n        /* \"#utility.yul\":679:905   */\n      swap1\n      pop\n      jump\t// out\n        /* \"#utility.yul\":1092:1500   */\n    tag_41:\n        /* \"#utility.yul\":1160:1166   */\n      0x00\n        /* \"#utility.yul\":1168:1174   */\n      0x00\n        /* \"#utility.yul\":1221:1223   */\n      0x40\n        /* \"#utility.yul\":1209:1218   */\n      dup4\n        /* \"#utility.yul\":1200:1207   */\n      dup6\n        /* \"#utility.yul\":1196:1219   */\n      sub\n        /* \"#utility.yul\":1192:1224   */\n      slt\n        /* \"#utility.yul\":1189:1241   */\n      iszero\n      tag_210\n      jumpi\n        /* \"#utility.yul\":1237:1238   */\n      0x00\n        /* \"#utility.yul\":1234:1235   */\n      0x00\n        /* \"#utility.yul\":1227:1239   */\n      revert\n        /* \"#utility.yul\":1189:1241   */\n    tag_210:\n        /* \"#utility.yul\":1282:1305   */\n      dup3\n      calldataload\n      swap2\n      pop\n        /* \"#utility.yul\":1381:1383   */\n      0x20\n        /* \"#utility.yul\":1366:1384   */\n      dup4\n      add\n        /* \"#utility.yul\":1353:1385   */\n      calldataload\n      sub(shl(0xa0, 0x01), 0x01)\n        /* \"#utility.yul\":1416:1449   */\n      dup2\n      and\n        /* \"#utility.yul\":1404:1450   */\n      dup2\n      eq\n        /* \"#utility.yul\":1394:1468   */\n      tag_211\n      jumpi\n        /* \"#utility.yul\":1464:1465   */\n      0x00\n        /* \"#utility.yul\":1461:1462   */\n      0x00\n        /* \"#utility.yul\":1454:1466   */\n      revert\n        /* \"#utility.yul\":1394:1468   */\n    tag_211:\n        /* \"#utility.yul\":1487:1494   */\n      dup1\n        /* \"#utility.yul\":1477:1494   */\n      swap2\n      pop\n      pop\n        /* \"#utility.yul\":1092:1500   */\n      swap3\n      pop\n      swap3\n      swap1\n      pop\n      jump\t// out\n        /* \"#utility.yul\":2128:2312   */\n    tag_93:\n        /* \"#utility.yul\":2198:2204   */\n      0x00\n        /* \"#utility.yul\":2251:2253   */\n      0x20\n        /* \"#utility.yul\":2239:2248   */\n      dup3\n        /* \"#utility.yul\":2230:2237   */\n      dup5\n        /* \"#utility.yul\":2226:2249   */\n      sub\n        /* \"#utility.yul\":2222:2254   */\n      slt\n        /* \"#utility.yul\":2219:2271   */\n      iszero\n      tag_216\n      jumpi\n        /* \"#utility.yul\":2267:2268   */\n      0x00\n        /* \"#utility.yul\":2264:2265   */\n      0x00\n        /* \"#utility.yul\":2257:2269   */\n      revert\n        /* \"#utility.yul\":2219:2271   */\n    tag_216:\n      pop\n        /* \"#utility.yul\":2290:2306   */\n      mload\n      swap2\n        /* \"#utility.yul\":2128:2312   */\n      swap1\n      pop\n      jump\t// out\n        /* \"#utility.yul\":2933:3210   */\n    tag_132:\n        /* \"#utility.yul\":3000:3006   */\n      0x00\n        /* \"#utility.yul\":3053:3055   */\n      0x20\n        /* \"#utility.yul\":3041:3050   */\n      dup3\n        /* \"#utility.yul\":3032:3039   */\n      dup5\n        /* \"#utility.yul\":3028:3051   */\n      sub\n        /* \"#utility.yul\":3024:3056   */\n      slt\n        /* \"#utility.yul\":3021:3073   */\n      iszero\n      tag_220\n      jumpi\n        /* \"#utility.yul\":3069:3070   */\n      0x00\n        /* \"#utility.yul\":3066:3067   */\n      0x00\n        /* \"#utility.yul\":3059:3071   */\n      revert\n        /* \"#utility.yul\":3021:3073   */\n    tag_220:\n        /* \"#utility.yul\":3101:3110   */\n      dup2\n        /* \"#utility.yul\":3095:3111   */\n      mload\n        /* \"#utility.yul\":3154:3159   */\n      dup1\n        /* \"#utility.yul\":3147:3160   */\n      iszero\n        /* \"#utility.yul\":3140:3161   */\n      iszero\n        /* \"#utility.yul\":3133:3138   */\n      dup2\n        /* \"#utility.yul\":3130:3162   */\n      eq\n        /* \"#utility.yul\":3120:3180   */\n      tag_203\n      jumpi\n        /* \"#utility.yul\":3176:3177   */\n      0x00\n        /* \"#utility.yul\":3173:3174   */\n      0x00\n        /* \"#utility.yul\":3166:3178   */\n      revert\n        /* \"#utility.yul\":3557:3684   */\n    tag_199:\n        /* \"#utility.yul\":3618:3628   */\n      0x4e487b71\n        /* \"#utility.yul\":3613:3616   */\n      0xe0\n        /* \"#utility.yul\":3609:3629   */\n      shl\n        /* \"#utility.yul\":3606:3607   */\n      0x00\n        /* \"#utility.yul\":3599:3630   */\n      mstore\n        /* \"#utility.yul\":3649:3653   */\n      0x11\n        /* \"#utility.yul\":3646:3647   */\n      0x04\n        /* \"#utility.yul\":3639:3654   */\n      mstore\n        /* \"#utility.yul\":3673:3677   */\n      0x24\n        /* \"#utility.yul\":3670:3671   */\n      0x00\n        /* \"#utility.yul\":3663:3678   */\n      revert\n        /* \"#utility.yul\":3689:3857   */\n    tag_151:\n        /* \"#utility.yul\":3762:3771   */\n      dup1\n      dup3\n      mul\n        /* \"#utility.yul\":3793:3802   */\n      dup2\n      iszero\n        /* \"#utility.yul\":3810:3825   */\n      dup3\n      dup3\n      div\n        /* \"#utility.yul\":3804:3826   */\n      dup5\n      eq\n        /* \"#utility.yul\":3790:3827   */\n      or\n        /* \"#utility.yul\":3780:3851   */\n      tag_86\n      jumpi\n        /* \"#utility.yul\":3831:3849   */\n      tag_86\n      tag_199\n      jump\t// in\n        /* \"#utility.yul\":3862:4079   */\n    tag_153:\n        /* \"#utility.yul\":3902:3903   */\n      0x00\n        /* \"#utility.yul\":3928:3929   */\n      dup3\n        /* \"#utility.yul\":3918:4050   */\n      tag_228\n      jumpi\n        /* \"#utility.yul\":3972:3982   */\n      0x4e487b71\n        /* \"#utility.yul\":3967:3970   */\n      0xe0\n        /* \"#utility.yul\":3963:3983   */\n      shl\n        /* \"#utility.yul\":3960:3961   */\n      0x00\n        /* \"#utility.yul\":3953:3984   */\n      mstore\n        /* \"#utility.yul\":4007:4011   */\n      0x12\n        /* \"#utility.yul\":4004:4005   */\n      0x04\n        /* \"#utility.yul\":3997:4012   */\n      mstore\n        /* \"#utility.yul\":4035:4039   */\n      0x24\n        /* \"#utility.yul\":4032:4033   */\n      0x00\n        /* \"#utility.yul\":4025:4040   */\n      revert\n        /* \"#utility.yul\":3918:4050   */\n    tag_228:\n      pop\n        /* \"#utility.yul\":4064:4073   */\n      div\n      swap1\n        /* \"#utility.yul\":3862:4079   */\n      jump\t// out\n        /* \"#utility.yul\":4084:4212   */\n    tag_155:\n        /* \"#utility.yul\":4151:4160   */\n      dup2\n      dup2\n      sub\n        /* \"#utility.yul\":4172:4183   */\n      dup2\n      dup2\n      gt\n        /* \"#utility.yul\":4169:4206   */\n      iszero\n      tag_86\n      jumpi\n        /* \"#utility.yul\":4186:4204   */\n      tag_86\n      tag_199\n      jump\t// in\n\n    auxdata: 0xa264697066735822122045ee15f22dda18a5f80e89034cb81e843e6ce230160b662226b9f4ab1ac024ed64736f6c634300081e0033\n}\n",
				"bytecode": {
					"linkReferences": {},
					"object": "60a060405234801561000f575f5ffd5b50604051610ff5380380610ff583398101604081905261002e916102ed565b600180556001600160a01b0386166100775760405162461bcd60e51b81526020600482015260076024820152660746f6b656e3d360cc1b60448201526064015b60405180910390fd5b6001600160a01b0385166100b55760405162461bcd60e51b815260206004820152600560248201526407075623d360dc1b604482015260640161006e565b6001600160a01b0384166100f45760405162461bcd60e51b81526020600482015260066024820152650646576733d360d41b604482015260640161006e565b6100fe828461035d565b61ffff16612710146101455760405162461bcd60e51b815260206004820152601060248201526f06270732073756d20213d2031303030360841b604482015260640161006e565b6001600160a01b03808716608052600280548783166001600160a01b03199091161790556003805461ffff858116600160b01b0261ffff60b01b19918816600160a01b026001600160b01b03199093169489169490941791909117169190911790556101b15f82610218565b506101dc7f241ecf16d79d0f8dbfb92cbc07fe17840425976cf0667f022fe9877caa831b0882610218565b506101f45f516020610fd55f395f51905f5286610218565b5061020c5f516020610fd55f395f51905f5285610218565b50505050505050610383565b5f828152602081815260408083206001600160a01b038516845290915281205460ff166102b8575f838152602081815260408083206001600160a01b03861684529091529020805460ff191660011790556102703390565b6001600160a01b0316826001600160a01b0316847f2f8788117e7eff1d82e926ec794901d17c78024a50270940304540a733656f0d60405160405180910390a45060016102bb565b505f5b92915050565b80516001600160a01b03811681146102d7575f5ffd5b919050565b805161ffff811681146102d7575f5ffd5b5f5f5f5f5f5f60c08789031215610302575f5ffd5b61030b876102c1565b9550610319602088016102c1565b9450610327604088016102c1565b9350610335606088016102dc565b9250610343608088016102dc565b915061035160a088016102c1565b90509295509295509295565b61ffff81811683821601908111156102bb57634e487b7160e01b5f52601160045260245ffd5b608051610c106103c55f395f818161029d0152818161030c01528181610459015281816105280152818161066501528181610774015261083e0152610c105ff3fe608060405234801561000f575f5ffd5b5060043610610106575f3560e01c8063a217fddf1161009e578063e4fc6b6d1161006e578063e4fc6b6d1461022d578063e98c099014610235578063eb09c17c1461024a578063ec87621c14610271578063fc0c546a14610298575f5ffd5b8063a217fddf146101e3578063aaecfa63146101ea578063d547741f14610212578063db2e21bc14610225575f5ffd5b806336568abe116100d957806336568abe1461017f5780638c72c54e1461019257806391d14854146101bd5780639a96f829146101d0575f5ffd5b806301ffc9a71461010a57806312065fe014610132578063248a9ca3146101485780632f2ff15d1461016a575b5f5ffd5b61011d610118366004610ac9565b6102bf565b60405190151581526020015b60405180910390f35b61013a6102f5565b604051908152602001610129565b61013a610156366004610af7565b5f9081526020819052604090206001015490565b61017d610178366004610b0e565b610382565b005b61017d61018d366004610b0e565b6103ac565b6002546101a5906001600160a01b031681565b6040516001600160a01b039091168152602001610129565b61011d6101cb366004610b0e565b6103e4565b6003546101a5906001600160a01b031681565b61013a5f81565b6003546101ff90600160a01b900461ffff1681565b60405161ffff9091168152602001610129565b61017d610220366004610b0e565b61040c565b61017d610430565b61017d61061c565b6003546101ff90600160b01b900461ffff1681565b61013a7febea61bac29e76544ef1875472aaff98e28d2db11686c8cbef6c2b35dbe3240781565b61013a7f241ecf16d79d0f8dbfb92cbc07fe17840425976cf0667f022fe9877caa831b0881565b6101a57f000000000000000000000000000000000000000000000000000000000000000081565b5f6001600160e01b03198216637965db0b60e01b14806102ef57506301ffc9a760e01b6001600160e01b03198316145b92915050565b6040516370a0823160e01b81523060048201525f907f00000000000000000000000000000000000000000000000000000000000000006001600160a01b0316906370a0823190602401602060405180830381865afa158015610359573d5f5f3e3d5ffd5b505050506040513d601f19601f8201168201806040525081019061037d9190610b47565b905090565b5f8281526020819052604090206001015461039c81610931565b6103a6838361093b565b50505050565b6001600160a01b03811633146103d55760405163334bd91960e11b815260040160405180910390fd5b6103df82826109ca565b505050565b5f918252602082815260408084206001600160a01b0393909316845291905290205460ff1690565b5f8281526020819052604090206001015461042681610931565b6103a683836109ca565b5f61043a81610931565b610442610a33565b6040516370a0823160e01b81523060048201525f907f00000000000000000000000000000000000000000000000000000000000000006001600160a01b0316906370a0823190602401602060405180830381865afa1580156104a6573d5f5f3e3d5ffd5b505050506040513d601f19601f820116820180604052508101906104ca9190610b47565b90505f811161050c5760405162461bcd60e51b81526020600482015260096024820152686e6f20746f6b656e7360b81b60448201526064015b60405180910390fd5b60405163a9059cbb60e01b8152336004820152602481018290527f00000000000000000000000000000000000000000000000000000000000000006001600160a01b03169063a9059cbb906044016020604051808303815f875af1158015610576573d5f5f3e3d5ffd5b505050506040513d601f19601f8201168201806040525081019061059a9190610b5e565b6105d65760405162461bcd60e51b815260206004820152600d60248201526c1dda5d1a191c985dc819985a5b609a1b6044820152606401610503565b60408051338152602081018390527f5fafa99d0643513820be26656b45130b01e1c03062e1266bf36f88cbd3bd9695910160405180910390a15061061960018055565b50565b610624610a33565b7febea61bac29e76544ef1875472aaff98e28d2db11686c8cbef6c2b35dbe3240761064e81610931565b6040516370a0823160e01b81523060048201525f907f00000000000000000000000000000000000000000000000000000000000000006001600160a01b0316906370a0823190602401602060405180830381865afa1580156106b2573d5f5f3e3d5ffd5b505050506040513d601f19601f820116820180604052508101906106d69190610b47565b90505f81116107135760405162461bcd60e51b81526020600482015260096024820152686e6f20746f6b656e7360b81b6044820152606401610503565b6003545f906127109061073190600160a01b900461ffff1684610b91565b61073b9190610ba8565b90505f6107488284610bc7565b60025460405163a9059cbb60e01b81526001600160a01b039182166004820152602481018590529192507f0000000000000000000000000000000000000000000000000000000000000000169063a9059cbb906044016020604051808303815f875af11580156107ba573d5f5f3e3d5ffd5b505050506040513d601f19601f820116820180604052508101906107de9190610b5e565b6108155760405162461bcd60e51b81526020600482015260086024820152671c1d588819985a5b60c21b6044820152606401610503565b60035460405163a9059cbb60e01b81526001600160a01b039182166004820152602481018390527f00000000000000000000000000000000000000000000000000000000000000009091169063a9059cbb906044016020604051808303815f875af1158015610886573d5f5f3e3d5ffd5b505050506040513d601f19601f820116820180604052508101906108aa9190610b5e565b6108e15760405162461bcd60e51b815260206004820152600860248201526719195d8819985a5b60c21b6044820152606401610503565b60408051848152602081018490529081018290527fc5d35a65af09b3042394b742529d10f7fbf9a37294d6b13e4d63d06f9909a15b9060600160405180910390a15050505061092f60018055565b565b6106198133610a8c565b5f61094683836103e4565b6109c3575f838152602081815260408083206001600160a01b03861684529091529020805460ff1916600117905561097b3390565b6001600160a01b0316826001600160a01b0316847f2f8788117e7eff1d82e926ec794901d17c78024a50270940304540a733656f0d60405160405180910390a45060016102ef565b505f6102ef565b5f6109d583836103e4565b156109c3575f838152602081815260408083206001600160a01b0386168085529252808320805460ff1916905551339286917ff6391f5c32d9c69d2a47ea670b442974b53935d1edc7fd64eb21e047a839171b9190a45060016102ef565b600260015403610a855760405162461bcd60e51b815260206004820152601f60248201527f5265656e7472616e637947756172643a207265656e7472616e742063616c6c006044820152606401610503565b6002600155565b610a9682826103e4565b610ac55760405163e2517d3f60e01b81526001600160a01b038216600482015260248101839052604401610503565b5050565b5f60208284031215610ad9575f5ffd5b81356001600160e01b031981168114610af0575f5ffd5b9392505050565b5f60208284031215610b07575f5ffd5b5035919050565b5f5f60408385031215610b1f575f5ffd5b8235915060208301356001600160a01b0381168114610b3c575f5ffd5b809150509250929050565b5f60208284031215610b57575f5ffd5b5051919050565b5f60208284031215610b6e575f5ffd5b81518015158114610af0575f5ffd5b634e487b7160e01b5f52601160045260245ffd5b80820281158282048414176102ef576102ef610b7d565b5f82610bc257634e487b7160e01b5f52601260045260245ffd5b500490565b818103818111156102ef576102ef610b7d56fea264697066735822122045ee15f22dda18a5f80e89034cb81e843e6ce230160b662226b9f4ab1ac024ed64736f6c634300081e0033ebea61bac29e76544ef1875472aaff98e28d2db11686c8cbef6c2b35dbe32407",
					"opcodes": "PUSH1 0xA0 PUSH1 0x40 MSTORE CALLVALUE DUP1 ISZERO PUSH2 0xF JUMPI PUSH0 PUSH0 REVERT JUMPDEST POP PUSH1 0x40 MLOAD PUSH2 0xFF5 CODESIZE SUB DUP1 PUSH2 0xFF5 DUP4 CODECOPY DUP2 ADD PUSH1 0x40 DUP2 SWAP1 MSTORE PUSH2 0x2E SWAP2 PUSH2 0x2ED JUMP JUMPDEST PUSH1 0x1 DUP1 SSTORE PUSH1 0x1 PUSH1 0x1 PUSH1 0xA0 SHL SUB DUP7 AND PUSH2 0x77 JUMPI PUSH1 0x40 MLOAD PUSH3 0x461BCD PUSH1 0xE5 SHL DUP2 MSTORE PUSH1 0x20 PUSH1 0x4 DUP3 ADD MSTORE PUSH1 0x7 PUSH1 0x24 DUP3 ADD MSTORE PUSH7 0x746F6B656E3D3 PUSH1 0xCC SHL PUSH1 0x44 DUP3 ADD MSTORE PUSH1 0x64 ADD JUMPDEST PUSH1 0x40 MLOAD DUP1 SWAP2 SUB SWAP1 REVERT JUMPDEST PUSH1 0x1 PUSH1 0x1 PUSH1 0xA0 SHL SUB DUP6 AND PUSH2 0xB5 JUMPI PUSH1 0x40 MLOAD PUSH3 0x461BCD PUSH1 0xE5 SHL DUP2 MSTORE PUSH1 0x20 PUSH1 0x4 DUP3 ADD MSTORE PUSH1 0x5 PUSH1 0x24 DUP3 ADD MSTORE PUSH5 0x7075623D3 PUSH1 0xDC SHL PUSH1 0x44 DUP3 ADD MSTORE PUSH1 0x64 ADD PUSH2 0x6E JUMP JUMPDEST PUSH1 0x1 PUSH1 0x1 PUSH1 0xA0 SHL SUB DUP5 AND PUSH2 0xF4 JUMPI PUSH1 0x40 MLOAD PUSH3 0x461BCD PUSH1 0xE5 SHL DUP2 MSTORE PUSH1 0x20 PUSH1 0x4 DUP3 ADD MSTORE PUSH1 0x6 PUSH1 0x24 DUP3 ADD MSTORE PUSH6 0x646576733D3 PUSH1 0xD4 SHL PUSH1 0x44 DUP3 ADD MSTORE PUSH1 0x64 ADD PUSH2 0x6E JUMP JUMPDEST PUSH2 0xFE DUP3 DUP5 PUSH2 0x35D JUMP JUMPDEST PUSH2 0xFFFF AND PUSH2 0x2710 EQ PUSH2 0x145 JUMPI PUSH1 0x40 MLOAD PUSH3 0x461BCD PUSH1 0xE5 SHL DUP2 MSTORE PUSH1 0x20 PUSH1 0x4 DUP3 ADD MSTORE PUSH1 0x10 PUSH1 0x24 DUP3 ADD MSTORE PUSH16 0x6270732073756D20213D20313030303 PUSH1 0x84 SHL PUSH1 0x44 DUP3 ADD MSTORE PUSH1 0x64 ADD PUSH2 0x6E JUMP JUMPDEST PUSH1 0x1 PUSH1 0x1 PUSH1 0xA0 SHL SUB DUP1 DUP8 AND PUSH1 0x80 MSTORE PUSH1 0x2 DUP1 SLOAD DUP8 DUP4 AND PUSH1 0x1 PUSH1 0x1 PUSH1 0xA0 SHL SUB NOT SWAP1 SWAP2 AND OR SWAP1 SSTORE PUSH1 0x3 DUP1 SLOAD PUSH2 0xFFFF DUP6 DUP2 AND PUSH1 0x1 PUSH1 0xB0 SHL MUL PUSH2 0xFFFF PUSH1 0xB0 SHL NOT SWAP2 DUP9 AND PUSH1 0x1 PUSH1 0xA0 SHL MUL PUSH1 0x1 PUSH1 0x1 PUSH1 0xB0 SHL SUB NOT SWAP1 SWAP4 AND SWAP5 DUP10 AND SWAP5 SWAP1 SWAP5 OR SWAP2 SWAP1 SWAP2 OR AND SWAP2 SWAP1 SWAP2 OR SWAP1 SSTORE PUSH2 0x1B1 PUSH0 DUP3 PUSH2 0x218 JUMP JUMPDEST POP PUSH2 0x1DC PUSH32 0x241ECF16D79D0F8DBFB92CBC07FE17840425976CF0667F022FE9877CAA831B08 DUP3 PUSH2 0x218 JUMP JUMPDEST POP PUSH2 0x1F4 PUSH0 MLOAD PUSH1 0x20 PUSH2 0xFD5 PUSH0 CODECOPY PUSH0 MLOAD SWAP1 PUSH0 MSTORE DUP7 PUSH2 0x218 JUMP JUMPDEST POP PUSH2 0x20C PUSH0 MLOAD PUSH1 0x20 PUSH2 0xFD5 PUSH0 CODECOPY PUSH0 MLOAD SWAP1 PUSH0 MSTORE DUP6 PUSH2 0x218 JUMP JUMPDEST POP POP POP POP POP POP POP PUSH2 0x383 JUMP JUMPDEST PUSH0 DUP3 DUP2 MSTORE PUSH1 0x20 DUP2 DUP2 MSTORE PUSH1 0x40 DUP1 DUP4 KECCAK256 PUSH1 0x1 PUSH1 0x1 PUSH1 0xA0 SHL SUB DUP6 AND DUP5 MSTORE SWAP1 SWAP2 MSTORE DUP2 KECCAK256 SLOAD PUSH1 0xFF AND PUSH2 0x2B8 JUMPI PUSH0 DUP4 DUP2 MSTORE PUSH1 0x20 DUP2 DUP2 MSTORE PUSH1 0x40 DUP1 DUP4 KECCAK256 PUSH1 0x1 PUSH1 0x1 PUSH1 0xA0 SHL SUB DUP7 AND DUP5 MSTORE SWAP1 SWAP2 MSTORE SWAP1 KECCAK256 DUP1 SLOAD PUSH1 0xFF NOT AND PUSH1 0x1 OR SWAP1 SSTORE PUSH2 0x270 CALLER SWAP1 JUMP JUMPDEST PUSH1 0x1 PUSH1 0x1 PUSH1 0xA0 SHL SUB AND DUP3 PUSH1 0x1 PUSH1 0x1 PUSH1 0xA0 SHL SUB AND DUP5 PUSH32 0x2F8788117E7EFF1D82E926EC794901D17C78024A50270940304540A733656F0D PUSH1 0x40 MLOAD PUSH1 0x40 MLOAD DUP1 SWAP2 SUB SWAP1 LOG4 POP PUSH1 0x1 PUSH2 0x2BB JUMP JUMPDEST POP PUSH0 JUMPDEST SWAP3 SWAP2 POP POP JUMP JUMPDEST DUP1 MLOAD PUSH1 0x1 PUSH1 0x1 PUSH1 0xA0 SHL SUB DUP2 AND DUP2 EQ PUSH2 0x2D7 JUMPI PUSH0 PUSH0 REVERT JUMPDEST SWAP2 SWAP1 POP JUMP JUMPDEST DUP1 MLOAD PUSH2 0xFFFF DUP2 AND DUP2 EQ PUSH2 0x2D7 JUMPI PUSH0 PUSH0 REVERT JUMPDEST PUSH0 PUSH0 PUSH0 PUSH0 PUSH0 PUSH0 PUSH1 0xC0 DUP8 DUP10 SUB SLT ISZERO PUSH2 0x302 JUMPI PUSH0 PUSH0 REVERT JUMPDEST PUSH2 0x30B DUP8 PUSH2 0x2C1 JUMP JUMPDEST SWAP6 POP PUSH2 0x319 PUSH1 0x20 DUP9 ADD PUSH2 0x2C1 JUMP JUMPDEST SWAP5 POP PUSH2 0x327 PUSH1 0x40 DUP9 ADD PUSH2 0x2C1 JUMP JUMPDEST SWAP4 POP PUSH2 0x335 PUSH1 0x60 DUP9 ADD PUSH2 0x2DC JUMP JUMPDEST SWAP3 POP PUSH2 0x343 PUSH1 0x80 DUP9 ADD PUSH2 0x2DC JUMP JUMPDEST SWAP2 POP PUSH2 0x351 PUSH1 0xA0 DUP9 ADD PUSH2 0x2C1 JUMP JUMPDEST SWAP1 POP SWAP3 SWAP6 POP SWAP3 SWAP6 POP SWAP3 SWAP6 JUMP JUMPDEST PUSH2 0xFFFF DUP2 DUP2 AND DUP4 DUP3 AND ADD SWAP1 DUP2 GT ISZERO PUSH2 0x2BB JUMPI PUSH4 0x4E487B71 PUSH1 0xE0 SHL PUSH0 MSTORE PUSH1 0x11 PUSH1 0x4 MSTORE PUSH1 0x24 PUSH0 REVERT JUMPDEST PUSH1 0x80 MLOAD PUSH2 0xC10 PUSH2 0x3C5 PUSH0 CODECOPY PUSH0 DUP2 DUP2 PUSH2 0x29D ADD MSTORE DUP2 DUP2 PUSH2 0x30C ADD MSTORE DUP2 DUP2 PUSH2 0x459 ADD MSTORE DUP2 DUP2 PUSH2 0x528 ADD MSTORE DUP2 DUP2 PUSH2 0x665 ADD MSTORE DUP2 DUP2 PUSH2 0x774 ADD MSTORE PUSH2 0x83E ADD MSTORE PUSH2 0xC10 PUSH0 RETURN INVALID PUSH1 0x80 PUSH1 0x40 MSTORE CALLVALUE DUP1 ISZERO PUSH2 0xF JUMPI PUSH0 PUSH0 REVERT JUMPDEST POP PUSH1 0x4 CALLDATASIZE LT PUSH2 0x106 JUMPI PUSH0 CALLDATALOAD PUSH1 0xE0 SHR DUP1 PUSH4 0xA217FDDF GT PUSH2 0x9E JUMPI DUP1 PUSH4 0xE4FC6B6D GT PUSH2 0x6E JUMPI DUP1 PUSH4 0xE4FC6B6D EQ PUSH2 0x22D JUMPI DUP1 PUSH4 0xE98C0990 EQ PUSH2 0x235 JUMPI DUP1 PUSH4 0xEB09C17C EQ PUSH2 0x24A JUMPI DUP1 PUSH4 0xEC87621C EQ PUSH2 0x271 JUMPI DUP1 PUSH4 0xFC0C546A EQ PUSH2 0x298 JUMPI PUSH0 PUSH0 REVERT JUMPDEST DUP1 PUSH4 0xA217FDDF EQ PUSH2 0x1E3 JUMPI DUP1 PUSH4 0xAAECFA63 EQ PUSH2 0x1EA JUMPI DUP1 PUSH4 0xD547741F EQ PUSH2 0x212 JUMPI DUP1 PUSH4 0xDB2E21BC EQ PUSH2 0x225 JUMPI PUSH0 PUSH0 REVERT JUMPDEST DUP1 PUSH4 0x36568ABE GT PUSH2 0xD9 JUMPI DUP1 PUSH4 0x36568ABE EQ PUSH2 0x17F JUMPI DUP1 PUSH4 0x8C72C54E EQ PUSH2 0x192 JUMPI DUP1 PUSH4 0x91D14854 EQ PUSH2 0x1BD JUMPI DUP1 PUSH4 0x9A96F829 EQ PUSH2 0x1D0 JUMPI PUSH0 PUSH0 REVERT JUMPDEST DUP1 PUSH4 0x1FFC9A7 EQ PUSH2 0x10A JUMPI DUP1 PUSH4 0x12065FE0 EQ PUSH2 0x132 JUMPI DUP1 PUSH4 0x248A9CA3 EQ PUSH2 0x148 JUMPI DUP1 PUSH4 0x2F2FF15D EQ PUSH2 0x16A JUMPI JUMPDEST PUSH0 PUSH0 REVERT JUMPDEST PUSH2 0x11D PUSH2 0x118 CALLDATASIZE PUSH1 0x4 PUSH2 0xAC9 JUMP JUMPDEST PUSH2 0x2BF JUMP JUMPDEST PUSH1 0x40 MLOAD SWAP1 ISZERO ISZERO DUP2 MSTORE PUSH1 0x20 ADD JUMPDEST PUSH1 0x40 MLOAD DUP1 SWAP2 SUB SWAP1 RETURN JUMPDEST PUSH2 0x13A PUSH2 0x2F5 JUMP JUMPDEST PUSH1 0x40 MLOAD SWAP1 DUP2 MSTORE PUSH1 0x20 ADD PUSH2 0x129 JUMP JUMPDEST PUSH2 0x13A PUSH2 0x156 CALLDATASIZE PUSH1 0x4 PUSH2 0xAF7 JUMP JUMPDEST PUSH0 SWAP1 DUP2 MSTORE PUSH1 0x20 DUP2 SWAP1 MSTORE PUSH1 0x40 SWAP1 KECCAK256 PUSH1 0x1 ADD SLOAD SWAP1 JUMP JUMPDEST PUSH2 0x17D PUSH2 0x178 CALLDATASIZE PUSH1 0x4 PUSH2 0xB0E JUMP JUMPDEST PUSH2 0x382 JUMP JUMPDEST STOP JUMPDEST PUSH2 0x17D PUSH2 0x18D CALLDATASIZE PUSH1 0x4 PUSH2 0xB0E JUMP JUMPDEST PUSH2 0x3AC JUMP JUMPDEST PUSH1 0x2 SLOAD PUSH2 0x1A5 SWAP1 PUSH1 0x1 PUSH1 0x1 PUSH1 0xA0 SHL SUB AND DUP2 JUMP JUMPDEST PUSH1 0x40 MLOAD PUSH1 0x1 PUSH1 0x1 PUSH1 0xA0 SHL SUB SWAP1 SWAP2 AND DUP2 MSTORE PUSH1 0x20 ADD PUSH2 0x129 JUMP JUMPDEST PUSH2 0x11D PUSH2 0x1CB CALLDATASIZE PUSH1 0x4 PUSH2 0xB0E JUMP JUMPDEST PUSH2 0x3E4 JUMP JUMPDEST PUSH1 0x3 SLOAD PUSH2 0x1A5 SWAP1 PUSH1 0x1 PUSH1 0x1 PUSH1 0xA0 SHL SUB AND DUP2 JUMP JUMPDEST PUSH2 0x13A PUSH0 DUP2 JUMP JUMPDEST PUSH1 0x3 SLOAD PUSH2 0x1FF SWAP1 PUSH1 0x1 PUSH1 0xA0 SHL SWAP1 DIV PUSH2 0xFFFF AND DUP2 JUMP JUMPDEST PUSH1 0x40 MLOAD PUSH2 0xFFFF SWAP1 SWAP2 AND DUP2 MSTORE PUSH1 0x20 ADD PUSH2 0x129 JUMP JUMPDEST PUSH2 0x17D PUSH2 0x220 CALLDATASIZE PUSH1 0x4 PUSH2 0xB0E JUMP JUMPDEST PUSH2 0x40C JUMP JUMPDEST PUSH2 0x17D PUSH2 0x430 JUMP JUMPDEST PUSH2 0x17D PUSH2 0x61C JUMP JUMPDEST PUSH1 0x3 SLOAD PUSH2 0x1FF SWAP1 PUSH1 0x1 PUSH1 0xB0 SHL SWAP1 DIV PUSH2 0xFFFF AND DUP2 JUMP JUMPDEST PUSH2 0x13A PUSH32 0xEBEA61BAC29E76544EF1875472AAFF98E28D2DB11686C8CBEF6C2B35DBE32407 DUP2 JUMP JUMPDEST PUSH2 0x13A PUSH32 0x241ECF16D79D0F8DBFB92CBC07FE17840425976CF0667F022FE9877CAA831B08 DUP2 JUMP JUMPDEST PUSH2 0x1A5 PUSH32 0x0 DUP2 JUMP JUMPDEST PUSH0 PUSH1 0x1 PUSH1 0x1 PUSH1 0xE0 SHL SUB NOT DUP3 AND PUSH4 0x7965DB0B PUSH1 0xE0 SHL EQ DUP1 PUSH2 0x2EF JUMPI POP PUSH4 0x1FFC9A7 PUSH1 0xE0 SHL PUSH1 0x1 PUSH1 0x1 PUSH1 0xE0 SHL SUB NOT DUP4 AND EQ JUMPDEST SWAP3 SWAP2 POP POP JUMP JUMPDEST PUSH1 0x40 MLOAD PUSH4 0x70A08231 PUSH1 0xE0 SHL DUP2 MSTORE ADDRESS PUSH1 0x4 DUP3 ADD MSTORE PUSH0 SWAP1 PUSH32 0x0 PUSH1 0x1 PUSH1 0x1 PUSH1 0xA0 SHL SUB AND SWAP1 PUSH4 0x70A08231 SWAP1 PUSH1 0x24 ADD PUSH1 0x20 PUSH1 0x40 MLOAD DUP1 DUP4 SUB DUP2 DUP7 GAS STATICCALL ISZERO DUP1 ISZERO PUSH2 0x359 JUMPI RETURNDATASIZE PUSH0 PUSH0 RETURNDATACOPY RETURNDATASIZE PUSH0 REVERT JUMPDEST POP POP POP POP PUSH1 0x40 MLOAD RETURNDATASIZE PUSH1 0x1F NOT PUSH1 0x1F DUP3 ADD AND DUP3 ADD DUP1 PUSH1 0x40 MSTORE POP DUP2 ADD SWAP1 PUSH2 0x37D SWAP2 SWAP1 PUSH2 0xB47 JUMP JUMPDEST SWAP1 POP SWAP1 JUMP JUMPDEST PUSH0 DUP3 DUP2 MSTORE PUSH1 0x20 DUP2 SWAP1 MSTORE PUSH1 0x40 SWAP1 KECCAK256 PUSH1 0x1 ADD SLOAD PUSH2 0x39C DUP2 PUSH2 0x931 JUMP JUMPDEST PUSH2 0x3A6 DUP4 DUP4 PUSH2 0x93B JUMP JUMPDEST POP POP POP POP JUMP JUMPDEST PUSH1 0x1 PUSH1 0x1 PUSH1 0xA0 SHL SUB DUP2 AND CALLER EQ PUSH2 0x3D5 JUMPI PUSH1 0x40 MLOAD PUSH4 0x334BD919 PUSH1 0xE1 SHL DUP2 MSTORE PUSH1 0x4 ADD PUSH1 0x40 MLOAD DUP1 SWAP2 SUB SWAP1 REVERT JUMPDEST PUSH2 0x3DF DUP3 DUP3 PUSH2 0x9CA JUMP JUMPDEST POP POP POP JUMP JUMPDEST PUSH0 SWAP2 DUP3 MSTORE PUSH1 0x20 DUP3 DUP2 MSTORE PUSH1 0x40 DUP1 DUP5 KECCAK256 PUSH1 0x1 PUSH1 0x1 PUSH1 0xA0 SHL SUB SWAP4 SWAP1 SWAP4 AND DUP5 MSTORE SWAP2 SWAP1 MSTORE SWAP1 KECCAK256 SLOAD PUSH1 0xFF AND SWAP1 JUMP JUMPDEST PUSH0 DUP3 DUP2 MSTORE PUSH1 0x20 DUP2 SWAP1 MSTORE PUSH1 0x40 SWAP1 KECCAK256 PUSH1 0x1 ADD SLOAD PUSH2 0x426 DUP2 PUSH2 0x931 JUMP JUMPDEST PUSH2 0x3A6 DUP4 DUP4 PUSH2 0x9CA JUMP JUMPDEST PUSH0 PUSH2 0x43A DUP2 PUSH2 0x931 JUMP JUMPDEST PUSH2 0x442 PUSH2 0xA33 JUMP JUMPDEST PUSH1 0x40 MLOAD PUSH4 0x70A08231 PUSH1 0xE0 SHL DUP2 MSTORE ADDRESS PUSH1 0x4 DUP3 ADD MSTORE PUSH0 SWAP1 PUSH32 0x0 PUSH1 0x1 PUSH1 0x1 PUSH1 0xA0 SHL SUB AND SWAP1 PUSH4 0x70A08231 SWAP1 PUSH1 0x24 ADD PUSH1 0x20 PUSH1 0x40 MLOAD DUP1 DUP4 SUB DUP2 DUP7 GAS STATICCALL ISZERO DUP1 ISZERO PUSH2 0x4A6 JUMPI RETURNDATASIZE PUSH0 PUSH0 RETURNDATACOPY RETURNDATASIZE PUSH0 REVERT JUMPDEST POP POP POP POP PUSH1 0x40 MLOAD RETURNDATASIZE PUSH1 0x1F NOT PUSH1 0x1F DUP3 ADD AND DUP3 ADD DUP1 PUSH1 0x40 MSTORE POP DUP2 ADD SWAP1 PUSH2 0x4CA SWAP2 SWAP1 PUSH2 0xB47 JUMP JUMPDEST SWAP1 POP PUSH0 DUP2 GT PUSH2 0x50C JUMPI PUSH1 0x40 MLOAD PUSH3 0x461BCD PUSH1 0xE5 SHL DUP2 MSTORE PUSH1 0x20 PUSH1 0x4 DUP3 ADD MSTORE PUSH1 0x9 PUSH1 0x24 DUP3 ADD MSTORE PUSH9 0x6E6F20746F6B656E73 PUSH1 0xB8 SHL PUSH1 0x44 DUP3 ADD MSTORE PUSH1 0x64 ADD JUMPDEST PUSH1 0x40 MLOAD DUP1 SWAP2 SUB SWAP1 REVERT JUMPDEST PUSH1 0x40 MLOAD PUSH4 0xA9059CBB PUSH1 0xE0 SHL DUP2 MSTORE CALLER PUSH1 0x4 DUP3 ADD MSTORE PUSH1 0x24 DUP2 ADD DUP3 SWAP1 MSTORE PUSH32 0x0 PUSH1 0x1 PUSH1 0x1 PUSH1 0xA0 SHL SUB AND SWAP1 PUSH4 0xA9059CBB SWAP1 PUSH1 0x44 ADD PUSH1 0x20 PUSH1 0x40 MLOAD DUP1 DUP4 SUB DUP2 PUSH0 DUP8 GAS CALL ISZERO DUP1 ISZERO PUSH2 0x576 JUMPI RETURNDATASIZE PUSH0 PUSH0 RETURNDATACOPY RETURNDATASIZE PUSH0 REVERT JUMPDEST POP POP POP POP PUSH1 0x40 MLOAD RETURNDATASIZE PUSH1 0x1F NOT PUSH1 0x1F DUP3 ADD AND DUP3 ADD DUP1 PUSH1 0x40 MSTORE POP DUP2 ADD SWAP1 PUSH2 0x59A SWAP2 SWAP1 PUSH2 0xB5E JUMP JUMPDEST PUSH2 0x5D6 JUMPI PUSH1 0x40 MLOAD PUSH3 0x461BCD PUSH1 0xE5 SHL DUP2 MSTORE PUSH1 0x20 PUSH1 0x4 DUP3 ADD MSTORE PUSH1 0xD PUSH1 0x24 DUP3 ADD MSTORE PUSH13 0x1DDA5D1A191C985DC819985A5B PUSH1 0x9A SHL PUSH1 0x44 DUP3 ADD MSTORE PUSH1 0x64 ADD PUSH2 0x503 JUMP JUMPDEST PUSH1 0x40 DUP1 MLOAD CALLER DUP2 MSTORE PUSH1 0x20 DUP2 ADD DUP4 SWAP1 MSTORE PUSH32 0x5FAFA99D0643513820BE26656B45130B01E1C03062E1266BF36F88CBD3BD9695 SWAP2 ADD PUSH1 0x40 MLOAD DUP1 SWAP2 SUB SWAP1 LOG1 POP PUSH2 0x619 PUSH1 0x1 DUP1 SSTORE JUMP JUMPDEST POP JUMP JUMPDEST PUSH2 0x624 PUSH2 0xA33 JUMP JUMPDEST PUSH32 0xEBEA61BAC29E76544EF1875472AAFF98E28D2DB11686C8CBEF6C2B35DBE32407 PUSH2 0x64E DUP2 PUSH2 0x931 JUMP JUMPDEST PUSH1 0x40 MLOAD PUSH4 0x70A08231 PUSH1 0xE0 SHL DUP2 MSTORE ADDRESS PUSH1 0x4 DUP3 ADD MSTORE PUSH0 SWAP1 PUSH32 0x0 PUSH1 0x1 PUSH1 0x1 PUSH1 0xA0 SHL SUB AND SWAP1 PUSH4 0x70A08231 SWAP1 PUSH1 0x24 ADD PUSH1 0x20 PUSH1 0x40 MLOAD DUP1 DUP4 SUB DUP2 DUP7 GAS STATICCALL ISZERO DUP1 ISZERO PUSH2 0x6B2 JUMPI RETURNDATASIZE PUSH0 PUSH0 RETURNDATACOPY RETURNDATASIZE PUSH0 REVERT JUMPDEST POP POP POP POP PUSH1 0x40 MLOAD RETURNDATASIZE PUSH1 0x1F NOT PUSH1 0x1F DUP3 ADD AND DUP3 ADD DUP1 PUSH1 0x40 MSTORE POP DUP2 ADD SWAP1 PUSH2 0x6D6 SWAP2 SWAP1 PUSH2 0xB47 JUMP JUMPDEST SWAP1 POP PUSH0 DUP2 GT PUSH2 0x713 JUMPI PUSH1 0x40 MLOAD PUSH3 0x461BCD PUSH1 0xE5 SHL DUP2 MSTORE PUSH1 0x20 PUSH1 0x4 DUP3 ADD MSTORE PUSH1 0x9 PUSH1 0x24 DUP3 ADD MSTORE PUSH9 0x6E6F20746F6B656E73 PUSH1 0xB8 SHL PUSH1 0x44 DUP3 ADD MSTORE PUSH1 0x64 ADD PUSH2 0x503 JUMP JUMPDEST PUSH1 0x3 SLOAD PUSH0 SWAP1 PUSH2 0x2710 SWAP1 PUSH2 0x731 SWAP1 PUSH1 0x1 PUSH1 0xA0 SHL SWAP1 DIV PUSH2 0xFFFF AND DUP5 PUSH2 0xB91 JUMP JUMPDEST PUSH2 0x73B SWAP2 SWAP1 PUSH2 0xBA8 JUMP JUMPDEST SWAP1 POP PUSH0 PUSH2 0x748 DUP3 DUP5 PUSH2 0xBC7 JUMP JUMPDEST PUSH1 0x2 SLOAD PUSH1 0x40 MLOAD PUSH4 0xA9059CBB PUSH1 0xE0 SHL DUP2 MSTORE PUSH1 0x1 PUSH1 0x1 PUSH1 0xA0 SHL SUB SWAP2 DUP3 AND PUSH1 0x4 DUP3 ADD MSTORE PUSH1 0x24 DUP2 ADD DUP6 SWAP1 MSTORE SWAP2 SWAP3 POP PUSH32 0x0 AND SWAP1 PUSH4 0xA9059CBB SWAP1 PUSH1 0x44 ADD PUSH1 0x20 PUSH1 0x40 MLOAD DUP1 DUP4 SUB DUP2 PUSH0 DUP8 GAS CALL ISZERO DUP1 ISZERO PUSH2 0x7BA JUMPI RETURNDATASIZE PUSH0 PUSH0 RETURNDATACOPY RETURNDATASIZE PUSH0 REVERT JUMPDEST POP POP POP POP PUSH1 0x40 MLOAD RETURNDATASIZE PUSH1 0x1F NOT PUSH1 0x1F DUP3 ADD AND DUP3 ADD DUP1 PUSH1 0x40 MSTORE POP DUP2 ADD SWAP1 PUSH2 0x7DE SWAP2 SWAP1 PUSH2 0xB5E JUMP JUMPDEST PUSH2 0x815 JUMPI PUSH1 0x40 MLOAD PUSH3 0x461BCD PUSH1 0xE5 SHL DUP2 MSTORE PUSH1 0x20 PUSH1 0x4 DUP3 ADD MSTORE PUSH1 0x8 PUSH1 0x24 DUP3 ADD MSTORE PUSH8 0x1C1D588819985A5B PUSH1 0xC2 SHL PUSH1 0x44 DUP3 ADD MSTORE PUSH1 0x64 ADD PUSH2 0x503 JUMP JUMPDEST PUSH1 0x3 SLOAD PUSH1 0x40 MLOAD PUSH4 0xA9059CBB PUSH1 0xE0 SHL DUP2 MSTORE PUSH1 0x1 PUSH1 0x1 PUSH1 0xA0 SHL SUB SWAP2 DUP3 AND PUSH1 0x4 DUP3 ADD MSTORE PUSH1 0x24 DUP2 ADD DUP4 SWAP1 MSTORE PUSH32 0x0 SWAP1 SWAP2 AND SWAP1 PUSH4 0xA9059CBB SWAP1 PUSH1 0x44 ADD PUSH1 0x20 PUSH1 0x40 MLOAD DUP1 DUP4 SUB DUP2 PUSH0 DUP8 GAS CALL ISZERO DUP1 ISZERO PUSH2 0x886 JUMPI RETURNDATASIZE PUSH0 PUSH0 RETURNDATACOPY RETURNDATASIZE PUSH0 REVERT JUMPDEST POP POP POP POP PUSH1 0x40 MLOAD RETURNDATASIZE PUSH1 0x1F NOT PUSH1 0x1F DUP3 ADD AND DUP3 ADD DUP1 PUSH1 0x40 MSTORE POP DUP2 ADD SWAP1 PUSH2 0x8AA SWAP2 SWAP1 PUSH2 0xB5E JUMP JUMPDEST PUSH2 0x8E1 JUMPI PUSH1 0x40 MLOAD PUSH3 0x461BCD PUSH1 0xE5 SHL DUP2 MSTORE PUSH1 0x20 PUSH1 0x4 DUP3 ADD MSTORE PUSH1 0x8 PUSH1 0x24 DUP3 ADD MSTORE PUSH8 0x19195D8819985A5B PUSH1 0xC2 SHL PUSH1 0x44 DUP3 ADD MSTORE PUSH1 0x64 ADD PUSH2 0x503 JUMP JUMPDEST PUSH1 0x40 DUP1 MLOAD DUP5 DUP2 MSTORE PUSH1 0x20 DUP2 ADD DUP5 SWAP1 MSTORE SWAP1 DUP2 ADD DUP3 SWAP1 MSTORE PUSH32 0xC5D35A65AF09B3042394B742529D10F7FBF9A37294D6B13E4D63D06F9909A15B SWAP1 PUSH1 0x60 ADD PUSH1 0x40 MLOAD DUP1 SWAP2 SUB SWAP1 LOG1 POP POP POP POP PUSH2 0x92F PUSH1 0x1 DUP1 SSTORE JUMP JUMPDEST JUMP JUMPDEST PUSH2 0x619 DUP2 CALLER PUSH2 0xA8C JUMP JUMPDEST PUSH0 PUSH2 0x946 DUP4 DUP4 PUSH2 0x3E4 JUMP JUMPDEST PUSH2 0x9C3 JUMPI PUSH0 DUP4 DUP2 MSTORE PUSH1 0x20 DUP2 DUP2 MSTORE PUSH1 0x40 DUP1 DUP4 KECCAK256 PUSH1 0x1 PUSH1 0x1 PUSH1 0xA0 SHL SUB DUP7 AND DUP5 MSTORE SWAP1 SWAP2 MSTORE SWAP1 KECCAK256 DUP1 SLOAD PUSH1 0xFF NOT AND PUSH1 0x1 OR SWAP1 SSTORE PUSH2 0x97B CALLER SWAP1 JUMP JUMPDEST PUSH1 0x1 PUSH1 0x1 PUSH1 0xA0 SHL SUB AND DUP3 PUSH1 0x1 PUSH1 0x1 PUSH1 0xA0 SHL SUB AND DUP5 PUSH32 0x2F8788117E7EFF1D82E926EC794901D17C78024A50270940304540A733656F0D PUSH1 0x40 MLOAD PUSH1 0x40 MLOAD DUP1 SWAP2 SUB SWAP1 LOG4 POP PUSH1 0x1 PUSH2 0x2EF JUMP JUMPDEST POP PUSH0 PUSH2 0x2EF JUMP JUMPDEST PUSH0 PUSH2 0x9D5 DUP4 DUP4 PUSH2 0x3E4 JUMP JUMPDEST ISZERO PUSH2 0x9C3 JUMPI PUSH0 DUP4 DUP2 MSTORE PUSH1 0x20 DUP2 DUP2 MSTORE PUSH1 0x40 DUP1 DUP4 KECCAK256 PUSH1 0x1 PUSH1 0x1 PUSH1 0xA0 SHL SUB DUP7 AND DUP1 DUP6 MSTORE SWAP3 MSTORE DUP1 DUP4 KECCAK256 DUP1 SLOAD PUSH1 0xFF NOT AND SWAP1 SSTORE MLOAD CALLER SWAP3 DUP7 SWAP2 PUSH32 0xF6391F5C32D9C69D2A47EA670B442974B53935D1EDC7FD64EB21E047A839171B SWAP2 SWAP1 LOG4 POP PUSH1 0x1 PUSH2 0x2EF JUMP JUMPDEST PUSH1 0x2 PUSH1 0x1 SLOAD SUB PUSH2 0xA85 JUMPI PUSH1 0x40 MLOAD PUSH3 0x461BCD PUSH1 0xE5 SHL DUP2 MSTORE PUSH1 0x20 PUSH1 0x4 DUP3 ADD MSTORE PUSH1 0x1F PUSH1 0x24 DUP3 ADD MSTORE PUSH32 0x5265656E7472616E637947756172643A207265656E7472616E742063616C6C00 PUSH1 0x44 DUP3 ADD MSTORE PUSH1 0x64 ADD PUSH2 0x503 JUMP JUMPDEST PUSH1 0x2 PUSH1 0x1 SSTORE JUMP JUMPDEST PUSH2 0xA96 DUP3 DUP3 PUSH2 0x3E4 JUMP JUMPDEST PUSH2 0xAC5 JUMPI PUSH1 0x40 MLOAD PUSH4 0xE2517D3F PUSH1 0xE0 SHL DUP2 MSTORE PUSH1 0x1 PUSH1 0x1 PUSH1 0xA0 SHL SUB DUP3 AND PUSH1 0x4 DUP3 ADD MSTORE PUSH1 0x24 DUP2 ADD DUP4 SWAP1 MSTORE PUSH1 0x44 ADD PUSH2 0x503 JUMP JUMPDEST POP POP JUMP JUMPDEST PUSH0 PUSH1 0x20 DUP3 DUP5 SUB SLT ISZERO PUSH2 0xAD9 JUMPI PUSH0 PUSH0 REVERT JUMPDEST DUP2 CALLDATALOAD PUSH1 0x1 PUSH1 0x1 PUSH1 0xE0 SHL SUB NOT DUP2 AND DUP2 EQ PUSH2 0xAF0 JUMPI PUSH0 PUSH0 REVERT JUMPDEST SWAP4 SWAP3 POP POP POP JUMP JUMPDEST PUSH0 PUSH1 0x20 DUP3 DUP5 SUB SLT ISZERO PUSH2 0xB07 JUMPI PUSH0 PUSH0 REVERT JUMPDEST POP CALLDATALOAD SWAP2 SWAP1 POP JUMP JUMPDEST PUSH0 PUSH0 PUSH1 0x40 DUP4 DUP6 SUB SLT ISZERO PUSH2 0xB1F JUMPI PUSH0 PUSH0 REVERT JUMPDEST DUP3 CALLDATALOAD SWAP2 POP PUSH1 0x20 DUP4 ADD CALLDATALOAD PUSH1 0x1 PUSH1 0x1 PUSH1 0xA0 SHL SUB DUP2 AND DUP2 EQ PUSH2 0xB3C JUMPI PUSH0 PUSH0 REVERT JUMPDEST DUP1 SWAP2 POP POP SWAP3 POP SWAP3 SWAP1 POP JUMP JUMPDEST PUSH0 PUSH1 0x20 DUP3 DUP5 SUB SLT ISZERO PUSH2 0xB57 JUMPI PUSH0 PUSH0 REVERT JUMPDEST POP MLOAD SWAP2 SWAP1 POP JUMP JUMPDEST PUSH0 PUSH1 0x20 DUP3 DUP5 SUB SLT ISZERO PUSH2 0xB6E JUMPI PUSH0 PUSH0 REVERT JUMPDEST DUP2 MLOAD DUP1 ISZERO ISZERO DUP2 EQ PUSH2 0xAF0 JUMPI PUSH0 PUSH0 REVERT JUMPDEST PUSH4 0x4E487B71 PUSH1 0xE0 SHL PUSH0 MSTORE PUSH1 0x11 PUSH1 0x4 MSTORE PUSH1 0x24 PUSH0 REVERT JUMPDEST DUP1 DUP3 MUL DUP2 ISZERO DUP3 DUP3 DIV DUP5 EQ OR PUSH2 0x2EF JUMPI PUSH2 0x2EF PUSH2 0xB7D JUMP JUMPDEST PUSH0 DUP3 PUSH2 0xBC2 JUMPI PUSH4 0x4E487B71 PUSH1 0xE0 SHL PUSH0 MSTORE PUSH1 0x12 PUSH1 0x4 MSTORE PUSH1 0x24 PUSH0 REVERT JUMPDEST POP DIV SWAP1 JUMP JUMPDEST DUP2 DUP2 SUB DUP2 DUP2 GT ISZERO PUSH2 0x2EF JUMPI PUSH2 0x2EF PUSH2 0xB7D JUMP INVALID LOG2 PUSH5 0x6970667358 0x22 SLT KECCAK256 GASLIMIT RETURNCONTRACT 0x15 CALLCODE 0x2D 0xDA XOR 0xA5 EXTCALL 0xE DUP10 SUB 0x4C 0xB8 0x1E DUP5 RETURNDATACOPY PUSH13 0xE230160B662226B9F4AB1AC024 0xED PUSH5 0x736F6C6343 STOP ADDMOD 0x1E STOP CALLER 0xEB 0xEA PUSH2 0xBAC2 SWAP15 PUSH23 0x544EF1875472AAFF98E28D2DB11686C8CBEF6C2B35DBE3 0x24 SMOD "
				},
				"gasEstimates": {
					"creation": {
						"codeDepositCost": "617600",
						"executionCost": "infinite",
						"totalCost": "infinite"
					},
					"external": {
						"DEFAULT_ADMIN_ROLE()": "216",
						"MANAGER_ROLE()": "282",
						"SPLITTER_ROLE()": "260",
						"devs()": "2425",
						"devsBps()": "2373",
						"distribute()": "infinite",
						"emergencyWithdraw()": "infinite",
						"getBalance()": "infinite",
						"getRoleAdmin(bytes32)": "2512",
						"grantRole(bytes32,address)": "infinite",
						"hasRole(bytes32,address)": "2684",
						"publisher()": "2381",
						"publisherBps()": "2374",
						"renounceRole(bytes32,address)": "29010",
						"revokeRole(bytes32,address)": "infinite",
						"supportsInterface(bytes4)": "447",
						"token()": "infinite"
					}
				},
				"methodIdentifiers": {
					"DEFAULT_ADMIN_ROLE()": "a217fddf",
					"MANAGER_ROLE()": "ec87621c",
					"SPLITTER_ROLE()": "eb09c17c",
					"devs()": "9a96f829",
					"devsBps()": "e98c0990",
					"distribute()": "e4fc6b6d",
					"emergencyWithdraw()": "db2e21bc",
					"getBalance()": "12065fe0",
					"getRoleAdmin(bytes32)": "248a9ca3",
					"grantRole(bytes32,address)": "2f2ff15d",
					"hasRole(bytes32,address)": "91d14854",
					"publisher()": "8c72c54e",
					"publisherBps()": "aaecfa63",
					"renounceRole(bytes32,address)": "36568abe",
					"revokeRole(bytes32,address)": "d547741f",
					"supportsInterface(bytes4)": "01ffc9a7",
					"token()": "fc0c546a"
				}
			},
			"storageLayout": {
				"storage": [
					{
						"astId": 27,
						"contract": "contracts/TesseraFeeSplitter.sol:TesseraFeeSplitter",
						"label": "_roles",
						"offset": 0,
						"slot": "0",
						"type": "t_mapping(t_bytes32,t_struct(RoleData)22_storage)"
					},
					{
						"astId": 390,
						"contract": "contracts/TesseraFeeSplitter.sol:TesseraFeeSplitter",
						"label": "_status",
						"offset": 0,
						"slot": "1",
						"type": "t_uint256"
					},
					{
						"astId": 612,
						"contract": "contracts/TesseraFeeSplitter.sol:TesseraFeeSplitter",
						"label": "publisher",
						"offset": 0,
						"slot": "2",
						"type": "t_address"
					},
					{
						"astId": 614,
						"contract": "contracts/TesseraFeeSplitter.sol:TesseraFeeSplitter",
						"label": "devs",
						"offset": 0,
						"slot": "3",
						"type": "t_address"
					},
					{
						"astId": 616,
						"contract": "contracts/TesseraFeeSplitter.sol:TesseraFeeSplitter",
						"label": "publisherBps",
						"offset": 20,
						"slot": "3",
						"type": "t_uint16"
					},
					{
						"astId": 618,
						"contract": "contracts/TesseraFeeSplitter.sol:TesseraFeeSplitter",
						"label": "devsBps",
						"offset": 22,
						"slot": "3",
						"type": "t_uint16"
					}
				],
				"types": {
					"t_address": {
						"encoding": "inplace",
						"label": "address",
						"numberOfBytes": "20"
					},
					"t_bool": {
						"encoding": "inplace",
						"label": "bool",
						"numberOfBytes": "1"
					},
					"t_bytes32": {
						"encoding": "inplace",
						"label": "bytes32",
						"numberOfBytes": "32"
					},
					"t_mapping(t_address,t_bool)": {
						"encoding": "mapping",
						"key": "t_address",
						"label": "mapping(address => bool)",
						"numberOfBytes": "32",
						"value": "t_bool"
					},
					"t_mapping(t_bytes32,t_struct(RoleData)22_storage)": {
						"encoding": "mapping",
						"key": "t_bytes32",
						"label": "mapping(bytes32 => struct AccessControl.RoleData)",
						"numberOfBytes": "32",
						"value": "t_struct(RoleData)22_storage"
					},
					"t_struct(RoleData)22_storage": {
						"encoding": "inplace",
						"label": "struct AccessControl.RoleData",
						"members": [
							{
								"astId": 19,
								"contract": "contracts/TesseraFeeSplitter.sol:TesseraFeeSplitter",
								"label": "hasRole",
								"offset": 0,
								"slot": "0",
								"type": "t_mapping(t_address,t_bool)"
							},
							{
								"astId": 21,
								"contract": "contracts/TesseraFeeSplitter.sol:TesseraFeeSplitter",
								"label": "adminRole",
								"offset": 0,
								"slot": "1",
								"type": "t_bytes32"
							}
						],
						"numberOfBytes": "64"
					},
					"t_uint16": {
						"encoding": "inplace",
						"label": "uint16",
						"numberOfBytes": "2"
					},
					"t_uint256": {
						"encoding": "inplace",
						"label": "uint256",
						"numberOfBytes": "32"
					}
				}
			},
			"userdoc": {
				"kind": "user",
				"methods": {
					"distribute()": {
						"notice": "Only publisher or devs can call distribute."
					},
					"emergencyWithdraw()": {
						"notice": "Admin can emergency withdraw"
					},
					"getBalance()": {
						"notice": "Check contract's balance"
					}
				},
				"version": 1
			}
		}
	}
}