{
	"contracts/TesseraFeeSplitter.sol": {
		"TesseraFeeSplitter": {
			"abi": [
				{
					"inputs": [
						{
							"internalType": "address",
							"name": "_token",
							"type": "address"
						},
						{
							"internalType": "address",
							"name": "_publisher",
							"type": "address"
						},
						{
							"internalType": "address",
							"name": "_devs",
							"type": "address"
						},
						{
							"internalType": "uint16",
							"name": "_publisherBps",
							"type": "uint16"
						},
						{
							"internalType": "uint16",
							"name": "_devsBps",
							"type": "uint16"
						},
						{
							"internalType": "address",
							"name": "admin",
							"type": "address"
						}
					],
					"stateMutability": "nonpayable",
					"type": "constructor"
				},
				{
					"inputs": [],
					"name": "AccessControlBadConfirmation",
					"type": "error"
				},
				{
					"inputs": [
						{
							"internalType": "address",
							"name": "account",
							"type": "address"
						},
						{
							"internalType": "bytes32",
							"name": "neededRole",
							"type": "bytes32"
						}
					],
					"name": "AccessControlUnauthorizedAccount",
					"type": "error"
				},
				{
					"anonymous": false,
					"inputs": [
						{
							"indexed": false,
							"internalType": "uint256",
							"name": "total",
							"type": "uint256"
						},
						{
							"indexed": false,
							"internalType": "uint256",
							"name": "publisherAmount",
							"type": "uint256"
						},
						{
							"indexed": false,
							"internalType": "uint256",
							"name": "devsAmount",
							"type": "uint256"
						}
					],
					"name": "Distributed",
					"type": "event"
				},
				{
					"anonymous": false,
					"inputs": [
						{
							"indexed": false,
							"internalType": "address",
							"name": "recipient",
							"type": "address"
						},
						{
							"indexed": false,
							"internalType": "uint256",
							"name": "amount",
							"type": "uint256"
						}
					],
					"name": "EmergencyWithdraw",
					"type": "event"
				},
				{
					"anonymous": false,
					"inputs": [
						{
							"indexed": false,
							"internalType": "uint16",
							"name": "publisherBps",
							"type": "uint16"
						},
						{
							"indexed": false,
							"internalType": "uint16",
							"name": "devsBps",
							"type": "uint16"
						}
					],
					"name": "PercentagesUpdated",
					"type": "event"
				},
				{
					"anonymous": false,
					"inputs": [
						{
							"indexed": false,
							"internalType": "address",
							"name": "publisher",
							"type": "address"
						},
						{
							"indexed": false,
							"internalType": "address",
							"name": "devs",
							"type": "address"
						}
					],
					"name": "RecipientsUpdated",
					"type": "event"
				},
				{
					"anonymous": false,
					"inputs": [
						{
							"indexed": true,
							"internalType": "bytes32",
							"name": "role",
							"type": "bytes32"
						},
						{
							"indexed": true,
							"internalType": "bytes32",
							"name": "previousAdminRole",
							"type": "bytes32"
						},
						{
							"indexed": true,
							"internalType": "bytes32",
							"name": "newAdminRole",
							"type": "bytes32"
						}
					],
					"name": "RoleAdminChanged",
					"type": "event"
				},
				{
					"anonymous": false,
					"inputs": [
						{
							"indexed": true,
							"internalType": "bytes32",
							"name": "role",
							"type": "bytes32"
						},
						{
							"indexed": true,
							"internalType": "address",
							"name": "account",
							"type": "address"
						},
						{
							"indexed": true,
							"internalType": "address",
							"name": "sender",
							"type": "address"
						}
					],
					"name": "RoleGranted",
					"type": "event"
				},
				{
					"anonymous": false,
					"inputs": [
						{
							"indexed": true,
							"internalType": "bytes32",
							"name": "role",
							"type": "bytes32"
						},
						{
							"indexed": true,
							"internalType": "address",
							"name": "account",
							"type": "address"
						},
						{
							"indexed": true,
							"internalType": "address",
							"name": "sender",
							"type": "address"
						}
					],
					"name": "RoleRevoked",
					"type": "event"
				},
				{
					"inputs": [],
					"name": "DEFAULT_ADMIN_ROLE",
					"outputs": [
						{
							"internalType": "bytes32",
							"name": "",
							"type": "bytes32"
						}
					],
					"stateMutability": "view",
					"type": "function"
				},
				{
					"inputs": [],
					"name": "MANAGER_ROLE",
					"outputs": [
						{
							"internalType": "bytes32",
							"name": "",
							"type": "bytes32"
						}
					],
					"stateMutability": "view",
					"type": "function"
				},
				{
					"inputs": [],
					"name": "SPLITTER_ROLE",
					"outputs": [
						{
							"internalType": "bytes32",
							"name": "",
							"type": "bytes32"
						}
					],
					"stateMutability": "view",
					"type": "function"
				},
				{
					"inputs": [],
					"name": "devs",
					"outputs": [
						{
							"internalType": "address",
							"name": "",
							"type": "address"
						}
					],
					"stateMutability": "view",
					"type": "function"
				},
				{
					"inputs": [],
					"name": "devsBps",
					"outputs": [
						{
							"internalType": "uint16",
							"name": "",
							"type": "uint16"
						}
					],
					"stateMutability": "view",
					"type": "function"
				},
				{
					"inputs": [],
					"name": "distribute",
					"outputs": [],
					"stateMutability": "nonpayable",
					"type": "function"
				},
				{
					"inputs": [],
					"name": "emergencyWithdraw",
					"outputs": [],
					"stateMutability": "nonpayable",
					"type": "function"
				},
				{
					"inputs": [
						{
							"internalType": "bytes32",
							"name": "role",
							"type": "bytes32"
						}
					],
					"name": "getRoleAdmin",
					"outputs": [
						{
							"internalType": "bytes32",
							"name": "",
							"type": "bytes32"
						}
					],
					"stateMutability": "view",
					"type": "function"
				},
				{
					"inputs": [
						{
							"internalType": "bytes32",
							"name": "role",
							"type": "bytes32"
						},
						{
							"internalType": "address",
							"name": "account",
							"type": "address"
						}
					],
					"name": "grantRole",
					"outputs": [],
					"stateMutability": "nonpayable",
					"type": "function"
				},
				{
					"inputs": [
						{
							"internalType": "bytes32",
							"name": "role",
							"type": "bytes32"
						},
						{
							"internalType": "address",
							"name": "account",
							"type": "address"
						}
					],
					"name": "hasRole",
					"outputs": [
						{
							"internalType": "bool",
							"name": "",
							"type": "bool"
						}
					],
					"stateMutability": "view",
					"type": "function"
				},
				{
					"inputs": [],
					"name": "publisher",
					"outputs": [
						{
							"internalType": "address",
							"name": "",
							"type": "address"
						}
					],
					"stateMutability": "view",
					"type": "function"
				},
				{
					"inputs": [],
					"name": "publisherBps",
					"outputs": [
						{
							"internalType": "uint16",
							"name": "",
							"type": "uint16"
						}
					],
					"stateMutability": "view",
					"type": "function"
				},
				{
					"inputs": [
						{
							"internalType": "bytes32",
							"name": "role",
							"type": "bytes32"
						},
						{
							"internalType": "address",
							"name": "callerConfirmation",
							"type": "address"
						}
					],
					"name": "renounceRole",
					"outputs": [],
					"stateMutability": "nonpayable",
					"type": "function"
				},
				{
					"inputs": [
						{
							"internalType": "bytes32",
							"name": "role",
							"type": "bytes32"
						},
						{
							"internalType": "address",
							"name": "account",
							"type": "address"
						}
					],
					"name": "revokeRole",
					"outputs": [],
					"stateMutability": "nonpayable",
					"type": "function"
				},
				{
					"inputs": [
						{
							"internalType": "bytes4",
							"name": "interfaceId",
							"type": "bytes4"
						}
					],
					"name": "supportsInterface",
					"outputs": [
						{
							"internalType": "bool",
							"name": "",
							"type": "bool"
						}
					],
					"stateMutability": "view",
					"type": "function"
				},
				{
					"inputs": [],
					"name": "token",
					"outputs": [
						{
							"internalType": "contract IERC20",
							"name": "",
							"type": "address"
						}
					],
					"stateMutability": "view",
					"type": "function"
				}
			],
			"devdoc": {
				"errors": {
					"AccessControlBadConfirmation()": [
						{
							"details": "The caller of a function is not the expected one. NOTE: Don't confuse with {AccessControlUnauthorizedAccount}."
						}
					],
					"AccessControlUnauthorizedAccount(address,bytes32)": [
						{
							"details": "The `account` is missing a role."
						}
					]
				},
				"events": {
					"RoleAdminChanged(bytes32,bytes32,bytes32)": {
						"details": "Emitted when `newAdminRole` is set as ``role``'s admin role, replacing `previousAdminRole` `DEFAULT_ADMIN_ROLE` is the starting admin for all roles, despite {RoleAdminChanged} not being emitted to signal this."
					},
					"RoleGranted(bytes32,address,address)": {
						"details": "Emitted when `account` is granted `role`. `sender` is the account that originated the contract call. This account bears the admin role (for the granted role). Expected in cases where the role was granted using the internal {AccessControl-_grantRole}."
					},
					"RoleRevoked(bytes32,address,address)": {
						"details": "Emitted when `account` is revoked `role`. `sender` is the account that originated the contract call:   - if using `revokeRole`, it is the admin role bearer   - if using `renounceRole`, it is the role bearer (i.e. `account`)"
					}
				},
				"kind": "dev",
				"methods": {
					"getRoleAdmin(bytes32)": {
						"details": "Returns the admin role that controls `role`. See {grantRole} and {revokeRole}. To change a role's admin, use {_setRoleAdmin}."
					},
					"grantRole(bytes32,address)": {
						"details": "Grants `role` to `account`. If `account` had not been already granted `role`, emits a {RoleGranted} event. Requirements: - the caller must have ``role``'s admin role. May emit a {RoleGranted} event."
					},
					"hasRole(bytes32,address)": {
						"details": "Returns `true` if `account` has been granted `role`."
					},
					"renounceRole(bytes32,address)": {
						"details": "Revokes `role` from the calling account. Roles are often managed via {grantRole} and {revokeRole}: this function's purpose is to provide a mechanism for accounts to lose their privileges if they are compromised (such as when a trusted device is misplaced). If the calling account had been revoked `role`, emits a {RoleRevoked} event. Requirements: - the caller must be `callerConfirmation`. May emit a {RoleRevoked} event."
					},
					"revokeRole(bytes32,address)": {
						"details": "Revokes `role` from `account`. If `account` had been granted `role`, emits a {RoleRevoked} event. Requirements: - the caller must have ``role``'s admin role. May emit a {RoleRevoked} event."
					},
					"supportsInterface(bytes4)": {
						"details": "Returns true if this contract implements the interface defined by `interfaceId`. See the corresponding https://eips.ethereum.org/EIPS/eip-165#how-interfaces-are-identified[ERC section] to learn more about how these ids are created. This function call must use less than 30 000 gas."
					}
				},
				"version": 1
			},
			"evm": {
				"assembly": "    /* \"contracts/TesseraFeeSplitter.sol\":245:2816  contract TesseraFeeSplitter is AccessControl, ReentrancyGuard {... */\n  mstore(0x40, 0xa0)\n    /* \"contracts/TesseraFeeSplitter.sol\":956:1792  constructor (... */\n  callvalue\n  dup1\n  iszero\n  tag_1\n  jumpi\n  revert(0x00, 0x00)\ntag_1:\n  pop\n  mload(0x40)\n  sub(codesize, bytecodeSize)\n  dup1\n  bytecodeSize\n  dup4\n  codecopy\n  dup2\n  add\n  0x40\n  dup2\n  swap1\n  mstore\n  tag_2\n  swap2\n  tag_3\n  jump\t// in\ntag_2:\n    /* \"@openzeppelin/contracts/security/ReentrancyGuard.sol\":1716:1717  1 */\n  0x01\n    /* \"@openzeppelin/contracts/security/ReentrancyGuard.sol\":1821:1843  _status = _NOT_ENTERED */\n  dup1\n  sstore\n  sub(shl(0xa0, 0x01), 0x01)\n    /* \"contracts/TesseraFeeSplitter.sol\":1156:1176  _token != address(0) */\n  dup7\n  and\n    /* \"contracts/TesseraFeeSplitter.sol\":1148:1188  require(_token != address(0), \"token=0\") */\n  tag_8\n  jumpi\n  mload(0x40)\n  shl(0xe5, 0x461bcd)\n  dup2\n  mstore\n    /* \"#utility.yul\":1203:1205   */\n  0x20\n    /* \"contracts/TesseraFeeSplitter.sol\":1148:1188  require(_token != address(0), \"token=0\") */\n  0x04\n  dup3\n  add\n    /* \"#utility.yul\":1185:1206   */\n  mstore\n    /* \"#utility.yul\":1242:1243   */\n  0x07\n    /* \"#utility.yul\":1222:1240   */\n  0x24\n  dup3\n  add\n    /* \"#utility.yul\":1215:1244   */\n  mstore\n  shl(0xcc, 0x0746f6b656e3d3)\n    /* \"#utility.yul\":1260:1278   */\n  0x44\n  dup3\n  add\n    /* \"#utility.yul\":1253:1290   */\n  mstore\n    /* \"#utility.yul\":1307:1325   */\n  0x64\n  add\n    /* \"contracts/TesseraFeeSplitter.sol\":1148:1188  require(_token != address(0), \"token=0\") */\ntag_9:\n  mload(0x40)\n  dup1\n  swap2\n  sub\n  swap1\n  revert\ntag_8:\n  sub(shl(0xa0, 0x01), 0x01)\n    /* \"contracts/TesseraFeeSplitter.sol\":1207:1231  _publisher != address(0) */\n  dup6\n  and\n    /* \"contracts/TesseraFeeSplitter.sol\":1199:1241  require(_publisher != address(0), \"pub=0\") */\n  tag_11\n  jumpi\n  mload(0x40)\n  shl(0xe5, 0x461bcd)\n  dup2\n  mstore\n    /* \"#utility.yul\":1538:1540   */\n  0x20\n    /* \"contracts/TesseraFeeSplitter.sol\":1199:1241  require(_publisher != address(0), \"pub=0\") */\n  0x04\n  dup3\n  add\n    /* \"#utility.yul\":1520:1541   */\n  mstore\n    /* \"#utility.yul\":1577:1578   */\n  0x05\n    /* \"#utility.yul\":1557:1575   */\n  0x24\n  dup3\n  add\n    /* \"#utility.yul\":1550:1579   */\n  mstore\n  shl(0xdc, 0x07075623d3)\n    /* \"#utility.yul\":1595:1613   */\n  0x44\n  dup3\n  add\n    /* \"#utility.yul\":1588:1623   */\n  mstore\n    /* \"#utility.yul\":1640:1658   */\n  0x64\n  add\n    /* \"contracts/TesseraFeeSplitter.sol\":1199:1241  require(_publisher != address(0), \"pub=0\") */\n  tag_9\n    /* \"#utility.yul\":1336:1664   */\n  jump\n    /* \"contracts/TesseraFeeSplitter.sol\":1199:1241  require(_publisher != address(0), \"pub=0\") */\ntag_11:\n  sub(shl(0xa0, 0x01), 0x01)\n    /* \"contracts/TesseraFeeSplitter.sol\":1260:1279  _devs != address(0) */\n  dup5\n  and\n    /* \"contracts/TesseraFeeSplitter.sol\":1252:1290  require(_devs != address(0), \"devs=0\") */\n  tag_14\n  jumpi\n  mload(0x40)\n  shl(0xe5, 0x461bcd)\n  dup2\n  mstore\n    /* \"#utility.yul\":1871:1873   */\n  0x20\n    /* \"contracts/TesseraFeeSplitter.sol\":1252:1290  require(_devs != address(0), \"devs=0\") */\n  0x04\n  dup3\n  add\n    /* \"#utility.yul\":1853:1874   */\n  mstore\n    /* \"#utility.yul\":1910:1911   */\n  0x06\n    /* \"#utility.yul\":1890:1908   */\n  0x24\n  dup3\n  add\n    /* \"#utility.yul\":1883:1912   */\n  mstore\n  shl(0xd4, 0x0646576733d3)\n    /* \"#utility.yul\":1928:1946   */\n  0x44\n  dup3\n  add\n    /* \"#utility.yul\":1921:1957   */\n  mstore\n    /* \"#utility.yul\":1974:1992   */\n  0x64\n  add\n    /* \"contracts/TesseraFeeSplitter.sol\":1252:1290  require(_devs != address(0), \"devs=0\") */\n  tag_9\n    /* \"#utility.yul\":1669:1998   */\n  jump\n    /* \"contracts/TesseraFeeSplitter.sol\":1252:1290  require(_devs != address(0), \"devs=0\") */\ntag_14:\n    /* \"contracts/TesseraFeeSplitter.sol\":1309:1333  _publisherBps + _devsBps */\n  tag_17\n    /* \"contracts/TesseraFeeSplitter.sol\":1325:1333  _devsBps */\n  dup3\n    /* \"contracts/TesseraFeeSplitter.sol\":1309:1322  _publisherBps */\n  dup5\n    /* \"contracts/TesseraFeeSplitter.sol\":1309:1333  _publisherBps + _devsBps */\n  tag_18\n  jump\t// in\ntag_17:\n    /* \"contracts/TesseraFeeSplitter.sol\":1309:1342  _publisherBps + _devsBps == 10000 */\n  0xffff\n  and\n    /* \"contracts/TesseraFeeSplitter.sol\":1337:1342  10000 */\n  0x2710\n    /* \"contracts/TesseraFeeSplitter.sol\":1309:1342  _publisherBps + _devsBps == 10000 */\n  eq\n    /* \"contracts/TesseraFeeSplitter.sol\":1301:1363  require(_publisherBps + _devsBps == 10000, \"bps sum != 10000\") */\n  tag_19\n  jumpi\n  mload(0x40)\n  shl(0xe5, 0x461bcd)\n  dup2\n  mstore\n    /* \"#utility.yul\":2462:2464   */\n  0x20\n    /* \"contracts/TesseraFeeSplitter.sol\":1301:1363  require(_publisherBps + _devsBps == 10000, \"bps sum != 10000\") */\n  0x04\n  dup3\n  add\n    /* \"#utility.yul\":2444:2465   */\n  mstore\n    /* \"#utility.yul\":2501:2503   */\n  0x10\n    /* \"#utility.yul\":2481:2499   */\n  0x24\n  dup3\n  add\n    /* \"#utility.yul\":2474:2504   */\n  mstore\n  shl(0x84, 0x06270732073756d20213d20313030303)\n    /* \"#utility.yul\":2520:2538   */\n  0x44\n  dup3\n  add\n    /* \"#utility.yul\":2513:2559   */\n  mstore\n    /* \"#utility.yul\":2576:2594   */\n  0x64\n  add\n    /* \"contracts/TesseraFeeSplitter.sol\":1301:1363  require(_publisherBps + _devsBps == 10000, \"bps sum != 10000\") */\n  tag_9\n    /* \"#utility.yul\":2260:2600   */\n  jump\n    /* \"contracts/TesseraFeeSplitter.sol\":1301:1363  require(_publisherBps + _devsBps == 10000, \"bps sum != 10000\") */\ntag_19:\n    /* \"contracts/TesseraFeeSplitter.sol\":1391:1396  token */\n  0x80\n  dup1\n  mload\n  sub(shl(0xa0, 0x01), 0x01)\n    /* \"contracts/TesseraFeeSplitter.sol\":1376:1397  token = IERC20(token) */\n  swap1\n  dup2\n  and\n  swap1\n  swap2\n  mstore\n    /* \"contracts/TesseraFeeSplitter.sol\":1410:1419  publisher */\n  0x02\n    /* \"contracts/TesseraFeeSplitter.sol\":1410:1432  publisher = _publisher */\n  dup1\n  sload\n  dup8\n  dup4\n  and\n  not(sub(shl(0xa0, 0x01), 0x01))\n  swap1\n  swap2\n  and\n  or\n  swap1\n  sstore\n    /* \"contracts/TesseraFeeSplitter.sol\":1443:1447  devs */\n  0x03\n    /* \"contracts/TesseraFeeSplitter.sol\":1443:1455  devs = _devs */\n  dup1\n  sload\n    /* \"contracts/TesseraFeeSplitter.sol\":1466:1494  publisherBps = _publisherBps */\n  0xffff\n    /* \"contracts/TesseraFeeSplitter.sol\":1505:1523  devsBps = _devsBps */\n  dup6\n  dup2\n  and\n  shl(0xb0, 0x01)\n  mul\n  not(shl(0xb0, 0xffff))\n    /* \"contracts/TesseraFeeSplitter.sol\":1466:1494  publisherBps = _publisherBps */\n  swap2\n  dup9\n  and\n  shl(0xa0, 0x01)\n  mul\n  not(sub(shl(0xb0, 0x01), 0x01))\n  swap1\n  swap4\n  and\n    /* \"contracts/TesseraFeeSplitter.sol\":1443:1455  devs = _devs */\n  swap5\n  dup10\n  and\n    /* \"contracts/TesseraFeeSplitter.sol\":1466:1494  publisherBps = _publisherBps */\n  swap5\n  swap1\n  swap5\n  or\n  swap2\n  swap1\n  swap2\n  or\n    /* \"contracts/TesseraFeeSplitter.sol\":1505:1523  devsBps = _devsBps */\n  and\n  swap2\n  swap1\n  swap2\n  or\n  swap1\n  sstore\n    /* \"contracts/TesseraFeeSplitter.sol\":1559:1596  _grantRole(DEFAULT_ADMIN_ROLE, admin) */\n  tag_22\n  0x00\n    /* \"contracts/TesseraFeeSplitter.sol\":1590:1595  admin */\n  dup3\n    /* \"contracts/TesseraFeeSplitter.sol\":1559:1569  _grantRole */\n  tag_23\n    /* \"contracts/TesseraFeeSplitter.sol\":1559:1596  _grantRole(DEFAULT_ADMIN_ROLE, admin) */\n  jump\t// in\ntag_22:\n  pop\n    /* \"contracts/TesseraFeeSplitter.sol\":1607:1638  _grantRole(MANAGER_ROLE, admin) */\n  tag_24\n    /* \"contracts/TesseraFeeSplitter.sol\":353:378  keccak256(\"MANAGER_ROLE\") */\n  0x241ecf16d79d0f8dbfb92cbc07fe17840425976cf0667f022fe9877caa831b08\n    /* \"contracts/TesseraFeeSplitter.sol\":1632:1637  admin */\n  dup3\n    /* \"contracts/TesseraFeeSplitter.sol\":1607:1617  _grantRole */\n  tag_23\n    /* \"contracts/TesseraFeeSplitter.sol\":1607:1638  _grantRole(MANAGER_ROLE, admin) */\n  jump\t// in\ntag_24:\n  pop\n    /* \"contracts/TesseraFeeSplitter.sol\":1704:1741  _grantRole(SPLITTER_ROLE, _publisher) */\n  tag_25\n  mload(0x00)\n  codecopy(0x00, data_4edf893ca5a9f02f81d8f477a97c35f29f12aaeb8e51e9a5aac3a24649676c78, 0x20)\n  mload(0x00)\n  swap1\n  0x00\n  mstore\n    /* \"contracts/TesseraFeeSplitter.sol\":1730:1740  _publisher */\n  dup7\n    /* \"contracts/TesseraFeeSplitter.sol\":1704:1714  _grantRole */\n  tag_23\n    /* \"contracts/TesseraFeeSplitter.sol\":1704:1741  _grantRole(SPLITTER_ROLE, _publisher) */\n  jump\t// in\ntag_25:\n  pop\n    /* \"contracts/TesseraFeeSplitter.sol\":1752:1784  _grantRole(SPLITTER_ROLE, _devs) */\n  tag_26\n  mload(0x00)\n  codecopy(0x00, data_4edf893ca5a9f02f81d8f477a97c35f29f12aaeb8e51e9a5aac3a24649676c78, 0x20)\n  mload(0x00)\n  swap1\n  0x00\n  mstore\n    /* \"contracts/TesseraFeeSplitter.sol\":1778:1783  _devs */\n  dup6\n    /* \"contracts/TesseraFeeSplitter.sol\":1752:1762  _grantRole */\n  tag_23\n    /* \"contracts/TesseraFeeSplitter.sol\":1752:1784  _grantRole(SPLITTER_ROLE, _devs) */\n  jump\t// in\ntag_26:\n  pop\n    /* \"contracts/TesseraFeeSplitter.sol\":956:1792  constructor (... */\n  pop\n  pop\n  pop\n  pop\n  pop\n  pop\n    /* \"contracts/TesseraFeeSplitter.sol\":245:2816  contract TesseraFeeSplitter is AccessControl, ReentrancyGuard {... */\n  jump(tag_39)\n    /* \"@openzeppelin/contracts/access/AccessControl.sol\":6155:6471  function _grantRole(bytes32 role, address account) internal virtual returns (bool) {... */\ntag_23:\n    /* \"@openzeppelin/contracts/access/AccessControl.sol\":6232:6236  bool */\n  0x00\n    /* \"@openzeppelin/contracts/access/AccessControl.sol\":2930:2942  _roles[role] */\n  dup3\n  dup2\n  mstore\n  0x20\n  dup2\n  dup2\n  mstore\n  0x40\n  dup1\n  dup4\n  keccak256\n  sub(shl(0xa0, 0x01), 0x01)\n    /* \"@openzeppelin/contracts/access/AccessControl.sol\":2930:2959  _roles[role].hasRole[account] */\n  dup6\n  and\n  dup5\n  mstore\n  swap1\n  swap2\n  mstore\n  dup2\n  keccak256\n  sload\n  0xff\n  and\n    /* \"@openzeppelin/contracts/access/AccessControl.sol\":6248:6465  if (!hasRole(role, account)) {... */\n  tag_31\n  jumpi\n    /* \"@openzeppelin/contracts/access/AccessControl.sol\":6291:6297  _roles */\n  0x00\n    /* \"@openzeppelin/contracts/access/AccessControl.sol\":6291:6303  _roles[role] */\n  dup4\n  dup2\n  mstore\n  0x20\n  dup2\n  dup2\n  mstore\n  0x40\n  dup1\n  dup4\n  keccak256\n  sub(shl(0xa0, 0x01), 0x01)\n    /* \"@openzeppelin/contracts/access/AccessControl.sol\":6291:6320  _roles[role].hasRole[account] */\n  dup7\n  and\n  dup5\n  mstore\n  swap1\n  swap2\n  mstore\n  swap1\n  keccak256\n    /* \"@openzeppelin/contracts/access/AccessControl.sol\":6291:6327  _roles[role].hasRole[account] = true */\n  dup1\n  sload\n  not(0xff)\n  and\n    /* \"@openzeppelin/contracts/access/AccessControl.sol\":6323:6327  true */\n  0x01\n    /* \"@openzeppelin/contracts/access/AccessControl.sol\":6291:6327  _roles[role].hasRole[account] = true */\n  or\n  swap1\n  sstore\n    /* \"@openzeppelin/contracts/access/AccessControl.sol\":6373:6385  _msgSender() */\n  tag_32\n    /* \"@openzeppelin/contracts/utils/Context.sol\":735:745  msg.sender */\n  caller\n  swap1\n    /* \"@openzeppelin/contracts/utils/Context.sol\":656:752  function _msgSender() internal view virtual returns (address) {... */\n  jump\n    /* \"@openzeppelin/contracts/access/AccessControl.sol\":6373:6385  _msgSender() */\ntag_32:\n  sub(shl(0xa0, 0x01), 0x01)\n    /* \"@openzeppelin/contracts/access/AccessControl.sol\":6346:6386  RoleGranted(role, account, _msgSender()) */\n  and\n    /* \"@openzeppelin/contracts/access/AccessControl.sol\":6364:6371  account */\n  dup3\n  sub(shl(0xa0, 0x01), 0x01)\n    /* \"@openzeppelin/contracts/access/AccessControl.sol\":6346:6386  RoleGranted(role, account, _msgSender()) */\n  and\n    /* \"@openzeppelin/contracts/access/AccessControl.sol\":6358:6362  role */\n  dup5\n    /* \"@openzeppelin/contracts/access/AccessControl.sol\":6346:6386  RoleGranted(role, account, _msgSender()) */\n  0x2f8788117e7eff1d82e926ec794901d17c78024a50270940304540a733656f0d\n  mload(0x40)\n  mload(0x40)\n  dup1\n  swap2\n  sub\n  swap1\n  log4\n  pop\n    /* \"@openzeppelin/contracts/access/AccessControl.sol\":6407:6411  true */\n  0x01\n    /* \"@openzeppelin/contracts/access/AccessControl.sol\":6400:6411  return true */\n  jump(tag_34)\n    /* \"@openzeppelin/contracts/access/AccessControl.sol\":6248:6465  if (!hasRole(role, account)) {... */\ntag_31:\n  pop\n    /* \"@openzeppelin/contracts/access/AccessControl.sol\":6449:6454  false */\n  0x00\n    /* \"@openzeppelin/contracts/access/AccessControl.sol\":6248:6465  if (!hasRole(role, account)) {... */\ntag_34:\n    /* \"@openzeppelin/contracts/access/AccessControl.sol\":6155:6471  function _grantRole(bytes32 role, address account) internal virtual returns (bool) {... */\n  swap3\n  swap2\n  pop\n  pop\n  jump\t// out\n    /* \"#utility.yul\":14:191   */\ntag_37:\n    /* \"#utility.yul\":93:106   */\n  dup1\n  mload\n  sub(shl(0xa0, 0x01), 0x01)\n    /* \"#utility.yul\":135:166   */\n  dup2\n  and\n    /* \"#utility.yul\":125:167   */\n  dup2\n  eq\n    /* \"#utility.yul\":115:185   */\n  tag_41\n  jumpi\n    /* \"#utility.yul\":181:182   */\n  0x00\n    /* \"#utility.yul\":178:179   */\n  0x00\n    /* \"#utility.yul\":171:183   */\n  revert\n    /* \"#utility.yul\":115:185   */\ntag_41:\n    /* \"#utility.yul\":14:191   */\n  swap2\n  swap1\n  pop\n  jump\t// out\n    /* \"#utility.yul\":196:359   */\ntag_38:\n    /* \"#utility.yul\":274:287   */\n  dup1\n  mload\n    /* \"#utility.yul\":327:333   */\n  0xffff\n    /* \"#utility.yul\":316:334   */\n  dup2\n  and\n    /* \"#utility.yul\":306:335   */\n  dup2\n  eq\n    /* \"#utility.yul\":296:353   */\n  tag_41\n  jumpi\n    /* \"#utility.yul\":349:350   */\n  0x00\n    /* \"#utility.yul\":346:347   */\n  0x00\n    /* \"#utility.yul\":339:351   */\n  revert\n    /* \"#utility.yul\":364:996   */\ntag_3:\n    /* \"#utility.yul\":477:483   */\n  0x00\n    /* \"#utility.yul\":485:491   */\n  0x00\n    /* \"#utility.yul\":493:499   */\n  0x00\n    /* \"#utility.yul\":501:507   */\n  0x00\n    /* \"#utility.yul\":509:515   */\n  0x00\n    /* \"#utility.yul\":517:523   */\n  0x00\n    /* \"#utility.yul\":570:573   */\n  0xc0\n    /* \"#utility.yul\":558:567   */\n  dup8\n    /* \"#utility.yul\":549:556   */\n  dup10\n    /* \"#utility.yul\":545:568   */\n  sub\n    /* \"#utility.yul\":541:574   */\n  slt\n    /* \"#utility.yul\":538:591   */\n  iszero\n  tag_45\n  jumpi\n    /* \"#utility.yul\":587:588   */\n  0x00\n    /* \"#utility.yul\":584:585   */\n  0x00\n    /* \"#utility.yul\":577:589   */\n  revert\n    /* \"#utility.yul\":538:591   */\ntag_45:\n    /* \"#utility.yul\":610:650   */\n  tag_46\n    /* \"#utility.yul\":640:649   */\n  dup8\n    /* \"#utility.yul\":610:650   */\n  tag_37\n  jump\t// in\ntag_46:\n    /* \"#utility.yul\":600:650   */\n  swap6\n  pop\n    /* \"#utility.yul\":669:718   */\n  tag_47\n    /* \"#utility.yul\":714:716   */\n  0x20\n    /* \"#utility.yul\":703:712   */\n  dup9\n    /* \"#utility.yul\":699:717   */\n  add\n    /* \"#utility.yul\":669:718   */\n  tag_37\n  jump\t// in\ntag_47:\n    /* \"#utility.yul\":659:718   */\n  swap5\n  pop\n    /* \"#utility.yul\":737:786   */\n  tag_48\n    /* \"#utility.yul\":782:784   */\n  0x40\n    /* \"#utility.yul\":771:780   */\n  dup9\n    /* \"#utility.yul\":767:785   */\n  add\n    /* \"#utility.yul\":737:786   */\n  tag_37\n  jump\t// in\ntag_48:\n    /* \"#utility.yul\":727:786   */\n  swap4\n  pop\n    /* \"#utility.yul\":805:853   */\n  tag_49\n    /* \"#utility.yul\":849:851   */\n  0x60\n    /* \"#utility.yul\":838:847   */\n  dup9\n    /* \"#utility.yul\":834:852   */\n  add\n    /* \"#utility.yul\":805:853   */\n  tag_38\n  jump\t// in\ntag_49:\n    /* \"#utility.yul\":795:853   */\n  swap3\n  pop\n    /* \"#utility.yul\":872:921   */\n  tag_50\n    /* \"#utility.yul\":916:919   */\n  0x80\n    /* \"#utility.yul\":905:914   */\n  dup9\n    /* \"#utility.yul\":901:920   */\n  add\n    /* \"#utility.yul\":872:921   */\n  tag_38\n  jump\t// in\ntag_50:\n    /* \"#utility.yul\":862:921   */\n  swap2\n  pop\n    /* \"#utility.yul\":940:990   */\n  tag_51\n    /* \"#utility.yul\":985:988   */\n  0xa0\n    /* \"#utility.yul\":974:983   */\n  dup9\n    /* \"#utility.yul\":970:989   */\n  add\n    /* \"#utility.yul\":940:990   */\n  tag_37\n  jump\t// in\ntag_51:\n    /* \"#utility.yul\":930:990   */\n  swap1\n  pop\n    /* \"#utility.yul\":364:996   */\n  swap3\n  swap6\n  pop\n  swap3\n  swap6\n  pop\n  swap3\n  swap6\n  jump\t// out\n    /* \"#utility.yul\":2003:2255   */\ntag_18:\n    /* \"#utility.yul\":2094:2100   */\n  0xffff\n    /* \"#utility.yul\":2071:2085   */\n  dup2\n  dup2\n  and\n    /* \"#utility.yul\":2087:2101   */\n  dup4\n  dup3\n  and\n    /* \"#utility.yul\":2067:2102   */\n  add\n  swap1\n    /* \"#utility.yul\":2114:2129   */\n  dup2\n  gt\n    /* \"#utility.yul\":2111:2249   */\n  iszero\n  tag_34\n  jumpi\n    /* \"#utility.yul\":2171:2181   */\n  0x4e487b71\n    /* \"#utility.yul\":2166:2169   */\n  0xe0\n    /* \"#utility.yul\":2162:2182   */\n  shl\n    /* \"#utility.yul\":2159:2160   */\n  0x00\n    /* \"#utility.yul\":2152:2183   */\n  mstore\n    /* \"#utility.yul\":2206:2210   */\n  0x11\n    /* \"#utility.yul\":2203:2204   */\n  0x04\n    /* \"#utility.yul\":2196:2211   */\n  mstore\n    /* \"#utility.yul\":2234:2238   */\n  0x24\n    /* \"#utility.yul\":2231:2232   */\n  0x00\n    /* \"#utility.yul\":2224:2239   */\n  revert\n    /* \"#utility.yul\":2260:2600   */\ntag_39:\n    /* \"contracts/TesseraFeeSplitter.sol\":245:2816  contract TesseraFeeSplitter is AccessControl, ReentrancyGuard {... */\n  mload(0x80)\n  codecopy(0x00, dataOffset(sub_0), dataSize(sub_0))\n  0x00\n  assignImmutable(\"0x9c7f7615d84833acb0a59ed6785953f717f36f0e32d2021eb527b2025773fa79\")\n  return(0x00, dataSize(sub_0))\nstop\ndata_4edf893ca5a9f02f81d8f477a97c35f29f12aaeb8e51e9a5aac3a24649676c78 ebea61bac29e76544ef1875472aaff98e28d2db11686c8cbef6c2b35dbe32407\n\nsub_0: assembly {\n        /* \"contracts/TesseraFeeSplitter.sol\":245:2816  contract TesseraFeeSplitter is AccessControl, ReentrancyGuard {... */\n      mstore(0x40, 0x80)\n      callvalue\n      dup1\n      iszero\n      tag_1\n      jumpi\n      revert(0x00, 0x00)\n    tag_1:\n      pop\n      jumpi(tag_2, lt(calldatasize, 0x04))\n      shr(0xe0, calldataload(0x00))\n      dup1\n      0xaaecfa63\n      gt\n      tag_19\n      jumpi\n      dup1\n      0xe98c0990\n      gt\n      tag_20\n      jumpi\n      dup1\n      0xe98c0990\n      eq\n      tag_15\n      jumpi\n      dup1\n      0xeb09c17c\n      eq\n      tag_16\n      jumpi\n      dup1\n      0xec87621c\n      eq\n      tag_17\n      jumpi\n      dup1\n      0xfc0c546a\n      eq\n      tag_18\n      jumpi\n      revert(0x00, 0x00)\n    tag_20:\n      dup1\n      0xaaecfa63\n      eq\n      tag_11\n      jumpi\n      dup1\n      0xd547741f\n      eq\n      tag_12\n      jumpi\n      dup1\n      0xdb2e21bc\n      eq\n      tag_13\n      jumpi\n      dup1\n      0xe4fc6b6d\n      eq\n      tag_14\n      jumpi\n      revert(0x00, 0x00)\n    tag_19:\n      dup1\n      0x8c72c54e\n      gt\n      tag_21\n      jumpi\n      dup1\n      0x8c72c54e\n      eq\n      tag_7\n      jumpi\n      dup1\n      0x91d14854\n      eq\n      tag_8\n      jumpi\n      dup1\n      0x9a96f829\n      eq\n      tag_9\n      jumpi\n      dup1\n      0xa217fddf\n      eq\n      tag_10\n      jumpi\n      revert(0x00, 0x00)\n    tag_21:\n      dup1\n      0x01ffc9a7\n      eq\n      tag_3\n      jumpi\n      dup1\n      0x248a9ca3\n      eq\n      tag_4\n      jumpi\n      dup1\n      0x2f2ff15d\n      eq\n      tag_5\n      jumpi\n      dup1\n      0x36568abe\n      eq\n      tag_6\n      jumpi\n    tag_2:\n      revert(0x00, 0x00)\n        /* \"@openzeppelin/contracts/access/AccessControl.sol\":2541:2743  function supportsInterface(bytes4 interfaceId) public view virtual override returns (bool) {... */\n    tag_3:\n      tag_22\n      tag_23\n      calldatasize\n      0x04\n      tag_24\n      jump\t// in\n    tag_23:\n      tag_25\n      jump\t// in\n    tag_22:\n      mload(0x40)\n        /* \"#utility.yul\":470:484   */\n      swap1\n      iszero\n        /* \"#utility.yul\":463:485   */\n      iszero\n        /* \"#utility.yul\":445:486   */\n      dup2\n      mstore\n        /* \"#utility.yul\":433:435   */\n      0x20\n        /* \"#utility.yul\":418:436   */\n      add\n        /* \"@openzeppelin/contracts/access/AccessControl.sol\":2541:2743  function supportsInterface(bytes4 interfaceId) public view virtual override returns (bool) {... */\n    tag_26:\n      mload(0x40)\n      dup1\n      swap2\n      sub\n      swap1\n      return\n        /* \"@openzeppelin/contracts/access/AccessControl.sol\":3786:3906  function getRoleAdmin(bytes32 role) public view virtual returns (bytes32) {... */\n    tag_4:\n      tag_28\n      tag_29\n      calldatasize\n      0x04\n      tag_30\n      jump\t// in\n    tag_29:\n        /* \"@openzeppelin/contracts/access/AccessControl.sol\":3851:3858  bytes32 */\n      0x00\n        /* \"@openzeppelin/contracts/access/AccessControl.sol\":3877:3889  _roles[role] */\n      swap1\n      dup2\n      mstore\n      0x20\n      dup2\n      swap1\n      mstore\n      0x40\n      swap1\n      keccak256\n        /* \"@openzeppelin/contracts/access/AccessControl.sol\":3877:3899  _roles[role].adminRole */\n      0x01\n      add\n      sload\n      swap1\n        /* \"@openzeppelin/contracts/access/AccessControl.sol\":3786:3906  function getRoleAdmin(bytes32 role) public view virtual returns (bytes32) {... */\n      jump\n    tag_28:\n      mload(0x40)\n        /* \"#utility.yul\":874:899   */\n      swap1\n      dup2\n      mstore\n        /* \"#utility.yul\":862:864   */\n      0x20\n        /* \"#utility.yul\":847:865   */\n      add\n        /* \"@openzeppelin/contracts/access/AccessControl.sol\":3786:3906  function getRoleAdmin(bytes32 role) public view virtual returns (bytes32) {... */\n      tag_26\n        /* \"#utility.yul\":728:905   */\n      jump\n        /* \"@openzeppelin/contracts/access/AccessControl.sol\":4202:4338  function grantRole(bytes32 role, address account) public virtual onlyRole(getRoleAdmin(role)) {... */\n    tag_5:\n      tag_34\n      tag_35\n      calldatasize\n      0x04\n      tag_36\n      jump\t// in\n    tag_35:\n      tag_37\n      jump\t// in\n    tag_34:\n      stop\n        /* \"@openzeppelin/contracts/access/AccessControl.sol\":5304:5549  function renounceRole(bytes32 role, address callerConfirmation) public virtual {... */\n    tag_6:\n      tag_34\n      tag_39\n      calldatasize\n      0x04\n      tag_36\n      jump\t// in\n    tag_39:\n      tag_40\n      jump\t// in\n        /* \"contracts/TesseraFeeSplitter.sol\":498:522  address public publisher */\n    tag_7:\n      sload(0x02)\n      tag_41\n      swap1\n      sub(shl(0xa0, 0x01), 0x01)\n      and\n      dup2\n      jump\n    tag_41:\n      mload(0x40)\n      sub(shl(0xa0, 0x01), 0x01)\n        /* \"#utility.yul\":1487:1519   */\n      swap1\n      swap2\n      and\n        /* \"#utility.yul\":1469:1520   */\n      dup2\n      mstore\n        /* \"#utility.yul\":1457:1459   */\n      0x20\n        /* \"#utility.yul\":1442:1460   */\n      add\n        /* \"contracts/TesseraFeeSplitter.sol\":498:522  address public publisher */\n      tag_26\n        /* \"#utility.yul\":1323:1526   */\n      jump\n        /* \"@openzeppelin/contracts/access/AccessControl.sol\":2830:2966  function hasRole(bytes32 role, address account) public view virtual returns (bool) {... */\n    tag_8:\n      tag_22\n      tag_46\n      calldatasize\n      0x04\n      tag_36\n      jump\t// in\n    tag_46:\n      tag_47\n      jump\t// in\n        /* \"contracts/TesseraFeeSplitter.sol\":529:548  address public devs */\n    tag_9:\n      sload(0x03)\n      tag_41\n      swap1\n      sub(shl(0xa0, 0x01), 0x01)\n      and\n      dup2\n      jump\n        /* \"@openzeppelin/contracts/access/AccessControl.sol\":2196:2245  bytes32 public constant DEFAULT_ADMIN_ROLE = 0x00 */\n    tag_10:\n      tag_28\n        /* \"@openzeppelin/contracts/access/AccessControl.sol\":2241:2245  0x00 */\n      0x00\n        /* \"@openzeppelin/contracts/access/AccessControl.sol\":2196:2245  bytes32 public constant DEFAULT_ADMIN_ROLE = 0x00 */\n      dup2\n      jump\n        /* \"contracts/TesseraFeeSplitter.sol\":557:583  uint16 public publisherBps */\n    tag_11:\n      sload(0x03)\n      tag_55\n      swap1\n      shl(0xa0, 0x01)\n      swap1\n      div\n      0xffff\n      and\n      dup2\n      jump\n    tag_55:\n      mload(0x40)\n        /* \"#utility.yul\":1705:1711   */\n      0xffff\n        /* \"#utility.yul\":1693:1712   */\n      swap1\n      swap2\n      and\n        /* \"#utility.yul\":1675:1713   */\n      dup2\n      mstore\n        /* \"#utility.yul\":1663:1665   */\n      0x20\n        /* \"#utility.yul\":1648:1666   */\n      add\n        /* \"contracts/TesseraFeeSplitter.sol\":557:583  uint16 public publisherBps */\n      tag_26\n        /* \"#utility.yul\":1531:1719   */\n      jump\n        /* \"@openzeppelin/contracts/access/AccessControl.sol\":4618:4756  function revokeRole(bytes32 role, address account) public virtual onlyRole(getRoleAdmin(role)) {... */\n    tag_12:\n      tag_34\n      tag_60\n      calldatasize\n      0x04\n      tag_36\n      jump\t// in\n    tag_60:\n      tag_61\n      jump\t// in\n        /* \"contracts/TesseraFeeSplitter.sol\":2465:2802  function emergencyWithdraw()... */\n    tag_13:\n      tag_34\n      tag_63\n      jump\t// in\n        /* \"contracts/TesseraFeeSplitter.sol\":1878:2394  function distribute() ... */\n    tag_14:\n      tag_34\n      tag_65\n      jump\t// in\n        /* \"contracts/TesseraFeeSplitter.sol\":600:621  uint16 public devsBps */\n    tag_15:\n      sload(0x03)\n      tag_55\n      swap1\n      shl(0xb0, 0x01)\n      swap1\n      div\n      0xffff\n      and\n      dup2\n      jump\n        /* \"contracts/TesseraFeeSplitter.sol\":385:451  bytes32 public constant SPLITTER_ROLE = keccak256(\"SPLITTER_ROLE\") */\n    tag_16:\n      tag_28\n        /* \"contracts/TesseraFeeSplitter.sol\":425:451  keccak256(\"SPLITTER_ROLE\") */\n      0xebea61bac29e76544ef1875472aaff98e28d2db11686c8cbef6c2b35dbe32407\n        /* \"contracts/TesseraFeeSplitter.sol\":385:451  bytes32 public constant SPLITTER_ROLE = keccak256(\"SPLITTER_ROLE\") */\n      dup2\n      jump\n        /* \"contracts/TesseraFeeSplitter.sol\":314:378  bytes32 public constant MANAGER_ROLE = keccak256(\"MANAGER_ROLE\") */\n    tag_17:\n      tag_28\n        /* \"contracts/TesseraFeeSplitter.sol\":353:378  keccak256(\"MANAGER_ROLE\") */\n      0x241ecf16d79d0f8dbfb92cbc07fe17840425976cf0667f022fe9877caa831b08\n        /* \"contracts/TesseraFeeSplitter.sol\":314:378  bytes32 public constant MANAGER_ROLE = keccak256(\"MANAGER_ROLE\") */\n      dup2\n      jump\n        /* \"contracts/TesseraFeeSplitter.sol\":460:489  IERC20 public immutable token */\n    tag_18:\n      tag_41\n      immutable(\"0x9c7f7615d84833acb0a59ed6785953f717f36f0e32d2021eb527b2025773fa79\")\n      dup2\n      jump\n        /* \"@openzeppelin/contracts/access/AccessControl.sol\":2541:2743  function supportsInterface(bytes4 interfaceId) public view virtual override returns (bool) {... */\n    tag_25:\n        /* \"@openzeppelin/contracts/access/AccessControl.sol\":2626:2630  bool */\n      0x00\n      not(sub(shl(0xe0, 0x01), 0x01))\n        /* \"@openzeppelin/contracts/access/AccessControl.sol\":2649:2696  interfaceId == type(IAccessControl).interfaceId */\n      dup3\n      and\n      shl(0xe0, 0x7965db0b)\n      eq\n      dup1\n        /* \"@openzeppelin/contracts/access/AccessControl.sol\":2649:2736  interfaceId == type(IAccessControl).interfaceId || super.supportsInterface(interfaceId) */\n      tag_81\n      jumpi\n      pop\n      shl(0xe0, 0x01ffc9a7)\n      not(sub(shl(0xe0, 0x01), 0x01))\n        /* \"@openzeppelin/contracts/utils/introspection/ERC165.sol\":829:869  interfaceId == type(IERC165).interfaceId */\n      dup4\n      and\n      eq\n        /* \"@openzeppelin/contracts/access/AccessControl.sol\":2700:2736  super.supportsInterface(interfaceId) */\n    tag_81:\n        /* \"@openzeppelin/contracts/access/AccessControl.sol\":2642:2736  return interfaceId == type(IAccessControl).interfaceId || super.supportsInterface(interfaceId) */\n      swap3\n        /* \"@openzeppelin/contracts/access/AccessControl.sol\":2541:2743  function supportsInterface(bytes4 interfaceId) public view virtual override returns (bool) {... */\n      swap2\n      pop\n      pop\n      jump\t// out\n        /* \"@openzeppelin/contracts/access/AccessControl.sol\":4202:4338  function grantRole(bytes32 role, address account) public virtual onlyRole(getRoleAdmin(role)) {... */\n    tag_37:\n        /* \"@openzeppelin/contracts/access/AccessControl.sol\":3851:3858  bytes32 */\n      0x00\n        /* \"@openzeppelin/contracts/access/AccessControl.sol\":3877:3889  _roles[role] */\n      dup3\n      dup2\n      mstore\n      0x20\n      dup2\n      swap1\n      mstore\n      0x40\n      swap1\n      keccak256\n        /* \"@openzeppelin/contracts/access/AccessControl.sol\":3877:3899  _roles[role].adminRole */\n      0x01\n      add\n      sload\n        /* \"@openzeppelin/contracts/access/AccessControl.sol\":2473:2489  _checkRole(role) */\n      tag_86\n        /* \"@openzeppelin/contracts/access/AccessControl.sol\":2484:2488  role */\n      dup2\n        /* \"@openzeppelin/contracts/access/AccessControl.sol\":2473:2483  _checkRole */\n      tag_87\n        /* \"@openzeppelin/contracts/access/AccessControl.sol\":2473:2489  _checkRole(role) */\n      jump\t// in\n    tag_86:\n        /* \"@openzeppelin/contracts/access/AccessControl.sol\":4306:4331  _grantRole(role, account) */\n      tag_89\n        /* \"@openzeppelin/contracts/access/AccessControl.sol\":4317:4321  role */\n      dup4\n        /* \"@openzeppelin/contracts/access/AccessControl.sol\":4323:4330  account */\n      dup4\n        /* \"@openzeppelin/contracts/access/AccessControl.sol\":4306:4316  _grantRole */\n      tag_90\n        /* \"@openzeppelin/contracts/access/AccessControl.sol\":4306:4331  _grantRole(role, account) */\n      jump\t// in\n    tag_89:\n      pop\n        /* \"@openzeppelin/contracts/access/AccessControl.sol\":4202:4338  function grantRole(bytes32 role, address account) public virtual onlyRole(getRoleAdmin(role)) {... */\n      pop\n      pop\n      pop\n      jump\t// out\n        /* \"@openzeppelin/contracts/access/AccessControl.sol\":5304:5549  function renounceRole(bytes32 role, address callerConfirmation) public virtual {... */\n    tag_40:\n      sub(shl(0xa0, 0x01), 0x01)\n        /* \"@openzeppelin/contracts/access/AccessControl.sol\":5397:5431  callerConfirmation != _msgSender() */\n      dup2\n      and\n        /* \"@openzeppelin/contracts/utils/Context.sol\":735:745  msg.sender */\n      caller\n        /* \"@openzeppelin/contracts/access/AccessControl.sol\":5397:5431  callerConfirmation != _msgSender() */\n      eq\n        /* \"@openzeppelin/contracts/access/AccessControl.sol\":5393:5495  if (callerConfirmation != _msgSender()) {... */\n      tag_94\n      jumpi\n        /* \"@openzeppelin/contracts/access/AccessControl.sol\":5454:5484  AccessControlBadConfirmation() */\n      mload(0x40)\n      shl(0xe1, 0x334bd919)\n      dup2\n      mstore\n      0x04\n      add\n      mload(0x40)\n      dup1\n      swap2\n      sub\n      swap1\n      revert\n        /* \"@openzeppelin/contracts/access/AccessControl.sol\":5393:5495  if (callerConfirmation != _msgSender()) {... */\n    tag_94:\n        /* \"@openzeppelin/contracts/access/AccessControl.sol\":5505:5542  _revokeRole(role, callerConfirmation) */\n      tag_95\n        /* \"@openzeppelin/contracts/access/AccessControl.sol\":5517:5521  role */\n      dup3\n        /* \"@openzeppelin/contracts/access/AccessControl.sol\":5523:5541  callerConfirmation */\n      dup3\n        /* \"@openzeppelin/contracts/access/AccessControl.sol\":5505:5516  _revokeRole */\n      tag_96\n        /* \"@openzeppelin/contracts/access/AccessControl.sol\":5505:5542  _revokeRole(role, callerConfirmation) */\n      jump\t// in\n    tag_95:\n      pop\n        /* \"@openzeppelin/contracts/access/AccessControl.sol\":5304:5549  function renounceRole(bytes32 role, address callerConfirmation) public virtual {... */\n      pop\n      pop\n      jump\t// out\n        /* \"@openzeppelin/contracts/access/AccessControl.sol\":2830:2966  function hasRole(bytes32 role, address account) public view virtual returns (bool) {... */\n    tag_47:\n        /* \"@openzeppelin/contracts/access/AccessControl.sol\":2907:2911  bool */\n      0x00\n        /* \"@openzeppelin/contracts/access/AccessControl.sol\":2930:2942  _roles[role] */\n      swap2\n      dup3\n      mstore\n      0x20\n      dup3\n      dup2\n      mstore\n      0x40\n      dup1\n      dup5\n      keccak256\n      sub(shl(0xa0, 0x01), 0x01)\n        /* \"@openzeppelin/contracts/access/AccessControl.sol\":2930:2959  _roles[role].hasRole[account] */\n      swap4\n      swap1\n      swap4\n      and\n      dup5\n      mstore\n      swap2\n      swap1\n      mstore\n      swap1\n      keccak256\n      sload\n      0xff\n      and\n      swap1\n        /* \"@openzeppelin/contracts/access/AccessControl.sol\":2830:2966  function hasRole(bytes32 role, address account) public view virtual returns (bool) {... */\n      jump\t// out\n        /* \"@openzeppelin/contracts/access/AccessControl.sol\":4618:4756  function revokeRole(bytes32 role, address account) public virtual onlyRole(getRoleAdmin(role)) {... */\n    tag_61:\n        /* \"@openzeppelin/contracts/access/AccessControl.sol\":3851:3858  bytes32 */\n      0x00\n        /* \"@openzeppelin/contracts/access/AccessControl.sol\":3877:3889  _roles[role] */\n      dup3\n      dup2\n      mstore\n      0x20\n      dup2\n      swap1\n      mstore\n      0x40\n      swap1\n      keccak256\n        /* \"@openzeppelin/contracts/access/AccessControl.sol\":3877:3899  _roles[role].adminRole */\n      0x01\n      add\n      sload\n        /* \"@openzeppelin/contracts/access/AccessControl.sol\":2473:2489  _checkRole(role) */\n      tag_100\n        /* \"@openzeppelin/contracts/access/AccessControl.sol\":2484:2488  role */\n      dup2\n        /* \"@openzeppelin/contracts/access/AccessControl.sol\":2473:2483  _checkRole */\n      tag_87\n        /* \"@openzeppelin/contracts/access/AccessControl.sol\":2473:2489  _checkRole(role) */\n      jump\t// in\n    tag_100:\n        /* \"@openzeppelin/contracts/access/AccessControl.sol\":4723:4749  _revokeRole(role, account) */\n      tag_89\n        /* \"@openzeppelin/contracts/access/AccessControl.sol\":4735:4739  role */\n      dup4\n        /* \"@openzeppelin/contracts/access/AccessControl.sol\":4741:4748  account */\n      dup4\n        /* \"@openzeppelin/contracts/access/AccessControl.sol\":4723:4734  _revokeRole */\n      tag_96\n        /* \"@openzeppelin/contracts/access/AccessControl.sol\":4723:4749  _revokeRole(role, account) */\n      jump\t// in\n        /* \"contracts/TesseraFeeSplitter.sol\":2465:2802  function emergencyWithdraw()... */\n    tag_63:\n        /* \"@openzeppelin/contracts/access/AccessControl.sol\":2241:2245  0x00 */\n      0x00\n        /* \"@openzeppelin/contracts/access/AccessControl.sol\":2473:2489  _checkRole(role) */\n      tag_104\n        /* \"@openzeppelin/contracts/access/AccessControl.sol\":2241:2245  0x00 */\n      dup2\n        /* \"@openzeppelin/contracts/access/AccessControl.sol\":2473:2483  _checkRole */\n      tag_87\n        /* \"@openzeppelin/contracts/access/AccessControl.sol\":2473:2489  _checkRole(role) */\n      jump\t// in\n    tag_104:\n        /* \"@openzeppelin/contracts/security/ReentrancyGuard.sol\":2261:2282  _nonReentrantBefore() */\n      tag_106\n        /* \"@openzeppelin/contracts/security/ReentrancyGuard.sol\":2261:2280  _nonReentrantBefore */\n      tag_107\n        /* \"@openzeppelin/contracts/security/ReentrancyGuard.sol\":2261:2282  _nonReentrantBefore() */\n      jump\t// in\n    tag_106:\n        /* \"contracts/TesseraFeeSplitter.sol\":2602:2632  token.balanceOf(address(this)) */\n      mload(0x40)\n      shl(0xe0, 0x70a08231)\n      dup2\n      mstore\n        /* \"contracts/TesseraFeeSplitter.sol\":2626:2630  this */\n      address\n        /* \"contracts/TesseraFeeSplitter.sol\":2602:2632  token.balanceOf(address(this)) */\n      0x04\n      dup3\n      add\n        /* \"#utility.yul\":1469:1520   */\n      mstore\n        /* \"contracts/TesseraFeeSplitter.sol\":2588:2599  uint256 bal */\n      0x00\n      swap1\n        /* \"contracts/TesseraFeeSplitter.sol\":2602:2607  token */\n      immutable(\"0x9c7f7615d84833acb0a59ed6785953f717f36f0e32d2021eb527b2025773fa79\")\n      sub(shl(0xa0, 0x01), 0x01)\n        /* \"contracts/TesseraFeeSplitter.sol\":2602:2617  token.balanceOf */\n      and\n      swap1\n      0x70a08231\n      swap1\n        /* \"#utility.yul\":1442:1460   */\n      0x24\n      add\n        /* \"contracts/TesseraFeeSplitter.sol\":2602:2632  token.balanceOf(address(this)) */\n      0x20\n      mload(0x40)\n      dup1\n      dup4\n      sub\n      dup2\n      dup7\n      gas\n      staticcall\n      iszero\n      dup1\n      iszero\n      tag_111\n      jumpi\n      returndatacopy(0x00, 0x00, returndatasize)\n      revert(0x00, returndatasize)\n    tag_111:\n      pop\n      pop\n      pop\n      pop\n      mload(0x40)\n      returndatasize\n      not(0x1f)\n      0x1f\n      dup3\n      add\n      and\n      dup3\n      add\n      dup1\n      0x40\n      mstore\n      pop\n      dup2\n      add\n      swap1\n      tag_112\n      swap2\n      swap1\n      tag_113\n      jump\t// in\n    tag_112:\n        /* \"contracts/TesseraFeeSplitter.sol\":2588:2632  uint256 bal = token.balanceOf(address(this)) */\n      swap1\n      pop\n        /* \"contracts/TesseraFeeSplitter.sol\":2657:2658  0 */\n      0x00\n        /* \"contracts/TesseraFeeSplitter.sol\":2651:2654  bal */\n      dup2\n        /* \"contracts/TesseraFeeSplitter.sol\":2651:2658  bal > 0 */\n      gt\n        /* \"contracts/TesseraFeeSplitter.sol\":2643:2672  require(bal > 0, \"no tokens\") */\n      tag_114\n      jumpi\n      mload(0x40)\n      shl(0xe5, 0x461bcd)\n      dup2\n      mstore\n        /* \"#utility.yul\":2337:2339   */\n      0x20\n        /* \"contracts/TesseraFeeSplitter.sol\":2643:2672  require(bal > 0, \"no tokens\") */\n      0x04\n      dup3\n      add\n        /* \"#utility.yul\":2319:2340   */\n      mstore\n        /* \"#utility.yul\":2376:2377   */\n      0x09\n        /* \"#utility.yul\":2356:2374   */\n      0x24\n      dup3\n      add\n        /* \"#utility.yul\":2349:2378   */\n      mstore\n      shl(0xb8, 0x6e6f20746f6b656e73)\n        /* \"#utility.yul\":2394:2412   */\n      0x44\n      dup3\n      add\n        /* \"#utility.yul\":2387:2426   */\n      mstore\n        /* \"#utility.yul\":2443:2461   */\n      0x64\n      add\n        /* \"contracts/TesseraFeeSplitter.sol\":2643:2672  require(bal > 0, \"no tokens\") */\n    tag_115:\n      mload(0x40)\n      dup1\n      swap2\n      sub\n      swap1\n      revert\n    tag_114:\n        /* \"contracts/TesseraFeeSplitter.sol\":2693:2724  token.transfer(msg.sender, bal) */\n      mload(0x40)\n      shl(0xe0, 0xa9059cbb)\n      dup2\n      mstore\n        /* \"contracts/TesseraFeeSplitter.sol\":2708:2718  msg.sender */\n      caller\n        /* \"contracts/TesseraFeeSplitter.sol\":2693:2724  token.transfer(msg.sender, bal) */\n      0x04\n      dup3\n      add\n        /* \"#utility.yul\":2646:2697   */\n      mstore\n        /* \"#utility.yul\":2713:2731   */\n      0x24\n      dup2\n      add\n        /* \"#utility.yul\":2706:2740   */\n      dup3\n      swap1\n      mstore\n        /* \"contracts/TesseraFeeSplitter.sol\":2693:2698  token */\n      immutable(\"0x9c7f7615d84833acb0a59ed6785953f717f36f0e32d2021eb527b2025773fa79\")\n      sub(shl(0xa0, 0x01), 0x01)\n        /* \"contracts/TesseraFeeSplitter.sol\":2693:2707  token.transfer */\n      and\n      swap1\n      0xa9059cbb\n      swap1\n        /* \"#utility.yul\":2619:2637   */\n      0x44\n      add\n        /* \"contracts/TesseraFeeSplitter.sol\":2693:2724  token.transfer(msg.sender, bal) */\n      0x20\n      mload(0x40)\n      dup1\n      dup4\n      sub\n      dup2\n      0x00\n      dup8\n      gas\n      call\n      iszero\n      dup1\n      iszero\n      tag_120\n      jumpi\n      returndatacopy(0x00, 0x00, returndatasize)\n      revert(0x00, returndatasize)\n    tag_120:\n      pop\n      pop\n      pop\n      pop\n      mload(0x40)\n      returndatasize\n      not(0x1f)\n      0x1f\n      dup3\n      add\n      and\n      dup3\n      add\n      dup1\n      0x40\n      mstore\n      pop\n      dup2\n      add\n      swap1\n      tag_121\n      swap2\n      swap1\n      tag_122\n      jump\t// in\n    tag_121:\n        /* \"contracts/TesseraFeeSplitter.sol\":2685:2742  require(token.transfer(msg.sender, bal), \"withdraw fail\") */\n      tag_123\n      jumpi\n      mload(0x40)\n      shl(0xe5, 0x461bcd)\n      dup2\n      mstore\n        /* \"#utility.yul\":3235:3237   */\n      0x20\n        /* \"contracts/TesseraFeeSplitter.sol\":2685:2742  require(token.transfer(msg.sender, bal), \"withdraw fail\") */\n      0x04\n      dup3\n      add\n        /* \"#utility.yul\":3217:3238   */\n      mstore\n        /* \"#utility.yul\":3274:3276   */\n      0x0d\n        /* \"#utility.yul\":3254:3272   */\n      0x24\n      dup3\n      add\n        /* \"#utility.yul\":3247:3277   */\n      mstore\n      shl(0x9a, 0x1dda5d1a191c985dc819985a5b)\n        /* \"#utility.yul\":3293:3311   */\n      0x44\n      dup3\n      add\n        /* \"#utility.yul\":3286:3329   */\n      mstore\n        /* \"#utility.yul\":3346:3364   */\n      0x64\n      add\n        /* \"contracts/TesseraFeeSplitter.sol\":2685:2742  require(token.transfer(msg.sender, bal), \"withdraw fail\") */\n      tag_115\n        /* \"#utility.yul\":3033:3370   */\n      jump\n        /* \"contracts/TesseraFeeSplitter.sol\":2685:2742  require(token.transfer(msg.sender, bal), \"withdraw fail\") */\n    tag_123:\n        /* \"contracts/TesseraFeeSplitter.sol\":2760:2794  EmergencyWithdraw(msg.sender, bal) */\n      0x40\n      dup1\n      mload\n        /* \"contracts/TesseraFeeSplitter.sol\":2778:2788  msg.sender */\n      caller\n        /* \"#utility.yul\":2646:2697   */\n      dup2\n      mstore\n        /* \"#utility.yul\":2728:2730   */\n      0x20\n        /* \"#utility.yul\":2713:2731   */\n      dup2\n      add\n        /* \"#utility.yul\":2706:2740   */\n      dup4\n      swap1\n      mstore\n        /* \"contracts/TesseraFeeSplitter.sol\":2760:2794  EmergencyWithdraw(msg.sender, bal) */\n      0x5fafa99d0643513820be26656b45130b01e1c03062e1266bf36f88cbd3bd9695\n      swap2\n        /* \"#utility.yul\":2619:2637   */\n      add\n        /* \"contracts/TesseraFeeSplitter.sol\":2760:2794  EmergencyWithdraw(msg.sender, bal) */\n      mload(0x40)\n      dup1\n      swap2\n      sub\n      swap1\n      log1\n        /* \"contracts/TesseraFeeSplitter.sol\":2577:2802  {... */\n      pop\n        /* \"@openzeppelin/contracts/security/ReentrancyGuard.sol\":2303:2323  _nonReentrantAfter() */\n      tag_127\n        /* \"@openzeppelin/contracts/security/ReentrancyGuard.sol\":1716:1717  1 */\n      0x01\n        /* \"@openzeppelin/contracts/security/ReentrancyGuard.sol\":2809:2831  _status = _NOT_ENTERED */\n      dup1\n      sstore\n        /* \"@openzeppelin/contracts/security/ReentrancyGuard.sol\":2629:2838  function _nonReentrantAfter() private {... */\n      jump\n        /* \"@openzeppelin/contracts/security/ReentrancyGuard.sol\":2303:2323  _nonReentrantAfter() */\n    tag_127:\n        /* \"contracts/TesseraFeeSplitter.sol\":2465:2802  function emergencyWithdraw()... */\n      pop\n      jump\t// out\n        /* \"contracts/TesseraFeeSplitter.sol\":1878:2394  function distribute() ... */\n    tag_65:\n        /* \"@openzeppelin/contracts/security/ReentrancyGuard.sol\":2261:2282  _nonReentrantBefore() */\n      tag_130\n        /* \"@openzeppelin/contracts/security/ReentrancyGuard.sol\":2261:2280  _nonReentrantBefore */\n      tag_107\n        /* \"@openzeppelin/contracts/security/ReentrancyGuard.sol\":2261:2282  _nonReentrantBefore() */\n      jump\t// in\n    tag_130:\n        /* \"contracts/TesseraFeeSplitter.sol\":425:451  keccak256(\"SPLITTER_ROLE\") */\n      0xebea61bac29e76544ef1875472aaff98e28d2db11686c8cbef6c2b35dbe32407\n        /* \"@openzeppelin/contracts/access/AccessControl.sol\":2473:2489  _checkRole(role) */\n      tag_132\n        /* \"@openzeppelin/contracts/access/AccessControl.sol\":2484:2488  role */\n      dup2\n        /* \"@openzeppelin/contracts/access/AccessControl.sol\":2473:2483  _checkRole */\n      tag_87\n        /* \"@openzeppelin/contracts/access/AccessControl.sol\":2473:2489  _checkRole(role) */\n      jump\t// in\n    tag_132:\n        /* \"contracts/TesseraFeeSplitter.sol\":2003:2033  token.balanceOf(address(this)) */\n      mload(0x40)\n      shl(0xe0, 0x70a08231)\n      dup2\n      mstore\n        /* \"contracts/TesseraFeeSplitter.sol\":2027:2031  this */\n      address\n        /* \"contracts/TesseraFeeSplitter.sol\":2003:2033  token.balanceOf(address(this)) */\n      0x04\n      dup3\n      add\n        /* \"#utility.yul\":1469:1520   */\n      mstore\n        /* \"contracts/TesseraFeeSplitter.sol\":1989:2000  uint256 bal */\n      0x00\n      swap1\n        /* \"contracts/TesseraFeeSplitter.sol\":2003:2008  token */\n      immutable(\"0x9c7f7615d84833acb0a59ed6785953f717f36f0e32d2021eb527b2025773fa79\")\n      sub(shl(0xa0, 0x01), 0x01)\n        /* \"contracts/TesseraFeeSplitter.sol\":2003:2018  token.balanceOf */\n      and\n      swap1\n      0x70a08231\n      swap1\n        /* \"#utility.yul\":1442:1460   */\n      0x24\n      add\n        /* \"contracts/TesseraFeeSplitter.sol\":2003:2033  token.balanceOf(address(this)) */\n      0x20\n      mload(0x40)\n      dup1\n      dup4\n      sub\n      dup2\n      dup7\n      gas\n      staticcall\n      iszero\n      dup1\n      iszero\n      tag_136\n      jumpi\n      returndatacopy(0x00, 0x00, returndatasize)\n      revert(0x00, returndatasize)\n    tag_136:\n      pop\n      pop\n      pop\n      pop\n      mload(0x40)\n      returndatasize\n      not(0x1f)\n      0x1f\n      dup3\n      add\n      and\n      dup3\n      add\n      dup1\n      0x40\n      mstore\n      pop\n      dup2\n      add\n      swap1\n      tag_137\n      swap2\n      swap1\n      tag_113\n      jump\t// in\n    tag_137:\n        /* \"contracts/TesseraFeeSplitter.sol\":1989:2033  uint256 bal = token.balanceOf(address(this)) */\n      swap1\n      pop\n        /* \"contracts/TesseraFeeSplitter.sol\":2058:2059  0 */\n      0x00\n        /* \"contracts/TesseraFeeSplitter.sol\":2052:2055  bal */\n      dup2\n        /* \"contracts/TesseraFeeSplitter.sol\":2052:2059  bal > 0 */\n      gt\n        /* \"contracts/TesseraFeeSplitter.sol\":2044:2073  require(bal > 0, \"no tokens\") */\n      tag_138\n      jumpi\n      mload(0x40)\n      shl(0xe5, 0x461bcd)\n      dup2\n      mstore\n        /* \"#utility.yul\":2337:2339   */\n      0x20\n        /* \"contracts/TesseraFeeSplitter.sol\":2044:2073  require(bal > 0, \"no tokens\") */\n      0x04\n      dup3\n      add\n        /* \"#utility.yul\":2319:2340   */\n      mstore\n        /* \"#utility.yul\":2376:2377   */\n      0x09\n        /* \"#utility.yul\":2356:2374   */\n      0x24\n      dup3\n      add\n        /* \"#utility.yul\":2349:2378   */\n      mstore\n      shl(0xb8, 0x6e6f20746f6b656e73)\n        /* \"#utility.yul\":2394:2412   */\n      0x44\n      dup3\n      add\n        /* \"#utility.yul\":2387:2426   */\n      mstore\n        /* \"#utility.yul\":2443:2461   */\n      0x64\n      add\n        /* \"contracts/TesseraFeeSplitter.sol\":2044:2073  require(bal > 0, \"no tokens\") */\n      tag_115\n        /* \"#utility.yul\":2135:2467   */\n      jump\n        /* \"contracts/TesseraFeeSplitter.sol\":2044:2073  require(bal > 0, \"no tokens\") */\n    tag_138:\n        /* \"contracts/TesseraFeeSplitter.sol\":2118:2130  publisherBps */\n      sload(0x03)\n        /* \"contracts/TesseraFeeSplitter.sol\":2086:2108  uint256 publisherShare */\n      0x00\n      swap1\n        /* \"contracts/TesseraFeeSplitter.sol\":2134:2139  10000 */\n      0x2710\n      swap1\n        /* \"contracts/TesseraFeeSplitter.sol\":2112:2130  bal * publisherBps */\n      tag_140\n      swap1\n      shl(0xa0, 0x01)\n        /* \"contracts/TesseraFeeSplitter.sol\":2118:2130  publisherBps */\n      swap1\n      div\n      0xffff\n      and\n        /* \"contracts/TesseraFeeSplitter.sol\":2112:2115  bal */\n      dup5\n        /* \"contracts/TesseraFeeSplitter.sol\":2112:2130  bal * publisherBps */\n      tag_141\n      jump\t// in\n    tag_140:\n        /* \"contracts/TesseraFeeSplitter.sol\":2111:2139  (bal * publisherBps) / 10000 */\n      tag_142\n      swap2\n      swap1\n      tag_143\n      jump\t// in\n    tag_142:\n        /* \"contracts/TesseraFeeSplitter.sol\":2086:2139  uint256 publisherShare = (bal * publisherBps) / 10000 */\n      swap1\n      pop\n        /* \"contracts/TesseraFeeSplitter.sol\":2150:2166  uint256 devShare */\n      0x00\n        /* \"contracts/TesseraFeeSplitter.sol\":2169:2189  bal - publisherShare */\n      tag_144\n        /* \"contracts/TesseraFeeSplitter.sol\":2086:2139  uint256 publisherShare = (bal * publisherBps) / 10000 */\n      dup3\n        /* \"contracts/TesseraFeeSplitter.sol\":2169:2172  bal */\n      dup5\n        /* \"contracts/TesseraFeeSplitter.sol\":2169:2189  bal - publisherShare */\n      tag_145\n      jump\t// in\n    tag_144:\n        /* \"contracts/TesseraFeeSplitter.sol\":2225:2234  publisher */\n      sload(0x02)\n        /* \"contracts/TesseraFeeSplitter.sol\":2210:2251  token.transfer(publisher, publisherShare) */\n      mload(0x40)\n      shl(0xe0, 0xa9059cbb)\n      dup2\n      mstore\n      sub(shl(0xa0, 0x01), 0x01)\n        /* \"contracts/TesseraFeeSplitter.sol\":2225:2234  publisher */\n      swap2\n      dup3\n      and\n        /* \"contracts/TesseraFeeSplitter.sol\":2210:2251  token.transfer(publisher, publisherShare) */\n      0x04\n      dup3\n      add\n        /* \"#utility.yul\":2646:2697   */\n      mstore\n        /* \"#utility.yul\":2713:2731   */\n      0x24\n      dup2\n      add\n        /* \"#utility.yul\":2706:2740   */\n      dup6\n      swap1\n      mstore\n        /* \"contracts/TesseraFeeSplitter.sol\":2150:2189  uint256 devShare = bal - publisherShare */\n      swap2\n      swap3\n      pop\n        /* \"contracts/TesseraFeeSplitter.sol\":2210:2215  token */\n      immutable(\"0x9c7f7615d84833acb0a59ed6785953f717f36f0e32d2021eb527b2025773fa79\")\n        /* \"contracts/TesseraFeeSplitter.sol\":2210:2224  token.transfer */\n      and\n      swap1\n      0xa9059cbb\n      swap1\n        /* \"#utility.yul\":2619:2637   */\n      0x44\n      add\n        /* \"contracts/TesseraFeeSplitter.sol\":2210:2251  token.transfer(publisher, publisherShare) */\n      0x20\n      mload(0x40)\n      dup1\n      dup4\n      sub\n      dup2\n      0x00\n      dup8\n      gas\n      call\n      iszero\n      dup1\n      iszero\n      tag_148\n      jumpi\n      returndatacopy(0x00, 0x00, returndatasize)\n      revert(0x00, returndatasize)\n    tag_148:\n      pop\n      pop\n      pop\n      pop\n      mload(0x40)\n      returndatasize\n      not(0x1f)\n      0x1f\n      dup3\n      add\n      and\n      dup3\n      add\n      dup1\n      0x40\n      mstore\n      pop\n      dup2\n      add\n      swap1\n      tag_149\n      swap2\n      swap1\n      tag_122\n      jump\t// in\n    tag_149:\n        /* \"contracts/TesseraFeeSplitter.sol\":2202:2264  require(token.transfer(publisher, publisherShare), \"pub fail\") */\n      tag_150\n      jumpi\n      mload(0x40)\n      shl(0xe5, 0x461bcd)\n      dup2\n      mstore\n        /* \"#utility.yul\":4237:4239   */\n      0x20\n        /* \"contracts/TesseraFeeSplitter.sol\":2202:2264  require(token.transfer(publisher, publisherShare), \"pub fail\") */\n      0x04\n      dup3\n      add\n        /* \"#utility.yul\":4219:4240   */\n      mstore\n        /* \"#utility.yul\":4276:4277   */\n      0x08\n        /* \"#utility.yul\":4256:4274   */\n      0x24\n      dup3\n      add\n        /* \"#utility.yul\":4249:4278   */\n      mstore\n      shl(0xc2, 0x1c1d588819985a5b)\n        /* \"#utility.yul\":4294:4312   */\n      0x44\n      dup3\n      add\n        /* \"#utility.yul\":4287:4325   */\n      mstore\n        /* \"#utility.yul\":4342:4360   */\n      0x64\n      add\n        /* \"contracts/TesseraFeeSplitter.sol\":2202:2264  require(token.transfer(publisher, publisherShare), \"pub fail\") */\n      tag_115\n        /* \"#utility.yul\":4035:4366   */\n      jump\n        /* \"contracts/TesseraFeeSplitter.sol\":2202:2264  require(token.transfer(publisher, publisherShare), \"pub fail\") */\n    tag_150:\n        /* \"contracts/TesseraFeeSplitter.sol\":2298:2302  devs */\n      sload(0x03)\n        /* \"contracts/TesseraFeeSplitter.sol\":2283:2313  token.transfer(devs, devShare) */\n      mload(0x40)\n      shl(0xe0, 0xa9059cbb)\n      dup2\n      mstore\n      sub(shl(0xa0, 0x01), 0x01)\n        /* \"contracts/TesseraFeeSplitter.sol\":2298:2302  devs */\n      swap2\n      dup3\n      and\n        /* \"contracts/TesseraFeeSplitter.sol\":2283:2313  token.transfer(devs, devShare) */\n      0x04\n      dup3\n      add\n        /* \"#utility.yul\":2646:2697   */\n      mstore\n        /* \"#utility.yul\":2713:2731   */\n      0x24\n      dup2\n      add\n        /* \"#utility.yul\":2706:2740   */\n      dup4\n      swap1\n      mstore\n        /* \"contracts/TesseraFeeSplitter.sol\":2283:2288  token */\n      immutable(\"0x9c7f7615d84833acb0a59ed6785953f717f36f0e32d2021eb527b2025773fa79\")\n        /* \"contracts/TesseraFeeSplitter.sol\":2283:2297  token.transfer */\n      swap1\n      swap2\n      and\n      swap1\n      0xa9059cbb\n      swap1\n        /* \"#utility.yul\":2619:2637   */\n      0x44\n      add\n        /* \"contracts/TesseraFeeSplitter.sol\":2283:2313  token.transfer(devs, devShare) */\n      0x20\n      mload(0x40)\n      dup1\n      dup4\n      sub\n      dup2\n      0x00\n      dup8\n      gas\n      call\n      iszero\n      dup1\n      iszero\n      tag_155\n      jumpi\n      returndatacopy(0x00, 0x00, returndatasize)\n      revert(0x00, returndatasize)\n    tag_155:\n      pop\n      pop\n      pop\n      pop\n      mload(0x40)\n      returndatasize\n      not(0x1f)\n      0x1f\n      dup3\n      add\n      and\n      dup3\n      add\n      dup1\n      0x40\n      mstore\n      pop\n      dup2\n      add\n      swap1\n      tag_156\n      swap2\n      swap1\n      tag_122\n      jump\t// in\n    tag_156:\n        /* \"contracts/TesseraFeeSplitter.sol\":2275:2326  require(token.transfer(devs, devShare), \"dev fail\") */\n      tag_157\n      jumpi\n      mload(0x40)\n      shl(0xe5, 0x461bcd)\n      dup2\n      mstore\n        /* \"#utility.yul\":4573:4575   */\n      0x20\n        /* \"contracts/TesseraFeeSplitter.sol\":2275:2326  require(token.transfer(devs, devShare), \"dev fail\") */\n      0x04\n      dup3\n      add\n        /* \"#utility.yul\":4555:4576   */\n      mstore\n        /* \"#utility.yul\":4612:4613   */\n      0x08\n        /* \"#utility.yul\":4592:4610   */\n      0x24\n      dup3\n      add\n        /* \"#utility.yul\":4585:4614   */\n      mstore\n      shl(0xc2, 0x19195d8819985a5b)\n        /* \"#utility.yul\":4630:4648   */\n      0x44\n      dup3\n      add\n        /* \"#utility.yul\":4623:4661   */\n      mstore\n        /* \"#utility.yul\":4678:4696   */\n      0x64\n      add\n        /* \"contracts/TesseraFeeSplitter.sol\":2275:2326  require(token.transfer(devs, devShare), \"dev fail\") */\n      tag_115\n        /* \"#utility.yul\":4371:4702   */\n      jump\n        /* \"contracts/TesseraFeeSplitter.sol\":2275:2326  require(token.transfer(devs, devShare), \"dev fail\") */\n    tag_157:\n        /* \"contracts/TesseraFeeSplitter.sol\":2344:2386  Distributed(bal, publisherShare, devShare) */\n      0x40\n      dup1\n      mload\n        /* \"#utility.yul\":4909:4934   */\n      dup5\n      dup2\n      mstore\n        /* \"#utility.yul\":4965:4967   */\n      0x20\n        /* \"#utility.yul\":4950:4968   */\n      dup2\n      add\n        /* \"#utility.yul\":4943:4977   */\n      dup5\n      swap1\n      mstore\n        /* \"#utility.yul\":4993:5011   */\n      swap1\n      dup2\n      add\n        /* \"#utility.yul\":4986:5020   */\n      dup3\n      swap1\n      mstore\n        /* \"contracts/TesseraFeeSplitter.sol\":2344:2386  Distributed(bal, publisherShare, devShare) */\n      0xc5d35a65af09b3042394b742529d10f7fbf9a37294d6b13e4d63d06f9909a15b\n      swap1\n        /* \"#utility.yul\":4897:4899   */\n      0x60\n        /* \"#utility.yul\":4882:4900   */\n      add\n        /* \"contracts/TesseraFeeSplitter.sol\":2344:2386  Distributed(bal, publisherShare, devShare) */\n      mload(0x40)\n      dup1\n      swap2\n      sub\n      swap1\n      log1\n        /* \"contracts/TesseraFeeSplitter.sol\":1978:2394  {... */\n      pop\n      pop\n      pop\n        /* \"@openzeppelin/contracts/security/ReentrancyGuard.sol\":2292:2293  _ */\n      pop\n        /* \"@openzeppelin/contracts/security/ReentrancyGuard.sol\":2303:2323  _nonReentrantAfter() */\n      tag_162\n        /* \"@openzeppelin/contracts/security/ReentrancyGuard.sol\":1716:1717  1 */\n      0x01\n        /* \"@openzeppelin/contracts/security/ReentrancyGuard.sol\":2809:2831  _status = _NOT_ENTERED */\n      dup1\n      sstore\n        /* \"@openzeppelin/contracts/security/ReentrancyGuard.sol\":2629:2838  function _nonReentrantAfter() private {... */\n      jump\n        /* \"@openzeppelin/contracts/security/ReentrancyGuard.sol\":2303:2323  _nonReentrantAfter() */\n    tag_162:\n        /* \"contracts/TesseraFeeSplitter.sol\":1878:2394  function distribute() ... */\n      jump\t// out\n        /* \"@openzeppelin/contracts/access/AccessControl.sol\":3175:3278  function _checkRole(bytes32 role) internal view virtual {... */\n    tag_87:\n        /* \"@openzeppelin/contracts/access/AccessControl.sol\":3241:3271  _checkRole(role, _msgSender()) */\n      tag_127\n        /* \"@openzeppelin/contracts/access/AccessControl.sol\":3252:3256  role */\n      dup2\n        /* \"@openzeppelin/contracts/utils/Context.sol\":735:745  msg.sender */\n      caller\n        /* \"@openzeppelin/contracts/access/AccessControl.sol\":3241:3251  _checkRole */\n      tag_167\n        /* \"@openzeppelin/contracts/access/AccessControl.sol\":3241:3271  _checkRole(role, _msgSender()) */\n      jump\t// in\n        /* \"@openzeppelin/contracts/access/AccessControl.sol\":6155:6471  function _grantRole(bytes32 role, address account) internal virtual returns (bool) {... */\n    tag_90:\n        /* \"@openzeppelin/contracts/access/AccessControl.sol\":6232:6236  bool */\n      0x00\n        /* \"@openzeppelin/contracts/access/AccessControl.sol\":6253:6275  hasRole(role, account) */\n      tag_169\n        /* \"@openzeppelin/contracts/access/AccessControl.sol\":6261:6265  role */\n      dup4\n        /* \"@openzeppelin/contracts/access/AccessControl.sol\":6267:6274  account */\n      dup4\n        /* \"@openzeppelin/contracts/access/AccessControl.sol\":6253:6260  hasRole */\n      tag_47\n        /* \"@openzeppelin/contracts/access/AccessControl.sol\":6253:6275  hasRole(role, account) */\n      jump\t// in\n    tag_169:\n        /* \"@openzeppelin/contracts/access/AccessControl.sol\":6248:6465  if (!hasRole(role, account)) {... */\n      tag_170\n      jumpi\n        /* \"@openzeppelin/contracts/access/AccessControl.sol\":6291:6297  _roles */\n      0x00\n        /* \"@openzeppelin/contracts/access/AccessControl.sol\":6291:6303  _roles[role] */\n      dup4\n      dup2\n      mstore\n      0x20\n      dup2\n      dup2\n      mstore\n      0x40\n      dup1\n      dup4\n      keccak256\n      sub(shl(0xa0, 0x01), 0x01)\n        /* \"@openzeppelin/contracts/access/AccessControl.sol\":6291:6320  _roles[role].hasRole[account] */\n      dup7\n      and\n      dup5\n      mstore\n      swap1\n      swap2\n      mstore\n      swap1\n      keccak256\n        /* \"@openzeppelin/contracts/access/AccessControl.sol\":6291:6327  _roles[role].hasRole[account] = true */\n      dup1\n      sload\n      not(0xff)\n      and\n        /* \"@openzeppelin/contracts/access/AccessControl.sol\":6323:6327  true */\n      0x01\n        /* \"@openzeppelin/contracts/access/AccessControl.sol\":6291:6327  _roles[role].hasRole[account] = true */\n      or\n      swap1\n      sstore\n        /* \"@openzeppelin/contracts/access/AccessControl.sol\":6373:6385  _msgSender() */\n      tag_171\n        /* \"@openzeppelin/contracts/utils/Context.sol\":735:745  msg.sender */\n      caller\n      swap1\n        /* \"@openzeppelin/contracts/utils/Context.sol\":656:752  function _msgSender() internal view virtual returns (address) {... */\n      jump\n        /* \"@openzeppelin/contracts/access/AccessControl.sol\":6373:6385  _msgSender() */\n    tag_171:\n      sub(shl(0xa0, 0x01), 0x01)\n        /* \"@openzeppelin/contracts/access/AccessControl.sol\":6346:6386  RoleGranted(role, account, _msgSender()) */\n      and\n        /* \"@openzeppelin/contracts/access/AccessControl.sol\":6364:6371  account */\n      dup3\n      sub(shl(0xa0, 0x01), 0x01)\n        /* \"@openzeppelin/contracts/access/AccessControl.sol\":6346:6386  RoleGranted(role, account, _msgSender()) */\n      and\n        /* \"@openzeppelin/contracts/access/AccessControl.sol\":6358:6362  role */\n      dup5\n        /* \"@openzeppelin/contracts/access/AccessControl.sol\":6346:6386  RoleGranted(role, account, _msgSender()) */\n      0x2f8788117e7eff1d82e926ec794901d17c78024a50270940304540a733656f0d\n      mload(0x40)\n      mload(0x40)\n      dup1\n      swap2\n      sub\n      swap1\n      log4\n      pop\n        /* \"@openzeppelin/contracts/access/AccessControl.sol\":6407:6411  true */\n      0x01\n        /* \"@openzeppelin/contracts/access/AccessControl.sol\":6400:6411  return true */\n      jump(tag_81)\n        /* \"@openzeppelin/contracts/access/AccessControl.sol\":6248:6465  if (!hasRole(role, account)) {... */\n    tag_170:\n      pop\n        /* \"@openzeppelin/contracts/access/AccessControl.sol\":6449:6454  false */\n      0x00\n        /* \"@openzeppelin/contracts/access/AccessControl.sol\":6442:6454  return false */\n      jump(tag_81)\n        /* \"@openzeppelin/contracts/access/AccessControl.sol\":6708:7025  function _revokeRole(bytes32 role, address account) internal virtual returns (bool) {... */\n    tag_96:\n        /* \"@openzeppelin/contracts/access/AccessControl.sol\":6786:6790  bool */\n      0x00\n        /* \"@openzeppelin/contracts/access/AccessControl.sol\":6806:6828  hasRole(role, account) */\n      tag_175\n        /* \"@openzeppelin/contracts/access/AccessControl.sol\":6814:6818  role */\n      dup4\n        /* \"@openzeppelin/contracts/access/AccessControl.sol\":6820:6827  account */\n      dup4\n        /* \"@openzeppelin/contracts/access/AccessControl.sol\":6806:6813  hasRole */\n      tag_47\n        /* \"@openzeppelin/contracts/access/AccessControl.sol\":6806:6828  hasRole(role, account) */\n      jump\t// in\n    tag_175:\n        /* \"@openzeppelin/contracts/access/AccessControl.sol\":6802:7019  if (hasRole(role, account)) {... */\n      iszero\n      tag_170\n      jumpi\n        /* \"@openzeppelin/contracts/access/AccessControl.sol\":6876:6881  false */\n      0x00\n        /* \"@openzeppelin/contracts/access/AccessControl.sol\":6844:6856  _roles[role] */\n      dup4\n      dup2\n      mstore\n      0x20\n      dup2\n      dup2\n      mstore\n      0x40\n      dup1\n      dup4\n      keccak256\n      sub(shl(0xa0, 0x01), 0x01)\n        /* \"@openzeppelin/contracts/access/AccessControl.sol\":6844:6873  _roles[role].hasRole[account] */\n      dup7\n      and\n      dup1\n      dup6\n      mstore\n      swap3\n      mstore\n      dup1\n      dup4\n      keccak256\n        /* \"@openzeppelin/contracts/access/AccessControl.sol\":6844:6881  _roles[role].hasRole[account] = false */\n      dup1\n      sload\n      not(0xff)\n      and\n      swap1\n      sstore\n        /* \"@openzeppelin/contracts/access/AccessControl.sol\":6900:6940  RoleRevoked(role, account, _msgSender()) */\n      mload\n        /* \"@openzeppelin/contracts/utils/Context.sol\":735:745  msg.sender */\n      caller\n      swap3\n        /* \"@openzeppelin/contracts/access/AccessControl.sol\":6844:6856  _roles[role] */\n      dup7\n      swap2\n        /* \"@openzeppelin/contracts/access/AccessControl.sol\":6900:6940  RoleRevoked(role, account, _msgSender()) */\n      0xf6391f5c32d9c69d2a47ea670b442974b53935d1edc7fd64eb21e047a839171b\n      swap2\n        /* \"@openzeppelin/contracts/access/AccessControl.sol\":6876:6881  false */\n      swap1\n        /* \"@openzeppelin/contracts/access/AccessControl.sol\":6900:6940  RoleRevoked(role, account, _msgSender()) */\n      log4\n      pop\n        /* \"@openzeppelin/contracts/access/AccessControl.sol\":6961:6965  true */\n      0x01\n        /* \"@openzeppelin/contracts/access/AccessControl.sol\":6954:6965  return true */\n      jump(tag_81)\n        /* \"@openzeppelin/contracts/security/ReentrancyGuard.sol\":2336:2623  function _nonReentrantBefore() private {... */\n    tag_107:\n        /* \"@openzeppelin/contracts/security/ReentrancyGuard.sol\":1759:1760  2 */\n      0x02\n        /* \"@openzeppelin/contracts/security/ReentrancyGuard.sol\":2468:2475  _status */\n      sload(0x01)\n        /* \"@openzeppelin/contracts/security/ReentrancyGuard.sol\":2468:2487  _status != _ENTERED */\n      sub\n        /* \"@openzeppelin/contracts/security/ReentrancyGuard.sol\":2460:2523  require(_status != _ENTERED, \"ReentrancyGuard: reentrant call\") */\n      tag_180\n      jumpi\n      mload(0x40)\n      shl(0xe5, 0x461bcd)\n      dup2\n      mstore\n        /* \"#utility.yul\":5233:5235   */\n      0x20\n        /* \"@openzeppelin/contracts/security/ReentrancyGuard.sol\":2460:2523  require(_status != _ENTERED, \"ReentrancyGuard: reentrant call\") */\n      0x04\n      dup3\n      add\n        /* \"#utility.yul\":5215:5236   */\n      mstore\n        /* \"#utility.yul\":5272:5274   */\n      0x1f\n        /* \"#utility.yul\":5252:5270   */\n      0x24\n      dup3\n      add\n        /* \"#utility.yul\":5245:5275   */\n      mstore\n        /* \"#utility.yul\":5311:5344   */\n      0x5265656e7472616e637947756172643a207265656e7472616e742063616c6c00\n        /* \"#utility.yul\":5291:5309   */\n      0x44\n      dup3\n      add\n        /* \"#utility.yul\":5284:5345   */\n      mstore\n        /* \"#utility.yul\":5362:5380   */\n      0x64\n      add\n        /* \"@openzeppelin/contracts/security/ReentrancyGuard.sol\":2460:2523  require(_status != _ENTERED, \"ReentrancyGuard: reentrant call\") */\n      tag_115\n        /* \"#utility.yul\":5031:5386   */\n      jump\n        /* \"@openzeppelin/contracts/security/ReentrancyGuard.sol\":2460:2523  require(_status != _ENTERED, \"ReentrancyGuard: reentrant call\") */\n    tag_180:\n        /* \"@openzeppelin/contracts/security/ReentrancyGuard.sol\":1759:1760  2 */\n      0x02\n        /* \"@openzeppelin/contracts/security/ReentrancyGuard.sol\":2598:2605  _status */\n      0x01\n        /* \"@openzeppelin/contracts/security/ReentrancyGuard.sol\":2598:2616  _status = _ENTERED */\n      sstore\n        /* \"@openzeppelin/contracts/security/ReentrancyGuard.sol\":2336:2623  function _nonReentrantBefore() private {... */\n      jump\t// out\n        /* \"@openzeppelin/contracts/access/AccessControl.sol\":3408:3605  function _checkRole(bytes32 role, address account) internal view virtual {... */\n    tag_167:\n        /* \"@openzeppelin/contracts/access/AccessControl.sol\":3496:3518  hasRole(role, account) */\n      tag_185\n        /* \"@openzeppelin/contracts/access/AccessControl.sol\":3504:3508  role */\n      dup3\n        /* \"@openzeppelin/contracts/access/AccessControl.sol\":3510:3517  account */\n      dup3\n        /* \"@openzeppelin/contracts/access/AccessControl.sol\":3496:3503  hasRole */\n      tag_47\n        /* \"@openzeppelin/contracts/access/AccessControl.sol\":3496:3518  hasRole(role, account) */\n      jump\t// in\n    tag_185:\n        /* \"@openzeppelin/contracts/access/AccessControl.sol\":3491:3599  if (!hasRole(role, account)) {... */\n      tag_186\n      jumpi\n        /* \"@openzeppelin/contracts/access/AccessControl.sol\":3541:3588  AccessControlUnauthorizedAccount(account, role) */\n      mload(0x40)\n      shl(0xe0, 0xe2517d3f)\n      dup2\n      mstore\n      sub(shl(0xa0, 0x01), 0x01)\n        /* \"#utility.yul\":2664:2696   */\n      dup3\n      and\n        /* \"@openzeppelin/contracts/access/AccessControl.sol\":3541:3588  AccessControlUnauthorizedAccount(account, role) */\n      0x04\n      dup3\n      add\n        /* \"#utility.yul\":2646:2697   */\n      mstore\n        /* \"#utility.yul\":2713:2731   */\n      0x24\n      dup2\n      add\n        /* \"#utility.yul\":2706:2740   */\n      dup4\n      swap1\n      mstore\n        /* \"#utility.yul\":2619:2637   */\n      0x44\n      add\n        /* \"@openzeppelin/contracts/access/AccessControl.sol\":3541:3588  AccessControlUnauthorizedAccount(account, role) */\n      tag_115\n        /* \"#utility.yul\":2472:2746   */\n      jump\n        /* \"@openzeppelin/contracts/access/AccessControl.sol\":3491:3599  if (!hasRole(role, account)) {... */\n    tag_186:\n        /* \"@openzeppelin/contracts/access/AccessControl.sol\":3408:3605  function _checkRole(bytes32 role, address account) internal view virtual {... */\n      pop\n      pop\n      jump\t// out\n        /* \"#utility.yul\":14:300   */\n    tag_24:\n        /* \"#utility.yul\":72:78   */\n      0x00\n        /* \"#utility.yul\":125:127   */\n      0x20\n        /* \"#utility.yul\":113:122   */\n      dup3\n        /* \"#utility.yul\":104:111   */\n      dup5\n        /* \"#utility.yul\":100:123   */\n      sub\n        /* \"#utility.yul\":96:128   */\n      slt\n        /* \"#utility.yul\":93:145   */\n      iszero\n      tag_192\n      jumpi\n        /* \"#utility.yul\":141:142   */\n      0x00\n        /* \"#utility.yul\":138:139   */\n      0x00\n        /* \"#utility.yul\":131:143   */\n      revert\n        /* \"#utility.yul\":93:145   */\n    tag_192:\n        /* \"#utility.yul\":167:190   */\n      dup2\n      calldataload\n      not(sub(shl(0xe0, 0x01), 0x01))\n        /* \"#utility.yul\":219:251   */\n      dup2\n      and\n        /* \"#utility.yul\":209:252   */\n      dup2\n      eq\n        /* \"#utility.yul\":199:270   */\n      tag_193\n      jumpi\n        /* \"#utility.yul\":266:267   */\n      0x00\n        /* \"#utility.yul\":263:264   */\n      0x00\n        /* \"#utility.yul\":256:268   */\n      revert\n        /* \"#utility.yul\":199:270   */\n    tag_193:\n        /* \"#utility.yul\":289:294   */\n      swap4\n        /* \"#utility.yul\":14:300   */\n      swap3\n      pop\n      pop\n      pop\n      jump\t// out\n        /* \"#utility.yul\":497:723   */\n    tag_30:\n        /* \"#utility.yul\":556:562   */\n      0x00\n        /* \"#utility.yul\":609:611   */\n      0x20\n        /* \"#utility.yul\":597:606   */\n      dup3\n        /* \"#utility.yul\":588:595   */\n      dup5\n        /* \"#utility.yul\":584:607   */\n      sub\n        /* \"#utility.yul\":580:612   */\n      slt\n        /* \"#utility.yul\":577:629   */\n      iszero\n      tag_196\n      jumpi\n        /* \"#utility.yul\":625:626   */\n      0x00\n        /* \"#utility.yul\":622:623   */\n      0x00\n        /* \"#utility.yul\":615:627   */\n      revert\n        /* \"#utility.yul\":577:629   */\n    tag_196:\n      pop\n        /* \"#utility.yul\":670:693   */\n      calldataload\n      swap2\n        /* \"#utility.yul\":497:723   */\n      swap1\n      pop\n      jump\t// out\n        /* \"#utility.yul\":910:1318   */\n    tag_36:\n        /* \"#utility.yul\":978:984   */\n      0x00\n        /* \"#utility.yul\":986:992   */\n      0x00\n        /* \"#utility.yul\":1039:1041   */\n      0x40\n        /* \"#utility.yul\":1027:1036   */\n      dup4\n        /* \"#utility.yul\":1018:1025   */\n      dup6\n        /* \"#utility.yul\":1014:1037   */\n      sub\n        /* \"#utility.yul\":1010:1042   */\n      slt\n        /* \"#utility.yul\":1007:1059   */\n      iszero\n      tag_199\n      jumpi\n        /* \"#utility.yul\":1055:1056   */\n      0x00\n        /* \"#utility.yul\":1052:1053   */\n      0x00\n        /* \"#utility.yul\":1045:1057   */\n      revert\n        /* \"#utility.yul\":1007:1059   */\n    tag_199:\n        /* \"#utility.yul\":1100:1123   */\n      dup3\n      calldataload\n      swap2\n      pop\n        /* \"#utility.yul\":1199:1201   */\n      0x20\n        /* \"#utility.yul\":1184:1202   */\n      dup4\n      add\n        /* \"#utility.yul\":1171:1203   */\n      calldataload\n      sub(shl(0xa0, 0x01), 0x01)\n        /* \"#utility.yul\":1234:1267   */\n      dup2\n      and\n        /* \"#utility.yul\":1222:1268   */\n      dup2\n      eq\n        /* \"#utility.yul\":1212:1286   */\n      tag_200\n      jumpi\n        /* \"#utility.yul\":1282:1283   */\n      0x00\n        /* \"#utility.yul\":1279:1280   */\n      0x00\n        /* \"#utility.yul\":1272:1284   */\n      revert\n        /* \"#utility.yul\":1212:1286   */\n    tag_200:\n        /* \"#utility.yul\":1305:1312   */\n      dup1\n        /* \"#utility.yul\":1295:1312   */\n      swap2\n      pop\n      pop\n        /* \"#utility.yul\":910:1318   */\n      swap3\n      pop\n      swap3\n      swap1\n      pop\n      jump\t// out\n        /* \"#utility.yul\":1946:2130   */\n    tag_113:\n        /* \"#utility.yul\":2016:2022   */\n      0x00\n        /* \"#utility.yul\":2069:2071   */\n      0x20\n        /* \"#utility.yul\":2057:2066   */\n      dup3\n        /* \"#utility.yul\":2048:2055   */\n      dup5\n        /* \"#utility.yul\":2044:2067   */\n      sub\n        /* \"#utility.yul\":2040:2072   */\n      slt\n        /* \"#utility.yul\":2037:2089   */\n      iszero\n      tag_205\n      jumpi\n        /* \"#utility.yul\":2085:2086   */\n      0x00\n        /* \"#utility.yul\":2082:2083   */\n      0x00\n        /* \"#utility.yul\":2075:2087   */\n      revert\n        /* \"#utility.yul\":2037:2089   */\n    tag_205:\n      pop\n        /* \"#utility.yul\":2108:2124   */\n      mload\n      swap2\n        /* \"#utility.yul\":1946:2130   */\n      swap1\n      pop\n      jump\t// out\n        /* \"#utility.yul\":2751:3028   */\n    tag_122:\n        /* \"#utility.yul\":2818:2824   */\n      0x00\n        /* \"#utility.yul\":2871:2873   */\n      0x20\n        /* \"#utility.yul\":2859:2868   */\n      dup3\n        /* \"#utility.yul\":2850:2857   */\n      dup5\n        /* \"#utility.yul\":2846:2869   */\n      sub\n        /* \"#utility.yul\":2842:2874   */\n      slt\n        /* \"#utility.yul\":2839:2891   */\n      iszero\n      tag_209\n      jumpi\n        /* \"#utility.yul\":2887:2888   */\n      0x00\n        /* \"#utility.yul\":2884:2885   */\n      0x00\n        /* \"#utility.yul\":2877:2889   */\n      revert\n        /* \"#utility.yul\":2839:2891   */\n    tag_209:\n        /* \"#utility.yul\":2919:2928   */\n      dup2\n        /* \"#utility.yul\":2913:2929   */\n      mload\n        /* \"#utility.yul\":2972:2977   */\n      dup1\n        /* \"#utility.yul\":2965:2978   */\n      iszero\n        /* \"#utility.yul\":2958:2979   */\n      iszero\n        /* \"#utility.yul\":2951:2956   */\n      dup2\n        /* \"#utility.yul\":2948:2980   */\n      eq\n        /* \"#utility.yul\":2938:2998   */\n      tag_193\n      jumpi\n        /* \"#utility.yul\":2994:2995   */\n      0x00\n        /* \"#utility.yul\":2991:2992   */\n      0x00\n        /* \"#utility.yul\":2984:2996   */\n      revert\n        /* \"#utility.yul\":3375:3502   */\n    tag_189:\n        /* \"#utility.yul\":3436:3446   */\n      0x4e487b71\n        /* \"#utility.yul\":3431:3434   */\n      0xe0\n        /* \"#utility.yul\":3427:3447   */\n      shl\n        /* \"#utility.yul\":3424:3425   */\n      0x00\n        /* \"#utility.yul\":3417:3448   */\n      mstore\n        /* \"#utility.yul\":3467:3471   */\n      0x11\n        /* \"#utility.yul\":3464:3465   */\n      0x04\n        /* \"#utility.yul\":3457:3472   */\n      mstore\n        /* \"#utility.yul\":3491:3495   */\n      0x24\n        /* \"#utility.yul\":3488:3489   */\n      0x00\n        /* \"#utility.yul\":3481:3496   */\n      revert\n        /* \"#utility.yul\":3507:3675   */\n    tag_141:\n        /* \"#utility.yul\":3580:3589   */\n      dup1\n      dup3\n      mul\n        /* \"#utility.yul\":3611:3620   */\n      dup2\n      iszero\n        /* \"#utility.yul\":3628:3643   */\n      dup3\n      dup3\n      div\n        /* \"#utility.yul\":3622:3644   */\n      dup5\n      eq\n        /* \"#utility.yul\":3608:3645   */\n      or\n        /* \"#utility.yul\":3598:3669   */\n      tag_81\n      jumpi\n        /* \"#utility.yul\":3649:3667   */\n      tag_81\n      tag_189\n      jump\t// in\n        /* \"#utility.yul\":3680:3897   */\n    tag_143:\n        /* \"#utility.yul\":3720:3721   */\n      0x00\n        /* \"#utility.yul\":3746:3747   */\n      dup3\n        /* \"#utility.yul\":3736:3868   */\n      tag_217\n      jumpi\n        /* \"#utility.yul\":3790:3800   */\n      0x4e487b71\n        /* \"#utility.yul\":3785:3788   */\n      0xe0\n        /* \"#utility.yul\":3781:3801   */\n      shl\n        /* \"#utility.yul\":3778:3779   */\n      0x00\n        /* \"#utility.yul\":3771:3802   */\n      mstore\n        /* \"#utility.yul\":3825:3829   */\n      0x12\n        /* \"#utility.yul\":3822:3823   */\n      0x04\n        /* \"#utility.yul\":3815:3830   */\n      mstore\n        /* \"#utility.yul\":3853:3857   */\n      0x24\n        /* \"#utility.yul\":3850:3851   */\n      0x00\n        /* \"#utility.yul\":3843:3858   */\n      revert\n        /* \"#utility.yul\":3736:3868   */\n    tag_217:\n      pop\n        /* \"#utility.yul\":3882:3891   */\n      div\n      swap1\n        /* \"#utility.yul\":3680:3897   */\n      jump\t// out\n        /* \"#utility.yul\":3902:4030   */\n    tag_145:\n        /* \"#utility.yul\":3969:3978   */\n      dup2\n      dup2\n      sub\n        /* \"#utility.yul\":3990:4001   */\n      dup2\n      dup2\n      gt\n        /* \"#utility.yul\":3987:4024   */\n      iszero\n      tag_81\n      jumpi\n        /* \"#utility.yul\":4004:4022   */\n      tag_81\n      tag_189\n      jump\t// in\n\n    auxdata: 0xa2646970667358221220b8eb9419e1512f0518c01c0be21141ec2968f0e0529370a30bd518d04e6cf12a64736f6c634300081e0033\n}\n",
				"bytecode": {
					"linkReferences": {},
					"object": "60a060405234801561000f575f5ffd5b50604051610f52380380610f5283398101604081905261002e916102f1565b600180556001600160a01b0386166100775760405162461bcd60e51b81526020600482015260076024820152660746f6b656e3d360cc1b60448201526064015b60405180910390fd5b6001600160a01b0385166100b55760405162461bcd60e51b815260206004820152600560248201526407075623d360dc1b604482015260640161006e565b6001600160a01b0384166100f45760405162461bcd60e51b81526020600482015260066024820152650646576733d360d41b604482015260640161006e565b6100fe8284610361565b61ffff16612710146101455760405162461bcd60e51b815260206004820152601060248201526f06270732073756d20213d2031303030360841b604482015260640161006e565b608080516001600160a01b03908116909152600280548783166001600160a01b03199091161790556003805461ffff858116600160b01b0261ffff60b01b19918816600160a01b026001600160b01b03199093169489169490941791909117169190911790556101b55f8261021c565b506101e07f241ecf16d79d0f8dbfb92cbc07fe17840425976cf0667f022fe9877caa831b088261021c565b506101f85f516020610f325f395f51905f528661021c565b506102105f516020610f325f395f51905f528561021c565b50505050505050610387565b5f828152602081815260408083206001600160a01b038516845290915281205460ff166102bc575f838152602081815260408083206001600160a01b03861684529091529020805460ff191660011790556102743390565b6001600160a01b0316826001600160a01b0316847f2f8788117e7eff1d82e926ec794901d17c78024a50270940304540a733656f0d60405160405180910390a45060016102bf565b505f5b92915050565b80516001600160a01b03811681146102db575f5ffd5b919050565b805161ffff811681146102db575f5ffd5b5f5f5f5f5f5f60c08789031215610306575f5ffd5b61030f876102c5565b955061031d602088016102c5565b945061032b604088016102c5565b9350610339606088016102e0565b9250610347608088016102e0565b915061035560a088016102c5565b90509295509295509295565b61ffff81811683821601908111156102bf57634e487b7160e01b5f52601160045260245ffd5b608051610b706103c25f395f818161028a015281816103b901528181610488015281816105c5015281816106d4015261079e0152610b705ff3fe608060405234801561000f575f5ffd5b50600436106100fb575f3560e01c8063aaecfa6311610093578063e98c099011610063578063e98c099014610222578063eb09c17c14610237578063ec87621c1461025e578063fc0c546a14610285575f5ffd5b8063aaecfa63146101d7578063d547741f146101ff578063db2e21bc14610212578063e4fc6b6d1461021a575f5ffd5b80638c72c54e116100ce5780638c72c54e1461017f57806391d14854146101aa5780639a96f829146101bd578063a217fddf146101d0575f5ffd5b806301ffc9a7146100ff578063248a9ca3146101275780632f2ff15d1461015757806336568abe1461016c575b5f5ffd5b61011261010d366004610a29565b6102ac565b60405190151581526020015b60405180910390f35b610149610135366004610a57565b5f9081526020819052604090206001015490565b60405190815260200161011e565b61016a610165366004610a6e565b6102e2565b005b61016a61017a366004610a6e565b61030c565b600254610192906001600160a01b031681565b6040516001600160a01b03909116815260200161011e565b6101126101b8366004610a6e565b610344565b600354610192906001600160a01b031681565b6101495f81565b6003546101ec90600160a01b900461ffff1681565b60405161ffff909116815260200161011e565b61016a61020d366004610a6e565b61036c565b61016a610390565b61016a61057c565b6003546101ec90600160b01b900461ffff1681565b6101497febea61bac29e76544ef1875472aaff98e28d2db11686c8cbef6c2b35dbe3240781565b6101497f241ecf16d79d0f8dbfb92cbc07fe17840425976cf0667f022fe9877caa831b0881565b6101927f000000000000000000000000000000000000000000000000000000000000000081565b5f6001600160e01b03198216637965db0b60e01b14806102dc57506301ffc9a760e01b6001600160e01b03198316145b92915050565b5f828152602081905260409020600101546102fc81610891565b610306838361089b565b50505050565b6001600160a01b03811633146103355760405163334bd91960e11b815260040160405180910390fd5b61033f828261092a565b505050565b5f918252602082815260408084206001600160a01b0393909316845291905290205460ff1690565b5f8281526020819052604090206001015461038681610891565b610306838361092a565b5f61039a81610891565b6103a2610993565b6040516370a0823160e01b81523060048201525f907f00000000000000000000000000000000000000000000000000000000000000006001600160a01b0316906370a0823190602401602060405180830381865afa158015610406573d5f5f3e3d5ffd5b505050506040513d601f19601f8201168201806040525081019061042a9190610aa7565b90505f811161046c5760405162461bcd60e51b81526020600482015260096024820152686e6f20746f6b656e7360b81b60448201526064015b60405180910390fd5b60405163a9059cbb60e01b8152336004820152602481018290527f00000000000000000000000000000000000000000000000000000000000000006001600160a01b03169063a9059cbb906044016020604051808303815f875af11580156104d6573d5f5f3e3d5ffd5b505050506040513d601f19601f820116820180604052508101906104fa9190610abe565b6105365760405162461bcd60e51b815260206004820152600d60248201526c1dda5d1a191c985dc819985a5b609a1b6044820152606401610463565b60408051338152602081018390527f5fafa99d0643513820be26656b45130b01e1c03062e1266bf36f88cbd3bd9695910160405180910390a15061057960018055565b50565b610584610993565b7febea61bac29e76544ef1875472aaff98e28d2db11686c8cbef6c2b35dbe324076105ae81610891565b6040516370a0823160e01b81523060048201525f907f00000000000000000000000000000000000000000000000000000000000000006001600160a01b0316906370a0823190602401602060405180830381865afa158015610612573d5f5f3e3d5ffd5b505050506040513d601f19601f820116820180604052508101906106369190610aa7565b90505f81116106735760405162461bcd60e51b81526020600482015260096024820152686e6f20746f6b656e7360b81b6044820152606401610463565b6003545f906127109061069190600160a01b900461ffff1684610af1565b61069b9190610b08565b90505f6106a88284610b27565b60025460405163a9059cbb60e01b81526001600160a01b039182166004820152602481018590529192507f0000000000000000000000000000000000000000000000000000000000000000169063a9059cbb906044016020604051808303815f875af115801561071a573d5f5f3e3d5ffd5b505050506040513d601f19601f8201168201806040525081019061073e9190610abe565b6107755760405162461bcd60e51b81526020600482015260086024820152671c1d588819985a5b60c21b6044820152606401610463565b60035460405163a9059cbb60e01b81526001600160a01b039182166004820152602481018390527f00000000000000000000000000000000000000000000000000000000000000009091169063a9059cbb906044016020604051808303815f875af11580156107e6573d5f5f3e3d5ffd5b505050506040513d601f19601f8201168201806040525081019061080a9190610abe565b6108415760405162461bcd60e51b815260206004820152600860248201526719195d8819985a5b60c21b6044820152606401610463565b60408051848152602081018490529081018290527fc5d35a65af09b3042394b742529d10f7fbf9a37294d6b13e4d63d06f9909a15b9060600160405180910390a15050505061088f60018055565b565b61057981336109ec565b5f6108a68383610344565b610923575f838152602081815260408083206001600160a01b03861684529091529020805460ff191660011790556108db3390565b6001600160a01b0316826001600160a01b0316847f2f8788117e7eff1d82e926ec794901d17c78024a50270940304540a733656f0d60405160405180910390a45060016102dc565b505f6102dc565b5f6109358383610344565b15610923575f838152602081815260408083206001600160a01b0386168085529252808320805460ff1916905551339286917ff6391f5c32d9c69d2a47ea670b442974b53935d1edc7fd64eb21e047a839171b9190a45060016102dc565b6002600154036109e55760405162461bcd60e51b815260206004820152601f60248201527f5265656e7472616e637947756172643a207265656e7472616e742063616c6c006044820152606401610463565b6002600155565b6109f68282610344565b610a255760405163e2517d3f60e01b81526001600160a01b038216600482015260248101839052604401610463565b5050565b5f60208284031215610a39575f5ffd5b81356001600160e01b031981168114610a50575f5ffd5b9392505050565b5f60208284031215610a67575f5ffd5b5035919050565b5f5f60408385031215610a7f575f5ffd5b8235915060208301356001600160a01b0381168114610a9c575f5ffd5b809150509250929050565b5f60208284031215610ab7575f5ffd5b5051919050565b5f60208284031215610ace575f5ffd5b81518015158114610a50575f5ffd5b634e487b7160e01b5f52601160045260245ffd5b80820281158282048414176102dc576102dc610add565b5f82610b2257634e487b7160e01b5f52601260045260245ffd5b500490565b818103818111156102dc576102dc610add56fea2646970667358221220b8eb9419e1512f0518c01c0be21141ec2968f0e0529370a30bd518d04e6cf12a64736f6c634300081e0033ebea61bac29e76544ef1875472aaff98e28d2db11686c8cbef6c2b35dbe32407",
					"opcodes": "PUSH1 0xA0 PUSH1 0x40 MSTORE CALLVALUE DUP1 ISZERO PUSH2 0xF JUMPI PUSH0 PUSH0 REVERT JUMPDEST POP PUSH1 0x40 MLOAD PUSH2 0xF52 CODESIZE SUB DUP1 PUSH2 0xF52 DUP4 CODECOPY DUP2 ADD PUSH1 0x40 DUP2 SWAP1 MSTORE PUSH2 0x2E SWAP2 PUSH2 0x2F1 JUMP JUMPDEST PUSH1 0x1 DUP1 SSTORE PUSH1 0x1 PUSH1 0x1 PUSH1 0xA0 SHL SUB DUP7 AND PUSH2 0x77 JUMPI PUSH1 0x40 MLOAD PUSH3 0x461BCD PUSH1 0xE5 SHL DUP2 MSTORE PUSH1 0x20 PUSH1 0x4 DUP3 ADD MSTORE PUSH1 0x7 PUSH1 0x24 DUP3 ADD MSTORE PUSH7 0x746F6B656E3D3 PUSH1 0xCC SHL PUSH1 0x44 DUP3 ADD MSTORE PUSH1 0x64 ADD JUMPDEST PUSH1 0x40 MLOAD DUP1 SWAP2 SUB SWAP1 REVERT JUMPDEST PUSH1 0x1 PUSH1 0x1 PUSH1 0xA0 SHL SUB DUP6 AND PUSH2 0xB5 JUMPI PUSH1 0x40 MLOAD PUSH3 0x461BCD PUSH1 0xE5 SHL DUP2 MSTORE PUSH1 0x20 PUSH1 0x4 DUP3 ADD MSTORE PUSH1 0x5 PUSH1 0x24 DUP3 ADD MSTORE PUSH5 0x7075623D3 PUSH1 0xDC SHL PUSH1 0x44 DUP3 ADD MSTORE PUSH1 0x64 ADD PUSH2 0x6E JUMP JUMPDEST PUSH1 0x1 PUSH1 0x1 PUSH1 0xA0 SHL SUB DUP5 AND PUSH2 0xF4 JUMPI PUSH1 0x40 MLOAD PUSH3 0x461BCD PUSH1 0xE5 SHL DUP2 MSTORE PUSH1 0x20 PUSH1 0x4 DUP3 ADD MSTORE PUSH1 0x6 PUSH1 0x24 DUP3 ADD MSTORE PUSH6 0x646576733D3 PUSH1 0xD4 SHL PUSH1 0x44 DUP3 ADD MSTORE PUSH1 0x64 ADD PUSH2 0x6E JUMP JUMPDEST PUSH2 0xFE DUP3 DUP5 PUSH2 0x361 JUMP JUMPDEST PUSH2 0xFFFF AND PUSH2 0x2710 EQ PUSH2 0x145 JUMPI PUSH1 0x40 MLOAD PUSH3 0x461BCD PUSH1 0xE5 SHL DUP2 MSTORE PUSH1 0x20 PUSH1 0x4 DUP3 ADD MSTORE PUSH1 0x10 PUSH1 0x24 DUP3 ADD MSTORE PUSH16 0x6270732073756D20213D20313030303 PUSH1 0x84 SHL PUSH1 0x44 DUP3 ADD MSTORE PUSH1 0x64 ADD PUSH2 0x6E JUMP JUMPDEST PUSH1 0x80 DUP1 MLOAD PUSH1 0x1 PUSH1 0x1 PUSH1 0xA0 SHL SUB SWAP1 DUP2 AND SWAP1 SWAP2 MSTORE PUSH1 0x2 DUP1 SLOAD DUP8 DUP4 AND PUSH1 0x1 PUSH1 0x1 PUSH1 0xA0 SHL SUB NOT SWAP1 SWAP2 AND OR SWAP1 SSTORE PUSH1 0x3 DUP1 SLOAD PUSH2 0xFFFF DUP6 DUP2 AND PUSH1 0x1 PUSH1 0xB0 SHL MUL PUSH2 0xFFFF PUSH1 0xB0 SHL NOT SWAP2 DUP9 AND PUSH1 0x1 PUSH1 0xA0 SHL MUL PUSH1 0x1 PUSH1 0x1 PUSH1 0xB0 SHL SUB NOT SWAP1 SWAP4 AND SWAP5 DUP10 AND SWAP5 SWAP1 SWAP5 OR SWAP2 SWAP1 SWAP2 OR AND SWAP2 SWAP1 SWAP2 OR SWAP1 SSTORE PUSH2 0x1B5 PUSH0 DUP3 PUSH2 0x21C JUMP JUMPDEST POP PUSH2 0x1E0 PUSH32 0x241ECF16D79D0F8DBFB92CBC07FE17840425976CF0667F022FE9877CAA831B08 DUP3 PUSH2 0x21C JUMP JUMPDEST POP PUSH2 0x1F8 PUSH0 MLOAD PUSH1 0x20 PUSH2 0xF32 PUSH0 CODECOPY PUSH0 MLOAD SWAP1 PUSH0 MSTORE DUP7 PUSH2 0x21C JUMP JUMPDEST POP PUSH2 0x210 PUSH0 MLOAD PUSH1 0x20 PUSH2 0xF32 PUSH0 CODECOPY PUSH0 MLOAD SWAP1 PUSH0 MSTORE DUP6 PUSH2 0x21C JUMP JUMPDEST POP POP POP POP POP POP POP PUSH2 0x387 JUMP JUMPDEST PUSH0 DUP3 DUP2 MSTORE PUSH1 0x20 DUP2 DUP2 MSTORE PUSH1 0x40 DUP1 DUP4 KECCAK256 PUSH1 0x1 PUSH1 0x1 PUSH1 0xA0 SHL SUB DUP6 AND DUP5 MSTORE SWAP1 SWAP2 MSTORE DUP2 KECCAK256 SLOAD PUSH1 0xFF AND PUSH2 0x2BC JUMPI PUSH0 DUP4 DUP2 MSTORE PUSH1 0x20 DUP2 DUP2 MSTORE PUSH1 0x40 DUP1 DUP4 KECCAK256 PUSH1 0x1 PUSH1 0x1 PUSH1 0xA0 SHL SUB DUP7 AND DUP5 MSTORE SWAP1 SWAP2 MSTORE SWAP1 KECCAK256 DUP1 SLOAD PUSH1 0xFF NOT AND PUSH1 0x1 OR SWAP1 SSTORE PUSH2 0x274 CALLER SWAP1 JUMP JUMPDEST PUSH1 0x1 PUSH1 0x1 PUSH1 0xA0 SHL SUB AND DUP3 PUSH1 0x1 PUSH1 0x1 PUSH1 0xA0 SHL SUB AND DUP5 PUSH32 0x2F8788117E7EFF1D82E926EC794901D17C78024A50270940304540A733656F0D PUSH1 0x40 MLOAD PUSH1 0x40 MLOAD DUP1 SWAP2 SUB SWAP1 LOG4 POP PUSH1 0x1 PUSH2 0x2BF JUMP JUMPDEST POP PUSH0 JUMPDEST SWAP3 SWAP2 POP POP JUMP JUMPDEST DUP1 MLOAD PUSH1 0x1 PUSH1 0x1 PUSH1 0xA0 SHL SUB DUP2 AND DUP2 EQ PUSH2 0x2DB JUMPI PUSH0 PUSH0 REVERT JUMPDEST SWAP2 SWAP1 POP JUMP JUMPDEST DUP1 MLOAD PUSH2 0xFFFF DUP2 AND DUP2 EQ PUSH2 0x2DB JUMPI PUSH0 PUSH0 REVERT JUMPDEST PUSH0 PUSH0 PUSH0 PUSH0 PUSH0 PUSH0 PUSH1 0xC0 DUP8 DUP10 SUB SLT ISZERO PUSH2 0x306 JUMPI PUSH0 PUSH0 REVERT JUMPDEST PUSH2 0x30F DUP8 PUSH2 0x2C5 JUMP JUMPDEST SWAP6 POP PUSH2 0x31D PUSH1 0x20 DUP9 ADD PUSH2 0x2C5 JUMP JUMPDEST SWAP5 POP PUSH2 0x32B PUSH1 0x40 DUP9 ADD PUSH2 0x2C5 JUMP JUMPDEST SWAP4 POP PUSH2 0x339 PUSH1 0x60 DUP9 ADD PUSH2 0x2E0 JUMP JUMPDEST SWAP3 POP PUSH2 0x347 PUSH1 0x80 DUP9 ADD PUSH2 0x2E0 JUMP JUMPDEST SWAP2 POP PUSH2 0x355 PUSH1 0xA0 DUP9 ADD PUSH2 0x2C5 JUMP JUMPDEST SWAP1 POP SWAP3 SWAP6 POP SWAP3 SWAP6 POP SWAP3 SWAP6 JUMP JUMPDEST PUSH2 0xFFFF DUP2 DUP2 AND DUP4 DUP3 AND ADD SWAP1 DUP2 GT ISZERO PUSH2 0x2BF JUMPI PUSH4 0x4E487B71 PUSH1 0xE0 SHL PUSH0 MSTORE PUSH1 0x11 PUSH1 0x4 MSTORE PUSH1 0x24 PUSH0 REVERT JUMPDEST PUSH1 0x80 MLOAD PUSH2 0xB70 PUSH2 0x3C2 PUSH0 CODECOPY PUSH0 DUP2 DUP2 PUSH2 0x28A ADD MSTORE DUP2 DUP2 PUSH2 0x3B9 ADD MSTORE DUP2 DUP2 PUSH2 0x488 ADD MSTORE DUP2 DUP2 PUSH2 0x5C5 ADD MSTORE DUP2 DUP2 PUSH2 0x6D4 ADD MSTORE PUSH2 0x79E ADD MSTORE PUSH2 0xB70 PUSH0 RETURN INVALID PUSH1 0x80 PUSH1 0x40 MSTORE CALLVALUE DUP1 ISZERO PUSH2 0xF JUMPI PUSH0 PUSH0 REVERT JUMPDEST POP PUSH1 0x4 CALLDATASIZE LT PUSH2 0xFB JUMPI PUSH0 CALLDATALOAD PUSH1 0xE0 SHR DUP1 PUSH4 0xAAECFA63 GT PUSH2 0x93 JUMPI DUP1 PUSH4 0xE98C0990 GT PUSH2 0x63 JUMPI DUP1 PUSH4 0xE98C0990 EQ PUSH2 0x222 JUMPI DUP1 PUSH4 0xEB09C17C EQ PUSH2 0x237 JUMPI DUP1 PUSH4 0xEC87621C EQ PUSH2 0x25E JUMPI DUP1 PUSH4 0xFC0C546A EQ PUSH2 0x285 JUMPI PUSH0 PUSH0 REVERT JUMPDEST DUP1 PUSH4 0xAAECFA63 EQ PUSH2 0x1D7 JUMPI DUP1 PUSH4 0xD547741F EQ PUSH2 0x1FF JUMPI DUP1 PUSH4 0xDB2E21BC EQ PUSH2 0x212 JUMPI DUP1 PUSH4 0xE4FC6B6D EQ PUSH2 0x21A JUMPI PUSH0 PUSH0 REVERT JUMPDEST DUP1 PUSH4 0x8C72C54E GT PUSH2 0xCE JUMPI DUP1 PUSH4 0x8C72C54E EQ PUSH2 0x17F JUMPI DUP1 PUSH4 0x91D14854 EQ PUSH2 0x1AA JUMPI DUP1 PUSH4 0x9A96F829 EQ PUSH2 0x1BD JUMPI DUP1 PUSH4 0xA217FDDF EQ PUSH2 0x1D0 JUMPI PUSH0 PUSH0 REVERT JUMPDEST DUP1 PUSH4 0x1FFC9A7 EQ PUSH2 0xFF JUMPI DUP1 PUSH4 0x248A9CA3 EQ PUSH2 0x127 JUMPI DUP1 PUSH4 0x2F2FF15D EQ PUSH2 0x157 JUMPI DUP1 PUSH4 0x36568ABE EQ PUSH2 0x16C JUMPI JUMPDEST PUSH0 PUSH0 REVERT JUMPDEST PUSH2 0x112 PUSH2 0x10D CALLDATASIZE PUSH1 0x4 PUSH2 0xA29 JUMP JUMPDEST PUSH2 0x2AC JUMP JUMPDEST PUSH1 0x40 MLOAD SWAP1 ISZERO ISZERO DUP2 MSTORE PUSH1 0x20 ADD JUMPDEST PUSH1 0x40 MLOAD DUP1 SWAP2 SUB SWAP1 RETURN JUMPDEST PUSH2 0x149 PUSH2 0x135 CALLDATASIZE PUSH1 0x4 PUSH2 0xA57 JUMP JUMPDEST PUSH0 SWAP1 DUP2 MSTORE PUSH1 0x20 DUP2 SWAP1 MSTORE PUSH1 0x40 SWAP1 KECCAK256 PUSH1 0x1 ADD SLOAD SWAP1 JUMP JUMPDEST PUSH1 0x40 MLOAD SWAP1 DUP2 MSTORE PUSH1 0x20 ADD PUSH2 0x11E JUMP JUMPDEST PUSH2 0x16A PUSH2 0x165 CALLDATASIZE PUSH1 0x4 PUSH2 0xA6E JUMP JUMPDEST PUSH2 0x2E2 JUMP JUMPDEST STOP JUMPDEST PUSH2 0x16A PUSH2 0x17A CALLDATASIZE PUSH1 0x4 PUSH2 0xA6E JUMP JUMPDEST PUSH2 0x30C JUMP JUMPDEST PUSH1 0x2 SLOAD PUSH2 0x192 SWAP1 PUSH1 0x1 PUSH1 0x1 PUSH1 0xA0 SHL SUB AND DUP2 JUMP JUMPDEST PUSH1 0x40 MLOAD PUSH1 0x1 PUSH1 0x1 PUSH1 0xA0 SHL SUB SWAP1 SWAP2 AND DUP2 MSTORE PUSH1 0x20 ADD PUSH2 0x11E JUMP JUMPDEST PUSH2 0x112 PUSH2 0x1B8 CALLDATASIZE PUSH1 0x4 PUSH2 0xA6E JUMP JUMPDEST PUSH2 0x344 JUMP JUMPDEST PUSH1 0x3 SLOAD PUSH2 0x192 SWAP1 PUSH1 0x1 PUSH1 0x1 PUSH1 0xA0 SHL SUB AND DUP2 JUMP JUMPDEST PUSH2 0x149 PUSH0 DUP2 JUMP JUMPDEST PUSH1 0x3 SLOAD PUSH2 0x1EC SWAP1 PUSH1 0x1 PUSH1 0xA0 SHL SWAP1 DIV PUSH2 0xFFFF AND DUP2 JUMP JUMPDEST PUSH1 0x40 MLOAD PUSH2 0xFFFF SWAP1 SWAP2 AND DUP2 MSTORE PUSH1 0x20 ADD PUSH2 0x11E JUMP JUMPDEST PUSH2 0x16A PUSH2 0x20D CALLDATASIZE PUSH1 0x4 PUSH2 0xA6E JUMP JUMPDEST PUSH2 0x36C JUMP JUMPDEST PUSH2 0x16A PUSH2 0x390 JUMP JUMPDEST PUSH2 0x16A PUSH2 0x57C JUMP JUMPDEST PUSH1 0x3 SLOAD PUSH2 0x1EC SWAP1 PUSH1 0x1 PUSH1 0xB0 SHL SWAP1 DIV PUSH2 0xFFFF AND DUP2 JUMP JUMPDEST PUSH2 0x149 PUSH32 0xEBEA61BAC29E76544EF1875472AAFF98E28D2DB11686C8CBEF6C2B35DBE32407 DUP2 JUMP JUMPDEST PUSH2 0x149 PUSH32 0x241ECF16D79D0F8DBFB92CBC07FE17840425976CF0667F022FE9877CAA831B08 DUP2 JUMP JUMPDEST PUSH2 0x192 PUSH32 0x0 DUP2 JUMP JUMPDEST PUSH0 PUSH1 0x1 PUSH1 0x1 PUSH1 0xE0 SHL SUB NOT DUP3 AND PUSH4 0x7965DB0B PUSH1 0xE0 SHL EQ DUP1 PUSH2 0x2DC JUMPI POP PUSH4 0x1FFC9A7 PUSH1 0xE0 SHL PUSH1 0x1 PUSH1 0x1 PUSH1 0xE0 SHL SUB NOT DUP4 AND EQ JUMPDEST SWAP3 SWAP2 POP POP JUMP JUMPDEST PUSH0 DUP3 DUP2 MSTORE PUSH1 0x20 DUP2 SWAP1 MSTORE PUSH1 0x40 SWAP1 KECCAK256 PUSH1 0x1 ADD SLOAD PUSH2 0x2FC DUP2 PUSH2 0x891 JUMP JUMPDEST PUSH2 0x306 DUP4 DUP4 PUSH2 0x89B JUMP JUMPDEST POP POP POP POP JUMP JUMPDEST PUSH1 0x1 PUSH1 0x1 PUSH1 0xA0 SHL SUB DUP2 AND CALLER EQ PUSH2 0x335 JUMPI PUSH1 0x40 MLOAD PUSH4 0x334BD919 PUSH1 0xE1 SHL DUP2 MSTORE PUSH1 0x4 ADD PUSH1 0x40 MLOAD DUP1 SWAP2 SUB SWAP1 REVERT JUMPDEST PUSH2 0x33F DUP3 DUP3 PUSH2 0x92A JUMP JUMPDEST POP POP POP JUMP JUMPDEST PUSH0 SWAP2 DUP3 MSTORE PUSH1 0x20 DUP3 DUP2 MSTORE PUSH1 0x40 DUP1 DUP5 KECCAK256 PUSH1 0x1 PUSH1 0x1 PUSH1 0xA0 SHL SUB SWAP4 SWAP1 SWAP4 AND DUP5 MSTORE SWAP2 SWAP1 MSTORE SWAP1 KECCAK256 SLOAD PUSH1 0xFF AND SWAP1 JUMP JUMPDEST PUSH0 DUP3 DUP2 MSTORE PUSH1 0x20 DUP2 SWAP1 MSTORE PUSH1 0x40 SWAP1 KECCAK256 PUSH1 0x1 ADD SLOAD PUSH2 0x386 DUP2 PUSH2 0x891 JUMP JUMPDEST PUSH2 0x306 DUP4 DUP4 PUSH2 0x92A JUMP JUMPDEST PUSH0 PUSH2 0x39A DUP2 PUSH2 0x891 JUMP JUMPDEST PUSH2 0x3A2 PUSH2 0x993 JUMP JUMPDEST PUSH1 0x40 MLOAD PUSH4 0x70A08231 PUSH1 0xE0 SHL DUP2 MSTORE ADDRESS PUSH1 0x4 DUP3 ADD MSTORE PUSH0 SWAP1 PUSH32 0x0 PUSH1 0x1 PUSH1 0x1 PUSH1 0xA0 SHL SUB AND SWAP1 PUSH4 0x70A08231 SWAP1 PUSH1 0x24 ADD PUSH1 0x20 PUSH1 0x40 MLOAD DUP1 DUP4 SUB DUP2 DUP7 GAS STATICCALL ISZERO DUP1 ISZERO PUSH2 0x406 JUMPI RETURNDATASIZE PUSH0 PUSH0 RETURNDATACOPY RETURNDATASIZE PUSH0 REVERT JUMPDEST POP POP POP POP PUSH1 0x40 MLOAD RETURNDATASIZE PUSH1 0x1F NOT PUSH1 0x1F DUP3 ADD AND DUP3 ADD DUP1 PUSH1 0x40 MSTORE POP DUP2 ADD SWAP1 PUSH2 0x42A SWAP2 SWAP1 PUSH2 0xAA7 JUMP JUMPDEST SWAP1 POP PUSH0 DUP2 GT PUSH2 0x46C JUMPI PUSH1 0x40 MLOAD PUSH3 0x461BCD PUSH1 0xE5 SHL DUP2 MSTORE PUSH1 0x20 PUSH1 0x4 DUP3 ADD MSTORE PUSH1 0x9 PUSH1 0x24 DUP3 ADD MSTORE PUSH9 0x6E6F20746F6B656E73 PUSH1 0xB8 SHL PUSH1 0x44 DUP3 ADD MSTORE PUSH1 0x64 ADD JUMPDEST PUSH1 0x40 MLOAD DUP1 SWAP2 SUB SWAP1 REVERT JUMPDEST PUSH1 0x40 MLOAD PUSH4 0xA9059CBB PUSH1 0xE0 SHL DUP2 MSTORE CALLER PUSH1 0x4 DUP3 ADD MSTORE PUSH1 0x24 DUP2 ADD DUP3 SWAP1 MSTORE PUSH32 0x0 PUSH1 0x1 PUSH1 0x1 PUSH1 0xA0 SHL SUB AND SWAP1 PUSH4 0xA9059CBB SWAP1 PUSH1 0x44 ADD PUSH1 0x20 PUSH1 0x40 MLOAD DUP1 DUP4 SUB DUP2 PUSH0 DUP8 GAS CALL ISZERO DUP1 ISZERO PUSH2 0x4D6 JUMPI RETURNDATASIZE PUSH0 PUSH0 RETURNDATACOPY RETURNDATASIZE PUSH0 REVERT JUMPDEST POP POP POP POP PUSH1 0x40 MLOAD RETURNDATASIZE PUSH1 0x1F NOT PUSH1 0x1F DUP3 ADD AND DUP3 ADD DUP1 PUSH1 0x40 MSTORE POP DUP2 ADD SWAP1 PUSH2 0x4FA SWAP2 SWAP1 PUSH2 0xABE JUMP JUMPDEST PUSH2 0x536 JUMPI PUSH1 0x40 MLOAD PUSH3 0x461BCD PUSH1 0xE5 SHL DUP2 MSTORE PUSH1 0x20 PUSH1 0x4 DUP3 ADD MSTORE PUSH1 0xD PUSH1 0x24 DUP3 ADD MSTORE PUSH13 0x1DDA5D1A191C985DC819985A5B PUSH1 0x9A SHL PUSH1 0x44 DUP3 ADD MSTORE PUSH1 0x64 ADD PUSH2 0x463 JUMP JUMPDEST PUSH1 0x40 DUP1 MLOAD CALLER DUP2 MSTORE PUSH1 0x20 DUP2 ADD DUP4 SWAP1 MSTORE PUSH32 0x5FAFA99D0643513820BE26656B45130B01E1C03062E1266BF36F88CBD3BD9695 SWAP2 ADD PUSH1 0x40 MLOAD DUP1 SWAP2 SUB SWAP1 LOG1 POP PUSH2 0x579 PUSH1 0x1 DUP1 SSTORE JUMP JUMPDEST POP JUMP JUMPDEST PUSH2 0x584 PUSH2 0x993 JUMP JUMPDEST PUSH32 0xEBEA61BAC29E76544EF1875472AAFF98E28D2DB11686C8CBEF6C2B35DBE32407 PUSH2 0x5AE DUP2 PUSH2 0x891 JUMP JUMPDEST PUSH1 0x40 MLOAD PUSH4 0x70A08231 PUSH1 0xE0 SHL DUP2 MSTORE ADDRESS PUSH1 0x4 DUP3 ADD MSTORE PUSH0 SWAP1 PUSH32 0x0 PUSH1 0x1 PUSH1 0x1 PUSH1 0xA0 SHL SUB AND SWAP1 PUSH4 0x70A08231 SWAP1 PUSH1 0x24 ADD PUSH1 0x20 PUSH1 0x40 MLOAD DUP1 DUP4 SUB DUP2 DUP7 GAS STATICCALL ISZERO DUP1 ISZERO PUSH2 0x612 JUMPI RETURNDATASIZE PUSH0 PUSH0 RETURNDATACOPY RETURNDATASIZE PUSH0 REVERT JUMPDEST POP POP POP POP PUSH1 0x40 MLOAD RETURNDATASIZE PUSH1 0x1F NOT PUSH1 0x1F DUP3 ADD AND DUP3 ADD DUP1 PUSH1 0x40 MSTORE POP DUP2 ADD SWAP1 PUSH2 0x636 SWAP2 SWAP1 PUSH2 0xAA7 JUMP JUMPDEST SWAP1 POP PUSH0 DUP2 GT PUSH2 0x673 JUMPI PUSH1 0x40 MLOAD PUSH3 0x461BCD PUSH1 0xE5 SHL DUP2 MSTORE PUSH1 0x20 PUSH1 0x4 DUP3 ADD MSTORE PUSH1 0x9 PUSH1 0x24 DUP3 ADD MSTORE PUSH9 0x6E6F20746F6B656E73 PUSH1 0xB8 SHL PUSH1 0x44 DUP3 ADD MSTORE PUSH1 0x64 ADD PUSH2 0x463 JUMP JUMPDEST PUSH1 0x3 SLOAD PUSH0 SWAP1 PUSH2 0x2710 SWAP1 PUSH2 0x691 SWAP1 PUSH1 0x1 PUSH1 0xA0 SHL SWAP1 DIV PUSH2 0xFFFF AND DUP5 PUSH2 0xAF1 JUMP JUMPDEST PUSH2 0x69B SWAP2 SWAP1 PUSH2 0xB08 JUMP JUMPDEST SWAP1 POP PUSH0 PUSH2 0x6A8 DUP3 DUP5 PUSH2 0xB27 JUMP JUMPDEST PUSH1 0x2 SLOAD PUSH1 0x40 MLOAD PUSH4 0xA9059CBB PUSH1 0xE0 SHL DUP2 MSTORE PUSH1 0x1 PUSH1 0x1 PUSH1 0xA0 SHL SUB SWAP2 DUP3 AND PUSH1 0x4 DUP3 ADD MSTORE PUSH1 0x24 DUP2 ADD DUP6 SWAP1 MSTORE SWAP2 SWAP3 POP PUSH32 0x0 AND SWAP1 PUSH4 0xA9059CBB SWAP1 PUSH1 0x44 ADD PUSH1 0x20 PUSH1 0x40 MLOAD DUP1 DUP4 SUB DUP2 PUSH0 DUP8 GAS CALL ISZERO DUP1 ISZERO PUSH2 0x71A JUMPI RETURNDATASIZE PUSH0 PUSH0 RETURNDATACOPY RETURNDATASIZE PUSH0 REVERT JUMPDEST POP POP POP POP PUSH1 0x40 MLOAD RETURNDATASIZE PUSH1 0x1F NOT PUSH1 0x1F DUP3 ADD AND DUP3 ADD DUP1 PUSH1 0x40 MSTORE POP DUP2 ADD SWAP1 PUSH2 0x73E SWAP2 SWAP1 PUSH2 0xABE JUMP JUMPDEST PUSH2 0x775 JUMPI PUSH1 0x40 MLOAD PUSH3 0x461BCD PUSH1 0xE5 SHL DUP2 MSTORE PUSH1 0x20 PUSH1 0x4 DUP3 ADD MSTORE PUSH1 0x8 PUSH1 0x24 DUP3 ADD MSTORE PUSH8 0x1C1D588819985A5B PUSH1 0xC2 SHL PUSH1 0x44 DUP3 ADD MSTORE PUSH1 0x64 ADD PUSH2 0x463 JUMP JUMPDEST PUSH1 0x3 SLOAD PUSH1 0x40 MLOAD PUSH4 0xA9059CBB PUSH1 0xE0 SHL DUP2 MSTORE PUSH1 0x1 PUSH1 0x1 PUSH1 0xA0 SHL SUB SWAP2 DUP3 AND PUSH1 0x4 DUP3 ADD MSTORE PUSH1 0x24 DUP2 ADD DUP4 SWAP1 MSTORE PUSH32 0x0 SWAP1 SWAP2 AND SWAP1 PUSH4 0xA9059CBB SWAP1 PUSH1 0x44 ADD PUSH1 0x20 PUSH1 0x40 MLOAD DUP1 DUP4 SUB DUP2 PUSH0 DUP8 GAS CALL ISZERO DUP1 ISZERO PUSH2 0x7E6 JUMPI RETURNDATASIZE PUSH0 PUSH0 RETURNDATACOPY RETURNDATASIZE PUSH0 REVERT JUMPDEST POP POP POP POP PUSH1 0x40 MLOAD RETURNDATASIZE PUSH1 0x1F NOT PUSH1 0x1F DUP3 ADD AND DUP3 ADD DUP1 PUSH1 0x40 MSTORE POP DUP2 ADD SWAP1 PUSH2 0x80A SWAP2 SWAP1 PUSH2 0xABE JUMP JUMPDEST PUSH2 0x841 JUMPI PUSH1 0x40 MLOAD PUSH3 0x461BCD PUSH1 0xE5 SHL DUP2 MSTORE PUSH1 0x20 PUSH1 0x4 DUP3 ADD MSTORE PUSH1 0x8 PUSH1 0x24 DUP3 ADD MSTORE PUSH8 0x19195D8819985A5B PUSH1 0xC2 SHL PUSH1 0x44 DUP3 ADD MSTORE PUSH1 0x64 ADD PUSH2 0x463 JUMP JUMPDEST PUSH1 0x40 DUP1 MLOAD DUP5 DUP2 MSTORE PUSH1 0x20 DUP2 ADD DUP5 SWAP1 MSTORE SWAP1 DUP2 ADD DUP3 SWAP1 MSTORE PUSH32 0xC5D35A65AF09B3042394B742529D10F7FBF9A37294D6B13E4D63D06F9909A15B SWAP1 PUSH1 0x60 ADD PUSH1 0x40 MLOAD DUP1 SWAP2 SUB SWAP1 LOG1 POP POP POP POP PUSH2 0x88F PUSH1 0x1 DUP1 SSTORE JUMP JUMPDEST JUMP JUMPDEST PUSH2 0x579 DUP2 CALLER PUSH2 0x9EC JUMP JUMPDEST PUSH0 PUSH2 0x8A6 DUP4 DUP4 PUSH2 0x344 JUMP JUMPDEST PUSH2 0x923 JUMPI PUSH0 DUP4 DUP2 MSTORE PUSH1 0x20 DUP2 DUP2 MSTORE PUSH1 0x40 DUP1 DUP4 KECCAK256 PUSH1 0x1 PUSH1 0x1 PUSH1 0xA0 SHL SUB DUP7 AND DUP5 MSTORE SWAP1 SWAP2 MSTORE SWAP1 KECCAK256 DUP1 SLOAD PUSH1 0xFF NOT AND PUSH1 0x1 OR SWAP1 SSTORE PUSH2 0x8DB CALLER SWAP1 JUMP JUMPDEST PUSH1 0x1 PUSH1 0x1 PUSH1 0xA0 SHL SUB AND DUP3 PUSH1 0x1 PUSH1 0x1 PUSH1 0xA0 SHL SUB AND DUP5 PUSH32 0x2F8788117E7EFF1D82E926EC794901D17C78024A50270940304540A733656F0D PUSH1 0x40 MLOAD PUSH1 0x40 MLOAD DUP1 SWAP2 SUB SWAP1 LOG4 POP PUSH1 0x1 PUSH2 0x2DC JUMP JUMPDEST POP PUSH0 PUSH2 0x2DC JUMP JUMPDEST PUSH0 PUSH2 0x935 DUP4 DUP4 PUSH2 0x344 JUMP JUMPDEST ISZERO PUSH2 0x923 JUMPI PUSH0 DUP4 DUP2 MSTORE PUSH1 0x20 DUP2 DUP2 MSTORE PUSH1 0x40 DUP1 DUP4 KECCAK256 PUSH1 0x1 PUSH1 0x1 PUSH1 0xA0 SHL SUB DUP7 AND DUP1 DUP6 MSTORE SWAP3 MSTORE DUP1 DUP4 KECCAK256 DUP1 SLOAD PUSH1 0xFF NOT AND SWAP1 SSTORE MLOAD CALLER SWAP3 DUP7 SWAP2 PUSH32 0xF6391F5C32D9C69D2A47EA670B442974B53935D1EDC7FD64EB21E047A839171B SWAP2 SWAP1 LOG4 POP PUSH1 0x1 PUSH2 0x2DC JUMP JUMPDEST PUSH1 0x2 PUSH1 0x1 SLOAD SUB PUSH2 0x9E5 JUMPI PUSH1 0x40 MLOAD PUSH3 0x461BCD PUSH1 0xE5 SHL DUP2 MSTORE PUSH1 0x20 PUSH1 0x4 DUP3 ADD MSTORE PUSH1 0x1F PUSH1 0x24 DUP3 ADD MSTORE PUSH32 0x5265656E7472616E637947756172643A207265656E7472616E742063616C6C00 PUSH1 0x44 DUP3 ADD MSTORE PUSH1 0x64 ADD PUSH2 0x463 JUMP JUMPDEST PUSH1 0x2 PUSH1 0x1 SSTORE JUMP JUMPDEST PUSH2 0x9F6 DUP3 DUP3 PUSH2 0x344 JUMP JUMPDEST PUSH2 0xA25 JUMPI PUSH1 0x40 MLOAD PUSH4 0xE2517D3F PUSH1 0xE0 SHL DUP2 MSTORE PUSH1 0x1 PUSH1 0x1 PUSH1 0xA0 SHL SUB DUP3 AND PUSH1 0x4 DUP3 ADD MSTORE PUSH1 0x24 DUP2 ADD DUP4 SWAP1 MSTORE PUSH1 0x44 ADD PUSH2 0x463 JUMP JUMPDEST POP POP JUMP JUMPDEST PUSH0 PUSH1 0x20 DUP3 DUP5 SUB SLT ISZERO PUSH2 0xA39 JUMPI PUSH0 PUSH0 REVERT JUMPDEST DUP2 CALLDATALOAD PUSH1 0x1 PUSH1 0x1 PUSH1 0xE0 SHL SUB NOT DUP2 AND DUP2 EQ PUSH2 0xA50 JUMPI PUSH0 PUSH0 REVERT JUMPDEST SWAP4 SWAP3 POP POP POP JUMP JUMPDEST PUSH0 PUSH1 0x20 DUP3 DUP5 SUB SLT ISZERO PUSH2 0xA67 JUMPI PUSH0 PUSH0 REVERT JUMPDEST POP CALLDATALOAD SWAP2 SWAP1 POP JUMP JUMPDEST PUSH0 PUSH0 PUSH1 0x40 DUP4 DUP6 SUB SLT ISZERO PUSH2 0xA7F JUMPI PUSH0 PUSH0 REVERT JUMPDEST DUP3 CALLDATALOAD SWAP2 POP PUSH1 0x20 DUP4 ADD CALLDATALOAD PUSH1 0x1 PUSH1 0x1 PUSH1 0xA0 SHL SUB DUP2 AND DUP2 EQ PUSH2 0xA9C JUMPI PUSH0 PUSH0 REVERT JUMPDEST DUP1 SWAP2 POP POP SWAP3 POP SWAP3 SWAP1 POP JUMP JUMPDEST PUSH0 PUSH1 0x20 DUP3 DUP5 SUB SLT ISZERO PUSH2 0xAB7 JUMPI PUSH0 PUSH0 REVERT JUMPDEST POP MLOAD SWAP2 SWAP1 POP JUMP JUMPDEST PUSH0 PUSH1 0x20 DUP3 DUP5 SUB SLT ISZERO PUSH2 0xACE JUMPI PUSH0 PUSH0 REVERT JUMPDEST DUP2 MLOAD DUP1 ISZERO ISZERO DUP2 EQ PUSH2 0xA50 JUMPI PUSH0 PUSH0 REVERT JUMPDEST PUSH4 0x4E487B71 PUSH1 0xE0 SHL PUSH0 MSTORE PUSH1 0x11 PUSH1 0x4 MSTORE PUSH1 0x24 PUSH0 REVERT JUMPDEST DUP1 DUP3 MUL DUP2 ISZERO DUP3 DUP3 DIV DUP5 EQ OR PUSH2 0x2DC JUMPI PUSH2 0x2DC PUSH2 0xADD JUMP JUMPDEST PUSH0 DUP3 PUSH2 0xB22 JUMPI PUSH4 0x4E487B71 PUSH1 0xE0 SHL PUSH0 MSTORE PUSH1 0x12 PUSH1 0x4 MSTORE PUSH1 0x24 PUSH0 REVERT JUMPDEST POP DIV SWAP1 JUMP JUMPDEST DUP2 DUP2 SUB DUP2 DUP2 GT ISZERO PUSH2 0x2DC JUMPI PUSH2 0x2DC PUSH2 0xADD JUMP INVALID LOG2 PUSH5 0x6970667358 0x22 SLT KECCAK256 0xB8 0xEB SWAP5 NOT RJUMPI 0x512F SDIV XOR 0xC0 SHR SIGNEXTEND 0xE2 GT COINBASE EOFCREATE 0x29 PUSH9 0xF0E0529370A30BD518 0xD0 0x4E PUSH13 0xF12A64736F6C634300081E0033 0xEB 0xEA PUSH2 0xBAC2 SWAP15 PUSH23 0x544EF1875472AAFF98E28D2DB11686C8CBEF6C2B35DBE3 0x24 SMOD "
				},
				"gasEstimates": {
					"creation": {
						"codeDepositCost": "585600",
						"executionCost": "infinite",
						"totalCost": "infinite"
					},
					"external": {
						"DEFAULT_ADMIN_ROLE()": "282",
						"MANAGER_ROLE()": "260",
						"SPLITTER_ROLE()": "238",
						"devs()": "2403",
						"devsBps()": "2351",
						"distribute()": "infinite",
						"emergencyWithdraw()": "infinite",
						"getRoleAdmin(bytes32)": "2490",
						"grantRole(bytes32,address)": "infinite",
						"hasRole(bytes32,address)": "2662",
						"publisher()": "2359",
						"publisherBps()": "2352",
						"renounceRole(bytes32,address)": "29077",
						"revokeRole(bytes32,address)": "infinite",
						"supportsInterface(bytes4)": "447",
						"token()": "infinite"
					}
				},
				"methodIdentifiers": {
					"DEFAULT_ADMIN_ROLE()": "a217fddf",
					"MANAGER_ROLE()": "ec87621c",
					"SPLITTER_ROLE()": "eb09c17c",
					"devs()": "9a96f829",
					"devsBps()": "e98c0990",
					"distribute()": "e4fc6b6d",
					"emergencyWithdraw()": "db2e21bc",
					"getRoleAdmin(bytes32)": "248a9ca3",
					"grantRole(bytes32,address)": "2f2ff15d",
					"hasRole(bytes32,address)": "91d14854",
					"publisher()": "8c72c54e",
					"publisherBps()": "aaecfa63",
					"renounceRole(bytes32,address)": "36568abe",
					"revokeRole(bytes32,address)": "d547741f",
					"supportsInterface(bytes4)": "01ffc9a7",
					"token()": "fc0c546a"
				}
			},
			"storageLayout": {
				"storage": [
					{
						"astId": 27,
						"contract": "contracts/TesseraFeeSplitter.sol:TesseraFeeSplitter",
						"label": "_roles",
						"offset": 0,
						"slot": "0",
						"type": "t_mapping(t_bytes32,t_struct(RoleData)22_storage)"
					},
					{
						"astId": 390,
						"contract": "contracts/TesseraFeeSplitter.sol:TesseraFeeSplitter",
						"label": "_status",
						"offset": 0,
						"slot": "1",
						"type": "t_uint256"
					},
					{
						"astId": 612,
						"contract": "contracts/TesseraFeeSplitter.sol:TesseraFeeSplitter",
						"label": "publisher",
						"offset": 0,
						"slot": "2",
						"type": "t_address"
					},
					{
						"astId": 614,
						"contract": "contracts/TesseraFeeSplitter.sol:TesseraFeeSplitter",
						"label": "devs",
						"offset": 0,
						"slot": "3",
						"type": "t_address"
					},
					{
						"astId": 616,
						"contract": "contracts/TesseraFeeSplitter.sol:TesseraFeeSplitter",
						"label": "publisherBps",
						"offset": 20,
						"slot": "3",
						"type": "t_uint16"
					},
					{
						"astId": 618,
						"contract": "contracts/TesseraFeeSplitter.sol:TesseraFeeSplitter",
						"label": "devsBps",
						"offset": 22,
						"slot": "3",
						"type": "t_uint16"
					}
				],
				"types": {
					"t_address": {
						"encoding": "inplace",
						"label": "address",
						"numberOfBytes": "20"
					},
					"t_bool": {
						"encoding": "inplace",
						"label": "bool",
						"numberOfBytes": "1"
					},
					"t_bytes32": {
						"encoding": "inplace",
						"label": "bytes32",
						"numberOfBytes": "32"
					},
					"t_mapping(t_address,t_bool)": {
						"encoding": "mapping",
						"key": "t_address",
						"label": "mapping(address => bool)",
						"numberOfBytes": "32",
						"value": "t_bool"
					},
					"t_mapping(t_bytes32,t_struct(RoleData)22_storage)": {
						"encoding": "mapping",
						"key": "t_bytes32",
						"label": "mapping(bytes32 => struct AccessControl.RoleData)",
						"numberOfBytes": "32",
						"value": "t_struct(RoleData)22_storage"
					},
					"t_struct(RoleData)22_storage": {
						"encoding": "inplace",
						"label": "struct AccessControl.RoleData",
						"members": [
							{
								"astId": 19,
								"contract": "contracts/TesseraFeeSplitter.sol:TesseraFeeSplitter",
								"label": "hasRole",
								"offset": 0,
								"slot": "0",
								"type": "t_mapping(t_address,t_bool)"
							},
							{
								"astId": 21,
								"contract": "contracts/TesseraFeeSplitter.sol:TesseraFeeSplitter",
								"label": "adminRole",
								"offset": 0,
								"slot": "1",
								"type": "t_bytes32"
							}
						],
						"numberOfBytes": "64"
					},
					"t_uint16": {
						"encoding": "inplace",
						"label": "uint16",
						"numberOfBytes": "2"
					},
					"t_uint256": {
						"encoding": "inplace",
						"label": "uint256",
						"numberOfBytes": "32"
					}
				}
			},
			"userdoc": {
				"kind": "user",
				"methods": {
					"distribute()": {
						"notice": "Only publisher or devs can call distribute."
					},
					"emergencyWithdraw()": {
						"notice": "Admin can emergency withdraw"
					}
				},
				"version": 1
			}
		}
	}
}