{
	"contracts/TesseraFeeSplitter.sol": {
		"TesseraFeeSplitter": {
			"abi": [
				{
					"inputs": [
						{
							"internalType": "address",
							"name": "_token",
							"type": "address"
						},
						{
							"internalType": "address",
							"name": "_publisher",
							"type": "address"
						},
						{
							"internalType": "address",
							"name": "_devs",
							"type": "address"
						},
						{
							"internalType": "uint16",
							"name": "_publisherBps",
							"type": "uint16"
						},
						{
							"internalType": "uint16",
							"name": "_devsBps",
							"type": "uint16"
						},
						{
							"internalType": "address",
							"name": "admin",
							"type": "address"
						}
					],
					"stateMutability": "nonpayable",
					"type": "constructor"
				},
				{
					"inputs": [],
					"name": "AccessControlBadConfirmation",
					"type": "error"
				},
				{
					"inputs": [
						{
							"internalType": "address",
							"name": "account",
							"type": "address"
						},
						{
							"internalType": "bytes32",
							"name": "neededRole",
							"type": "bytes32"
						}
					],
					"name": "AccessControlUnauthorizedAccount",
					"type": "error"
				},
				{
					"anonymous": false,
					"inputs": [
						{
							"indexed": false,
							"internalType": "uint256",
							"name": "total",
							"type": "uint256"
						},
						{
							"indexed": false,
							"internalType": "uint256",
							"name": "publisherAmount",
							"type": "uint256"
						},
						{
							"indexed": false,
							"internalType": "uint256",
							"name": "devsAmount",
							"type": "uint256"
						}
					],
					"name": "Distributed",
					"type": "event"
				},
				{
					"anonymous": false,
					"inputs": [
						{
							"indexed": false,
							"internalType": "address",
							"name": "recipient",
							"type": "address"
						},
						{
							"indexed": false,
							"internalType": "uint256",
							"name": "amount",
							"type": "uint256"
						}
					],
					"name": "EmergencyWithdraw",
					"type": "event"
				},
				{
					"anonymous": false,
					"inputs": [
						{
							"indexed": false,
							"internalType": "uint16",
							"name": "publisherBps",
							"type": "uint16"
						},
						{
							"indexed": false,
							"internalType": "uint16",
							"name": "devsBps",
							"type": "uint16"
						}
					],
					"name": "PercentagesUpdated",
					"type": "event"
				},
				{
					"anonymous": false,
					"inputs": [
						{
							"indexed": false,
							"internalType": "address",
							"name": "publisher",
							"type": "address"
						},
						{
							"indexed": false,
							"internalType": "address",
							"name": "devs",
							"type": "address"
						}
					],
					"name": "RecipientsUpdated",
					"type": "event"
				},
				{
					"anonymous": false,
					"inputs": [
						{
							"indexed": true,
							"internalType": "bytes32",
							"name": "role",
							"type": "bytes32"
						},
						{
							"indexed": true,
							"internalType": "bytes32",
							"name": "previousAdminRole",
							"type": "bytes32"
						},
						{
							"indexed": true,
							"internalType": "bytes32",
							"name": "newAdminRole",
							"type": "bytes32"
						}
					],
					"name": "RoleAdminChanged",
					"type": "event"
				},
				{
					"anonymous": false,
					"inputs": [
						{
							"indexed": true,
							"internalType": "bytes32",
							"name": "role",
							"type": "bytes32"
						},
						{
							"indexed": true,
							"internalType": "address",
							"name": "account",
							"type": "address"
						},
						{
							"indexed": true,
							"internalType": "address",
							"name": "sender",
							"type": "address"
						}
					],
					"name": "RoleGranted",
					"type": "event"
				},
				{
					"anonymous": false,
					"inputs": [
						{
							"indexed": true,
							"internalType": "bytes32",
							"name": "role",
							"type": "bytes32"
						},
						{
							"indexed": true,
							"internalType": "address",
							"name": "account",
							"type": "address"
						},
						{
							"indexed": true,
							"internalType": "address",
							"name": "sender",
							"type": "address"
						}
					],
					"name": "RoleRevoked",
					"type": "event"
				},
				{
					"inputs": [],
					"name": "DEFAULT_ADMIN_ROLE",
					"outputs": [
						{
							"internalType": "bytes32",
							"name": "",
							"type": "bytes32"
						}
					],
					"stateMutability": "view",
					"type": "function"
				},
				{
					"inputs": [],
					"name": "MANAGER_ROLE",
					"outputs": [
						{
							"internalType": "bytes32",
							"name": "",
							"type": "bytes32"
						}
					],
					"stateMutability": "view",
					"type": "function"
				},
				{
					"inputs": [],
					"name": "SPLITTER_ROLE",
					"outputs": [
						{
							"internalType": "bytes32",
							"name": "",
							"type": "bytes32"
						}
					],
					"stateMutability": "view",
					"type": "function"
				},
				{
					"inputs": [],
					"name": "devs",
					"outputs": [
						{
							"internalType": "address",
							"name": "",
							"type": "address"
						}
					],
					"stateMutability": "view",
					"type": "function"
				},
				{
					"inputs": [],
					"name": "devsBps",
					"outputs": [
						{
							"internalType": "uint16",
							"name": "",
							"type": "uint16"
						}
					],
					"stateMutability": "view",
					"type": "function"
				},
				{
					"inputs": [],
					"name": "distribute",
					"outputs": [],
					"stateMutability": "nonpayable",
					"type": "function"
				},
				{
					"inputs": [],
					"name": "emergencyWithdraw",
					"outputs": [],
					"stateMutability": "nonpayable",
					"type": "function"
				},
				{
					"inputs": [],
					"name": "getBalance",
					"outputs": [
						{
							"internalType": "uint256",
							"name": "",
							"type": "uint256"
						}
					],
					"stateMutability": "view",
					"type": "function"
				},
				{
					"inputs": [
						{
							"internalType": "bytes32",
							"name": "role",
							"type": "bytes32"
						}
					],
					"name": "getRoleAdmin",
					"outputs": [
						{
							"internalType": "bytes32",
							"name": "",
							"type": "bytes32"
						}
					],
					"stateMutability": "view",
					"type": "function"
				},
				{
					"inputs": [
						{
							"internalType": "bytes32",
							"name": "role",
							"type": "bytes32"
						},
						{
							"internalType": "address",
							"name": "account",
							"type": "address"
						}
					],
					"name": "grantRole",
					"outputs": [],
					"stateMutability": "nonpayable",
					"type": "function"
				},
				{
					"inputs": [
						{
							"internalType": "bytes32",
							"name": "role",
							"type": "bytes32"
						},
						{
							"internalType": "address",
							"name": "account",
							"type": "address"
						}
					],
					"name": "hasRole",
					"outputs": [
						{
							"internalType": "bool",
							"name": "",
							"type": "bool"
						}
					],
					"stateMutability": "view",
					"type": "function"
				},
				{
					"inputs": [],
					"name": "publisher",
					"outputs": [
						{
							"internalType": "address",
							"name": "",
							"type": "address"
						}
					],
					"stateMutability": "view",
					"type": "function"
				},
				{
					"inputs": [],
					"name": "publisherBps",
					"outputs": [
						{
							"internalType": "uint16",
							"name": "",
							"type": "uint16"
						}
					],
					"stateMutability": "view",
					"type": "function"
				},
				{
					"inputs": [
						{
							"internalType": "bytes32",
							"name": "role",
							"type": "bytes32"
						},
						{
							"internalType": "address",
							"name": "callerConfirmation",
							"type": "address"
						}
					],
					"name": "renounceRole",
					"outputs": [],
					"stateMutability": "nonpayable",
					"type": "function"
				},
				{
					"inputs": [
						{
							"internalType": "bytes32",
							"name": "role",
							"type": "bytes32"
						},
						{
							"internalType": "address",
							"name": "account",
							"type": "address"
						}
					],
					"name": "revokeRole",
					"outputs": [],
					"stateMutability": "nonpayable",
					"type": "function"
				},
				{
					"inputs": [
						{
							"internalType": "bytes4",
							"name": "interfaceId",
							"type": "bytes4"
						}
					],
					"name": "supportsInterface",
					"outputs": [
						{
							"internalType": "bool",
							"name": "",
							"type": "bool"
						}
					],
					"stateMutability": "view",
					"type": "function"
				},
				{
					"inputs": [],
					"name": "token",
					"outputs": [
						{
							"internalType": "contract IERC20",
							"name": "",
							"type": "address"
						}
					],
					"stateMutability": "view",
					"type": "function"
				}
			],
			"devdoc": {
				"errors": {
					"AccessControlBadConfirmation()": [
						{
							"details": "The caller of a function is not the expected one. NOTE: Don't confuse with {AccessControlUnauthorizedAccount}."
						}
					],
					"AccessControlUnauthorizedAccount(address,bytes32)": [
						{
							"details": "The `account` is missing a role."
						}
					]
				},
				"events": {
					"RoleAdminChanged(bytes32,bytes32,bytes32)": {
						"details": "Emitted when `newAdminRole` is set as ``role``'s admin role, replacing `previousAdminRole` `DEFAULT_ADMIN_ROLE` is the starting admin for all roles, despite {RoleAdminChanged} not being emitted to signal this."
					},
					"RoleGranted(bytes32,address,address)": {
						"details": "Emitted when `account` is granted `role`. `sender` is the account that originated the contract call. This account bears the admin role (for the granted role). Expected in cases where the role was granted using the internal {AccessControl-_grantRole}."
					},
					"RoleRevoked(bytes32,address,address)": {
						"details": "Emitted when `account` is revoked `role`. `sender` is the account that originated the contract call:   - if using `revokeRole`, it is the admin role bearer   - if using `renounceRole`, it is the role bearer (i.e. `account`)"
					}
				},
				"kind": "dev",
				"methods": {
					"getRoleAdmin(bytes32)": {
						"details": "Returns the admin role that controls `role`. See {grantRole} and {revokeRole}. To change a role's admin, use {_setRoleAdmin}."
					},
					"grantRole(bytes32,address)": {
						"details": "Grants `role` to `account`. If `account` had not been already granted `role`, emits a {RoleGranted} event. Requirements: - the caller must have ``role``'s admin role. May emit a {RoleGranted} event."
					},
					"hasRole(bytes32,address)": {
						"details": "Returns `true` if `account` has been granted `role`."
					},
					"renounceRole(bytes32,address)": {
						"details": "Revokes `role` from the calling account. Roles are often managed via {grantRole} and {revokeRole}: this function's purpose is to provide a mechanism for accounts to lose their privileges if they are compromised (such as when a trusted device is misplaced). If the calling account had been revoked `role`, emits a {RoleRevoked} event. Requirements: - the caller must be `callerConfirmation`. May emit a {RoleRevoked} event."
					},
					"revokeRole(bytes32,address)": {
						"details": "Revokes `role` from `account`. If `account` had been granted `role`, emits a {RoleRevoked} event. Requirements: - the caller must have ``role``'s admin role. May emit a {RoleRevoked} event."
					},
					"supportsInterface(bytes4)": {
						"details": "Returns true if this contract implements the interface defined by `interfaceId`. See the corresponding https://eips.ethereum.org/EIPS/eip-165#how-interfaces-are-identified[ERC section] to learn more about how these ids are created. This function call must use less than 30 000 gas."
					}
				},
				"version": 1
			},
			"evm": {
				"assembly": "    /* \"contracts/TesseraFeeSplitter.sol\":245:3079  contract TesseraFeeSplitter is AccessControl, ReentrancyGuard {... */\n  mstore(0x40, 0xa0)\n    /* \"contracts/TesseraFeeSplitter.sol\":956:1844  constructor (... */\n  callvalue\n  dup1\n  iszero\n  tag_1\n  jumpi\n  revert(0x00, 0x00)\ntag_1:\n  pop\n  mload(0x40)\n  sub(codesize, bytecodeSize)\n  dup1\n  bytecodeSize\n  dup4\n  codecopy\n  dup2\n  dup2\n  add\n  0x40\n  mstore\n  dup2\n  add\n  swap1\n  tag_2\n  swap2\n  swap1\n  tag_3\n  jump\t// in\ntag_2:\n    /* \"@openzeppelin/contracts/security/ReentrancyGuard.sol\":1716:1717  1 */\n  0x01\n    /* \"@openzeppelin/contracts/security/ReentrancyGuard.sol\":1821:1828  _status */\n  dup1\n    /* \"@openzeppelin/contracts/security/ReentrancyGuard.sol\":1821:1843  _status = _NOT_ENTERED */\n  dup2\n  swap1\n  sstore\n  pop\n    /* \"contracts/TesseraFeeSplitter.sol\":1174:1175  0 */\n  0x00\n    /* \"contracts/TesseraFeeSplitter.sol\":1156:1176  _token != address(0) */\n  0xffffffffffffffffffffffffffffffffffffffff\n  and\n    /* \"contracts/TesseraFeeSplitter.sol\":1156:1162  _token */\n  dup7\n    /* \"contracts/TesseraFeeSplitter.sol\":1156:1176  _token != address(0) */\n  0xffffffffffffffffffffffffffffffffffffffff\n  and\n  sub\n    /* \"contracts/TesseraFeeSplitter.sol\":1148:1188  require(_token != address(0), \"token=0\") */\n  tag_8\n  jumpi\n  mload(0x40)\n  0x08c379a000000000000000000000000000000000000000000000000000000000\n  dup2\n  mstore\n  0x04\n  add\n  tag_9\n  swap1\n  tag_10\n  jump\t// in\ntag_9:\n  mload(0x40)\n  dup1\n  swap2\n  sub\n  swap1\n  revert\ntag_8:\n    /* \"contracts/TesseraFeeSplitter.sol\":1229:1230  0 */\n  0x00\n    /* \"contracts/TesseraFeeSplitter.sol\":1207:1231  _publisher != address(0) */\n  0xffffffffffffffffffffffffffffffffffffffff\n  and\n    /* \"contracts/TesseraFeeSplitter.sol\":1207:1217  _publisher */\n  dup6\n    /* \"contracts/TesseraFeeSplitter.sol\":1207:1231  _publisher != address(0) */\n  0xffffffffffffffffffffffffffffffffffffffff\n  and\n  sub\n    /* \"contracts/TesseraFeeSplitter.sol\":1199:1241  require(_publisher != address(0), \"pub=0\") */\n  tag_11\n  jumpi\n  mload(0x40)\n  0x08c379a000000000000000000000000000000000000000000000000000000000\n  dup2\n  mstore\n  0x04\n  add\n  tag_12\n  swap1\n  tag_13\n  jump\t// in\ntag_12:\n  mload(0x40)\n  dup1\n  swap2\n  sub\n  swap1\n  revert\ntag_11:\n    /* \"contracts/TesseraFeeSplitter.sol\":1277:1278  0 */\n  0x00\n    /* \"contracts/TesseraFeeSplitter.sol\":1260:1279  _devs != address(0) */\n  0xffffffffffffffffffffffffffffffffffffffff\n  and\n    /* \"contracts/TesseraFeeSplitter.sol\":1260:1265  _devs */\n  dup5\n    /* \"contracts/TesseraFeeSplitter.sol\":1260:1279  _devs != address(0) */\n  0xffffffffffffffffffffffffffffffffffffffff\n  and\n  sub\n    /* \"contracts/TesseraFeeSplitter.sol\":1252:1290  require(_devs != address(0), \"devs=0\") */\n  tag_14\n  jumpi\n  mload(0x40)\n  0x08c379a000000000000000000000000000000000000000000000000000000000\n  dup2\n  mstore\n  0x04\n  add\n  tag_15\n  swap1\n  tag_16\n  jump\t// in\ntag_15:\n  mload(0x40)\n  dup1\n  swap2\n  sub\n  swap1\n  revert\ntag_14:\n    /* \"contracts/TesseraFeeSplitter.sol\":1337:1342  10000 */\n  0x2710\n    /* \"contracts/TesseraFeeSplitter.sol\":1325:1333  _devsBps */\n  dup3\n    /* \"contracts/TesseraFeeSplitter.sol\":1309:1322  _publisherBps */\n  dup5\n    /* \"contracts/TesseraFeeSplitter.sol\":1309:1333  _publisherBps + _devsBps */\n  tag_17\n  swap2\n  swap1\n  tag_18\n  jump\t// in\ntag_17:\n    /* \"contracts/TesseraFeeSplitter.sol\":1309:1342  _publisherBps + _devsBps == 10000 */\n  0xffff\n  and\n  eq\n    /* \"contracts/TesseraFeeSplitter.sol\":1301:1363  require(_publisherBps + _devsBps == 10000, \"bps sum != 10000\") */\n  tag_19\n  jumpi\n  mload(0x40)\n  0x08c379a000000000000000000000000000000000000000000000000000000000\n  dup2\n  mstore\n  0x04\n  add\n  tag_20\n  swap1\n  tag_21\n  jump\t// in\ntag_20:\n  mload(0x40)\n  dup1\n  swap2\n  sub\n  swap1\n  revert\ntag_19:\n    /* \"contracts/TesseraFeeSplitter.sol\":1396:1401  _devs */\n  dup4\n    /* \"contracts/TesseraFeeSplitter.sol\":1382:1401  _publisher != _devs */\n  0xffffffffffffffffffffffffffffffffffffffff\n  and\n    /* \"contracts/TesseraFeeSplitter.sol\":1382:1392  _publisher */\n  dup6\n    /* \"contracts/TesseraFeeSplitter.sol\":1382:1401  _publisher != _devs */\n  0xffffffffffffffffffffffffffffffffffffffff\n  and\n  sub\n    /* \"contracts/TesseraFeeSplitter.sol\":1374:1414  require(_publisher != _devs, \"devs=pub\") */\n  tag_22\n  jumpi\n  mload(0x40)\n  0x08c379a000000000000000000000000000000000000000000000000000000000\n  dup2\n  mstore\n  0x04\n  add\n  tag_23\n  swap1\n  tag_24\n  jump\t// in\ntag_23:\n  mload(0x40)\n  dup1\n  swap2\n  sub\n  swap1\n  revert\ntag_22:\n    /* \"contracts/TesseraFeeSplitter.sol\":1442:1448  _token */\n  dup6\n    /* \"contracts/TesseraFeeSplitter.sol\":1427:1449  token = IERC20(_token) */\n  0xffffffffffffffffffffffffffffffffffffffff\n  and\n  0x80\n  dup2\n  0xffffffffffffffffffffffffffffffffffffffff\n  and\n  dup2\n  mstore\n  pop\n  pop\n    /* \"contracts/TesseraFeeSplitter.sol\":1474:1484  _publisher */\n  dup5\n    /* \"contracts/TesseraFeeSplitter.sol\":1462:1471  publisher */\n  0x02\n  0x00\n    /* \"contracts/TesseraFeeSplitter.sol\":1462:1484  publisher = _publisher */\n  0x0100\n  exp\n  dup2\n  sload\n  dup2\n  0xffffffffffffffffffffffffffffffffffffffff\n  mul\n  not\n  and\n  swap1\n  dup4\n  0xffffffffffffffffffffffffffffffffffffffff\n  and\n  mul\n  or\n  swap1\n  sstore\n  pop\n    /* \"contracts/TesseraFeeSplitter.sol\":1502:1507  _devs */\n  dup4\n    /* \"contracts/TesseraFeeSplitter.sol\":1495:1499  devs */\n  0x03\n  0x00\n    /* \"contracts/TesseraFeeSplitter.sol\":1495:1507  devs = _devs */\n  0x0100\n  exp\n  dup2\n  sload\n  dup2\n  0xffffffffffffffffffffffffffffffffffffffff\n  mul\n  not\n  and\n  swap1\n  dup4\n  0xffffffffffffffffffffffffffffffffffffffff\n  and\n  mul\n  or\n  swap1\n  sstore\n  pop\n    /* \"contracts/TesseraFeeSplitter.sol\":1533:1546  _publisherBps */\n  dup3\n    /* \"contracts/TesseraFeeSplitter.sol\":1518:1530  publisherBps */\n  0x03\n  0x14\n    /* \"contracts/TesseraFeeSplitter.sol\":1518:1546  publisherBps = _publisherBps */\n  0x0100\n  exp\n  dup2\n  sload\n  dup2\n  0xffff\n  mul\n  not\n  and\n  swap1\n  dup4\n  0xffff\n  and\n  mul\n  or\n  swap1\n  sstore\n  pop\n    /* \"contracts/TesseraFeeSplitter.sol\":1567:1575  _devsBps */\n  dup2\n    /* \"contracts/TesseraFeeSplitter.sol\":1557:1564  devsBps */\n  0x03\n  0x16\n    /* \"contracts/TesseraFeeSplitter.sol\":1557:1575  devsBps = _devsBps */\n  0x0100\n  exp\n  dup2\n  sload\n  dup2\n  0xffff\n  mul\n  not\n  and\n  swap1\n  dup4\n  0xffff\n  and\n  mul\n  or\n  swap1\n  sstore\n  pop\n    /* \"contracts/TesseraFeeSplitter.sol\":1611:1648  _grantRole(DEFAULT_ADMIN_ROLE, admin) */\n  tag_25\n    /* \"@openzeppelin/contracts/access/AccessControl.sol\":2241:2245  0x00 */\n  0x00\n    /* \"contracts/TesseraFeeSplitter.sol\":1622:1640  DEFAULT_ADMIN_ROLE */\n  0x00\n  shl\n    /* \"contracts/TesseraFeeSplitter.sol\":1642:1647  admin */\n  dup3\n    /* \"contracts/TesseraFeeSplitter.sol\":1611:1621  _grantRole */\n  shl(0x20, tag_26)\n    /* \"contracts/TesseraFeeSplitter.sol\":1611:1648  _grantRole(DEFAULT_ADMIN_ROLE, admin) */\n  0x20\n  shr\n  jump\t// in\ntag_25:\n  pop\n    /* \"contracts/TesseraFeeSplitter.sol\":1659:1690  _grantRole(MANAGER_ROLE, admin) */\n  tag_27\n    /* \"contracts/TesseraFeeSplitter.sol\":353:378  keccak256(\"MANAGER_ROLE\") */\n  0x241ecf16d79d0f8dbfb92cbc07fe17840425976cf0667f022fe9877caa831b08\n    /* \"contracts/TesseraFeeSplitter.sol\":1684:1689  admin */\n  dup3\n    /* \"contracts/TesseraFeeSplitter.sol\":1659:1669  _grantRole */\n  shl(0x20, tag_26)\n    /* \"contracts/TesseraFeeSplitter.sol\":1659:1690  _grantRole(MANAGER_ROLE, admin) */\n  0x20\n  shr\n  jump\t// in\ntag_27:\n  pop\n    /* \"contracts/TesseraFeeSplitter.sol\":1756:1793  _grantRole(SPLITTER_ROLE, _publisher) */\n  tag_28\n    /* \"contracts/TesseraFeeSplitter.sol\":425:451  keccak256(\"SPLITTER_ROLE\") */\n  0xebea61bac29e76544ef1875472aaff98e28d2db11686c8cbef6c2b35dbe32407\n    /* \"contracts/TesseraFeeSplitter.sol\":1782:1792  _publisher */\n  dup7\n    /* \"contracts/TesseraFeeSplitter.sol\":1756:1766  _grantRole */\n  shl(0x20, tag_26)\n    /* \"contracts/TesseraFeeSplitter.sol\":1756:1793  _grantRole(SPLITTER_ROLE, _publisher) */\n  0x20\n  shr\n  jump\t// in\ntag_28:\n  pop\n    /* \"contracts/TesseraFeeSplitter.sol\":1804:1836  _grantRole(SPLITTER_ROLE, _devs) */\n  tag_29\n    /* \"contracts/TesseraFeeSplitter.sol\":425:451  keccak256(\"SPLITTER_ROLE\") */\n  0xebea61bac29e76544ef1875472aaff98e28d2db11686c8cbef6c2b35dbe32407\n    /* \"contracts/TesseraFeeSplitter.sol\":1830:1835  _devs */\n  dup6\n    /* \"contracts/TesseraFeeSplitter.sol\":1804:1814  _grantRole */\n  shl(0x20, tag_26)\n    /* \"contracts/TesseraFeeSplitter.sol\":1804:1836  _grantRole(SPLITTER_ROLE, _devs) */\n  0x20\n  shr\n  jump\t// in\ntag_29:\n  pop\n    /* \"contracts/TesseraFeeSplitter.sol\":956:1844  constructor (... */\n  pop\n  pop\n  pop\n  pop\n  pop\n  pop\n    /* \"contracts/TesseraFeeSplitter.sol\":245:3079  contract TesseraFeeSplitter is AccessControl, ReentrancyGuard {... */\n  jump(tag_30)\n    /* \"@openzeppelin/contracts/access/AccessControl.sol\":6155:6471  function _grantRole(bytes32 role, address account) internal virtual returns (bool) {... */\ntag_26:\n    /* \"@openzeppelin/contracts/access/AccessControl.sol\":6232:6236  bool */\n  0x00\n    /* \"@openzeppelin/contracts/access/AccessControl.sol\":6253:6275  hasRole(role, account) */\n  tag_32\n    /* \"@openzeppelin/contracts/access/AccessControl.sol\":6261:6265  role */\n  dup4\n    /* \"@openzeppelin/contracts/access/AccessControl.sol\":6267:6274  account */\n  dup4\n    /* \"@openzeppelin/contracts/access/AccessControl.sol\":6253:6260  hasRole */\n  shl(0x20, tag_33)\n    /* \"@openzeppelin/contracts/access/AccessControl.sol\":6253:6275  hasRole(role, account) */\n  0x20\n  shr\n  jump\t// in\ntag_32:\n    /* \"@openzeppelin/contracts/access/AccessControl.sol\":6248:6465  if (!hasRole(role, account)) {... */\n  tag_34\n  jumpi\n    /* \"@openzeppelin/contracts/access/AccessControl.sol\":6323:6327  true */\n  0x01\n    /* \"@openzeppelin/contracts/access/AccessControl.sol\":6291:6297  _roles */\n  0x00\n    /* \"@openzeppelin/contracts/access/AccessControl.sol\":6291:6303  _roles[role] */\n  0x00\n    /* \"@openzeppelin/contracts/access/AccessControl.sol\":6298:6302  role */\n  dup6\n    /* \"@openzeppelin/contracts/access/AccessControl.sol\":6291:6303  _roles[role] */\n  dup2\n  mstore\n  0x20\n  add\n  swap1\n  dup2\n  mstore\n  0x20\n  add\n  0x00\n  keccak256\n    /* \"@openzeppelin/contracts/access/AccessControl.sol\":6291:6311  _roles[role].hasRole */\n  0x00\n  add\n    /* \"@openzeppelin/contracts/access/AccessControl.sol\":6291:6320  _roles[role].hasRole[account] */\n  0x00\n    /* \"@openzeppelin/contracts/access/AccessControl.sol\":6312:6319  account */\n  dup5\n    /* \"@openzeppelin/contracts/access/AccessControl.sol\":6291:6320  _roles[role].hasRole[account] */\n  0xffffffffffffffffffffffffffffffffffffffff\n  and\n  0xffffffffffffffffffffffffffffffffffffffff\n  and\n  dup2\n  mstore\n  0x20\n  add\n  swap1\n  dup2\n  mstore\n  0x20\n  add\n  0x00\n  keccak256\n  0x00\n    /* \"@openzeppelin/contracts/access/AccessControl.sol\":6291:6327  _roles[role].hasRole[account] = true */\n  0x0100\n  exp\n  dup2\n  sload\n  dup2\n  0xff\n  mul\n  not\n  and\n  swap1\n  dup4\n  iszero\n  iszero\n  mul\n  or\n  swap1\n  sstore\n  pop\n    /* \"@openzeppelin/contracts/access/AccessControl.sol\":6373:6385  _msgSender() */\n  tag_35\n    /* \"@openzeppelin/contracts/access/AccessControl.sol\":6373:6383  _msgSender */\n  shl(0x20, tag_36)\n    /* \"@openzeppelin/contracts/access/AccessControl.sol\":6373:6385  _msgSender() */\n  0x20\n  shr\n  jump\t// in\ntag_35:\n    /* \"@openzeppelin/contracts/access/AccessControl.sol\":6346:6386  RoleGranted(role, account, _msgSender()) */\n  0xffffffffffffffffffffffffffffffffffffffff\n  and\n    /* \"@openzeppelin/contracts/access/AccessControl.sol\":6364:6371  account */\n  dup3\n    /* \"@openzeppelin/contracts/access/AccessControl.sol\":6346:6386  RoleGranted(role, account, _msgSender()) */\n  0xffffffffffffffffffffffffffffffffffffffff\n  and\n    /* \"@openzeppelin/contracts/access/AccessControl.sol\":6358:6362  role */\n  dup5\n    /* \"@openzeppelin/contracts/access/AccessControl.sol\":6346:6386  RoleGranted(role, account, _msgSender()) */\n  0x2f8788117e7eff1d82e926ec794901d17c78024a50270940304540a733656f0d\n  mload(0x40)\n  mload(0x40)\n  dup1\n  swap2\n  sub\n  swap1\n  log4\n    /* \"@openzeppelin/contracts/access/AccessControl.sol\":6407:6411  true */\n  0x01\n    /* \"@openzeppelin/contracts/access/AccessControl.sol\":6400:6411  return true */\n  swap1\n  pop\n  jump(tag_31)\n    /* \"@openzeppelin/contracts/access/AccessControl.sol\":6248:6465  if (!hasRole(role, account)) {... */\ntag_34:\n    /* \"@openzeppelin/contracts/access/AccessControl.sol\":6449:6454  false */\n  0x00\n    /* \"@openzeppelin/contracts/access/AccessControl.sol\":6442:6454  return false */\n  swap1\n  pop\n    /* \"@openzeppelin/contracts/access/AccessControl.sol\":6155:6471  function _grantRole(bytes32 role, address account) internal virtual returns (bool) {... */\ntag_31:\n  swap3\n  swap2\n  pop\n  pop\n  jump\t// out\n    /* \"@openzeppelin/contracts/access/AccessControl.sol\":2830:2966  function hasRole(bytes32 role, address account) public view virtual returns (bool) {... */\ntag_33:\n    /* \"@openzeppelin/contracts/access/AccessControl.sol\":2907:2911  bool */\n  0x00\n    /* \"@openzeppelin/contracts/access/AccessControl.sol\":2930:2936  _roles */\n  0x00\n    /* \"@openzeppelin/contracts/access/AccessControl.sol\":2930:2942  _roles[role] */\n  0x00\n    /* \"@openzeppelin/contracts/access/AccessControl.sol\":2937:2941  role */\n  dup5\n    /* \"@openzeppelin/contracts/access/AccessControl.sol\":2930:2942  _roles[role] */\n  dup2\n  mstore\n  0x20\n  add\n  swap1\n  dup2\n  mstore\n  0x20\n  add\n  0x00\n  keccak256\n    /* \"@openzeppelin/contracts/access/AccessControl.sol\":2930:2950  _roles[role].hasRole */\n  0x00\n  add\n    /* \"@openzeppelin/contracts/access/AccessControl.sol\":2930:2959  _roles[role].hasRole[account] */\n  0x00\n    /* \"@openzeppelin/contracts/access/AccessControl.sol\":2951:2958  account */\n  dup4\n    /* \"@openzeppelin/contracts/access/AccessControl.sol\":2930:2959  _roles[role].hasRole[account] */\n  0xffffffffffffffffffffffffffffffffffffffff\n  and\n  0xffffffffffffffffffffffffffffffffffffffff\n  and\n  dup2\n  mstore\n  0x20\n  add\n  swap1\n  dup2\n  mstore\n  0x20\n  add\n  0x00\n  keccak256\n  0x00\n  swap1\n  sload\n  swap1\n  0x0100\n  exp\n  swap1\n  div\n  0xff\n  and\n    /* \"@openzeppelin/contracts/access/AccessControl.sol\":2923:2959  return _roles[role].hasRole[account] */\n  swap1\n  pop\n    /* \"@openzeppelin/contracts/access/AccessControl.sol\":2830:2966  function hasRole(bytes32 role, address account) public view virtual returns (bool) {... */\n  swap3\n  swap2\n  pop\n  pop\n  jump\t// out\n    /* \"@openzeppelin/contracts/utils/Context.sol\":656:752  function _msgSender() internal view virtual returns (address) {... */\ntag_36:\n    /* \"@openzeppelin/contracts/utils/Context.sol\":709:716  address */\n  0x00\n    /* \"@openzeppelin/contracts/utils/Context.sol\":735:745  msg.sender */\n  caller\n    /* \"@openzeppelin/contracts/utils/Context.sol\":728:745  return msg.sender */\n  swap1\n  pop\n    /* \"@openzeppelin/contracts/utils/Context.sol\":656:752  function _msgSender() internal view virtual returns (address) {... */\n  swap1\n  jump\t// out\n    /* \"#utility.yul\":88:205   */\ntag_41:\n    /* \"#utility.yul\":197:198   */\n  0x00\n    /* \"#utility.yul\":194:195   */\n  0x00\n    /* \"#utility.yul\":187:199   */\n  revert\n    /* \"#utility.yul\":334:460   */\ntag_43:\n    /* \"#utility.yul\":371:378   */\n  0x00\n    /* \"#utility.yul\":411:453   */\n  0xffffffffffffffffffffffffffffffffffffffff\n    /* \"#utility.yul\":404:409   */\n  dup3\n    /* \"#utility.yul\":400:454   */\n  and\n    /* \"#utility.yul\":389:454   */\n  swap1\n  pop\n    /* \"#utility.yul\":334:460   */\n  swap2\n  swap1\n  pop\n  jump\t// out\n    /* \"#utility.yul\":466:562   */\ntag_44:\n    /* \"#utility.yul\":503:510   */\n  0x00\n    /* \"#utility.yul\":532:556   */\n  tag_68\n    /* \"#utility.yul\":550:555   */\n  dup3\n    /* \"#utility.yul\":532:556   */\n  tag_43\n  jump\t// in\ntag_68:\n    /* \"#utility.yul\":521:556   */\n  swap1\n  pop\n    /* \"#utility.yul\":466:562   */\n  swap2\n  swap1\n  pop\n  jump\t// out\n    /* \"#utility.yul\":568:690   */\ntag_45:\n    /* \"#utility.yul\":641:665   */\n  tag_70\n    /* \"#utility.yul\":659:664   */\n  dup2\n    /* \"#utility.yul\":641:665   */\n  tag_44\n  jump\t// in\ntag_70:\n    /* \"#utility.yul\":634:639   */\n  dup2\n    /* \"#utility.yul\":631:666   */\n  eq\n    /* \"#utility.yul\":621:684   */\n  tag_71\n  jumpi\n    /* \"#utility.yul\":680:681   */\n  0x00\n    /* \"#utility.yul\":677:678   */\n  0x00\n    /* \"#utility.yul\":670:682   */\n  revert\n    /* \"#utility.yul\":621:684   */\ntag_71:\n    /* \"#utility.yul\":568:690   */\n  pop\n  jump\t// out\n    /* \"#utility.yul\":696:839   */\ntag_46:\n    /* \"#utility.yul\":753:758   */\n  0x00\n    /* \"#utility.yul\":784:790   */\n  dup2\n    /* \"#utility.yul\":778:791   */\n  mload\n    /* \"#utility.yul\":769:791   */\n  swap1\n  pop\n    /* \"#utility.yul\":800:833   */\n  tag_73\n    /* \"#utility.yul\":827:832   */\n  dup2\n    /* \"#utility.yul\":800:833   */\n  tag_45\n  jump\t// in\ntag_73:\n    /* \"#utility.yul\":696:839   */\n  swap3\n  swap2\n  pop\n  pop\n  jump\t// out\n    /* \"#utility.yul\":845:934   */\ntag_47:\n    /* \"#utility.yul\":881:888   */\n  0x00\n    /* \"#utility.yul\":921:927   */\n  0xffff\n    /* \"#utility.yul\":914:919   */\n  dup3\n    /* \"#utility.yul\":910:928   */\n  and\n    /* \"#utility.yul\":899:928   */\n  swap1\n  pop\n    /* \"#utility.yul\":845:934   */\n  swap2\n  swap1\n  pop\n  jump\t// out\n    /* \"#utility.yul\":940:1060   */\ntag_48:\n    /* \"#utility.yul\":1012:1035   */\n  tag_76\n    /* \"#utility.yul\":1029:1034   */\n  dup2\n    /* \"#utility.yul\":1012:1035   */\n  tag_47\n  jump\t// in\ntag_76:\n    /* \"#utility.yul\":1005:1010   */\n  dup2\n    /* \"#utility.yul\":1002:1036   */\n  eq\n    /* \"#utility.yul\":992:1054   */\n  tag_77\n  jumpi\n    /* \"#utility.yul\":1050:1051   */\n  0x00\n    /* \"#utility.yul\":1047:1048   */\n  0x00\n    /* \"#utility.yul\":1040:1052   */\n  revert\n    /* \"#utility.yul\":992:1054   */\ntag_77:\n    /* \"#utility.yul\":940:1060   */\n  pop\n  jump\t// out\n    /* \"#utility.yul\":1066:1207   */\ntag_49:\n    /* \"#utility.yul\":1122:1127   */\n  0x00\n    /* \"#utility.yul\":1153:1159   */\n  dup2\n    /* \"#utility.yul\":1147:1160   */\n  mload\n    /* \"#utility.yul\":1138:1160   */\n  swap1\n  pop\n    /* \"#utility.yul\":1169:1201   */\n  tag_79\n    /* \"#utility.yul\":1195:1200   */\n  dup2\n    /* \"#utility.yul\":1169:1201   */\n  tag_48\n  jump\t// in\ntag_79:\n    /* \"#utility.yul\":1066:1207   */\n  swap3\n  swap2\n  pop\n  pop\n  jump\t// out\n    /* \"#utility.yul\":1213:2343   */\ntag_3:\n    /* \"#utility.yul\":1326:1332   */\n  0x00\n    /* \"#utility.yul\":1334:1340   */\n  0x00\n    /* \"#utility.yul\":1342:1348   */\n  0x00\n    /* \"#utility.yul\":1350:1356   */\n  0x00\n    /* \"#utility.yul\":1358:1364   */\n  0x00\n    /* \"#utility.yul\":1366:1372   */\n  0x00\n    /* \"#utility.yul\":1415:1418   */\n  0xc0\n    /* \"#utility.yul\":1403:1412   */\n  dup8\n    /* \"#utility.yul\":1394:1401   */\n  dup10\n    /* \"#utility.yul\":1390:1413   */\n  sub\n    /* \"#utility.yul\":1386:1419   */\n  slt\n    /* \"#utility.yul\":1383:1503   */\n  iszero\n  tag_81\n  jumpi\n    /* \"#utility.yul\":1422:1501   */\n  tag_82\n  tag_41\n  jump\t// in\ntag_82:\n    /* \"#utility.yul\":1383:1503   */\ntag_81:\n    /* \"#utility.yul\":1542:1543   */\n  0x00\n    /* \"#utility.yul\":1567:1631   */\n  tag_83\n    /* \"#utility.yul\":1623:1630   */\n  dup10\n    /* \"#utility.yul\":1614:1620   */\n  dup3\n    /* \"#utility.yul\":1603:1612   */\n  dup11\n    /* \"#utility.yul\":1599:1621   */\n  add\n    /* \"#utility.yul\":1567:1631   */\n  tag_46\n  jump\t// in\ntag_83:\n    /* \"#utility.yul\":1557:1631   */\n  swap7\n  pop\n    /* \"#utility.yul\":1513:1641   */\n  pop\n    /* \"#utility.yul\":1680:1682   */\n  0x20\n    /* \"#utility.yul\":1706:1770   */\n  tag_84\n    /* \"#utility.yul\":1762:1769   */\n  dup10\n    /* \"#utility.yul\":1753:1759   */\n  dup3\n    /* \"#utility.yul\":1742:1751   */\n  dup11\n    /* \"#utility.yul\":1738:1760   */\n  add\n    /* \"#utility.yul\":1706:1770   */\n  tag_46\n  jump\t// in\ntag_84:\n    /* \"#utility.yul\":1696:1770   */\n  swap6\n  pop\n    /* \"#utility.yul\":1651:1780   */\n  pop\n    /* \"#utility.yul\":1819:1821   */\n  0x40\n    /* \"#utility.yul\":1845:1909   */\n  tag_85\n    /* \"#utility.yul\":1901:1908   */\n  dup10\n    /* \"#utility.yul\":1892:1898   */\n  dup3\n    /* \"#utility.yul\":1881:1890   */\n  dup11\n    /* \"#utility.yul\":1877:1899   */\n  add\n    /* \"#utility.yul\":1845:1909   */\n  tag_46\n  jump\t// in\ntag_85:\n    /* \"#utility.yul\":1835:1909   */\n  swap5\n  pop\n    /* \"#utility.yul\":1790:1919   */\n  pop\n    /* \"#utility.yul\":1958:1960   */\n  0x60\n    /* \"#utility.yul\":1984:2047   */\n  tag_86\n    /* \"#utility.yul\":2039:2046   */\n  dup10\n    /* \"#utility.yul\":2030:2036   */\n  dup3\n    /* \"#utility.yul\":2019:2028   */\n  dup11\n    /* \"#utility.yul\":2015:2037   */\n  add\n    /* \"#utility.yul\":1984:2047   */\n  tag_49\n  jump\t// in\ntag_86:\n    /* \"#utility.yul\":1974:2047   */\n  swap4\n  pop\n    /* \"#utility.yul\":1929:2057   */\n  pop\n    /* \"#utility.yul\":2096:2099   */\n  0x80\n    /* \"#utility.yul\":2123:2186   */\n  tag_87\n    /* \"#utility.yul\":2178:2185   */\n  dup10\n    /* \"#utility.yul\":2169:2175   */\n  dup3\n    /* \"#utility.yul\":2158:2167   */\n  dup11\n    /* \"#utility.yul\":2154:2176   */\n  add\n    /* \"#utility.yul\":2123:2186   */\n  tag_49\n  jump\t// in\ntag_87:\n    /* \"#utility.yul\":2113:2186   */\n  swap3\n  pop\n    /* \"#utility.yul\":2067:2196   */\n  pop\n    /* \"#utility.yul\":2235:2238   */\n  0xa0\n    /* \"#utility.yul\":2262:2326   */\n  tag_88\n    /* \"#utility.yul\":2318:2325   */\n  dup10\n    /* \"#utility.yul\":2309:2315   */\n  dup3\n    /* \"#utility.yul\":2298:2307   */\n  dup11\n    /* \"#utility.yul\":2294:2316   */\n  add\n    /* \"#utility.yul\":2262:2326   */\n  tag_46\n  jump\t// in\ntag_88:\n    /* \"#utility.yul\":2252:2326   */\n  swap2\n  pop\n    /* \"#utility.yul\":2206:2336   */\n  pop\n    /* \"#utility.yul\":1213:2343   */\n  swap3\n  swap6\n  pop\n  swap3\n  swap6\n  pop\n  swap3\n  swap6\n  jump\t// out\n    /* \"#utility.yul\":2349:2518   */\ntag_50:\n    /* \"#utility.yul\":2433:2444   */\n  0x00\n    /* \"#utility.yul\":2467:2473   */\n  dup3\n    /* \"#utility.yul\":2462:2465   */\n  dup3\n    /* \"#utility.yul\":2455:2474   */\n  mstore\n    /* \"#utility.yul\":2507:2511   */\n  0x20\n    /* \"#utility.yul\":2502:2505   */\n  dup3\n    /* \"#utility.yul\":2498:2512   */\n  add\n    /* \"#utility.yul\":2483:2512   */\n  swap1\n  pop\n    /* \"#utility.yul\":2349:2518   */\n  swap3\n  swap2\n  pop\n  pop\n  jump\t// out\n    /* \"#utility.yul\":2524:2681   */\ntag_51:\n    /* \"#utility.yul\":2664:2673   */\n  0x746f6b656e3d3000000000000000000000000000000000000000000000000000\n    /* \"#utility.yul\":2660:2661   */\n  0x00\n    /* \"#utility.yul\":2652:2658   */\n  dup3\n    /* \"#utility.yul\":2648:2662   */\n  add\n    /* \"#utility.yul\":2641:2674   */\n  mstore\n    /* \"#utility.yul\":2524:2681   */\n  pop\n  jump\t// out\n    /* \"#utility.yul\":2687:3052   */\ntag_52:\n    /* \"#utility.yul\":2829:2832   */\n  0x00\n    /* \"#utility.yul\":2850:2916   */\n  tag_92\n    /* \"#utility.yul\":2914:2915   */\n  0x07\n    /* \"#utility.yul\":2909:2912   */\n  dup4\n    /* \"#utility.yul\":2850:2916   */\n  tag_50\n  jump\t// in\ntag_92:\n    /* \"#utility.yul\":2843:2916   */\n  swap2\n  pop\n    /* \"#utility.yul\":2925:3018   */\n  tag_93\n    /* \"#utility.yul\":3014:3017   */\n  dup3\n    /* \"#utility.yul\":2925:3018   */\n  tag_51\n  jump\t// in\ntag_93:\n    /* \"#utility.yul\":3043:3045   */\n  0x20\n    /* \"#utility.yul\":3038:3041   */\n  dup3\n    /* \"#utility.yul\":3034:3046   */\n  add\n    /* \"#utility.yul\":3027:3046   */\n  swap1\n  pop\n    /* \"#utility.yul\":2687:3052   */\n  swap2\n  swap1\n  pop\n  jump\t// out\n    /* \"#utility.yul\":3058:3477   */\ntag_10:\n    /* \"#utility.yul\":3224:3228   */\n  0x00\n    /* \"#utility.yul\":3262:3264   */\n  0x20\n    /* \"#utility.yul\":3251:3260   */\n  dup3\n    /* \"#utility.yul\":3247:3265   */\n  add\n    /* \"#utility.yul\":3239:3265   */\n  swap1\n  pop\n    /* \"#utility.yul\":3311:3320   */\n  dup2\n    /* \"#utility.yul\":3305:3309   */\n  dup2\n    /* \"#utility.yul\":3301:3321   */\n  sub\n    /* \"#utility.yul\":3297:3298   */\n  0x00\n    /* \"#utility.yul\":3286:3295   */\n  dup4\n    /* \"#utility.yul\":3282:3299   */\n  add\n    /* \"#utility.yul\":3275:3322   */\n  mstore\n    /* \"#utility.yul\":3339:3470   */\n  tag_95\n    /* \"#utility.yul\":3465:3469   */\n  dup2\n    /* \"#utility.yul\":3339:3470   */\n  tag_52\n  jump\t// in\ntag_95:\n    /* \"#utility.yul\":3331:3470   */\n  swap1\n  pop\n    /* \"#utility.yul\":3058:3477   */\n  swap2\n  swap1\n  pop\n  jump\t// out\n    /* \"#utility.yul\":3483:3638   */\ntag_53:\n    /* \"#utility.yul\":3623:3630   */\n  0x7075623d30000000000000000000000000000000000000000000000000000000\n    /* \"#utility.yul\":3619:3620   */\n  0x00\n    /* \"#utility.yul\":3611:3617   */\n  dup3\n    /* \"#utility.yul\":3607:3621   */\n  add\n    /* \"#utility.yul\":3600:3631   */\n  mstore\n    /* \"#utility.yul\":3483:3638   */\n  pop\n  jump\t// out\n    /* \"#utility.yul\":3644:4009   */\ntag_54:\n    /* \"#utility.yul\":3786:3789   */\n  0x00\n    /* \"#utility.yul\":3807:3873   */\n  tag_98\n    /* \"#utility.yul\":3871:3872   */\n  0x05\n    /* \"#utility.yul\":3866:3869   */\n  dup4\n    /* \"#utility.yul\":3807:3873   */\n  tag_50\n  jump\t// in\ntag_98:\n    /* \"#utility.yul\":3800:3873   */\n  swap2\n  pop\n    /* \"#utility.yul\":3882:3975   */\n  tag_99\n    /* \"#utility.yul\":3971:3974   */\n  dup3\n    /* \"#utility.yul\":3882:3975   */\n  tag_53\n  jump\t// in\ntag_99:\n    /* \"#utility.yul\":4000:4002   */\n  0x20\n    /* \"#utility.yul\":3995:3998   */\n  dup3\n    /* \"#utility.yul\":3991:4003   */\n  add\n    /* \"#utility.yul\":3984:4003   */\n  swap1\n  pop\n    /* \"#utility.yul\":3644:4009   */\n  swap2\n  swap1\n  pop\n  jump\t// out\n    /* \"#utility.yul\":4015:4434   */\ntag_13:\n    /* \"#utility.yul\":4181:4185   */\n  0x00\n    /* \"#utility.yul\":4219:4221   */\n  0x20\n    /* \"#utility.yul\":4208:4217   */\n  dup3\n    /* \"#utility.yul\":4204:4222   */\n  add\n    /* \"#utility.yul\":4196:4222   */\n  swap1\n  pop\n    /* \"#utility.yul\":4268:4277   */\n  dup2\n    /* \"#utility.yul\":4262:4266   */\n  dup2\n    /* \"#utility.yul\":4258:4278   */\n  sub\n    /* \"#utility.yul\":4254:4255   */\n  0x00\n    /* \"#utility.yul\":4243:4252   */\n  dup4\n    /* \"#utility.yul\":4239:4256   */\n  add\n    /* \"#utility.yul\":4232:4279   */\n  mstore\n    /* \"#utility.yul\":4296:4427   */\n  tag_101\n    /* \"#utility.yul\":4422:4426   */\n  dup2\n    /* \"#utility.yul\":4296:4427   */\n  tag_54\n  jump\t// in\ntag_101:\n    /* \"#utility.yul\":4288:4427   */\n  swap1\n  pop\n    /* \"#utility.yul\":4015:4434   */\n  swap2\n  swap1\n  pop\n  jump\t// out\n    /* \"#utility.yul\":4440:4596   */\ntag_55:\n    /* \"#utility.yul\":4580:4588   */\n  0x646576733d300000000000000000000000000000000000000000000000000000\n    /* \"#utility.yul\":4576:4577   */\n  0x00\n    /* \"#utility.yul\":4568:4574   */\n  dup3\n    /* \"#utility.yul\":4564:4578   */\n  add\n    /* \"#utility.yul\":4557:4589   */\n  mstore\n    /* \"#utility.yul\":4440:4596   */\n  pop\n  jump\t// out\n    /* \"#utility.yul\":4602:4967   */\ntag_56:\n    /* \"#utility.yul\":4744:4747   */\n  0x00\n    /* \"#utility.yul\":4765:4831   */\n  tag_104\n    /* \"#utility.yul\":4829:4830   */\n  0x06\n    /* \"#utility.yul\":4824:4827   */\n  dup4\n    /* \"#utility.yul\":4765:4831   */\n  tag_50\n  jump\t// in\ntag_104:\n    /* \"#utility.yul\":4758:4831   */\n  swap2\n  pop\n    /* \"#utility.yul\":4840:4933   */\n  tag_105\n    /* \"#utility.yul\":4929:4932   */\n  dup3\n    /* \"#utility.yul\":4840:4933   */\n  tag_55\n  jump\t// in\ntag_105:\n    /* \"#utility.yul\":4958:4960   */\n  0x20\n    /* \"#utility.yul\":4953:4956   */\n  dup3\n    /* \"#utility.yul\":4949:4961   */\n  add\n    /* \"#utility.yul\":4942:4961   */\n  swap1\n  pop\n    /* \"#utility.yul\":4602:4967   */\n  swap2\n  swap1\n  pop\n  jump\t// out\n    /* \"#utility.yul\":4973:5392   */\ntag_16:\n    /* \"#utility.yul\":5139:5143   */\n  0x00\n    /* \"#utility.yul\":5177:5179   */\n  0x20\n    /* \"#utility.yul\":5166:5175   */\n  dup3\n    /* \"#utility.yul\":5162:5180   */\n  add\n    /* \"#utility.yul\":5154:5180   */\n  swap1\n  pop\n    /* \"#utility.yul\":5226:5235   */\n  dup2\n    /* \"#utility.yul\":5220:5224   */\n  dup2\n    /* \"#utility.yul\":5216:5236   */\n  sub\n    /* \"#utility.yul\":5212:5213   */\n  0x00\n    /* \"#utility.yul\":5201:5210   */\n  dup4\n    /* \"#utility.yul\":5197:5214   */\n  add\n    /* \"#utility.yul\":5190:5237   */\n  mstore\n    /* \"#utility.yul\":5254:5385   */\n  tag_107\n    /* \"#utility.yul\":5380:5384   */\n  dup2\n    /* \"#utility.yul\":5254:5385   */\n  tag_56\n  jump\t// in\ntag_107:\n    /* \"#utility.yul\":5246:5385   */\n  swap1\n  pop\n    /* \"#utility.yul\":4973:5392   */\n  swap2\n  swap1\n  pop\n  jump\t// out\n    /* \"#utility.yul\":5398:5578   */\ntag_57:\n    /* \"#utility.yul\":5446:5523   */\n  0x4e487b7100000000000000000000000000000000000000000000000000000000\n    /* \"#utility.yul\":5443:5444   */\n  0x00\n    /* \"#utility.yul\":5436:5524   */\n  mstore\n    /* \"#utility.yul\":5543:5547   */\n  0x11\n    /* \"#utility.yul\":5540:5541   */\n  0x04\n    /* \"#utility.yul\":5533:5548   */\n  mstore\n    /* \"#utility.yul\":5567:5571   */\n  0x24\n    /* \"#utility.yul\":5564:5565   */\n  0x00\n    /* \"#utility.yul\":5557:5572   */\n  revert\n    /* \"#utility.yul\":5584:5777   */\ntag_18:\n    /* \"#utility.yul\":5623:5626   */\n  0x00\n    /* \"#utility.yul\":5642:5661   */\n  tag_110\n    /* \"#utility.yul\":5659:5660   */\n  dup3\n    /* \"#utility.yul\":5642:5661   */\n  tag_47\n  jump\t// in\ntag_110:\n    /* \"#utility.yul\":5637:5661   */\n  swap2\n  pop\n    /* \"#utility.yul\":5675:5694   */\n  tag_111\n    /* \"#utility.yul\":5692:5693   */\n  dup4\n    /* \"#utility.yul\":5675:5694   */\n  tag_47\n  jump\t// in\ntag_111:\n    /* \"#utility.yul\":5670:5694   */\n  swap3\n  pop\n    /* \"#utility.yul\":5717:5718   */\n  dup3\n    /* \"#utility.yul\":5714:5715   */\n  dup3\n    /* \"#utility.yul\":5710:5719   */\n  add\n    /* \"#utility.yul\":5703:5719   */\n  swap1\n  pop\n    /* \"#utility.yul\":5740:5746   */\n  0xffff\n    /* \"#utility.yul\":5735:5738   */\n  dup2\n    /* \"#utility.yul\":5732:5747   */\n  gt\n    /* \"#utility.yul\":5729:5770   */\n  iszero\n  tag_112\n  jumpi\n    /* \"#utility.yul\":5750:5768   */\n  tag_113\n  tag_57\n  jump\t// in\ntag_113:\n    /* \"#utility.yul\":5729:5770   */\ntag_112:\n    /* \"#utility.yul\":5584:5777   */\n  swap3\n  swap2\n  pop\n  pop\n  jump\t// out\n    /* \"#utility.yul\":5783:5949   */\ntag_58:\n    /* \"#utility.yul\":5923:5941   */\n  0x6270732073756d20213d20313030303000000000000000000000000000000000\n    /* \"#utility.yul\":5919:5920   */\n  0x00\n    /* \"#utility.yul\":5911:5917   */\n  dup3\n    /* \"#utility.yul\":5907:5921   */\n  add\n    /* \"#utility.yul\":5900:5942   */\n  mstore\n    /* \"#utility.yul\":5783:5949   */\n  pop\n  jump\t// out\n    /* \"#utility.yul\":5955:6321   */\ntag_59:\n    /* \"#utility.yul\":6097:6100   */\n  0x00\n    /* \"#utility.yul\":6118:6185   */\n  tag_116\n    /* \"#utility.yul\":6182:6184   */\n  0x10\n    /* \"#utility.yul\":6177:6180   */\n  dup4\n    /* \"#utility.yul\":6118:6185   */\n  tag_50\n  jump\t// in\ntag_116:\n    /* \"#utility.yul\":6111:6185   */\n  swap2\n  pop\n    /* \"#utility.yul\":6194:6287   */\n  tag_117\n    /* \"#utility.yul\":6283:6286   */\n  dup3\n    /* \"#utility.yul\":6194:6287   */\n  tag_58\n  jump\t// in\ntag_117:\n    /* \"#utility.yul\":6312:6314   */\n  0x20\n    /* \"#utility.yul\":6307:6310   */\n  dup3\n    /* \"#utility.yul\":6303:6315   */\n  add\n    /* \"#utility.yul\":6296:6315   */\n  swap1\n  pop\n    /* \"#utility.yul\":5955:6321   */\n  swap2\n  swap1\n  pop\n  jump\t// out\n    /* \"#utility.yul\":6327:6746   */\ntag_21:\n    /* \"#utility.yul\":6493:6497   */\n  0x00\n    /* \"#utility.yul\":6531:6533   */\n  0x20\n    /* \"#utility.yul\":6520:6529   */\n  dup3\n    /* \"#utility.yul\":6516:6534   */\n  add\n    /* \"#utility.yul\":6508:6534   */\n  swap1\n  pop\n    /* \"#utility.yul\":6580:6589   */\n  dup2\n    /* \"#utility.yul\":6574:6578   */\n  dup2\n    /* \"#utility.yul\":6570:6590   */\n  sub\n    /* \"#utility.yul\":6566:6567   */\n  0x00\n    /* \"#utility.yul\":6555:6564   */\n  dup4\n    /* \"#utility.yul\":6551:6568   */\n  add\n    /* \"#utility.yul\":6544:6591   */\n  mstore\n    /* \"#utility.yul\":6608:6739   */\n  tag_119\n    /* \"#utility.yul\":6734:6738   */\n  dup2\n    /* \"#utility.yul\":6608:6739   */\n  tag_59\n  jump\t// in\ntag_119:\n    /* \"#utility.yul\":6600:6739   */\n  swap1\n  pop\n    /* \"#utility.yul\":6327:6746   */\n  swap2\n  swap1\n  pop\n  jump\t// out\n    /* \"#utility.yul\":6752:6910   */\ntag_60:\n    /* \"#utility.yul\":6892:6902   */\n  0x646576733d707562000000000000000000000000000000000000000000000000\n    /* \"#utility.yul\":6888:6889   */\n  0x00\n    /* \"#utility.yul\":6880:6886   */\n  dup3\n    /* \"#utility.yul\":6876:6890   */\n  add\n    /* \"#utility.yul\":6869:6903   */\n  mstore\n    /* \"#utility.yul\":6752:6910   */\n  pop\n  jump\t// out\n    /* \"#utility.yul\":6916:7281   */\ntag_61:\n    /* \"#utility.yul\":7058:7061   */\n  0x00\n    /* \"#utility.yul\":7079:7145   */\n  tag_122\n    /* \"#utility.yul\":7143:7144   */\n  0x08\n    /* \"#utility.yul\":7138:7141   */\n  dup4\n    /* \"#utility.yul\":7079:7145   */\n  tag_50\n  jump\t// in\ntag_122:\n    /* \"#utility.yul\":7072:7145   */\n  swap2\n  pop\n    /* \"#utility.yul\":7154:7247   */\n  tag_123\n    /* \"#utility.yul\":7243:7246   */\n  dup3\n    /* \"#utility.yul\":7154:7247   */\n  tag_60\n  jump\t// in\ntag_123:\n    /* \"#utility.yul\":7272:7274   */\n  0x20\n    /* \"#utility.yul\":7267:7270   */\n  dup3\n    /* \"#utility.yul\":7263:7275   */\n  add\n    /* \"#utility.yul\":7256:7275   */\n  swap1\n  pop\n    /* \"#utility.yul\":6916:7281   */\n  swap2\n  swap1\n  pop\n  jump\t// out\n    /* \"#utility.yul\":7287:7706   */\ntag_24:\n    /* \"#utility.yul\":7453:7457   */\n  0x00\n    /* \"#utility.yul\":7491:7493   */\n  0x20\n    /* \"#utility.yul\":7480:7489   */\n  dup3\n    /* \"#utility.yul\":7476:7494   */\n  add\n    /* \"#utility.yul\":7468:7494   */\n  swap1\n  pop\n    /* \"#utility.yul\":7540:7549   */\n  dup2\n    /* \"#utility.yul\":7534:7538   */\n  dup2\n    /* \"#utility.yul\":7530:7550   */\n  sub\n    /* \"#utility.yul\":7526:7527   */\n  0x00\n    /* \"#utility.yul\":7515:7524   */\n  dup4\n    /* \"#utility.yul\":7511:7528   */\n  add\n    /* \"#utility.yul\":7504:7551   */\n  mstore\n    /* \"#utility.yul\":7568:7699   */\n  tag_125\n    /* \"#utility.yul\":7694:7698   */\n  dup2\n    /* \"#utility.yul\":7568:7699   */\n  tag_61\n  jump\t// in\ntag_125:\n    /* \"#utility.yul\":7560:7699   */\n  swap1\n  pop\n    /* \"#utility.yul\":7287:7706   */\n  swap2\n  swap1\n  pop\n  jump\t// out\n    /* \"contracts/TesseraFeeSplitter.sol\":245:3079  contract TesseraFeeSplitter is AccessControl, ReentrancyGuard {... */\ntag_30:\n  mload(0x80)\n  codecopy(0x00, dataOffset(sub_0), dataSize(sub_0))\n  0x00\n  assignImmutable(\"0x9c7f7615d84833acb0a59ed6785953f717f36f0e32d2021eb527b2025773fa79\")\n  return(0x00, dataSize(sub_0))\nstop\n\nsub_0: assembly {\n        /* \"contracts/TesseraFeeSplitter.sol\":245:3079  contract TesseraFeeSplitter is AccessControl, ReentrancyGuard {... */\n      mstore(0x40, 0x80)\n      callvalue\n      dup1\n      iszero\n      tag_1\n      jumpi\n      revert(0x00, 0x00)\n    tag_1:\n      pop\n      jumpi(tag_2, lt(calldatasize, 0x04))\n      shr(0xe0, calldataload(0x00))\n      dup1\n      0xa217fddf\n      gt\n      tag_20\n      jumpi\n      dup1\n      0xe4fc6b6d\n      gt\n      tag_21\n      jumpi\n      dup1\n      0xe4fc6b6d\n      eq\n      tag_15\n      jumpi\n      dup1\n      0xe98c0990\n      eq\n      tag_16\n      jumpi\n      dup1\n      0xeb09c17c\n      eq\n      tag_17\n      jumpi\n      dup1\n      0xec87621c\n      eq\n      tag_18\n      jumpi\n      dup1\n      0xfc0c546a\n      eq\n      tag_19\n      jumpi\n      jump(tag_2)\n    tag_21:\n      dup1\n      0xa217fddf\n      eq\n      tag_11\n      jumpi\n      dup1\n      0xaaecfa63\n      eq\n      tag_12\n      jumpi\n      dup1\n      0xd547741f\n      eq\n      tag_13\n      jumpi\n      dup1\n      0xdb2e21bc\n      eq\n      tag_14\n      jumpi\n      jump(tag_2)\n    tag_20:\n      dup1\n      0x36568abe\n      gt\n      tag_22\n      jumpi\n      dup1\n      0x36568abe\n      eq\n      tag_7\n      jumpi\n      dup1\n      0x8c72c54e\n      eq\n      tag_8\n      jumpi\n      dup1\n      0x91d14854\n      eq\n      tag_9\n      jumpi\n      dup1\n      0x9a96f829\n      eq\n      tag_10\n      jumpi\n      jump(tag_2)\n    tag_22:\n      dup1\n      0x01ffc9a7\n      eq\n      tag_3\n      jumpi\n      dup1\n      0x12065fe0\n      eq\n      tag_4\n      jumpi\n      dup1\n      0x248a9ca3\n      eq\n      tag_5\n      jumpi\n      dup1\n      0x2f2ff15d\n      eq\n      tag_6\n      jumpi\n    tag_2:\n      revert(0x00, 0x00)\n        /* \"@openzeppelin/contracts/access/AccessControl.sol\":2541:2743  function supportsInterface(bytes4 interfaceId) public view virtual override returns (bool) {... */\n    tag_3:\n      tag_23\n      0x04\n      dup1\n      calldatasize\n      sub\n      dup2\n      add\n      swap1\n      tag_24\n      swap2\n      swap1\n      tag_25\n      jump\t// in\n    tag_24:\n      tag_26\n      jump\t// in\n    tag_23:\n      mload(0x40)\n      tag_27\n      swap2\n      swap1\n      tag_28\n      jump\t// in\n    tag_27:\n      mload(0x40)\n      dup1\n      swap2\n      sub\n      swap1\n      return\n        /* \"contracts/TesseraFeeSplitter.sol\":2921:3065  function getBalance() ... */\n    tag_4:\n      tag_29\n      tag_30\n      jump\t// in\n    tag_29:\n      mload(0x40)\n      tag_31\n      swap2\n      swap1\n      tag_32\n      jump\t// in\n    tag_31:\n      mload(0x40)\n      dup1\n      swap2\n      sub\n      swap1\n      return\n        /* \"@openzeppelin/contracts/access/AccessControl.sol\":3786:3906  function getRoleAdmin(bytes32 role) public view virtual returns (bytes32) {... */\n    tag_5:\n      tag_33\n      0x04\n      dup1\n      calldatasize\n      sub\n      dup2\n      add\n      swap1\n      tag_34\n      swap2\n      swap1\n      tag_35\n      jump\t// in\n    tag_34:\n      tag_36\n      jump\t// in\n    tag_33:\n      mload(0x40)\n      tag_37\n      swap2\n      swap1\n      tag_38\n      jump\t// in\n    tag_37:\n      mload(0x40)\n      dup1\n      swap2\n      sub\n      swap1\n      return\n        /* \"@openzeppelin/contracts/access/AccessControl.sol\":4202:4338  function grantRole(bytes32 role, address account) public virtual onlyRole(getRoleAdmin(role)) {... */\n    tag_6:\n      tag_39\n      0x04\n      dup1\n      calldatasize\n      sub\n      dup2\n      add\n      swap1\n      tag_40\n      swap2\n      swap1\n      tag_41\n      jump\t// in\n    tag_40:\n      tag_42\n      jump\t// in\n    tag_39:\n      stop\n        /* \"@openzeppelin/contracts/access/AccessControl.sol\":5304:5549  function renounceRole(bytes32 role, address callerConfirmation) public virtual {... */\n    tag_7:\n      tag_43\n      0x04\n      dup1\n      calldatasize\n      sub\n      dup2\n      add\n      swap1\n      tag_44\n      swap2\n      swap1\n      tag_41\n      jump\t// in\n    tag_44:\n      tag_45\n      jump\t// in\n    tag_43:\n      stop\n        /* \"contracts/TesseraFeeSplitter.sol\":498:522  address public publisher */\n    tag_8:\n      tag_46\n      tag_47\n      jump\t// in\n    tag_46:\n      mload(0x40)\n      tag_48\n      swap2\n      swap1\n      tag_49\n      jump\t// in\n    tag_48:\n      mload(0x40)\n      dup1\n      swap2\n      sub\n      swap1\n      return\n        /* \"@openzeppelin/contracts/access/AccessControl.sol\":2830:2966  function hasRole(bytes32 role, address account) public view virtual returns (bool) {... */\n    tag_9:\n      tag_50\n      0x04\n      dup1\n      calldatasize\n      sub\n      dup2\n      add\n      swap1\n      tag_51\n      swap2\n      swap1\n      tag_41\n      jump\t// in\n    tag_51:\n      tag_52\n      jump\t// in\n    tag_50:\n      mload(0x40)\n      tag_53\n      swap2\n      swap1\n      tag_28\n      jump\t// in\n    tag_53:\n      mload(0x40)\n      dup1\n      swap2\n      sub\n      swap1\n      return\n        /* \"contracts/TesseraFeeSplitter.sol\":529:548  address public devs */\n    tag_10:\n      tag_54\n      tag_55\n      jump\t// in\n    tag_54:\n      mload(0x40)\n      tag_56\n      swap2\n      swap1\n      tag_49\n      jump\t// in\n    tag_56:\n      mload(0x40)\n      dup1\n      swap2\n      sub\n      swap1\n      return\n        /* \"@openzeppelin/contracts/access/AccessControl.sol\":2196:2245  bytes32 public constant DEFAULT_ADMIN_ROLE = 0x00 */\n    tag_11:\n      tag_57\n      tag_58\n      jump\t// in\n    tag_57:\n      mload(0x40)\n      tag_59\n      swap2\n      swap1\n      tag_38\n      jump\t// in\n    tag_59:\n      mload(0x40)\n      dup1\n      swap2\n      sub\n      swap1\n      return\n        /* \"contracts/TesseraFeeSplitter.sol\":557:583  uint16 public publisherBps */\n    tag_12:\n      tag_60\n      tag_61\n      jump\t// in\n    tag_60:\n      mload(0x40)\n      tag_62\n      swap2\n      swap1\n      tag_63\n      jump\t// in\n    tag_62:\n      mload(0x40)\n      dup1\n      swap2\n      sub\n      swap1\n      return\n        /* \"@openzeppelin/contracts/access/AccessControl.sol\":4618:4756  function revokeRole(bytes32 role, address account) public virtual onlyRole(getRoleAdmin(role)) {... */\n    tag_13:\n      tag_64\n      0x04\n      dup1\n      calldatasize\n      sub\n      dup2\n      add\n      swap1\n      tag_65\n      swap2\n      swap1\n      tag_41\n      jump\t// in\n    tag_65:\n      tag_66\n      jump\t// in\n    tag_64:\n      stop\n        /* \"contracts/TesseraFeeSplitter.sol\":2517:2854  function emergencyWithdraw()... */\n    tag_14:\n      tag_67\n      tag_68\n      jump\t// in\n    tag_67:\n      stop\n        /* \"contracts/TesseraFeeSplitter.sol\":1930:2446  function distribute() ... */\n    tag_15:\n      tag_69\n      tag_70\n      jump\t// in\n    tag_69:\n      stop\n        /* \"contracts/TesseraFeeSplitter.sol\":600:621  uint16 public devsBps */\n    tag_16:\n      tag_71\n      tag_72\n      jump\t// in\n    tag_71:\n      mload(0x40)\n      tag_73\n      swap2\n      swap1\n      tag_63\n      jump\t// in\n    tag_73:\n      mload(0x40)\n      dup1\n      swap2\n      sub\n      swap1\n      return\n        /* \"contracts/TesseraFeeSplitter.sol\":385:451  bytes32 public constant SPLITTER_ROLE = keccak256(\"SPLITTER_ROLE\") */\n    tag_17:\n      tag_74\n      tag_75\n      jump\t// in\n    tag_74:\n      mload(0x40)\n      tag_76\n      swap2\n      swap1\n      tag_38\n      jump\t// in\n    tag_76:\n      mload(0x40)\n      dup1\n      swap2\n      sub\n      swap1\n      return\n        /* \"contracts/TesseraFeeSplitter.sol\":314:378  bytes32 public constant MANAGER_ROLE = keccak256(\"MANAGER_ROLE\") */\n    tag_18:\n      tag_77\n      tag_78\n      jump\t// in\n    tag_77:\n      mload(0x40)\n      tag_79\n      swap2\n      swap1\n      tag_38\n      jump\t// in\n    tag_79:\n      mload(0x40)\n      dup1\n      swap2\n      sub\n      swap1\n      return\n        /* \"contracts/TesseraFeeSplitter.sol\":460:489  IERC20 public immutable token */\n    tag_19:\n      tag_80\n      tag_81\n      jump\t// in\n    tag_80:\n      mload(0x40)\n      tag_82\n      swap2\n      swap1\n      tag_83\n      jump\t// in\n    tag_82:\n      mload(0x40)\n      dup1\n      swap2\n      sub\n      swap1\n      return\n        /* \"@openzeppelin/contracts/access/AccessControl.sol\":2541:2743  function supportsInterface(bytes4 interfaceId) public view virtual override returns (bool) {... */\n    tag_26:\n        /* \"@openzeppelin/contracts/access/AccessControl.sol\":2626:2630  bool */\n      0x00\n        /* \"@openzeppelin/contracts/access/AccessControl.sol\":2664:2696  type(IAccessControl).interfaceId */\n      0x7965db0b00000000000000000000000000000000000000000000000000000000\n        /* \"@openzeppelin/contracts/access/AccessControl.sol\":2649:2696  interfaceId == type(IAccessControl).interfaceId */\n      not(0xffffffffffffffffffffffffffffffffffffffffffffffffffffffff)\n      and\n        /* \"@openzeppelin/contracts/access/AccessControl.sol\":2649:2660  interfaceId */\n      dup3\n        /* \"@openzeppelin/contracts/access/AccessControl.sol\":2649:2696  interfaceId == type(IAccessControl).interfaceId */\n      not(0xffffffffffffffffffffffffffffffffffffffffffffffffffffffff)\n      and\n      eq\n        /* \"@openzeppelin/contracts/access/AccessControl.sol\":2649:2736  interfaceId == type(IAccessControl).interfaceId || super.supportsInterface(interfaceId) */\n      dup1\n      tag_85\n      jumpi\n      pop\n        /* \"@openzeppelin/contracts/access/AccessControl.sol\":2700:2736  super.supportsInterface(interfaceId) */\n      tag_86\n        /* \"@openzeppelin/contracts/access/AccessControl.sol\":2724:2735  interfaceId */\n      dup3\n        /* \"@openzeppelin/contracts/access/AccessControl.sol\":2700:2723  super.supportsInterface */\n      tag_87\n        /* \"@openzeppelin/contracts/access/AccessControl.sol\":2700:2736  super.supportsInterface(interfaceId) */\n      jump\t// in\n    tag_86:\n        /* \"@openzeppelin/contracts/access/AccessControl.sol\":2649:2736  interfaceId == type(IAccessControl).interfaceId || super.supportsInterface(interfaceId) */\n    tag_85:\n        /* \"@openzeppelin/contracts/access/AccessControl.sol\":2642:2736  return interfaceId == type(IAccessControl).interfaceId || super.supportsInterface(interfaceId) */\n      swap1\n      pop\n        /* \"@openzeppelin/contracts/access/AccessControl.sol\":2541:2743  function supportsInterface(bytes4 interfaceId) public view virtual override returns (bool) {... */\n      swap2\n      swap1\n      pop\n      jump\t// out\n        /* \"contracts/TesseraFeeSplitter.sol\":2921:3065  function getBalance() ... */\n    tag_30:\n        /* \"contracts/TesseraFeeSplitter.sol\":2994:3001  uint256 */\n      0x00\n        /* \"contracts/TesseraFeeSplitter.sol\":3027:3032  token */\n      immutable(\"0x9c7f7615d84833acb0a59ed6785953f717f36f0e32d2021eb527b2025773fa79\")\n        /* \"contracts/TesseraFeeSplitter.sol\":3027:3042  token.balanceOf */\n      0xffffffffffffffffffffffffffffffffffffffff\n      and\n      0x70a08231\n        /* \"contracts/TesseraFeeSplitter.sol\":3051:3055  this */\n      address\n        /* \"contracts/TesseraFeeSplitter.sol\":3027:3057  token.balanceOf(address(this)) */\n      mload(0x40)\n      dup3\n      0xffffffff\n      and\n      0xe0\n      shl\n      dup2\n      mstore\n      0x04\n      add\n      tag_89\n      swap2\n      swap1\n      tag_49\n      jump\t// in\n    tag_89:\n      0x20\n      mload(0x40)\n      dup1\n      dup4\n      sub\n      dup2\n      dup7\n      gas\n      staticcall\n      iszero\n      dup1\n      iszero\n      tag_91\n      jumpi\n      returndatacopy(0x00, 0x00, returndatasize)\n      revert(0x00, returndatasize)\n    tag_91:\n      pop\n      pop\n      pop\n      pop\n      mload(0x40)\n      returndatasize\n      not(0x1f)\n      0x1f\n      dup3\n      add\n      and\n      dup3\n      add\n      dup1\n      0x40\n      mstore\n      pop\n      dup2\n      add\n      swap1\n      tag_92\n      swap2\n      swap1\n      tag_93\n      jump\t// in\n    tag_92:\n        /* \"contracts/TesseraFeeSplitter.sol\":3020:3057  return token.balanceOf(address(this)) */\n      swap1\n      pop\n        /* \"contracts/TesseraFeeSplitter.sol\":2921:3065  function getBalance() ... */\n      swap1\n      jump\t// out\n        /* \"@openzeppelin/contracts/access/AccessControl.sol\":3786:3906  function getRoleAdmin(bytes32 role) public view virtual returns (bytes32) {... */\n    tag_36:\n        /* \"@openzeppelin/contracts/access/AccessControl.sol\":3851:3858  bytes32 */\n      0x00\n        /* \"@openzeppelin/contracts/access/AccessControl.sol\":3877:3883  _roles */\n      0x00\n        /* \"@openzeppelin/contracts/access/AccessControl.sol\":3877:3889  _roles[role] */\n      0x00\n        /* \"@openzeppelin/contracts/access/AccessControl.sol\":3884:3888  role */\n      dup4\n        /* \"@openzeppelin/contracts/access/AccessControl.sol\":3877:3889  _roles[role] */\n      dup2\n      mstore\n      0x20\n      add\n      swap1\n      dup2\n      mstore\n      0x20\n      add\n      0x00\n      keccak256\n        /* \"@openzeppelin/contracts/access/AccessControl.sol\":3877:3899  _roles[role].adminRole */\n      0x01\n      add\n      sload\n        /* \"@openzeppelin/contracts/access/AccessControl.sol\":3870:3899  return _roles[role].adminRole */\n      swap1\n      pop\n        /* \"@openzeppelin/contracts/access/AccessControl.sol\":3786:3906  function getRoleAdmin(bytes32 role) public view virtual returns (bytes32) {... */\n      swap2\n      swap1\n      pop\n      jump\t// out\n        /* \"@openzeppelin/contracts/access/AccessControl.sol\":4202:4338  function grantRole(bytes32 role, address account) public virtual onlyRole(getRoleAdmin(role)) {... */\n    tag_42:\n        /* \"@openzeppelin/contracts/access/AccessControl.sol\":4276:4294  getRoleAdmin(role) */\n      tag_95\n        /* \"@openzeppelin/contracts/access/AccessControl.sol\":4289:4293  role */\n      dup3\n        /* \"@openzeppelin/contracts/access/AccessControl.sol\":4276:4288  getRoleAdmin */\n      tag_36\n        /* \"@openzeppelin/contracts/access/AccessControl.sol\":4276:4294  getRoleAdmin(role) */\n      jump\t// in\n    tag_95:\n        /* \"@openzeppelin/contracts/access/AccessControl.sol\":2473:2489  _checkRole(role) */\n      tag_97\n        /* \"@openzeppelin/contracts/access/AccessControl.sol\":2484:2488  role */\n      dup2\n        /* \"@openzeppelin/contracts/access/AccessControl.sol\":2473:2483  _checkRole */\n      tag_98\n        /* \"@openzeppelin/contracts/access/AccessControl.sol\":2473:2489  _checkRole(role) */\n      jump\t// in\n    tag_97:\n        /* \"@openzeppelin/contracts/access/AccessControl.sol\":4306:4331  _grantRole(role, account) */\n      tag_100\n        /* \"@openzeppelin/contracts/access/AccessControl.sol\":4317:4321  role */\n      dup4\n        /* \"@openzeppelin/contracts/access/AccessControl.sol\":4323:4330  account */\n      dup4\n        /* \"@openzeppelin/contracts/access/AccessControl.sol\":4306:4316  _grantRole */\n      tag_101\n        /* \"@openzeppelin/contracts/access/AccessControl.sol\":4306:4331  _grantRole(role, account) */\n      jump\t// in\n    tag_100:\n      pop\n        /* \"@openzeppelin/contracts/access/AccessControl.sol\":4202:4338  function grantRole(bytes32 role, address account) public virtual onlyRole(getRoleAdmin(role)) {... */\n      pop\n      pop\n      pop\n      jump\t// out\n        /* \"@openzeppelin/contracts/access/AccessControl.sol\":5304:5549  function renounceRole(bytes32 role, address callerConfirmation) public virtual {... */\n    tag_45:\n        /* \"@openzeppelin/contracts/access/AccessControl.sol\":5419:5431  _msgSender() */\n      tag_103\n        /* \"@openzeppelin/contracts/access/AccessControl.sol\":5419:5429  _msgSender */\n      tag_104\n        /* \"@openzeppelin/contracts/access/AccessControl.sol\":5419:5431  _msgSender() */\n      jump\t// in\n    tag_103:\n        /* \"@openzeppelin/contracts/access/AccessControl.sol\":5397:5431  callerConfirmation != _msgSender() */\n      0xffffffffffffffffffffffffffffffffffffffff\n      and\n        /* \"@openzeppelin/contracts/access/AccessControl.sol\":5397:5415  callerConfirmation */\n      dup2\n        /* \"@openzeppelin/contracts/access/AccessControl.sol\":5397:5431  callerConfirmation != _msgSender() */\n      0xffffffffffffffffffffffffffffffffffffffff\n      and\n      eq\n        /* \"@openzeppelin/contracts/access/AccessControl.sol\":5393:5495  if (callerConfirmation != _msgSender()) {... */\n      tag_105\n      jumpi\n        /* \"@openzeppelin/contracts/access/AccessControl.sol\":5454:5484  AccessControlBadConfirmation() */\n      mload(0x40)\n      0x6697b23200000000000000000000000000000000000000000000000000000000\n      dup2\n      mstore\n      0x04\n      add\n      mload(0x40)\n      dup1\n      swap2\n      sub\n      swap1\n      revert\n        /* \"@openzeppelin/contracts/access/AccessControl.sol\":5393:5495  if (callerConfirmation != _msgSender()) {... */\n    tag_105:\n        /* \"@openzeppelin/contracts/access/AccessControl.sol\":5505:5542  _revokeRole(role, callerConfirmation) */\n      tag_106\n        /* \"@openzeppelin/contracts/access/AccessControl.sol\":5517:5521  role */\n      dup3\n        /* \"@openzeppelin/contracts/access/AccessControl.sol\":5523:5541  callerConfirmation */\n      dup3\n        /* \"@openzeppelin/contracts/access/AccessControl.sol\":5505:5516  _revokeRole */\n      tag_107\n        /* \"@openzeppelin/contracts/access/AccessControl.sol\":5505:5542  _revokeRole(role, callerConfirmation) */\n      jump\t// in\n    tag_106:\n      pop\n        /* \"@openzeppelin/contracts/access/AccessControl.sol\":5304:5549  function renounceRole(bytes32 role, address callerConfirmation) public virtual {... */\n      pop\n      pop\n      jump\t// out\n        /* \"contracts/TesseraFeeSplitter.sol\":498:522  address public publisher */\n    tag_47:\n      0x02\n      0x00\n      swap1\n      sload\n      swap1\n      0x0100\n      exp\n      swap1\n      div\n      0xffffffffffffffffffffffffffffffffffffffff\n      and\n      dup2\n      jump\t// out\n        /* \"@openzeppelin/contracts/access/AccessControl.sol\":2830:2966  function hasRole(bytes32 role, address account) public view virtual returns (bool) {... */\n    tag_52:\n        /* \"@openzeppelin/contracts/access/AccessControl.sol\":2907:2911  bool */\n      0x00\n        /* \"@openzeppelin/contracts/access/AccessControl.sol\":2930:2936  _roles */\n      0x00\n        /* \"@openzeppelin/contracts/access/AccessControl.sol\":2930:2942  _roles[role] */\n      0x00\n        /* \"@openzeppelin/contracts/access/AccessControl.sol\":2937:2941  role */\n      dup5\n        /* \"@openzeppelin/contracts/access/AccessControl.sol\":2930:2942  _roles[role] */\n      dup2\n      mstore\n      0x20\n      add\n      swap1\n      dup2\n      mstore\n      0x20\n      add\n      0x00\n      keccak256\n        /* \"@openzeppelin/contracts/access/AccessControl.sol\":2930:2950  _roles[role].hasRole */\n      0x00\n      add\n        /* \"@openzeppelin/contracts/access/AccessControl.sol\":2930:2959  _roles[role].hasRole[account] */\n      0x00\n        /* \"@openzeppelin/contracts/access/AccessControl.sol\":2951:2958  account */\n      dup4\n        /* \"@openzeppelin/contracts/access/AccessControl.sol\":2930:2959  _roles[role].hasRole[account] */\n      0xffffffffffffffffffffffffffffffffffffffff\n      and\n      0xffffffffffffffffffffffffffffffffffffffff\n      and\n      dup2\n      mstore\n      0x20\n      add\n      swap1\n      dup2\n      mstore\n      0x20\n      add\n      0x00\n      keccak256\n      0x00\n      swap1\n      sload\n      swap1\n      0x0100\n      exp\n      swap1\n      div\n      0xff\n      and\n        /* \"@openzeppelin/contracts/access/AccessControl.sol\":2923:2959  return _roles[role].hasRole[account] */\n      swap1\n      pop\n        /* \"@openzeppelin/contracts/access/AccessControl.sol\":2830:2966  function hasRole(bytes32 role, address account) public view virtual returns (bool) {... */\n      swap3\n      swap2\n      pop\n      pop\n      jump\t// out\n        /* \"contracts/TesseraFeeSplitter.sol\":529:548  address public devs */\n    tag_55:\n      0x03\n      0x00\n      swap1\n      sload\n      swap1\n      0x0100\n      exp\n      swap1\n      div\n      0xffffffffffffffffffffffffffffffffffffffff\n      and\n      dup2\n      jump\t// out\n        /* \"@openzeppelin/contracts/access/AccessControl.sol\":2196:2245  bytes32 public constant DEFAULT_ADMIN_ROLE = 0x00 */\n    tag_58:\n        /* \"@openzeppelin/contracts/access/AccessControl.sol\":2241:2245  0x00 */\n      0x00\n        /* \"@openzeppelin/contracts/access/AccessControl.sol\":2196:2245  bytes32 public constant DEFAULT_ADMIN_ROLE = 0x00 */\n      0x00\n      shl\n      dup2\n      jump\t// out\n        /* \"contracts/TesseraFeeSplitter.sol\":557:583  uint16 public publisherBps */\n    tag_61:\n      0x03\n      0x14\n      swap1\n      sload\n      swap1\n      0x0100\n      exp\n      swap1\n      div\n      0xffff\n      and\n      dup2\n      jump\t// out\n        /* \"@openzeppelin/contracts/access/AccessControl.sol\":4618:4756  function revokeRole(bytes32 role, address account) public virtual onlyRole(getRoleAdmin(role)) {... */\n    tag_66:\n        /* \"@openzeppelin/contracts/access/AccessControl.sol\":4693:4711  getRoleAdmin(role) */\n      tag_109\n        /* \"@openzeppelin/contracts/access/AccessControl.sol\":4706:4710  role */\n      dup3\n        /* \"@openzeppelin/contracts/access/AccessControl.sol\":4693:4705  getRoleAdmin */\n      tag_36\n        /* \"@openzeppelin/contracts/access/AccessControl.sol\":4693:4711  getRoleAdmin(role) */\n      jump\t// in\n    tag_109:\n        /* \"@openzeppelin/contracts/access/AccessControl.sol\":2473:2489  _checkRole(role) */\n      tag_111\n        /* \"@openzeppelin/contracts/access/AccessControl.sol\":2484:2488  role */\n      dup2\n        /* \"@openzeppelin/contracts/access/AccessControl.sol\":2473:2483  _checkRole */\n      tag_98\n        /* \"@openzeppelin/contracts/access/AccessControl.sol\":2473:2489  _checkRole(role) */\n      jump\t// in\n    tag_111:\n        /* \"@openzeppelin/contracts/access/AccessControl.sol\":4723:4749  _revokeRole(role, account) */\n      tag_113\n        /* \"@openzeppelin/contracts/access/AccessControl.sol\":4735:4739  role */\n      dup4\n        /* \"@openzeppelin/contracts/access/AccessControl.sol\":4741:4748  account */\n      dup4\n        /* \"@openzeppelin/contracts/access/AccessControl.sol\":4723:4734  _revokeRole */\n      tag_107\n        /* \"@openzeppelin/contracts/access/AccessControl.sol\":4723:4749  _revokeRole(role, account) */\n      jump\t// in\n    tag_113:\n      pop\n        /* \"@openzeppelin/contracts/access/AccessControl.sol\":4618:4756  function revokeRole(bytes32 role, address account) public virtual onlyRole(getRoleAdmin(role)) {... */\n      pop\n      pop\n      pop\n      jump\t// out\n        /* \"contracts/TesseraFeeSplitter.sol\":2517:2854  function emergencyWithdraw()... */\n    tag_68:\n        /* \"@openzeppelin/contracts/access/AccessControl.sol\":2241:2245  0x00 */\n      0x00\n        /* \"contracts/TesseraFeeSplitter.sol\":2582:2600  DEFAULT_ADMIN_ROLE */\n      0x00\n      shl\n        /* \"@openzeppelin/contracts/access/AccessControl.sol\":2473:2489  _checkRole(role) */\n      tag_115\n        /* \"@openzeppelin/contracts/access/AccessControl.sol\":2484:2488  role */\n      dup2\n        /* \"@openzeppelin/contracts/access/AccessControl.sol\":2473:2483  _checkRole */\n      tag_98\n        /* \"@openzeppelin/contracts/access/AccessControl.sol\":2473:2489  _checkRole(role) */\n      jump\t// in\n    tag_115:\n        /* \"@openzeppelin/contracts/security/ReentrancyGuard.sol\":2261:2282  _nonReentrantBefore() */\n      tag_117\n        /* \"@openzeppelin/contracts/security/ReentrancyGuard.sol\":2261:2280  _nonReentrantBefore */\n      tag_118\n        /* \"@openzeppelin/contracts/security/ReentrancyGuard.sol\":2261:2282  _nonReentrantBefore() */\n      jump\t// in\n    tag_117:\n        /* \"contracts/TesseraFeeSplitter.sol\":2640:2651  uint256 bal */\n      0x00\n        /* \"contracts/TesseraFeeSplitter.sol\":2654:2659  token */\n      immutable(\"0x9c7f7615d84833acb0a59ed6785953f717f36f0e32d2021eb527b2025773fa79\")\n        /* \"contracts/TesseraFeeSplitter.sol\":2654:2669  token.balanceOf */\n      0xffffffffffffffffffffffffffffffffffffffff\n      and\n      0x70a08231\n        /* \"contracts/TesseraFeeSplitter.sol\":2678:2682  this */\n      address\n        /* \"contracts/TesseraFeeSplitter.sol\":2654:2684  token.balanceOf(address(this)) */\n      mload(0x40)\n      dup3\n      0xffffffff\n      and\n      0xe0\n      shl\n      dup2\n      mstore\n      0x04\n      add\n      tag_120\n      swap2\n      swap1\n      tag_49\n      jump\t// in\n    tag_120:\n      0x20\n      mload(0x40)\n      dup1\n      dup4\n      sub\n      dup2\n      dup7\n      gas\n      staticcall\n      iszero\n      dup1\n      iszero\n      tag_122\n      jumpi\n      returndatacopy(0x00, 0x00, returndatasize)\n      revert(0x00, returndatasize)\n    tag_122:\n      pop\n      pop\n      pop\n      pop\n      mload(0x40)\n      returndatasize\n      not(0x1f)\n      0x1f\n      dup3\n      add\n      and\n      dup3\n      add\n      dup1\n      0x40\n      mstore\n      pop\n      dup2\n      add\n      swap1\n      tag_123\n      swap2\n      swap1\n      tag_93\n      jump\t// in\n    tag_123:\n        /* \"contracts/TesseraFeeSplitter.sol\":2640:2684  uint256 bal = token.balanceOf(address(this)) */\n      swap1\n      pop\n        /* \"contracts/TesseraFeeSplitter.sol\":2709:2710  0 */\n      0x00\n        /* \"contracts/TesseraFeeSplitter.sol\":2703:2706  bal */\n      dup2\n        /* \"contracts/TesseraFeeSplitter.sol\":2703:2710  bal > 0 */\n      gt\n        /* \"contracts/TesseraFeeSplitter.sol\":2695:2724  require(bal > 0, \"no tokens\") */\n      tag_124\n      jumpi\n      mload(0x40)\n      0x08c379a000000000000000000000000000000000000000000000000000000000\n      dup2\n      mstore\n      0x04\n      add\n      tag_125\n      swap1\n      tag_126\n      jump\t// in\n    tag_125:\n      mload(0x40)\n      dup1\n      swap2\n      sub\n      swap1\n      revert\n    tag_124:\n        /* \"contracts/TesseraFeeSplitter.sol\":2745:2750  token */\n      immutable(\"0x9c7f7615d84833acb0a59ed6785953f717f36f0e32d2021eb527b2025773fa79\")\n        /* \"contracts/TesseraFeeSplitter.sol\":2745:2759  token.transfer */\n      0xffffffffffffffffffffffffffffffffffffffff\n      and\n      0xa9059cbb\n        /* \"contracts/TesseraFeeSplitter.sol\":2760:2770  msg.sender */\n      caller\n        /* \"contracts/TesseraFeeSplitter.sol\":2772:2775  bal */\n      dup4\n        /* \"contracts/TesseraFeeSplitter.sol\":2745:2776  token.transfer(msg.sender, bal) */\n      mload(0x40)\n      dup4\n      0xffffffff\n      and\n      0xe0\n      shl\n      dup2\n      mstore\n      0x04\n      add\n      tag_127\n      swap3\n      swap2\n      swap1\n      tag_128\n      jump\t// in\n    tag_127:\n      0x20\n      mload(0x40)\n      dup1\n      dup4\n      sub\n      dup2\n      0x00\n      dup8\n      gas\n      call\n      iszero\n      dup1\n      iszero\n      tag_130\n      jumpi\n      returndatacopy(0x00, 0x00, returndatasize)\n      revert(0x00, returndatasize)\n    tag_130:\n      pop\n      pop\n      pop\n      pop\n      mload(0x40)\n      returndatasize\n      not(0x1f)\n      0x1f\n      dup3\n      add\n      and\n      dup3\n      add\n      dup1\n      0x40\n      mstore\n      pop\n      dup2\n      add\n      swap1\n      tag_131\n      swap2\n      swap1\n      tag_132\n      jump\t// in\n    tag_131:\n        /* \"contracts/TesseraFeeSplitter.sol\":2737:2794  require(token.transfer(msg.sender, bal), \"withdraw fail\") */\n      tag_133\n      jumpi\n      mload(0x40)\n      0x08c379a000000000000000000000000000000000000000000000000000000000\n      dup2\n      mstore\n      0x04\n      add\n      tag_134\n      swap1\n      tag_135\n      jump\t// in\n    tag_134:\n      mload(0x40)\n      dup1\n      swap2\n      sub\n      swap1\n      revert\n    tag_133:\n        /* \"contracts/TesseraFeeSplitter.sol\":2812:2846  EmergencyWithdraw(msg.sender, bal) */\n      0x5fafa99d0643513820be26656b45130b01e1c03062e1266bf36f88cbd3bd9695\n        /* \"contracts/TesseraFeeSplitter.sol\":2830:2840  msg.sender */\n      caller\n        /* \"contracts/TesseraFeeSplitter.sol\":2842:2845  bal */\n      dup3\n        /* \"contracts/TesseraFeeSplitter.sol\":2812:2846  EmergencyWithdraw(msg.sender, bal) */\n      mload(0x40)\n      tag_136\n      swap3\n      swap2\n      swap1\n      tag_128\n      jump\t// in\n    tag_136:\n      mload(0x40)\n      dup1\n      swap2\n      sub\n      swap1\n      log1\n        /* \"contracts/TesseraFeeSplitter.sol\":2629:2854  {... */\n      pop\n        /* \"@openzeppelin/contracts/security/ReentrancyGuard.sol\":2303:2323  _nonReentrantAfter() */\n      tag_137\n        /* \"@openzeppelin/contracts/security/ReentrancyGuard.sol\":2303:2321  _nonReentrantAfter */\n      tag_138\n        /* \"@openzeppelin/contracts/security/ReentrancyGuard.sol\":2303:2323  _nonReentrantAfter() */\n      jump\t// in\n    tag_137:\n        /* \"contracts/TesseraFeeSplitter.sol\":2517:2854  function emergencyWithdraw()... */\n      pop\n      jump\t// out\n        /* \"contracts/TesseraFeeSplitter.sol\":1930:2446  function distribute() ... */\n    tag_70:\n        /* \"@openzeppelin/contracts/security/ReentrancyGuard.sol\":2261:2282  _nonReentrantBefore() */\n      tag_140\n        /* \"@openzeppelin/contracts/security/ReentrancyGuard.sol\":2261:2280  _nonReentrantBefore */\n      tag_118\n        /* \"@openzeppelin/contracts/security/ReentrancyGuard.sol\":2261:2282  _nonReentrantBefore() */\n      jump\t// in\n    tag_140:\n        /* \"contracts/TesseraFeeSplitter.sol\":425:451  keccak256(\"SPLITTER_ROLE\") */\n      0xebea61bac29e76544ef1875472aaff98e28d2db11686c8cbef6c2b35dbe32407\n        /* \"@openzeppelin/contracts/access/AccessControl.sol\":2473:2489  _checkRole(role) */\n      tag_142\n        /* \"@openzeppelin/contracts/access/AccessControl.sol\":2484:2488  role */\n      dup2\n        /* \"@openzeppelin/contracts/access/AccessControl.sol\":2473:2483  _checkRole */\n      tag_98\n        /* \"@openzeppelin/contracts/access/AccessControl.sol\":2473:2489  _checkRole(role) */\n      jump\t// in\n    tag_142:\n        /* \"contracts/TesseraFeeSplitter.sol\":2041:2052  uint256 bal */\n      0x00\n        /* \"contracts/TesseraFeeSplitter.sol\":2055:2060  token */\n      immutable(\"0x9c7f7615d84833acb0a59ed6785953f717f36f0e32d2021eb527b2025773fa79\")\n        /* \"contracts/TesseraFeeSplitter.sol\":2055:2070  token.balanceOf */\n      0xffffffffffffffffffffffffffffffffffffffff\n      and\n      0x70a08231\n        /* \"contracts/TesseraFeeSplitter.sol\":2079:2083  this */\n      address\n        /* \"contracts/TesseraFeeSplitter.sol\":2055:2085  token.balanceOf(address(this)) */\n      mload(0x40)\n      dup3\n      0xffffffff\n      and\n      0xe0\n      shl\n      dup2\n      mstore\n      0x04\n      add\n      tag_144\n      swap2\n      swap1\n      tag_49\n      jump\t// in\n    tag_144:\n      0x20\n      mload(0x40)\n      dup1\n      dup4\n      sub\n      dup2\n      dup7\n      gas\n      staticcall\n      iszero\n      dup1\n      iszero\n      tag_146\n      jumpi\n      returndatacopy(0x00, 0x00, returndatasize)\n      revert(0x00, returndatasize)\n    tag_146:\n      pop\n      pop\n      pop\n      pop\n      mload(0x40)\n      returndatasize\n      not(0x1f)\n      0x1f\n      dup3\n      add\n      and\n      dup3\n      add\n      dup1\n      0x40\n      mstore\n      pop\n      dup2\n      add\n      swap1\n      tag_147\n      swap2\n      swap1\n      tag_93\n      jump\t// in\n    tag_147:\n        /* \"contracts/TesseraFeeSplitter.sol\":2041:2085  uint256 bal = token.balanceOf(address(this)) */\n      swap1\n      pop\n        /* \"contracts/TesseraFeeSplitter.sol\":2110:2111  0 */\n      0x00\n        /* \"contracts/TesseraFeeSplitter.sol\":2104:2107  bal */\n      dup2\n        /* \"contracts/TesseraFeeSplitter.sol\":2104:2111  bal > 0 */\n      gt\n        /* \"contracts/TesseraFeeSplitter.sol\":2096:2125  require(bal > 0, \"no tokens\") */\n      tag_148\n      jumpi\n      mload(0x40)\n      0x08c379a000000000000000000000000000000000000000000000000000000000\n      dup2\n      mstore\n      0x04\n      add\n      tag_149\n      swap1\n      tag_126\n      jump\t// in\n    tag_149:\n      mload(0x40)\n      dup1\n      swap2\n      sub\n      swap1\n      revert\n    tag_148:\n        /* \"contracts/TesseraFeeSplitter.sol\":2138:2160  uint256 publisherShare */\n      0x00\n        /* \"contracts/TesseraFeeSplitter.sol\":2186:2191  10000 */\n      0x2710\n        /* \"contracts/TesseraFeeSplitter.sol\":2170:2182  publisherBps */\n      0x03\n      0x14\n      swap1\n      sload\n      swap1\n      0x0100\n      exp\n      swap1\n      div\n      0xffff\n      and\n        /* \"contracts/TesseraFeeSplitter.sol\":2164:2182  bal * publisherBps */\n      0xffff\n      and\n        /* \"contracts/TesseraFeeSplitter.sol\":2164:2167  bal */\n      dup4\n        /* \"contracts/TesseraFeeSplitter.sol\":2164:2182  bal * publisherBps */\n      tag_150\n      swap2\n      swap1\n      tag_151\n      jump\t// in\n    tag_150:\n        /* \"contracts/TesseraFeeSplitter.sol\":2163:2191  (bal * publisherBps) / 10000 */\n      tag_152\n      swap2\n      swap1\n      tag_153\n      jump\t// in\n    tag_152:\n        /* \"contracts/TesseraFeeSplitter.sol\":2138:2191  uint256 publisherShare = (bal * publisherBps) / 10000 */\n      swap1\n      pop\n        /* \"contracts/TesseraFeeSplitter.sol\":2202:2218  uint256 devShare */\n      0x00\n        /* \"contracts/TesseraFeeSplitter.sol\":2227:2241  publisherShare */\n      dup2\n        /* \"contracts/TesseraFeeSplitter.sol\":2221:2224  bal */\n      dup4\n        /* \"contracts/TesseraFeeSplitter.sol\":2221:2241  bal - publisherShare */\n      tag_154\n      swap2\n      swap1\n      tag_155\n      jump\t// in\n    tag_154:\n        /* \"contracts/TesseraFeeSplitter.sol\":2202:2241  uint256 devShare = bal - publisherShare */\n      swap1\n      pop\n        /* \"contracts/TesseraFeeSplitter.sol\":2262:2267  token */\n      immutable(\"0x9c7f7615d84833acb0a59ed6785953f717f36f0e32d2021eb527b2025773fa79\")\n        /* \"contracts/TesseraFeeSplitter.sol\":2262:2276  token.transfer */\n      0xffffffffffffffffffffffffffffffffffffffff\n      and\n      0xa9059cbb\n        /* \"contracts/TesseraFeeSplitter.sol\":2277:2286  publisher */\n      0x02\n      0x00\n      swap1\n      sload\n      swap1\n      0x0100\n      exp\n      swap1\n      div\n      0xffffffffffffffffffffffffffffffffffffffff\n      and\n        /* \"contracts/TesseraFeeSplitter.sol\":2288:2302  publisherShare */\n      dup5\n        /* \"contracts/TesseraFeeSplitter.sol\":2262:2303  token.transfer(publisher, publisherShare) */\n      mload(0x40)\n      dup4\n      0xffffffff\n      and\n      0xe0\n      shl\n      dup2\n      mstore\n      0x04\n      add\n      tag_156\n      swap3\n      swap2\n      swap1\n      tag_128\n      jump\t// in\n    tag_156:\n      0x20\n      mload(0x40)\n      dup1\n      dup4\n      sub\n      dup2\n      0x00\n      dup8\n      gas\n      call\n      iszero\n      dup1\n      iszero\n      tag_158\n      jumpi\n      returndatacopy(0x00, 0x00, returndatasize)\n      revert(0x00, returndatasize)\n    tag_158:\n      pop\n      pop\n      pop\n      pop\n      mload(0x40)\n      returndatasize\n      not(0x1f)\n      0x1f\n      dup3\n      add\n      and\n      dup3\n      add\n      dup1\n      0x40\n      mstore\n      pop\n      dup2\n      add\n      swap1\n      tag_159\n      swap2\n      swap1\n      tag_132\n      jump\t// in\n    tag_159:\n        /* \"contracts/TesseraFeeSplitter.sol\":2254:2316  require(token.transfer(publisher, publisherShare), \"pub fail\") */\n      tag_160\n      jumpi\n      mload(0x40)\n      0x08c379a000000000000000000000000000000000000000000000000000000000\n      dup2\n      mstore\n      0x04\n      add\n      tag_161\n      swap1\n      tag_162\n      jump\t// in\n    tag_161:\n      mload(0x40)\n      dup1\n      swap2\n      sub\n      swap1\n      revert\n    tag_160:\n        /* \"contracts/TesseraFeeSplitter.sol\":2335:2340  token */\n      immutable(\"0x9c7f7615d84833acb0a59ed6785953f717f36f0e32d2021eb527b2025773fa79\")\n        /* \"contracts/TesseraFeeSplitter.sol\":2335:2349  token.transfer */\n      0xffffffffffffffffffffffffffffffffffffffff\n      and\n      0xa9059cbb\n        /* \"contracts/TesseraFeeSplitter.sol\":2350:2354  devs */\n      0x03\n      0x00\n      swap1\n      sload\n      swap1\n      0x0100\n      exp\n      swap1\n      div\n      0xffffffffffffffffffffffffffffffffffffffff\n      and\n        /* \"contracts/TesseraFeeSplitter.sol\":2356:2364  devShare */\n      dup4\n        /* \"contracts/TesseraFeeSplitter.sol\":2335:2365  token.transfer(devs, devShare) */\n      mload(0x40)\n      dup4\n      0xffffffff\n      and\n      0xe0\n      shl\n      dup2\n      mstore\n      0x04\n      add\n      tag_163\n      swap3\n      swap2\n      swap1\n      tag_128\n      jump\t// in\n    tag_163:\n      0x20\n      mload(0x40)\n      dup1\n      dup4\n      sub\n      dup2\n      0x00\n      dup8\n      gas\n      call\n      iszero\n      dup1\n      iszero\n      tag_165\n      jumpi\n      returndatacopy(0x00, 0x00, returndatasize)\n      revert(0x00, returndatasize)\n    tag_165:\n      pop\n      pop\n      pop\n      pop\n      mload(0x40)\n      returndatasize\n      not(0x1f)\n      0x1f\n      dup3\n      add\n      and\n      dup3\n      add\n      dup1\n      0x40\n      mstore\n      pop\n      dup2\n      add\n      swap1\n      tag_166\n      swap2\n      swap1\n      tag_132\n      jump\t// in\n    tag_166:\n        /* \"contracts/TesseraFeeSplitter.sol\":2327:2378  require(token.transfer(devs, devShare), \"dev fail\") */\n      tag_167\n      jumpi\n      mload(0x40)\n      0x08c379a000000000000000000000000000000000000000000000000000000000\n      dup2\n      mstore\n      0x04\n      add\n      tag_168\n      swap1\n      tag_169\n      jump\t// in\n    tag_168:\n      mload(0x40)\n      dup1\n      swap2\n      sub\n      swap1\n      revert\n    tag_167:\n        /* \"contracts/TesseraFeeSplitter.sol\":2396:2438  Distributed(bal, publisherShare, devShare) */\n      0xc5d35a65af09b3042394b742529d10f7fbf9a37294d6b13e4d63d06f9909a15b\n        /* \"contracts/TesseraFeeSplitter.sol\":2408:2411  bal */\n      dup4\n        /* \"contracts/TesseraFeeSplitter.sol\":2413:2427  publisherShare */\n      dup4\n        /* \"contracts/TesseraFeeSplitter.sol\":2429:2437  devShare */\n      dup4\n        /* \"contracts/TesseraFeeSplitter.sol\":2396:2438  Distributed(bal, publisherShare, devShare) */\n      mload(0x40)\n      tag_170\n      swap4\n      swap3\n      swap2\n      swap1\n      tag_171\n      jump\t// in\n    tag_170:\n      mload(0x40)\n      dup1\n      swap2\n      sub\n      swap1\n      log1\n        /* \"contracts/TesseraFeeSplitter.sol\":2030:2446  {... */\n      pop\n      pop\n      pop\n        /* \"@openzeppelin/contracts/security/ReentrancyGuard.sol\":2292:2293  _ */\n      pop\n        /* \"@openzeppelin/contracts/security/ReentrancyGuard.sol\":2303:2323  _nonReentrantAfter() */\n      tag_172\n        /* \"@openzeppelin/contracts/security/ReentrancyGuard.sol\":2303:2321  _nonReentrantAfter */\n      tag_138\n        /* \"@openzeppelin/contracts/security/ReentrancyGuard.sol\":2303:2323  _nonReentrantAfter() */\n      jump\t// in\n    tag_172:\n        /* \"contracts/TesseraFeeSplitter.sol\":1930:2446  function distribute() ... */\n      jump\t// out\n        /* \"contracts/TesseraFeeSplitter.sol\":600:621  uint16 public devsBps */\n    tag_72:\n      0x03\n      0x16\n      swap1\n      sload\n      swap1\n      0x0100\n      exp\n      swap1\n      div\n      0xffff\n      and\n      dup2\n      jump\t// out\n        /* \"contracts/TesseraFeeSplitter.sol\":385:451  bytes32 public constant SPLITTER_ROLE = keccak256(\"SPLITTER_ROLE\") */\n    tag_75:\n        /* \"contracts/TesseraFeeSplitter.sol\":425:451  keccak256(\"SPLITTER_ROLE\") */\n      0xebea61bac29e76544ef1875472aaff98e28d2db11686c8cbef6c2b35dbe32407\n        /* \"contracts/TesseraFeeSplitter.sol\":385:451  bytes32 public constant SPLITTER_ROLE = keccak256(\"SPLITTER_ROLE\") */\n      dup2\n      jump\t// out\n        /* \"contracts/TesseraFeeSplitter.sol\":314:378  bytes32 public constant MANAGER_ROLE = keccak256(\"MANAGER_ROLE\") */\n    tag_78:\n        /* \"contracts/TesseraFeeSplitter.sol\":353:378  keccak256(\"MANAGER_ROLE\") */\n      0x241ecf16d79d0f8dbfb92cbc07fe17840425976cf0667f022fe9877caa831b08\n        /* \"contracts/TesseraFeeSplitter.sol\":314:378  bytes32 public constant MANAGER_ROLE = keccak256(\"MANAGER_ROLE\") */\n      dup2\n      jump\t// out\n        /* \"contracts/TesseraFeeSplitter.sol\":460:489  IERC20 public immutable token */\n    tag_81:\n      immutable(\"0x9c7f7615d84833acb0a59ed6785953f717f36f0e32d2021eb527b2025773fa79\")\n      dup2\n      jump\t// out\n        /* \"@openzeppelin/contracts/utils/introspection/ERC165.sol\":730:876  function supportsInterface(bytes4 interfaceId) public view virtual returns (bool) {... */\n    tag_87:\n        /* \"@openzeppelin/contracts/utils/introspection/ERC165.sol\":806:810  bool */\n      0x00\n        /* \"@openzeppelin/contracts/utils/introspection/ERC165.sol\":844:869  type(IERC165).interfaceId */\n      0x01ffc9a700000000000000000000000000000000000000000000000000000000\n        /* \"@openzeppelin/contracts/utils/introspection/ERC165.sol\":829:869  interfaceId == type(IERC165).interfaceId */\n      not(0xffffffffffffffffffffffffffffffffffffffffffffffffffffffff)\n      and\n        /* \"@openzeppelin/contracts/utils/introspection/ERC165.sol\":829:840  interfaceId */\n      dup3\n        /* \"@openzeppelin/contracts/utils/introspection/ERC165.sol\":829:869  interfaceId == type(IERC165).interfaceId */\n      not(0xffffffffffffffffffffffffffffffffffffffffffffffffffffffff)\n      and\n      eq\n        /* \"@openzeppelin/contracts/utils/introspection/ERC165.sol\":822:869  return interfaceId == type(IERC165).interfaceId */\n      swap1\n      pop\n        /* \"@openzeppelin/contracts/utils/introspection/ERC165.sol\":730:876  function supportsInterface(bytes4 interfaceId) public view virtual returns (bool) {... */\n      swap2\n      swap1\n      pop\n      jump\t// out\n        /* \"@openzeppelin/contracts/access/AccessControl.sol\":3175:3278  function _checkRole(bytes32 role) internal view virtual {... */\n    tag_98:\n        /* \"@openzeppelin/contracts/access/AccessControl.sol\":3241:3271  _checkRole(role, _msgSender()) */\n      tag_175\n        /* \"@openzeppelin/contracts/access/AccessControl.sol\":3252:3256  role */\n      dup2\n        /* \"@openzeppelin/contracts/access/AccessControl.sol\":3258:3270  _msgSender() */\n      tag_176\n        /* \"@openzeppelin/contracts/access/AccessControl.sol\":3258:3268  _msgSender */\n      tag_104\n        /* \"@openzeppelin/contracts/access/AccessControl.sol\":3258:3270  _msgSender() */\n      jump\t// in\n    tag_176:\n        /* \"@openzeppelin/contracts/access/AccessControl.sol\":3241:3251  _checkRole */\n      tag_177\n        /* \"@openzeppelin/contracts/access/AccessControl.sol\":3241:3271  _checkRole(role, _msgSender()) */\n      jump\t// in\n    tag_175:\n        /* \"@openzeppelin/contracts/access/AccessControl.sol\":3175:3278  function _checkRole(bytes32 role) internal view virtual {... */\n      pop\n      jump\t// out\n        /* \"@openzeppelin/contracts/access/AccessControl.sol\":6155:6471  function _grantRole(bytes32 role, address account) internal virtual returns (bool) {... */\n    tag_101:\n        /* \"@openzeppelin/contracts/access/AccessControl.sol\":6232:6236  bool */\n      0x00\n        /* \"@openzeppelin/contracts/access/AccessControl.sol\":6253:6275  hasRole(role, account) */\n      tag_179\n        /* \"@openzeppelin/contracts/access/AccessControl.sol\":6261:6265  role */\n      dup4\n        /* \"@openzeppelin/contracts/access/AccessControl.sol\":6267:6274  account */\n      dup4\n        /* \"@openzeppelin/contracts/access/AccessControl.sol\":6253:6260  hasRole */\n      tag_52\n        /* \"@openzeppelin/contracts/access/AccessControl.sol\":6253:6275  hasRole(role, account) */\n      jump\t// in\n    tag_179:\n        /* \"@openzeppelin/contracts/access/AccessControl.sol\":6248:6465  if (!hasRole(role, account)) {... */\n      tag_180\n      jumpi\n        /* \"@openzeppelin/contracts/access/AccessControl.sol\":6323:6327  true */\n      0x01\n        /* \"@openzeppelin/contracts/access/AccessControl.sol\":6291:6297  _roles */\n      0x00\n        /* \"@openzeppelin/contracts/access/AccessControl.sol\":6291:6303  _roles[role] */\n      0x00\n        /* \"@openzeppelin/contracts/access/AccessControl.sol\":6298:6302  role */\n      dup6\n        /* \"@openzeppelin/contracts/access/AccessControl.sol\":6291:6303  _roles[role] */\n      dup2\n      mstore\n      0x20\n      add\n      swap1\n      dup2\n      mstore\n      0x20\n      add\n      0x00\n      keccak256\n        /* \"@openzeppelin/contracts/access/AccessControl.sol\":6291:6311  _roles[role].hasRole */\n      0x00\n      add\n        /* \"@openzeppelin/contracts/access/AccessControl.sol\":6291:6320  _roles[role].hasRole[account] */\n      0x00\n        /* \"@openzeppelin/contracts/access/AccessControl.sol\":6312:6319  account */\n      dup5\n        /* \"@openzeppelin/contracts/access/AccessControl.sol\":6291:6320  _roles[role].hasRole[account] */\n      0xffffffffffffffffffffffffffffffffffffffff\n      and\n      0xffffffffffffffffffffffffffffffffffffffff\n      and\n      dup2\n      mstore\n      0x20\n      add\n      swap1\n      dup2\n      mstore\n      0x20\n      add\n      0x00\n      keccak256\n      0x00\n        /* \"@openzeppelin/contracts/access/AccessControl.sol\":6291:6327  _roles[role].hasRole[account] = true */\n      0x0100\n      exp\n      dup2\n      sload\n      dup2\n      0xff\n      mul\n      not\n      and\n      swap1\n      dup4\n      iszero\n      iszero\n      mul\n      or\n      swap1\n      sstore\n      pop\n        /* \"@openzeppelin/contracts/access/AccessControl.sol\":6373:6385  _msgSender() */\n      tag_181\n        /* \"@openzeppelin/contracts/access/AccessControl.sol\":6373:6383  _msgSender */\n      tag_104\n        /* \"@openzeppelin/contracts/access/AccessControl.sol\":6373:6385  _msgSender() */\n      jump\t// in\n    tag_181:\n        /* \"@openzeppelin/contracts/access/AccessControl.sol\":6346:6386  RoleGranted(role, account, _msgSender()) */\n      0xffffffffffffffffffffffffffffffffffffffff\n      and\n        /* \"@openzeppelin/contracts/access/AccessControl.sol\":6364:6371  account */\n      dup3\n        /* \"@openzeppelin/contracts/access/AccessControl.sol\":6346:6386  RoleGranted(role, account, _msgSender()) */\n      0xffffffffffffffffffffffffffffffffffffffff\n      and\n        /* \"@openzeppelin/contracts/access/AccessControl.sol\":6358:6362  role */\n      dup5\n        /* \"@openzeppelin/contracts/access/AccessControl.sol\":6346:6386  RoleGranted(role, account, _msgSender()) */\n      0x2f8788117e7eff1d82e926ec794901d17c78024a50270940304540a733656f0d\n      mload(0x40)\n      mload(0x40)\n      dup1\n      swap2\n      sub\n      swap1\n      log4\n        /* \"@openzeppelin/contracts/access/AccessControl.sol\":6407:6411  true */\n      0x01\n        /* \"@openzeppelin/contracts/access/AccessControl.sol\":6400:6411  return true */\n      swap1\n      pop\n      jump(tag_178)\n        /* \"@openzeppelin/contracts/access/AccessControl.sol\":6248:6465  if (!hasRole(role, account)) {... */\n    tag_180:\n        /* \"@openzeppelin/contracts/access/AccessControl.sol\":6449:6454  false */\n      0x00\n        /* \"@openzeppelin/contracts/access/AccessControl.sol\":6442:6454  return false */\n      swap1\n      pop\n        /* \"@openzeppelin/contracts/access/AccessControl.sol\":6155:6471  function _grantRole(bytes32 role, address account) internal virtual returns (bool) {... */\n    tag_178:\n      swap3\n      swap2\n      pop\n      pop\n      jump\t// out\n        /* \"@openzeppelin/contracts/utils/Context.sol\":656:752  function _msgSender() internal view virtual returns (address) {... */\n    tag_104:\n        /* \"@openzeppelin/contracts/utils/Context.sol\":709:716  address */\n      0x00\n        /* \"@openzeppelin/contracts/utils/Context.sol\":735:745  msg.sender */\n      caller\n        /* \"@openzeppelin/contracts/utils/Context.sol\":728:745  return msg.sender */\n      swap1\n      pop\n        /* \"@openzeppelin/contracts/utils/Context.sol\":656:752  function _msgSender() internal view virtual returns (address) {... */\n      swap1\n      jump\t// out\n        /* \"@openzeppelin/contracts/access/AccessControl.sol\":6708:7025  function _revokeRole(bytes32 role, address account) internal virtual returns (bool) {... */\n    tag_107:\n        /* \"@openzeppelin/contracts/access/AccessControl.sol\":6786:6790  bool */\n      0x00\n        /* \"@openzeppelin/contracts/access/AccessControl.sol\":6806:6828  hasRole(role, account) */\n      tag_185\n        /* \"@openzeppelin/contracts/access/AccessControl.sol\":6814:6818  role */\n      dup4\n        /* \"@openzeppelin/contracts/access/AccessControl.sol\":6820:6827  account */\n      dup4\n        /* \"@openzeppelin/contracts/access/AccessControl.sol\":6806:6813  hasRole */\n      tag_52\n        /* \"@openzeppelin/contracts/access/AccessControl.sol\":6806:6828  hasRole(role, account) */\n      jump\t// in\n    tag_185:\n        /* \"@openzeppelin/contracts/access/AccessControl.sol\":6802:7019  if (hasRole(role, account)) {... */\n      iszero\n      tag_186\n      jumpi\n        /* \"@openzeppelin/contracts/access/AccessControl.sol\":6876:6881  false */\n      0x00\n        /* \"@openzeppelin/contracts/access/AccessControl.sol\":6844:6850  _roles */\n      0x00\n        /* \"@openzeppelin/contracts/access/AccessControl.sol\":6844:6856  _roles[role] */\n      0x00\n        /* \"@openzeppelin/contracts/access/AccessControl.sol\":6851:6855  role */\n      dup6\n        /* \"@openzeppelin/contracts/access/AccessControl.sol\":6844:6856  _roles[role] */\n      dup2\n      mstore\n      0x20\n      add\n      swap1\n      dup2\n      mstore\n      0x20\n      add\n      0x00\n      keccak256\n        /* \"@openzeppelin/contracts/access/AccessControl.sol\":6844:6864  _roles[role].hasRole */\n      0x00\n      add\n        /* \"@openzeppelin/contracts/access/AccessControl.sol\":6844:6873  _roles[role].hasRole[account] */\n      0x00\n        /* \"@openzeppelin/contracts/access/AccessControl.sol\":6865:6872  account */\n      dup5\n        /* \"@openzeppelin/contracts/access/AccessControl.sol\":6844:6873  _roles[role].hasRole[account] */\n      0xffffffffffffffffffffffffffffffffffffffff\n      and\n      0xffffffffffffffffffffffffffffffffffffffff\n      and\n      dup2\n      mstore\n      0x20\n      add\n      swap1\n      dup2\n      mstore\n      0x20\n      add\n      0x00\n      keccak256\n      0x00\n        /* \"@openzeppelin/contracts/access/AccessControl.sol\":6844:6881  _roles[role].hasRole[account] = false */\n      0x0100\n      exp\n      dup2\n      sload\n      dup2\n      0xff\n      mul\n      not\n      and\n      swap1\n      dup4\n      iszero\n      iszero\n      mul\n      or\n      swap1\n      sstore\n      pop\n        /* \"@openzeppelin/contracts/access/AccessControl.sol\":6927:6939  _msgSender() */\n      tag_187\n        /* \"@openzeppelin/contracts/access/AccessControl.sol\":6927:6937  _msgSender */\n      tag_104\n        /* \"@openzeppelin/contracts/access/AccessControl.sol\":6927:6939  _msgSender() */\n      jump\t// in\n    tag_187:\n        /* \"@openzeppelin/contracts/access/AccessControl.sol\":6900:6940  RoleRevoked(role, account, _msgSender()) */\n      0xffffffffffffffffffffffffffffffffffffffff\n      and\n        /* \"@openzeppelin/contracts/access/AccessControl.sol\":6918:6925  account */\n      dup3\n        /* \"@openzeppelin/contracts/access/AccessControl.sol\":6900:6940  RoleRevoked(role, account, _msgSender()) */\n      0xffffffffffffffffffffffffffffffffffffffff\n      and\n        /* \"@openzeppelin/contracts/access/AccessControl.sol\":6912:6916  role */\n      dup5\n        /* \"@openzeppelin/contracts/access/AccessControl.sol\":6900:6940  RoleRevoked(role, account, _msgSender()) */\n      0xf6391f5c32d9c69d2a47ea670b442974b53935d1edc7fd64eb21e047a839171b\n      mload(0x40)\n      mload(0x40)\n      dup1\n      swap2\n      sub\n      swap1\n      log4\n        /* \"@openzeppelin/contracts/access/AccessControl.sol\":6961:6965  true */\n      0x01\n        /* \"@openzeppelin/contracts/access/AccessControl.sol\":6954:6965  return true */\n      swap1\n      pop\n      jump(tag_184)\n        /* \"@openzeppelin/contracts/access/AccessControl.sol\":6802:7019  if (hasRole(role, account)) {... */\n    tag_186:\n        /* \"@openzeppelin/contracts/access/AccessControl.sol\":7003:7008  false */\n      0x00\n        /* \"@openzeppelin/contracts/access/AccessControl.sol\":6996:7008  return false */\n      swap1\n      pop\n        /* \"@openzeppelin/contracts/access/AccessControl.sol\":6708:7025  function _revokeRole(bytes32 role, address account) internal virtual returns (bool) {... */\n    tag_184:\n      swap3\n      swap2\n      pop\n      pop\n      jump\t// out\n        /* \"@openzeppelin/contracts/security/ReentrancyGuard.sol\":2336:2623  function _nonReentrantBefore() private {... */\n    tag_118:\n        /* \"@openzeppelin/contracts/security/ReentrancyGuard.sol\":1759:1760  2 */\n      0x02\n        /* \"@openzeppelin/contracts/security/ReentrancyGuard.sol\":2468:2475  _status */\n      sload(0x01)\n        /* \"@openzeppelin/contracts/security/ReentrancyGuard.sol\":2468:2487  _status != _ENTERED */\n      sub\n        /* \"@openzeppelin/contracts/security/ReentrancyGuard.sol\":2460:2523  require(_status != _ENTERED, \"ReentrancyGuard: reentrant call\") */\n      tag_190\n      jumpi\n      mload(0x40)\n      0x08c379a000000000000000000000000000000000000000000000000000000000\n      dup2\n      mstore\n      0x04\n      add\n      tag_191\n      swap1\n      tag_192\n      jump\t// in\n    tag_191:\n      mload(0x40)\n      dup1\n      swap2\n      sub\n      swap1\n      revert\n    tag_190:\n        /* \"@openzeppelin/contracts/security/ReentrancyGuard.sol\":1759:1760  2 */\n      0x02\n        /* \"@openzeppelin/contracts/security/ReentrancyGuard.sol\":2598:2605  _status */\n      0x01\n        /* \"@openzeppelin/contracts/security/ReentrancyGuard.sol\":2598:2616  _status = _ENTERED */\n      dup2\n      swap1\n      sstore\n      pop\n        /* \"@openzeppelin/contracts/security/ReentrancyGuard.sol\":2336:2623  function _nonReentrantBefore() private {... */\n      jump\t// out\n        /* \"@openzeppelin/contracts/security/ReentrancyGuard.sol\":2629:2838  function _nonReentrantAfter() private {... */\n    tag_138:\n        /* \"@openzeppelin/contracts/security/ReentrancyGuard.sol\":1716:1717  1 */\n      0x01\n        /* \"@openzeppelin/contracts/security/ReentrancyGuard.sol\":2809:2816  _status */\n      dup1\n        /* \"@openzeppelin/contracts/security/ReentrancyGuard.sol\":2809:2831  _status = _NOT_ENTERED */\n      dup2\n      swap1\n      sstore\n      pop\n        /* \"@openzeppelin/contracts/security/ReentrancyGuard.sol\":2629:2838  function _nonReentrantAfter() private {... */\n      jump\t// out\n        /* \"@openzeppelin/contracts/access/AccessControl.sol\":3408:3605  function _checkRole(bytes32 role, address account) internal view virtual {... */\n    tag_177:\n        /* \"@openzeppelin/contracts/access/AccessControl.sol\":3496:3518  hasRole(role, account) */\n      tag_195\n        /* \"@openzeppelin/contracts/access/AccessControl.sol\":3504:3508  role */\n      dup3\n        /* \"@openzeppelin/contracts/access/AccessControl.sol\":3510:3517  account */\n      dup3\n        /* \"@openzeppelin/contracts/access/AccessControl.sol\":3496:3503  hasRole */\n      tag_52\n        /* \"@openzeppelin/contracts/access/AccessControl.sol\":3496:3518  hasRole(role, account) */\n      jump\t// in\n    tag_195:\n        /* \"@openzeppelin/contracts/access/AccessControl.sol\":3491:3599  if (!hasRole(role, account)) {... */\n      tag_196\n      jumpi\n        /* \"@openzeppelin/contracts/access/AccessControl.sol\":3574:3581  account */\n      dup1\n        /* \"@openzeppelin/contracts/access/AccessControl.sol\":3583:3587  role */\n      dup3\n        /* \"@openzeppelin/contracts/access/AccessControl.sol\":3541:3588  AccessControlUnauthorizedAccount(account, role) */\n      mload(0x40)\n      0xe2517d3f00000000000000000000000000000000000000000000000000000000\n      dup2\n      mstore\n      0x04\n      add\n      tag_197\n      swap3\n      swap2\n      swap1\n      tag_198\n      jump\t// in\n    tag_197:\n      mload(0x40)\n      dup1\n      swap2\n      sub\n      swap1\n      revert\n        /* \"@openzeppelin/contracts/access/AccessControl.sol\":3491:3599  if (!hasRole(role, account)) {... */\n    tag_196:\n        /* \"@openzeppelin/contracts/access/AccessControl.sol\":3408:3605  function _checkRole(bytes32 role, address account) internal view virtual {... */\n      pop\n      pop\n      jump\t// out\n        /* \"#utility.yul\":88:205   */\n    tag_200:\n        /* \"#utility.yul\":197:198   */\n      0x00\n        /* \"#utility.yul\":194:195   */\n      0x00\n        /* \"#utility.yul\":187:199   */\n      revert\n        /* \"#utility.yul\":334:483   */\n    tag_202:\n        /* \"#utility.yul\":370:377   */\n      0x00\n        /* \"#utility.yul\":410:476   */\n      0xffffffff00000000000000000000000000000000000000000000000000000000\n        /* \"#utility.yul\":403:408   */\n      dup3\n        /* \"#utility.yul\":399:477   */\n      and\n        /* \"#utility.yul\":388:477   */\n      swap1\n      pop\n        /* \"#utility.yul\":334:483   */\n      swap2\n      swap1\n      pop\n      jump\t// out\n        /* \"#utility.yul\":489:609   */\n    tag_203:\n        /* \"#utility.yul\":561:584   */\n      tag_248\n        /* \"#utility.yul\":578:583   */\n      dup2\n        /* \"#utility.yul\":561:584   */\n      tag_202\n      jump\t// in\n    tag_248:\n        /* \"#utility.yul\":554:559   */\n      dup2\n        /* \"#utility.yul\":551:585   */\n      eq\n        /* \"#utility.yul\":541:603   */\n      tag_249\n      jumpi\n        /* \"#utility.yul\":599:600   */\n      0x00\n        /* \"#utility.yul\":596:597   */\n      0x00\n        /* \"#utility.yul\":589:601   */\n      revert\n        /* \"#utility.yul\":541:603   */\n    tag_249:\n        /* \"#utility.yul\":489:609   */\n      pop\n      jump\t// out\n        /* \"#utility.yul\":615:752   */\n    tag_204:\n        /* \"#utility.yul\":660:665   */\n      0x00\n        /* \"#utility.yul\":698:704   */\n      dup2\n        /* \"#utility.yul\":685:705   */\n      calldataload\n        /* \"#utility.yul\":676:705   */\n      swap1\n      pop\n        /* \"#utility.yul\":714:746   */\n      tag_251\n        /* \"#utility.yul\":740:745   */\n      dup2\n        /* \"#utility.yul\":714:746   */\n      tag_203\n      jump\t// in\n    tag_251:\n        /* \"#utility.yul\":615:752   */\n      swap3\n      swap2\n      pop\n      pop\n      jump\t// out\n        /* \"#utility.yul\":758:1085   */\n    tag_25:\n        /* \"#utility.yul\":816:822   */\n      0x00\n        /* \"#utility.yul\":865:867   */\n      0x20\n        /* \"#utility.yul\":853:862   */\n      dup3\n        /* \"#utility.yul\":844:851   */\n      dup5\n        /* \"#utility.yul\":840:863   */\n      sub\n        /* \"#utility.yul\":836:868   */\n      slt\n        /* \"#utility.yul\":833:952   */\n      iszero\n      tag_253\n      jumpi\n        /* \"#utility.yul\":871:950   */\n      tag_254\n      tag_200\n      jump\t// in\n    tag_254:\n        /* \"#utility.yul\":833:952   */\n    tag_253:\n        /* \"#utility.yul\":991:992   */\n      0x00\n        /* \"#utility.yul\":1016:1068   */\n      tag_255\n        /* \"#utility.yul\":1060:1067   */\n      dup5\n        /* \"#utility.yul\":1051:1057   */\n      dup3\n        /* \"#utility.yul\":1040:1049   */\n      dup6\n        /* \"#utility.yul\":1036:1058   */\n      add\n        /* \"#utility.yul\":1016:1068   */\n      tag_204\n      jump\t// in\n    tag_255:\n        /* \"#utility.yul\":1006:1068   */\n      swap2\n      pop\n        /* \"#utility.yul\":962:1078   */\n      pop\n        /* \"#utility.yul\":758:1085   */\n      swap3\n      swap2\n      pop\n      pop\n      jump\t// out\n        /* \"#utility.yul\":1091:1181   */\n    tag_205:\n        /* \"#utility.yul\":1125:1132   */\n      0x00\n        /* \"#utility.yul\":1168:1173   */\n      dup2\n        /* \"#utility.yul\":1161:1174   */\n      iszero\n        /* \"#utility.yul\":1154:1175   */\n      iszero\n        /* \"#utility.yul\":1143:1175   */\n      swap1\n      pop\n        /* \"#utility.yul\":1091:1181   */\n      swap2\n      swap1\n      pop\n      jump\t// out\n        /* \"#utility.yul\":1187:1296   */\n    tag_206:\n        /* \"#utility.yul\":1268:1289   */\n      tag_258\n        /* \"#utility.yul\":1283:1288   */\n      dup2\n        /* \"#utility.yul\":1268:1289   */\n      tag_205\n      jump\t// in\n    tag_258:\n        /* \"#utility.yul\":1263:1266   */\n      dup3\n        /* \"#utility.yul\":1256:1290   */\n      mstore\n        /* \"#utility.yul\":1187:1296   */\n      pop\n      pop\n      jump\t// out\n        /* \"#utility.yul\":1302:1512   */\n    tag_28:\n        /* \"#utility.yul\":1389:1393   */\n      0x00\n        /* \"#utility.yul\":1427:1429   */\n      0x20\n        /* \"#utility.yul\":1416:1425   */\n      dup3\n        /* \"#utility.yul\":1412:1430   */\n      add\n        /* \"#utility.yul\":1404:1430   */\n      swap1\n      pop\n        /* \"#utility.yul\":1440:1505   */\n      tag_260\n        /* \"#utility.yul\":1502:1503   */\n      0x00\n        /* \"#utility.yul\":1491:1500   */\n      dup4\n        /* \"#utility.yul\":1487:1504   */\n      add\n        /* \"#utility.yul\":1478:1484   */\n      dup5\n        /* \"#utility.yul\":1440:1505   */\n      tag_206\n      jump\t// in\n    tag_260:\n        /* \"#utility.yul\":1302:1512   */\n      swap3\n      swap2\n      pop\n      pop\n      jump\t// out\n        /* \"#utility.yul\":1518:1595   */\n    tag_207:\n        /* \"#utility.yul\":1555:1562   */\n      0x00\n        /* \"#utility.yul\":1584:1589   */\n      dup2\n        /* \"#utility.yul\":1573:1589   */\n      swap1\n      pop\n        /* \"#utility.yul\":1518:1595   */\n      swap2\n      swap1\n      pop\n      jump\t// out\n        /* \"#utility.yul\":1601:1719   */\n    tag_208:\n        /* \"#utility.yul\":1688:1712   */\n      tag_263\n        /* \"#utility.yul\":1706:1711   */\n      dup2\n        /* \"#utility.yul\":1688:1712   */\n      tag_207\n      jump\t// in\n    tag_263:\n        /* \"#utility.yul\":1683:1686   */\n      dup3\n        /* \"#utility.yul\":1676:1713   */\n      mstore\n        /* \"#utility.yul\":1601:1719   */\n      pop\n      pop\n      jump\t// out\n        /* \"#utility.yul\":1725:1947   */\n    tag_32:\n        /* \"#utility.yul\":1818:1822   */\n      0x00\n        /* \"#utility.yul\":1856:1858   */\n      0x20\n        /* \"#utility.yul\":1845:1854   */\n      dup3\n        /* \"#utility.yul\":1841:1859   */\n      add\n        /* \"#utility.yul\":1833:1859   */\n      swap1\n      pop\n        /* \"#utility.yul\":1869:1940   */\n      tag_265\n        /* \"#utility.yul\":1937:1938   */\n      0x00\n        /* \"#utility.yul\":1926:1935   */\n      dup4\n        /* \"#utility.yul\":1922:1939   */\n      add\n        /* \"#utility.yul\":1913:1919   */\n      dup5\n        /* \"#utility.yul\":1869:1940   */\n      tag_208\n      jump\t// in\n    tag_265:\n        /* \"#utility.yul\":1725:1947   */\n      swap3\n      swap2\n      pop\n      pop\n      jump\t// out\n        /* \"#utility.yul\":1953:2030   */\n    tag_209:\n        /* \"#utility.yul\":1990:1997   */\n      0x00\n        /* \"#utility.yul\":2019:2024   */\n      dup2\n        /* \"#utility.yul\":2008:2024   */\n      swap1\n      pop\n        /* \"#utility.yul\":1953:2030   */\n      swap2\n      swap1\n      pop\n      jump\t// out\n        /* \"#utility.yul\":2036:2158   */\n    tag_210:\n        /* \"#utility.yul\":2109:2133   */\n      tag_268\n        /* \"#utility.yul\":2127:2132   */\n      dup2\n        /* \"#utility.yul\":2109:2133   */\n      tag_209\n      jump\t// in\n    tag_268:\n        /* \"#utility.yul\":2102:2107   */\n      dup2\n        /* \"#utility.yul\":2099:2134   */\n      eq\n        /* \"#utility.yul\":2089:2152   */\n      tag_269\n      jumpi\n        /* \"#utility.yul\":2148:2149   */\n      0x00\n        /* \"#utility.yul\":2145:2146   */\n      0x00\n        /* \"#utility.yul\":2138:2150   */\n      revert\n        /* \"#utility.yul\":2089:2152   */\n    tag_269:\n        /* \"#utility.yul\":2036:2158   */\n      pop\n      jump\t// out\n        /* \"#utility.yul\":2164:2303   */\n    tag_211:\n        /* \"#utility.yul\":2210:2215   */\n      0x00\n        /* \"#utility.yul\":2248:2254   */\n      dup2\n        /* \"#utility.yul\":2235:2255   */\n      calldataload\n        /* \"#utility.yul\":2226:2255   */\n      swap1\n      pop\n        /* \"#utility.yul\":2264:2297   */\n      tag_271\n        /* \"#utility.yul\":2291:2296   */\n      dup2\n        /* \"#utility.yul\":2264:2297   */\n      tag_210\n      jump\t// in\n    tag_271:\n        /* \"#utility.yul\":2164:2303   */\n      swap3\n      swap2\n      pop\n      pop\n      jump\t// out\n        /* \"#utility.yul\":2309:2638   */\n    tag_35:\n        /* \"#utility.yul\":2368:2374   */\n      0x00\n        /* \"#utility.yul\":2417:2419   */\n      0x20\n        /* \"#utility.yul\":2405:2414   */\n      dup3\n        /* \"#utility.yul\":2396:2403   */\n      dup5\n        /* \"#utility.yul\":2392:2415   */\n      sub\n        /* \"#utility.yul\":2388:2420   */\n      slt\n        /* \"#utility.yul\":2385:2504   */\n      iszero\n      tag_273\n      jumpi\n        /* \"#utility.yul\":2423:2502   */\n      tag_274\n      tag_200\n      jump\t// in\n    tag_274:\n        /* \"#utility.yul\":2385:2504   */\n    tag_273:\n        /* \"#utility.yul\":2543:2544   */\n      0x00\n        /* \"#utility.yul\":2568:2621   */\n      tag_275\n        /* \"#utility.yul\":2613:2620   */\n      dup5\n        /* \"#utility.yul\":2604:2610   */\n      dup3\n        /* \"#utility.yul\":2593:2602   */\n      dup6\n        /* \"#utility.yul\":2589:2611   */\n      add\n        /* \"#utility.yul\":2568:2621   */\n      tag_211\n      jump\t// in\n    tag_275:\n        /* \"#utility.yul\":2558:2621   */\n      swap2\n      pop\n        /* \"#utility.yul\":2514:2631   */\n      pop\n        /* \"#utility.yul\":2309:2638   */\n      swap3\n      swap2\n      pop\n      pop\n      jump\t// out\n        /* \"#utility.yul\":2644:2762   */\n    tag_212:\n        /* \"#utility.yul\":2731:2755   */\n      tag_277\n        /* \"#utility.yul\":2749:2754   */\n      dup2\n        /* \"#utility.yul\":2731:2755   */\n      tag_209\n      jump\t// in\n    tag_277:\n        /* \"#utility.yul\":2726:2729   */\n      dup3\n        /* \"#utility.yul\":2719:2756   */\n      mstore\n        /* \"#utility.yul\":2644:2762   */\n      pop\n      pop\n      jump\t// out\n        /* \"#utility.yul\":2768:2990   */\n    tag_38:\n        /* \"#utility.yul\":2861:2865   */\n      0x00\n        /* \"#utility.yul\":2899:2901   */\n      0x20\n        /* \"#utility.yul\":2888:2897   */\n      dup3\n        /* \"#utility.yul\":2884:2902   */\n      add\n        /* \"#utility.yul\":2876:2902   */\n      swap1\n      pop\n        /* \"#utility.yul\":2912:2983   */\n      tag_279\n        /* \"#utility.yul\":2980:2981   */\n      0x00\n        /* \"#utility.yul\":2969:2978   */\n      dup4\n        /* \"#utility.yul\":2965:2982   */\n      add\n        /* \"#utility.yul\":2956:2962   */\n      dup5\n        /* \"#utility.yul\":2912:2983   */\n      tag_212\n      jump\t// in\n    tag_279:\n        /* \"#utility.yul\":2768:2990   */\n      swap3\n      swap2\n      pop\n      pop\n      jump\t// out\n        /* \"#utility.yul\":2996:3122   */\n    tag_213:\n        /* \"#utility.yul\":3033:3040   */\n      0x00\n        /* \"#utility.yul\":3073:3115   */\n      0xffffffffffffffffffffffffffffffffffffffff\n        /* \"#utility.yul\":3066:3071   */\n      dup3\n        /* \"#utility.yul\":3062:3116   */\n      and\n        /* \"#utility.yul\":3051:3116   */\n      swap1\n      pop\n        /* \"#utility.yul\":2996:3122   */\n      swap2\n      swap1\n      pop\n      jump\t// out\n        /* \"#utility.yul\":3128:3224   */\n    tag_214:\n        /* \"#utility.yul\":3165:3172   */\n      0x00\n        /* \"#utility.yul\":3194:3218   */\n      tag_282\n        /* \"#utility.yul\":3212:3217   */\n      dup3\n        /* \"#utility.yul\":3194:3218   */\n      tag_213\n      jump\t// in\n    tag_282:\n        /* \"#utility.yul\":3183:3218   */\n      swap1\n      pop\n        /* \"#utility.yul\":3128:3224   */\n      swap2\n      swap1\n      pop\n      jump\t// out\n        /* \"#utility.yul\":3230:3352   */\n    tag_215:\n        /* \"#utility.yul\":3303:3327   */\n      tag_284\n        /* \"#utility.yul\":3321:3326   */\n      dup2\n        /* \"#utility.yul\":3303:3327   */\n      tag_214\n      jump\t// in\n    tag_284:\n        /* \"#utility.yul\":3296:3301   */\n      dup2\n        /* \"#utility.yul\":3293:3328   */\n      eq\n        /* \"#utility.yul\":3283:3346   */\n      tag_285\n      jumpi\n        /* \"#utility.yul\":3342:3343   */\n      0x00\n        /* \"#utility.yul\":3339:3340   */\n      0x00\n        /* \"#utility.yul\":3332:3344   */\n      revert\n        /* \"#utility.yul\":3283:3346   */\n    tag_285:\n        /* \"#utility.yul\":3230:3352   */\n      pop\n      jump\t// out\n        /* \"#utility.yul\":3358:3497   */\n    tag_216:\n        /* \"#utility.yul\":3404:3409   */\n      0x00\n        /* \"#utility.yul\":3442:3448   */\n      dup2\n        /* \"#utility.yul\":3429:3449   */\n      calldataload\n        /* \"#utility.yul\":3420:3449   */\n      swap1\n      pop\n        /* \"#utility.yul\":3458:3491   */\n      tag_287\n        /* \"#utility.yul\":3485:3490   */\n      dup2\n        /* \"#utility.yul\":3458:3491   */\n      tag_215\n      jump\t// in\n    tag_287:\n        /* \"#utility.yul\":3358:3497   */\n      swap3\n      swap2\n      pop\n      pop\n      jump\t// out\n        /* \"#utility.yul\":3503:3977   */\n    tag_41:\n        /* \"#utility.yul\":3571:3577   */\n      0x00\n        /* \"#utility.yul\":3579:3585   */\n      0x00\n        /* \"#utility.yul\":3628:3630   */\n      0x40\n        /* \"#utility.yul\":3616:3625   */\n      dup4\n        /* \"#utility.yul\":3607:3614   */\n      dup6\n        /* \"#utility.yul\":3603:3626   */\n      sub\n        /* \"#utility.yul\":3599:3631   */\n      slt\n        /* \"#utility.yul\":3596:3715   */\n      iszero\n      tag_289\n      jumpi\n        /* \"#utility.yul\":3634:3713   */\n      tag_290\n      tag_200\n      jump\t// in\n    tag_290:\n        /* \"#utility.yul\":3596:3715   */\n    tag_289:\n        /* \"#utility.yul\":3754:3755   */\n      0x00\n        /* \"#utility.yul\":3779:3832   */\n      tag_291\n        /* \"#utility.yul\":3824:3831   */\n      dup6\n        /* \"#utility.yul\":3815:3821   */\n      dup3\n        /* \"#utility.yul\":3804:3813   */\n      dup7\n        /* \"#utility.yul\":3800:3822   */\n      add\n        /* \"#utility.yul\":3779:3832   */\n      tag_211\n      jump\t// in\n    tag_291:\n        /* \"#utility.yul\":3769:3832   */\n      swap3\n      pop\n        /* \"#utility.yul\":3725:3842   */\n      pop\n        /* \"#utility.yul\":3881:3883   */\n      0x20\n        /* \"#utility.yul\":3907:3960   */\n      tag_292\n        /* \"#utility.yul\":3952:3959   */\n      dup6\n        /* \"#utility.yul\":3943:3949   */\n      dup3\n        /* \"#utility.yul\":3932:3941   */\n      dup7\n        /* \"#utility.yul\":3928:3950   */\n      add\n        /* \"#utility.yul\":3907:3960   */\n      tag_216\n      jump\t// in\n    tag_292:\n        /* \"#utility.yul\":3897:3960   */\n      swap2\n      pop\n        /* \"#utility.yul\":3852:3970   */\n      pop\n        /* \"#utility.yul\":3503:3977   */\n      swap3\n      pop\n      swap3\n      swap1\n      pop\n      jump\t// out\n        /* \"#utility.yul\":3983:4101   */\n    tag_217:\n        /* \"#utility.yul\":4070:4094   */\n      tag_294\n        /* \"#utility.yul\":4088:4093   */\n      dup2\n        /* \"#utility.yul\":4070:4094   */\n      tag_214\n      jump\t// in\n    tag_294:\n        /* \"#utility.yul\":4065:4068   */\n      dup3\n        /* \"#utility.yul\":4058:4095   */\n      mstore\n        /* \"#utility.yul\":3983:4101   */\n      pop\n      pop\n      jump\t// out\n        /* \"#utility.yul\":4107:4329   */\n    tag_49:\n        /* \"#utility.yul\":4200:4204   */\n      0x00\n        /* \"#utility.yul\":4238:4240   */\n      0x20\n        /* \"#utility.yul\":4227:4236   */\n      dup3\n        /* \"#utility.yul\":4223:4241   */\n      add\n        /* \"#utility.yul\":4215:4241   */\n      swap1\n      pop\n        /* \"#utility.yul\":4251:4322   */\n      tag_296\n        /* \"#utility.yul\":4319:4320   */\n      0x00\n        /* \"#utility.yul\":4308:4317   */\n      dup4\n        /* \"#utility.yul\":4304:4321   */\n      add\n        /* \"#utility.yul\":4295:4301   */\n      dup5\n        /* \"#utility.yul\":4251:4322   */\n      tag_217\n      jump\t// in\n    tag_296:\n        /* \"#utility.yul\":4107:4329   */\n      swap3\n      swap2\n      pop\n      pop\n      jump\t// out\n        /* \"#utility.yul\":4335:4424   */\n    tag_218:\n        /* \"#utility.yul\":4371:4378   */\n      0x00\n        /* \"#utility.yul\":4411:4417   */\n      0xffff\n        /* \"#utility.yul\":4404:4409   */\n      dup3\n        /* \"#utility.yul\":4400:4418   */\n      and\n        /* \"#utility.yul\":4389:4418   */\n      swap1\n      pop\n        /* \"#utility.yul\":4335:4424   */\n      swap2\n      swap1\n      pop\n      jump\t// out\n        /* \"#utility.yul\":4430:4545   */\n    tag_219:\n        /* \"#utility.yul\":4515:4538   */\n      tag_299\n        /* \"#utility.yul\":4532:4537   */\n      dup2\n        /* \"#utility.yul\":4515:4538   */\n      tag_218\n      jump\t// in\n    tag_299:\n        /* \"#utility.yul\":4510:4513   */\n      dup3\n        /* \"#utility.yul\":4503:4539   */\n      mstore\n        /* \"#utility.yul\":4430:4545   */\n      pop\n      pop\n      jump\t// out\n        /* \"#utility.yul\":4551:4769   */\n    tag_63:\n        /* \"#utility.yul\":4642:4646   */\n      0x00\n        /* \"#utility.yul\":4680:4682   */\n      0x20\n        /* \"#utility.yul\":4669:4678   */\n      dup3\n        /* \"#utility.yul\":4665:4683   */\n      add\n        /* \"#utility.yul\":4657:4683   */\n      swap1\n      pop\n        /* \"#utility.yul\":4693:4762   */\n      tag_301\n        /* \"#utility.yul\":4759:4760   */\n      0x00\n        /* \"#utility.yul\":4748:4757   */\n      dup4\n        /* \"#utility.yul\":4744:4761   */\n      add\n        /* \"#utility.yul\":4735:4741   */\n      dup5\n        /* \"#utility.yul\":4693:4762   */\n      tag_219\n      jump\t// in\n    tag_301:\n        /* \"#utility.yul\":4551:4769   */\n      swap3\n      swap2\n      pop\n      pop\n      jump\t// out\n        /* \"#utility.yul\":4775:4835   */\n    tag_220:\n        /* \"#utility.yul\":4803:4806   */\n      0x00\n        /* \"#utility.yul\":4824:4829   */\n      dup2\n        /* \"#utility.yul\":4817:4829   */\n      swap1\n      pop\n        /* \"#utility.yul\":4775:4835   */\n      swap2\n      swap1\n      pop\n      jump\t// out\n        /* \"#utility.yul\":4841:4983   */\n    tag_221:\n        /* \"#utility.yul\":4891:4900   */\n      0x00\n        /* \"#utility.yul\":4924:4977   */\n      tag_304\n        /* \"#utility.yul\":4942:4976   */\n      tag_305\n        /* \"#utility.yul\":4951:4975   */\n      tag_306\n        /* \"#utility.yul\":4969:4974   */\n      dup5\n        /* \"#utility.yul\":4951:4975   */\n      tag_213\n      jump\t// in\n    tag_306:\n        /* \"#utility.yul\":4942:4976   */\n      tag_220\n      jump\t// in\n    tag_305:\n        /* \"#utility.yul\":4924:4977   */\n      tag_213\n      jump\t// in\n    tag_304:\n        /* \"#utility.yul\":4911:4977   */\n      swap1\n      pop\n        /* \"#utility.yul\":4841:4983   */\n      swap2\n      swap1\n      pop\n      jump\t// out\n        /* \"#utility.yul\":4989:5115   */\n    tag_222:\n        /* \"#utility.yul\":5039:5048   */\n      0x00\n        /* \"#utility.yul\":5072:5109   */\n      tag_308\n        /* \"#utility.yul\":5103:5108   */\n      dup3\n        /* \"#utility.yul\":5072:5109   */\n      tag_221\n      jump\t// in\n    tag_308:\n        /* \"#utility.yul\":5059:5109   */\n      swap1\n      pop\n        /* \"#utility.yul\":4989:5115   */\n      swap2\n      swap1\n      pop\n      jump\t// out\n        /* \"#utility.yul\":5121:5261   */\n    tag_223:\n        /* \"#utility.yul\":5185:5194   */\n      0x00\n        /* \"#utility.yul\":5218:5255   */\n      tag_310\n        /* \"#utility.yul\":5249:5254   */\n      dup3\n        /* \"#utility.yul\":5218:5255   */\n      tag_222\n      jump\t// in\n    tag_310:\n        /* \"#utility.yul\":5205:5255   */\n      swap1\n      pop\n        /* \"#utility.yul\":5121:5261   */\n      swap2\n      swap1\n      pop\n      jump\t// out\n        /* \"#utility.yul\":5267:5426   */\n    tag_224:\n        /* \"#utility.yul\":5368:5419   */\n      tag_312\n        /* \"#utility.yul\":5413:5418   */\n      dup2\n        /* \"#utility.yul\":5368:5419   */\n      tag_223\n      jump\t// in\n    tag_312:\n        /* \"#utility.yul\":5363:5366   */\n      dup3\n        /* \"#utility.yul\":5356:5420   */\n      mstore\n        /* \"#utility.yul\":5267:5426   */\n      pop\n      pop\n      jump\t// out\n        /* \"#utility.yul\":5432:5682   */\n    tag_83:\n        /* \"#utility.yul\":5539:5543   */\n      0x00\n        /* \"#utility.yul\":5577:5579   */\n      0x20\n        /* \"#utility.yul\":5566:5575   */\n      dup3\n        /* \"#utility.yul\":5562:5580   */\n      add\n        /* \"#utility.yul\":5554:5580   */\n      swap1\n      pop\n        /* \"#utility.yul\":5590:5675   */\n      tag_314\n        /* \"#utility.yul\":5672:5673   */\n      0x00\n        /* \"#utility.yul\":5661:5670   */\n      dup4\n        /* \"#utility.yul\":5657:5674   */\n      add\n        /* \"#utility.yul\":5648:5654   */\n      dup5\n        /* \"#utility.yul\":5590:5675   */\n      tag_224\n      jump\t// in\n    tag_314:\n        /* \"#utility.yul\":5432:5682   */\n      swap3\n      swap2\n      pop\n      pop\n      jump\t// out\n        /* \"#utility.yul\":5688:5810   */\n    tag_225:\n        /* \"#utility.yul\":5761:5785   */\n      tag_316\n        /* \"#utility.yul\":5779:5784   */\n      dup2\n        /* \"#utility.yul\":5761:5785   */\n      tag_207\n      jump\t// in\n    tag_316:\n        /* \"#utility.yul\":5754:5759   */\n      dup2\n        /* \"#utility.yul\":5751:5786   */\n      eq\n        /* \"#utility.yul\":5741:5804   */\n      tag_317\n      jumpi\n        /* \"#utility.yul\":5800:5801   */\n      0x00\n        /* \"#utility.yul\":5797:5798   */\n      0x00\n        /* \"#utility.yul\":5790:5802   */\n      revert\n        /* \"#utility.yul\":5741:5804   */\n    tag_317:\n        /* \"#utility.yul\":5688:5810   */\n      pop\n      jump\t// out\n        /* \"#utility.yul\":5816:5959   */\n    tag_226:\n        /* \"#utility.yul\":5873:5878   */\n      0x00\n        /* \"#utility.yul\":5904:5910   */\n      dup2\n        /* \"#utility.yul\":5898:5911   */\n      mload\n        /* \"#utility.yul\":5889:5911   */\n      swap1\n      pop\n        /* \"#utility.yul\":5920:5953   */\n      tag_319\n        /* \"#utility.yul\":5947:5952   */\n      dup2\n        /* \"#utility.yul\":5920:5953   */\n      tag_225\n      jump\t// in\n    tag_319:\n        /* \"#utility.yul\":5816:5959   */\n      swap3\n      swap2\n      pop\n      pop\n      jump\t// out\n        /* \"#utility.yul\":5965:6316   */\n    tag_93:\n        /* \"#utility.yul\":6035:6041   */\n      0x00\n        /* \"#utility.yul\":6084:6086   */\n      0x20\n        /* \"#utility.yul\":6072:6081   */\n      dup3\n        /* \"#utility.yul\":6063:6070   */\n      dup5\n        /* \"#utility.yul\":6059:6082   */\n      sub\n        /* \"#utility.yul\":6055:6087   */\n      slt\n        /* \"#utility.yul\":6052:6171   */\n      iszero\n      tag_321\n      jumpi\n        /* \"#utility.yul\":6090:6169   */\n      tag_322\n      tag_200\n      jump\t// in\n    tag_322:\n        /* \"#utility.yul\":6052:6171   */\n    tag_321:\n        /* \"#utility.yul\":6210:6211   */\n      0x00\n        /* \"#utility.yul\":6235:6299   */\n      tag_323\n        /* \"#utility.yul\":6291:6298   */\n      dup5\n        /* \"#utility.yul\":6282:6288   */\n      dup3\n        /* \"#utility.yul\":6271:6280   */\n      dup6\n        /* \"#utility.yul\":6267:6289   */\n      add\n        /* \"#utility.yul\":6235:6299   */\n      tag_226\n      jump\t// in\n    tag_323:\n        /* \"#utility.yul\":6225:6299   */\n      swap2\n      pop\n        /* \"#utility.yul\":6181:6309   */\n      pop\n        /* \"#utility.yul\":5965:6316   */\n      swap3\n      swap2\n      pop\n      pop\n      jump\t// out\n        /* \"#utility.yul\":6322:6491   */\n    tag_227:\n        /* \"#utility.yul\":6406:6417   */\n      0x00\n        /* \"#utility.yul\":6440:6446   */\n      dup3\n        /* \"#utility.yul\":6435:6438   */\n      dup3\n        /* \"#utility.yul\":6428:6447   */\n      mstore\n        /* \"#utility.yul\":6480:6484   */\n      0x20\n        /* \"#utility.yul\":6475:6478   */\n      dup3\n        /* \"#utility.yul\":6471:6485   */\n      add\n        /* \"#utility.yul\":6456:6485   */\n      swap1\n      pop\n        /* \"#utility.yul\":6322:6491   */\n      swap3\n      swap2\n      pop\n      pop\n      jump\t// out\n        /* \"#utility.yul\":6497:6656   */\n    tag_228:\n        /* \"#utility.yul\":6637:6648   */\n      0x6e6f20746f6b656e730000000000000000000000000000000000000000000000\n        /* \"#utility.yul\":6633:6634   */\n      0x00\n        /* \"#utility.yul\":6625:6631   */\n      dup3\n        /* \"#utility.yul\":6621:6635   */\n      add\n        /* \"#utility.yul\":6614:6649   */\n      mstore\n        /* \"#utility.yul\":6497:6656   */\n      pop\n      jump\t// out\n        /* \"#utility.yul\":6662:7027   */\n    tag_229:\n        /* \"#utility.yul\":6804:6807   */\n      0x00\n        /* \"#utility.yul\":6825:6891   */\n      tag_327\n        /* \"#utility.yul\":6889:6890   */\n      0x09\n        /* \"#utility.yul\":6884:6887   */\n      dup4\n        /* \"#utility.yul\":6825:6891   */\n      tag_227\n      jump\t// in\n    tag_327:\n        /* \"#utility.yul\":6818:6891   */\n      swap2\n      pop\n        /* \"#utility.yul\":6900:6993   */\n      tag_328\n        /* \"#utility.yul\":6989:6992   */\n      dup3\n        /* \"#utility.yul\":6900:6993   */\n      tag_228\n      jump\t// in\n    tag_328:\n        /* \"#utility.yul\":7018:7020   */\n      0x20\n        /* \"#utility.yul\":7013:7016   */\n      dup3\n        /* \"#utility.yul\":7009:7021   */\n      add\n        /* \"#utility.yul\":7002:7021   */\n      swap1\n      pop\n        /* \"#utility.yul\":6662:7027   */\n      swap2\n      swap1\n      pop\n      jump\t// out\n        /* \"#utility.yul\":7033:7452   */\n    tag_126:\n        /* \"#utility.yul\":7199:7203   */\n      0x00\n        /* \"#utility.yul\":7237:7239   */\n      0x20\n        /* \"#utility.yul\":7226:7235   */\n      dup3\n        /* \"#utility.yul\":7222:7240   */\n      add\n        /* \"#utility.yul\":7214:7240   */\n      swap1\n      pop\n        /* \"#utility.yul\":7286:7295   */\n      dup2\n        /* \"#utility.yul\":7280:7284   */\n      dup2\n        /* \"#utility.yul\":7276:7296   */\n      sub\n        /* \"#utility.yul\":7272:7273   */\n      0x00\n        /* \"#utility.yul\":7261:7270   */\n      dup4\n        /* \"#utility.yul\":7257:7274   */\n      add\n        /* \"#utility.yul\":7250:7297   */\n      mstore\n        /* \"#utility.yul\":7314:7445   */\n      tag_330\n        /* \"#utility.yul\":7440:7444   */\n      dup2\n        /* \"#utility.yul\":7314:7445   */\n      tag_229\n      jump\t// in\n    tag_330:\n        /* \"#utility.yul\":7306:7445   */\n      swap1\n      pop\n        /* \"#utility.yul\":7033:7452   */\n      swap2\n      swap1\n      pop\n      jump\t// out\n        /* \"#utility.yul\":7458:7790   */\n    tag_128:\n        /* \"#utility.yul\":7579:7583   */\n      0x00\n        /* \"#utility.yul\":7617:7619   */\n      0x40\n        /* \"#utility.yul\":7606:7615   */\n      dup3\n        /* \"#utility.yul\":7602:7620   */\n      add\n        /* \"#utility.yul\":7594:7620   */\n      swap1\n      pop\n        /* \"#utility.yul\":7630:7701   */\n      tag_332\n        /* \"#utility.yul\":7698:7699   */\n      0x00\n        /* \"#utility.yul\":7687:7696   */\n      dup4\n        /* \"#utility.yul\":7683:7700   */\n      add\n        /* \"#utility.yul\":7674:7680   */\n      dup6\n        /* \"#utility.yul\":7630:7701   */\n      tag_217\n      jump\t// in\n    tag_332:\n        /* \"#utility.yul\":7711:7783   */\n      tag_333\n        /* \"#utility.yul\":7779:7781   */\n      0x20\n        /* \"#utility.yul\":7768:7777   */\n      dup4\n        /* \"#utility.yul\":7764:7782   */\n      add\n        /* \"#utility.yul\":7755:7761   */\n      dup5\n        /* \"#utility.yul\":7711:7783   */\n      tag_208\n      jump\t// in\n    tag_333:\n        /* \"#utility.yul\":7458:7790   */\n      swap4\n      swap3\n      pop\n      pop\n      pop\n      jump\t// out\n        /* \"#utility.yul\":7796:7912   */\n    tag_230:\n        /* \"#utility.yul\":7866:7887   */\n      tag_335\n        /* \"#utility.yul\":7881:7886   */\n      dup2\n        /* \"#utility.yul\":7866:7887   */\n      tag_205\n      jump\t// in\n    tag_335:\n        /* \"#utility.yul\":7859:7864   */\n      dup2\n        /* \"#utility.yul\":7856:7888   */\n      eq\n        /* \"#utility.yul\":7846:7906   */\n      tag_336\n      jumpi\n        /* \"#utility.yul\":7902:7903   */\n      0x00\n        /* \"#utility.yul\":7899:7900   */\n      0x00\n        /* \"#utility.yul\":7892:7904   */\n      revert\n        /* \"#utility.yul\":7846:7906   */\n    tag_336:\n        /* \"#utility.yul\":7796:7912   */\n      pop\n      jump\t// out\n        /* \"#utility.yul\":7918:8055   */\n    tag_231:\n        /* \"#utility.yul\":7972:7977   */\n      0x00\n        /* \"#utility.yul\":8003:8009   */\n      dup2\n        /* \"#utility.yul\":7997:8010   */\n      mload\n        /* \"#utility.yul\":7988:8010   */\n      swap1\n      pop\n        /* \"#utility.yul\":8019:8049   */\n      tag_338\n        /* \"#utility.yul\":8043:8048   */\n      dup2\n        /* \"#utility.yul\":8019:8049   */\n      tag_230\n      jump\t// in\n    tag_338:\n        /* \"#utility.yul\":7918:8055   */\n      swap3\n      swap2\n      pop\n      pop\n      jump\t// out\n        /* \"#utility.yul\":8061:8406   */\n    tag_132:\n        /* \"#utility.yul\":8128:8134   */\n      0x00\n        /* \"#utility.yul\":8177:8179   */\n      0x20\n        /* \"#utility.yul\":8165:8174   */\n      dup3\n        /* \"#utility.yul\":8156:8163   */\n      dup5\n        /* \"#utility.yul\":8152:8175   */\n      sub\n        /* \"#utility.yul\":8148:8180   */\n      slt\n        /* \"#utility.yul\":8145:8264   */\n      iszero\n      tag_340\n      jumpi\n        /* \"#utility.yul\":8183:8262   */\n      tag_341\n      tag_200\n      jump\t// in\n    tag_341:\n        /* \"#utility.yul\":8145:8264   */\n    tag_340:\n        /* \"#utility.yul\":8303:8304   */\n      0x00\n        /* \"#utility.yul\":8328:8389   */\n      tag_342\n        /* \"#utility.yul\":8381:8388   */\n      dup5\n        /* \"#utility.yul\":8372:8378   */\n      dup3\n        /* \"#utility.yul\":8361:8370   */\n      dup6\n        /* \"#utility.yul\":8357:8379   */\n      add\n        /* \"#utility.yul\":8328:8389   */\n      tag_231\n      jump\t// in\n    tag_342:\n        /* \"#utility.yul\":8318:8389   */\n      swap2\n      pop\n        /* \"#utility.yul\":8274:8399   */\n      pop\n        /* \"#utility.yul\":8061:8406   */\n      swap3\n      swap2\n      pop\n      pop\n      jump\t// out\n        /* \"#utility.yul\":8412:8575   */\n    tag_232:\n        /* \"#utility.yul\":8552:8567   */\n      0x7769746864726177206661696c00000000000000000000000000000000000000\n        /* \"#utility.yul\":8548:8549   */\n      0x00\n        /* \"#utility.yul\":8540:8546   */\n      dup3\n        /* \"#utility.yul\":8536:8550   */\n      add\n        /* \"#utility.yul\":8529:8568   */\n      mstore\n        /* \"#utility.yul\":8412:8575   */\n      pop\n      jump\t// out\n        /* \"#utility.yul\":8581:8947   */\n    tag_233:\n        /* \"#utility.yul\":8723:8726   */\n      0x00\n        /* \"#utility.yul\":8744:8811   */\n      tag_345\n        /* \"#utility.yul\":8808:8810   */\n      0x0d\n        /* \"#utility.yul\":8803:8806   */\n      dup4\n        /* \"#utility.yul\":8744:8811   */\n      tag_227\n      jump\t// in\n    tag_345:\n        /* \"#utility.yul\":8737:8811   */\n      swap2\n      pop\n        /* \"#utility.yul\":8820:8913   */\n      tag_346\n        /* \"#utility.yul\":8909:8912   */\n      dup3\n        /* \"#utility.yul\":8820:8913   */\n      tag_232\n      jump\t// in\n    tag_346:\n        /* \"#utility.yul\":8938:8940   */\n      0x20\n        /* \"#utility.yul\":8933:8936   */\n      dup3\n        /* \"#utility.yul\":8929:8941   */\n      add\n        /* \"#utility.yul\":8922:8941   */\n      swap1\n      pop\n        /* \"#utility.yul\":8581:8947   */\n      swap2\n      swap1\n      pop\n      jump\t// out\n        /* \"#utility.yul\":8953:9372   */\n    tag_135:\n        /* \"#utility.yul\":9119:9123   */\n      0x00\n        /* \"#utility.yul\":9157:9159   */\n      0x20\n        /* \"#utility.yul\":9146:9155   */\n      dup3\n        /* \"#utility.yul\":9142:9160   */\n      add\n        /* \"#utility.yul\":9134:9160   */\n      swap1\n      pop\n        /* \"#utility.yul\":9206:9215   */\n      dup2\n        /* \"#utility.yul\":9200:9204   */\n      dup2\n        /* \"#utility.yul\":9196:9216   */\n      sub\n        /* \"#utility.yul\":9192:9193   */\n      0x00\n        /* \"#utility.yul\":9181:9190   */\n      dup4\n        /* \"#utility.yul\":9177:9194   */\n      add\n        /* \"#utility.yul\":9170:9217   */\n      mstore\n        /* \"#utility.yul\":9234:9365   */\n      tag_348\n        /* \"#utility.yul\":9360:9364   */\n      dup2\n        /* \"#utility.yul\":9234:9365   */\n      tag_233\n      jump\t// in\n    tag_348:\n        /* \"#utility.yul\":9226:9365   */\n      swap1\n      pop\n        /* \"#utility.yul\":8953:9372   */\n      swap2\n      swap1\n      pop\n      jump\t// out\n        /* \"#utility.yul\":9378:9558   */\n    tag_234:\n        /* \"#utility.yul\":9426:9503   */\n      0x4e487b7100000000000000000000000000000000000000000000000000000000\n        /* \"#utility.yul\":9423:9424   */\n      0x00\n        /* \"#utility.yul\":9416:9504   */\n      mstore\n        /* \"#utility.yul\":9523:9527   */\n      0x11\n        /* \"#utility.yul\":9520:9521   */\n      0x04\n        /* \"#utility.yul\":9513:9528   */\n      mstore\n        /* \"#utility.yul\":9547:9551   */\n      0x24\n        /* \"#utility.yul\":9544:9545   */\n      0x00\n        /* \"#utility.yul\":9537:9552   */\n      revert\n        /* \"#utility.yul\":9564:9974   */\n    tag_151:\n        /* \"#utility.yul\":9604:9611   */\n      0x00\n        /* \"#utility.yul\":9627:9647   */\n      tag_351\n        /* \"#utility.yul\":9645:9646   */\n      dup3\n        /* \"#utility.yul\":9627:9647   */\n      tag_207\n      jump\t// in\n    tag_351:\n        /* \"#utility.yul\":9622:9647   */\n      swap2\n      pop\n        /* \"#utility.yul\":9661:9681   */\n      tag_352\n        /* \"#utility.yul\":9679:9680   */\n      dup4\n        /* \"#utility.yul\":9661:9681   */\n      tag_207\n      jump\t// in\n    tag_352:\n        /* \"#utility.yul\":9656:9681   */\n      swap3\n      pop\n        /* \"#utility.yul\":9716:9717   */\n      dup3\n        /* \"#utility.yul\":9713:9714   */\n      dup3\n        /* \"#utility.yul\":9709:9718   */\n      mul\n        /* \"#utility.yul\":9738:9768   */\n      tag_353\n        /* \"#utility.yul\":9756:9767   */\n      dup2\n        /* \"#utility.yul\":9738:9768   */\n      tag_207\n      jump\t// in\n    tag_353:\n        /* \"#utility.yul\":9727:9768   */\n      swap2\n      pop\n        /* \"#utility.yul\":9917:9918   */\n      dup3\n        /* \"#utility.yul\":9908:9915   */\n      dup3\n        /* \"#utility.yul\":9904:9919   */\n      div\n        /* \"#utility.yul\":9901:9902   */\n      dup5\n        /* \"#utility.yul\":9898:9920   */\n      eq\n        /* \"#utility.yul\":9878:9879   */\n      dup4\n        /* \"#utility.yul\":9871:9880   */\n      iszero\n        /* \"#utility.yul\":9851:9934   */\n      or\n        /* \"#utility.yul\":9828:9967   */\n      tag_354\n      jumpi\n        /* \"#utility.yul\":9947:9965   */\n      tag_355\n      tag_234\n      jump\t// in\n    tag_355:\n        /* \"#utility.yul\":9828:9967   */\n    tag_354:\n        /* \"#utility.yul\":9612:9974   */\n      pop\n        /* \"#utility.yul\":9564:9974   */\n      swap3\n      swap2\n      pop\n      pop\n      jump\t// out\n        /* \"#utility.yul\":9980:10160   */\n    tag_235:\n        /* \"#utility.yul\":10028:10105   */\n      0x4e487b7100000000000000000000000000000000000000000000000000000000\n        /* \"#utility.yul\":10025:10026   */\n      0x00\n        /* \"#utility.yul\":10018:10106   */\n      mstore\n        /* \"#utility.yul\":10125:10129   */\n      0x12\n        /* \"#utility.yul\":10122:10123   */\n      0x04\n        /* \"#utility.yul\":10115:10130   */\n      mstore\n        /* \"#utility.yul\":10149:10153   */\n      0x24\n        /* \"#utility.yul\":10146:10147   */\n      0x00\n        /* \"#utility.yul\":10139:10154   */\n      revert\n        /* \"#utility.yul\":10166:10351   */\n    tag_153:\n        /* \"#utility.yul\":10206:10207   */\n      0x00\n        /* \"#utility.yul\":10223:10243   */\n      tag_358\n        /* \"#utility.yul\":10241:10242   */\n      dup3\n        /* \"#utility.yul\":10223:10243   */\n      tag_207\n      jump\t// in\n    tag_358:\n        /* \"#utility.yul\":10218:10243   */\n      swap2\n      pop\n        /* \"#utility.yul\":10257:10277   */\n      tag_359\n        /* \"#utility.yul\":10275:10276   */\n      dup4\n        /* \"#utility.yul\":10257:10277   */\n      tag_207\n      jump\t// in\n    tag_359:\n        /* \"#utility.yul\":10252:10277   */\n      swap3\n      pop\n        /* \"#utility.yul\":10296:10297   */\n      dup3\n        /* \"#utility.yul\":10286:10321   */\n      tag_360\n      jumpi\n        /* \"#utility.yul\":10301:10319   */\n      tag_361\n      tag_235\n      jump\t// in\n    tag_361:\n        /* \"#utility.yul\":10286:10321   */\n    tag_360:\n        /* \"#utility.yul\":10343:10344   */\n      dup3\n        /* \"#utility.yul\":10340:10341   */\n      dup3\n        /* \"#utility.yul\":10336:10345   */\n      div\n        /* \"#utility.yul\":10331:10345   */\n      swap1\n      pop\n        /* \"#utility.yul\":10166:10351   */\n      swap3\n      swap2\n      pop\n      pop\n      jump\t// out\n        /* \"#utility.yul\":10357:10551   */\n    tag_155:\n        /* \"#utility.yul\":10397:10401   */\n      0x00\n        /* \"#utility.yul\":10417:10437   */\n      tag_363\n        /* \"#utility.yul\":10435:10436   */\n      dup3\n        /* \"#utility.yul\":10417:10437   */\n      tag_207\n      jump\t// in\n    tag_363:\n        /* \"#utility.yul\":10412:10437   */\n      swap2\n      pop\n        /* \"#utility.yul\":10451:10471   */\n      tag_364\n        /* \"#utility.yul\":10469:10470   */\n      dup4\n        /* \"#utility.yul\":10451:10471   */\n      tag_207\n      jump\t// in\n    tag_364:\n        /* \"#utility.yul\":10446:10471   */\n      swap3\n      pop\n        /* \"#utility.yul\":10495:10496   */\n      dup3\n        /* \"#utility.yul\":10492:10493   */\n      dup3\n        /* \"#utility.yul\":10488:10497   */\n      sub\n        /* \"#utility.yul\":10480:10497   */\n      swap1\n      pop\n        /* \"#utility.yul\":10519:10520   */\n      dup2\n        /* \"#utility.yul\":10513:10517   */\n      dup2\n        /* \"#utility.yul\":10510:10521   */\n      gt\n        /* \"#utility.yul\":10507:10544   */\n      iszero\n      tag_365\n      jumpi\n        /* \"#utility.yul\":10524:10542   */\n      tag_366\n      tag_234\n      jump\t// in\n    tag_366:\n        /* \"#utility.yul\":10507:10544   */\n    tag_365:\n        /* \"#utility.yul\":10357:10551   */\n      swap3\n      swap2\n      pop\n      pop\n      jump\t// out\n        /* \"#utility.yul\":10557:10715   */\n    tag_236:\n        /* \"#utility.yul\":10697:10707   */\n      0x707562206661696c000000000000000000000000000000000000000000000000\n        /* \"#utility.yul\":10693:10694   */\n      0x00\n        /* \"#utility.yul\":10685:10691   */\n      dup3\n        /* \"#utility.yul\":10681:10695   */\n      add\n        /* \"#utility.yul\":10674:10708   */\n      mstore\n        /* \"#utility.yul\":10557:10715   */\n      pop\n      jump\t// out\n        /* \"#utility.yul\":10721:11086   */\n    tag_237:\n        /* \"#utility.yul\":10863:10866   */\n      0x00\n        /* \"#utility.yul\":10884:10950   */\n      tag_369\n        /* \"#utility.yul\":10948:10949   */\n      0x08\n        /* \"#utility.yul\":10943:10946   */\n      dup4\n        /* \"#utility.yul\":10884:10950   */\n      tag_227\n      jump\t// in\n    tag_369:\n        /* \"#utility.yul\":10877:10950   */\n      swap2\n      pop\n        /* \"#utility.yul\":10959:11052   */\n      tag_370\n        /* \"#utility.yul\":11048:11051   */\n      dup3\n        /* \"#utility.yul\":10959:11052   */\n      tag_236\n      jump\t// in\n    tag_370:\n        /* \"#utility.yul\":11077:11079   */\n      0x20\n        /* \"#utility.yul\":11072:11075   */\n      dup3\n        /* \"#utility.yul\":11068:11080   */\n      add\n        /* \"#utility.yul\":11061:11080   */\n      swap1\n      pop\n        /* \"#utility.yul\":10721:11086   */\n      swap2\n      swap1\n      pop\n      jump\t// out\n        /* \"#utility.yul\":11092:11511   */\n    tag_162:\n        /* \"#utility.yul\":11258:11262   */\n      0x00\n        /* \"#utility.yul\":11296:11298   */\n      0x20\n        /* \"#utility.yul\":11285:11294   */\n      dup3\n        /* \"#utility.yul\":11281:11299   */\n      add\n        /* \"#utility.yul\":11273:11299   */\n      swap1\n      pop\n        /* \"#utility.yul\":11345:11354   */\n      dup2\n        /* \"#utility.yul\":11339:11343   */\n      dup2\n        /* \"#utility.yul\":11335:11355   */\n      sub\n        /* \"#utility.yul\":11331:11332   */\n      0x00\n        /* \"#utility.yul\":11320:11329   */\n      dup4\n        /* \"#utility.yul\":11316:11333   */\n      add\n        /* \"#utility.yul\":11309:11356   */\n      mstore\n        /* \"#utility.yul\":11373:11504   */\n      tag_372\n        /* \"#utility.yul\":11499:11503   */\n      dup2\n        /* \"#utility.yul\":11373:11504   */\n      tag_237\n      jump\t// in\n    tag_372:\n        /* \"#utility.yul\":11365:11504   */\n      swap1\n      pop\n        /* \"#utility.yul\":11092:11511   */\n      swap2\n      swap1\n      pop\n      jump\t// out\n        /* \"#utility.yul\":11517:11675   */\n    tag_238:\n        /* \"#utility.yul\":11657:11667   */\n      0x646576206661696c000000000000000000000000000000000000000000000000\n        /* \"#utility.yul\":11653:11654   */\n      0x00\n        /* \"#utility.yul\":11645:11651   */\n      dup3\n        /* \"#utility.yul\":11641:11655   */\n      add\n        /* \"#utility.yul\":11634:11668   */\n      mstore\n        /* \"#utility.yul\":11517:11675   */\n      pop\n      jump\t// out\n        /* \"#utility.yul\":11681:12046   */\n    tag_239:\n        /* \"#utility.yul\":11823:11826   */\n      0x00\n        /* \"#utility.yul\":11844:11910   */\n      tag_375\n        /* \"#utility.yul\":11908:11909   */\n      0x08\n        /* \"#utility.yul\":11903:11906   */\n      dup4\n        /* \"#utility.yul\":11844:11910   */\n      tag_227\n      jump\t// in\n    tag_375:\n        /* \"#utility.yul\":11837:11910   */\n      swap2\n      pop\n        /* \"#utility.yul\":11919:12012   */\n      tag_376\n        /* \"#utility.yul\":12008:12011   */\n      dup3\n        /* \"#utility.yul\":11919:12012   */\n      tag_238\n      jump\t// in\n    tag_376:\n        /* \"#utility.yul\":12037:12039   */\n      0x20\n        /* \"#utility.yul\":12032:12035   */\n      dup3\n        /* \"#utility.yul\":12028:12040   */\n      add\n        /* \"#utility.yul\":12021:12040   */\n      swap1\n      pop\n        /* \"#utility.yul\":11681:12046   */\n      swap2\n      swap1\n      pop\n      jump\t// out\n        /* \"#utility.yul\":12052:12471   */\n    tag_169:\n        /* \"#utility.yul\":12218:12222   */\n      0x00\n        /* \"#utility.yul\":12256:12258   */\n      0x20\n        /* \"#utility.yul\":12245:12254   */\n      dup3\n        /* \"#utility.yul\":12241:12259   */\n      add\n        /* \"#utility.yul\":12233:12259   */\n      swap1\n      pop\n        /* \"#utility.yul\":12305:12314   */\n      dup2\n        /* \"#utility.yul\":12299:12303   */\n      dup2\n        /* \"#utility.yul\":12295:12315   */\n      sub\n        /* \"#utility.yul\":12291:12292   */\n      0x00\n        /* \"#utility.yul\":12280:12289   */\n      dup4\n        /* \"#utility.yul\":12276:12293   */\n      add\n        /* \"#utility.yul\":12269:12316   */\n      mstore\n        /* \"#utility.yul\":12333:12464   */\n      tag_378\n        /* \"#utility.yul\":12459:12463   */\n      dup2\n        /* \"#utility.yul\":12333:12464   */\n      tag_239\n      jump\t// in\n    tag_378:\n        /* \"#utility.yul\":12325:12464   */\n      swap1\n      pop\n        /* \"#utility.yul\":12052:12471   */\n      swap2\n      swap1\n      pop\n      jump\t// out\n        /* \"#utility.yul\":12477:12919   */\n    tag_171:\n        /* \"#utility.yul\":12626:12630   */\n      0x00\n        /* \"#utility.yul\":12664:12666   */\n      0x60\n        /* \"#utility.yul\":12653:12662   */\n      dup3\n        /* \"#utility.yul\":12649:12667   */\n      add\n        /* \"#utility.yul\":12641:12667   */\n      swap1\n      pop\n        /* \"#utility.yul\":12677:12748   */\n      tag_380\n        /* \"#utility.yul\":12745:12746   */\n      0x00\n        /* \"#utility.yul\":12734:12743   */\n      dup4\n        /* \"#utility.yul\":12730:12747   */\n      add\n        /* \"#utility.yul\":12721:12727   */\n      dup7\n        /* \"#utility.yul\":12677:12748   */\n      tag_208\n      jump\t// in\n    tag_380:\n        /* \"#utility.yul\":12758:12830   */\n      tag_381\n        /* \"#utility.yul\":12826:12828   */\n      0x20\n        /* \"#utility.yul\":12815:12824   */\n      dup4\n        /* \"#utility.yul\":12811:12829   */\n      add\n        /* \"#utility.yul\":12802:12808   */\n      dup6\n        /* \"#utility.yul\":12758:12830   */\n      tag_208\n      jump\t// in\n    tag_381:\n        /* \"#utility.yul\":12840:12912   */\n      tag_382\n        /* \"#utility.yul\":12908:12910   */\n      0x40\n        /* \"#utility.yul\":12897:12906   */\n      dup4\n        /* \"#utility.yul\":12893:12911   */\n      add\n        /* \"#utility.yul\":12884:12890   */\n      dup5\n        /* \"#utility.yul\":12840:12912   */\n      tag_208\n      jump\t// in\n    tag_382:\n        /* \"#utility.yul\":12477:12919   */\n      swap5\n      swap4\n      pop\n      pop\n      pop\n      pop\n      jump\t// out\n        /* \"#utility.yul\":12925:13106   */\n    tag_240:\n        /* \"#utility.yul\":13065:13098   */\n      0x5265656e7472616e637947756172643a207265656e7472616e742063616c6c00\n        /* \"#utility.yul\":13061:13062   */\n      0x00\n        /* \"#utility.yul\":13053:13059   */\n      dup3\n        /* \"#utility.yul\":13049:13063   */\n      add\n        /* \"#utility.yul\":13042:13099   */\n      mstore\n        /* \"#utility.yul\":12925:13106   */\n      pop\n      jump\t// out\n        /* \"#utility.yul\":13112:13478   */\n    tag_241:\n        /* \"#utility.yul\":13254:13257   */\n      0x00\n        /* \"#utility.yul\":13275:13342   */\n      tag_385\n        /* \"#utility.yul\":13339:13341   */\n      0x1f\n        /* \"#utility.yul\":13334:13337   */\n      dup4\n        /* \"#utility.yul\":13275:13342   */\n      tag_227\n      jump\t// in\n    tag_385:\n        /* \"#utility.yul\":13268:13342   */\n      swap2\n      pop\n        /* \"#utility.yul\":13351:13444   */\n      tag_386\n        /* \"#utility.yul\":13440:13443   */\n      dup3\n        /* \"#utility.yul\":13351:13444   */\n      tag_240\n      jump\t// in\n    tag_386:\n        /* \"#utility.yul\":13469:13471   */\n      0x20\n        /* \"#utility.yul\":13464:13467   */\n      dup3\n        /* \"#utility.yul\":13460:13472   */\n      add\n        /* \"#utility.yul\":13453:13472   */\n      swap1\n      pop\n        /* \"#utility.yul\":13112:13478   */\n      swap2\n      swap1\n      pop\n      jump\t// out\n        /* \"#utility.yul\":13484:13903   */\n    tag_192:\n        /* \"#utility.yul\":13650:13654   */\n      0x00\n        /* \"#utility.yul\":13688:13690   */\n      0x20\n        /* \"#utility.yul\":13677:13686   */\n      dup3\n        /* \"#utility.yul\":13673:13691   */\n      add\n        /* \"#utility.yul\":13665:13691   */\n      swap1\n      pop\n        /* \"#utility.yul\":13737:13746   */\n      dup2\n        /* \"#utility.yul\":13731:13735   */\n      dup2\n        /* \"#utility.yul\":13727:13747   */\n      sub\n        /* \"#utility.yul\":13723:13724   */\n      0x00\n        /* \"#utility.yul\":13712:13721   */\n      dup4\n        /* \"#utility.yul\":13708:13725   */\n      add\n        /* \"#utility.yul\":13701:13748   */\n      mstore\n        /* \"#utility.yul\":13765:13896   */\n      tag_388\n        /* \"#utility.yul\":13891:13895   */\n      dup2\n        /* \"#utility.yul\":13765:13896   */\n      tag_241\n      jump\t// in\n    tag_388:\n        /* \"#utility.yul\":13757:13896   */\n      swap1\n      pop\n        /* \"#utility.yul\":13484:13903   */\n      swap2\n      swap1\n      pop\n      jump\t// out\n        /* \"#utility.yul\":13909:14241   */\n    tag_198:\n        /* \"#utility.yul\":14030:14034   */\n      0x00\n        /* \"#utility.yul\":14068:14070   */\n      0x40\n        /* \"#utility.yul\":14057:14066   */\n      dup3\n        /* \"#utility.yul\":14053:14071   */\n      add\n        /* \"#utility.yul\":14045:14071   */\n      swap1\n      pop\n        /* \"#utility.yul\":14081:14152   */\n      tag_390\n        /* \"#utility.yul\":14149:14150   */\n      0x00\n        /* \"#utility.yul\":14138:14147   */\n      dup4\n        /* \"#utility.yul\":14134:14151   */\n      add\n        /* \"#utility.yul\":14125:14131   */\n      dup6\n        /* \"#utility.yul\":14081:14152   */\n      tag_217\n      jump\t// in\n    tag_390:\n        /* \"#utility.yul\":14162:14234   */\n      tag_391\n        /* \"#utility.yul\":14230:14232   */\n      0x20\n        /* \"#utility.yul\":14219:14228   */\n      dup4\n        /* \"#utility.yul\":14215:14233   */\n      add\n        /* \"#utility.yul\":14206:14212   */\n      dup5\n        /* \"#utility.yul\":14162:14234   */\n      tag_212\n      jump\t// in\n    tag_391:\n        /* \"#utility.yul\":13909:14241   */\n      swap4\n      swap3\n      pop\n      pop\n      pop\n      jump\t// out\n\n    auxdata: 0xa26469706673582212209111caf337864011d71ea1e6bb80797805e8cb720eea997437474c12e510023364736f6c634300081f0033\n}\n",
				"bytecode": {
					"linkReferences": {},
					"object": "60a060405234801561000f575f5ffd5b50604051611f53380380611f53833981810160405281019061003191906105d6565b600180819055505f73ffffffffffffffffffffffffffffffffffffffff168673ffffffffffffffffffffffffffffffffffffffff16036100a6576040517f08c379a000000000000000000000000000000000000000000000000000000000815260040161009d906106b9565b60405180910390fd5b5f73ffffffffffffffffffffffffffffffffffffffff168573ffffffffffffffffffffffffffffffffffffffff1603610114576040517f08c379a000000000000000000000000000000000000000000000000000000000815260040161010b90610721565b60405180910390fd5b5f73ffffffffffffffffffffffffffffffffffffffff168473ffffffffffffffffffffffffffffffffffffffff1603610182576040517f08c379a000000000000000000000000000000000000000000000000000000000815260040161017990610789565b60405180910390fd5b612710828461019191906107d4565b61ffff16146101d5576040517f08c379a00000000000000000000000000000000000000000000000000000000081526004016101cc90610853565b60405180910390fd5b8373ffffffffffffffffffffffffffffffffffffffff168573ffffffffffffffffffffffffffffffffffffffff1603610243576040517f08c379a000000000000000000000000000000000000000000000000000000000815260040161023a906108bb565b60405180910390fd5b8573ffffffffffffffffffffffffffffffffffffffff1660808173ffffffffffffffffffffffffffffffffffffffff16815250508460025f6101000a81548173ffffffffffffffffffffffffffffffffffffffff021916908373ffffffffffffffffffffffffffffffffffffffff1602179055508360035f6101000a81548173ffffffffffffffffffffffffffffffffffffffff021916908373ffffffffffffffffffffffffffffffffffffffff16021790555082600360146101000a81548161ffff021916908361ffff16021790555081600360166101000a81548161ffff021916908361ffff1602179055506103435f5f1b826103e260201b60201c565b506103747f241ecf16d79d0f8dbfb92cbc07fe17840425976cf0667f022fe9877caa831b08826103e260201b60201c565b506103a57febea61bac29e76544ef1875472aaff98e28d2db11686c8cbef6c2b35dbe32407866103e260201b60201c565b506103d67febea61bac29e76544ef1875472aaff98e28d2db11686c8cbef6c2b35dbe32407856103e260201b60201c565b505050505050506108d9565b5f6103f383836104d760201b60201c565b6104cd5760015f5f8581526020019081526020015f205f015f8473ffffffffffffffffffffffffffffffffffffffff1673ffffffffffffffffffffffffffffffffffffffff1681526020019081526020015f205f6101000a81548160ff02191690831515021790555061046a61053a60201b60201c565b73ffffffffffffffffffffffffffffffffffffffff168273ffffffffffffffffffffffffffffffffffffffff16847f2f8788117e7eff1d82e926ec794901d17c78024a50270940304540a733656f0d60405160405180910390a4600190506104d1565b5f90505b92915050565b5f5f5f8481526020019081526020015f205f015f8373ffffffffffffffffffffffffffffffffffffffff1673ffffffffffffffffffffffffffffffffffffffff1681526020019081526020015f205f9054906101000a900460ff16905092915050565b5f33905090565b5f5ffd5b5f73ffffffffffffffffffffffffffffffffffffffff82169050919050565b5f61056e82610545565b9050919050565b61057e81610564565b8114610588575f5ffd5b50565b5f8151905061059981610575565b92915050565b5f61ffff82169050919050565b6105b58161059f565b81146105bf575f5ffd5b50565b5f815190506105d0816105ac565b92915050565b5f5f5f5f5f5f60c087890312156105f0576105ef610541565b5b5f6105fd89828a0161058b565b965050602061060e89828a0161058b565b955050604061061f89828a0161058b565b945050606061063089828a016105c2565b935050608061064189828a016105c2565b92505060a061065289828a0161058b565b9150509295509295509295565b5f82825260208201905092915050565b7f746f6b656e3d30000000000000000000000000000000000000000000000000005f82015250565b5f6106a360078361065f565b91506106ae8261066f565b602082019050919050565b5f6020820190508181035f8301526106d081610697565b9050919050565b7f7075623d300000000000000000000000000000000000000000000000000000005f82015250565b5f61070b60058361065f565b9150610716826106d7565b602082019050919050565b5f6020820190508181035f830152610738816106ff565b9050919050565b7f646576733d3000000000000000000000000000000000000000000000000000005f82015250565b5f61077360068361065f565b915061077e8261073f565b602082019050919050565b5f6020820190508181035f8301526107a081610767565b9050919050565b7f4e487b71000000000000000000000000000000000000000000000000000000005f52601160045260245ffd5b5f6107de8261059f565b91506107e98361059f565b9250828201905061ffff811115610803576108026107a7565b5b92915050565b7f6270732073756d20213d203130303030000000000000000000000000000000005f82015250565b5f61083d60108361065f565b915061084882610809565b602082019050919050565b5f6020820190508181035f83015261086a81610831565b9050919050565b7f646576733d7075620000000000000000000000000000000000000000000000005f82015250565b5f6108a560088361065f565b91506108b082610871565b602082019050919050565b5f6020820190508181035f8301526108d281610899565b9050919050565b60805161163861091b5f395f818161038f015281816105e3015281816106bf015281816108110152818161092c01528181610a270152610bc701526116385ff3fe608060405234801561000f575f5ffd5b5060043610610109575f3560e01c8063a217fddf116100a0578063e4fc6b6d1161006f578063e4fc6b6d14610291578063e98c09901461029b578063eb09c17c146102b9578063ec87621c146102d7578063fc0c546a146102f557610109565b8063a217fddf1461022f578063aaecfa631461024d578063d547741f1461026b578063db2e21bc1461028757610109565b806336568abe116100dc57806336568abe146101a75780638c72c54e146101c357806391d14854146101e15780639a96f8291461021157610109565b806301ffc9a71461010d57806312065fe01461013d578063248a9ca31461015b5780632f2ff15d1461018b575b5f5ffd5b61012760048036038101906101229190610f41565b610313565b6040516101349190610f86565b60405180910390f35b61014561038c565b6040516101529190610fb7565b60405180910390f35b61017560048036038101906101709190611003565b61042a565b604051610182919061103d565b60405180910390f35b6101a560048036038101906101a091906110b0565b610446565b005b6101c160048036038101906101bc91906110b0565b610468565b005b6101cb6104e3565b6040516101d891906110fd565b60405180910390f35b6101fb60048036038101906101f691906110b0565b610508565b6040516102089190610f86565b60405180910390f35b61021961056b565b60405161022691906110fd565b60405180910390f35b610237610590565b604051610244919061103d565b60405180910390f35b610255610596565b6040516102629190611132565b60405180910390f35b610285600480360381019061028091906110b0565b6105aa565b005b61028f6105cc565b005b6102996107dc565b005b6102a3610b69565b6040516102b09190611132565b60405180910390f35b6102c1610b7d565b6040516102ce919061103d565b60405180910390f35b6102df610ba1565b6040516102ec919061103d565b60405180910390f35b6102fd610bc5565b60405161030a91906111a6565b60405180910390f35b5f7f7965db0b000000000000000000000000000000000000000000000000000000007bffffffffffffffffffffffffffffffffffffffffffffffffffffffff1916827bffffffffffffffffffffffffffffffffffffffffffffffffffffffff19161480610385575061038482610be9565b5b9050919050565b5f7f000000000000000000000000000000000000000000000000000000000000000073ffffffffffffffffffffffffffffffffffffffff166370a08231306040518263ffffffff1660e01b81526004016103e691906110fd565b602060405180830381865afa158015610401573d5f5f3e3d5ffd5b505050506040513d601f19601f8201168201806040525081019061042591906111e9565b905090565b5f5f5f8381526020019081526020015f20600101549050919050565b61044f8261042a565b61045881610c52565b6104628383610c66565b50505050565b610470610d4f565b73ffffffffffffffffffffffffffffffffffffffff168173ffffffffffffffffffffffffffffffffffffffff16146104d4576040517f6697b23200000000000000000000000000000000000000000000000000000000815260040160405180910390fd5b6104de8282610d56565b505050565b60025f9054906101000a900473ffffffffffffffffffffffffffffffffffffffff1681565b5f5f5f8481526020019081526020015f205f015f8373ffffffffffffffffffffffffffffffffffffffff1673ffffffffffffffffffffffffffffffffffffffff1681526020019081526020015f205f9054906101000a900460ff16905092915050565b60035f9054906101000a900473ffffffffffffffffffffffffffffffffffffffff1681565b5f5f1b81565b600360149054906101000a900461ffff1681565b6105b38261042a565b6105bc81610c52565b6105c68383610d56565b50505050565b5f5f1b6105d881610c52565b6105e0610e3f565b5f7f000000000000000000000000000000000000000000000000000000000000000073ffffffffffffffffffffffffffffffffffffffff166370a08231306040518263ffffffff1660e01b815260040161063a91906110fd565b602060405180830381865afa158015610655573d5f5f3e3d5ffd5b505050506040513d601f19601f8201168201806040525081019061067991906111e9565b90505f81116106bd576040517f08c379a00000000000000000000000000000000000000000000000000000000081526004016106b49061126e565b60405180910390fd5b7f000000000000000000000000000000000000000000000000000000000000000073ffffffffffffffffffffffffffffffffffffffff1663a9059cbb33836040518363ffffffff1660e01b815260040161071892919061128c565b6020604051808303815f875af1158015610734573d5f5f3e3d5ffd5b505050506040513d601f19601f8201168201806040525081019061075891906112dd565b610797576040517f08c379a000000000000000000000000000000000000000000000000000000000815260040161078e90611352565b60405180910390fd5b7f5fafa99d0643513820be26656b45130b01e1c03062e1266bf36f88cbd3bd969533826040516107c892919061128c565b60405180910390a1506107d9610e8e565b50565b6107e4610e3f565b7febea61bac29e76544ef1875472aaff98e28d2db11686c8cbef6c2b35dbe3240761080e81610c52565b5f7f000000000000000000000000000000000000000000000000000000000000000073ffffffffffffffffffffffffffffffffffffffff166370a08231306040518263ffffffff1660e01b815260040161086891906110fd565b602060405180830381865afa158015610883573d5f5f3e3d5ffd5b505050506040513d601f19601f820116820180604052508101906108a791906111e9565b90505f81116108eb576040517f08c379a00000000000000000000000000000000000000000000000000000000081526004016108e29061126e565b60405180910390fd5b5f612710600360149054906101000a900461ffff1661ffff168361090f919061139d565b610919919061140b565b90505f8183610928919061143b565b90507f000000000000000000000000000000000000000000000000000000000000000073ffffffffffffffffffffffffffffffffffffffff1663a9059cbb60025f9054906101000a900473ffffffffffffffffffffffffffffffffffffffff16846040518363ffffffff1660e01b81526004016109a692919061128c565b6020604051808303815f875af11580156109c2573d5f5f3e3d5ffd5b505050506040513d601f19601f820116820180604052508101906109e691906112dd565b610a25576040517f08c379a0000000000000000000000000000000000000000000000000000000008152600401610a1c906114b8565b60405180910390fd5b7f000000000000000000000000000000000000000000000000000000000000000073ffffffffffffffffffffffffffffffffffffffff1663a9059cbb60035f9054906101000a900473ffffffffffffffffffffffffffffffffffffffff16836040518363ffffffff1660e01b8152600401610aa192919061128c565b6020604051808303815f875af1158015610abd573d5f5f3e3d5ffd5b505050506040513d601f19601f82011682018060405250810190610ae191906112dd565b610b20576040517f08c379a0000000000000000000000000000000000000000000000000000000008152600401610b1790611520565b60405180910390fd5b7fc5d35a65af09b3042394b742529d10f7fbf9a37294d6b13e4d63d06f9909a15b838383604051610b539392919061153e565b60405180910390a150505050610b67610e8e565b565b600360169054906101000a900461ffff1681565b7febea61bac29e76544ef1875472aaff98e28d2db11686c8cbef6c2b35dbe3240781565b7f241ecf16d79d0f8dbfb92cbc07fe17840425976cf0667f022fe9877caa831b0881565b7f000000000000000000000000000000000000000000000000000000000000000081565b5f7f01ffc9a7000000000000000000000000000000000000000000000000000000007bffffffffffffffffffffffffffffffffffffffffffffffffffffffff1916827bffffffffffffffffffffffffffffffffffffffffffffffffffffffff1916149050919050565b610c6381610c5e610d4f565b610e97565b50565b5f610c718383610508565b610d455760015f5f8581526020019081526020015f205f015f8473ffffffffffffffffffffffffffffffffffffffff1673ffffffffffffffffffffffffffffffffffffffff1681526020019081526020015f205f6101000a81548160ff021916908315150217905550610ce2610d4f565b73ffffffffffffffffffffffffffffffffffffffff168273ffffffffffffffffffffffffffffffffffffffff16847f2f8788117e7eff1d82e926ec794901d17c78024a50270940304540a733656f0d60405160405180910390a460019050610d49565b5f90505b92915050565b5f33905090565b5f610d618383610508565b15610e35575f5f5f8581526020019081526020015f205f015f8473ffffffffffffffffffffffffffffffffffffffff1673ffffffffffffffffffffffffffffffffffffffff1681526020019081526020015f205f6101000a81548160ff021916908315150217905550610dd2610d4f565b73ffffffffffffffffffffffffffffffffffffffff168273ffffffffffffffffffffffffffffffffffffffff16847ff6391f5c32d9c69d2a47ea670b442974b53935d1edc7fd64eb21e047a839171b60405160405180910390a460019050610e39565b5f90505b92915050565b600260015403610e84576040517f08c379a0000000000000000000000000000000000000000000000000000000008152600401610e7b906115bd565b60405180910390fd5b6002600181905550565b60018081905550565b610ea18282610508565b610ee45780826040517fe2517d3f000000000000000000000000000000000000000000000000000000008152600401610edb9291906115db565b60405180910390fd5b5050565b5f5ffd5b5f7fffffffff0000000000000000000000000000000000000000000000000000000082169050919050565b610f2081610eec565b8114610f2a575f5ffd5b50565b5f81359050610f3b81610f17565b92915050565b5f60208284031215610f5657610f55610ee8565b5b5f610f6384828501610f2d565b91505092915050565b5f8115159050919050565b610f8081610f6c565b82525050565b5f602082019050610f995f830184610f77565b92915050565b5f819050919050565b610fb181610f9f565b82525050565b5f602082019050610fca5f830184610fa8565b92915050565b5f819050919050565b610fe281610fd0565b8114610fec575f5ffd5b50565b5f81359050610ffd81610fd9565b92915050565b5f6020828403121561101857611017610ee8565b5b5f61102584828501610fef565b91505092915050565b61103781610fd0565b82525050565b5f6020820190506110505f83018461102e565b92915050565b5f73ffffffffffffffffffffffffffffffffffffffff82169050919050565b5f61107f82611056565b9050919050565b61108f81611075565b8114611099575f5ffd5b50565b5f813590506110aa81611086565b92915050565b5f5f604083850312156110c6576110c5610ee8565b5b5f6110d385828601610fef565b92505060206110e48582860161109c565b9150509250929050565b6110f781611075565b82525050565b5f6020820190506111105f8301846110ee565b92915050565b5f61ffff82169050919050565b61112c81611116565b82525050565b5f6020820190506111455f830184611123565b92915050565b5f819050919050565b5f61116e61116961116484611056565b61114b565b611056565b9050919050565b5f61117f82611154565b9050919050565b5f61119082611175565b9050919050565b6111a081611186565b82525050565b5f6020820190506111b95f830184611197565b92915050565b6111c881610f9f565b81146111d2575f5ffd5b50565b5f815190506111e3816111bf565b92915050565b5f602082840312156111fe576111fd610ee8565b5b5f61120b848285016111d5565b91505092915050565b5f82825260208201905092915050565b7f6e6f20746f6b656e7300000000000000000000000000000000000000000000005f82015250565b5f611258600983611214565b915061126382611224565b602082019050919050565b5f6020820190508181035f8301526112858161124c565b9050919050565b5f60408201905061129f5f8301856110ee565b6112ac6020830184610fa8565b9392505050565b6112bc81610f6c565b81146112c6575f5ffd5b50565b5f815190506112d7816112b3565b92915050565b5f602082840312156112f2576112f1610ee8565b5b5f6112ff848285016112c9565b91505092915050565b7f7769746864726177206661696c000000000000000000000000000000000000005f82015250565b5f61133c600d83611214565b915061134782611308565b602082019050919050565b5f6020820190508181035f83015261136981611330565b9050919050565b7f4e487b71000000000000000000000000000000000000000000000000000000005f52601160045260245ffd5b5f6113a782610f9f565b91506113b283610f9f565b92508282026113c081610f9f565b915082820484148315176113d7576113d6611370565b5b5092915050565b7f4e487b71000000000000000000000000000000000000000000000000000000005f52601260045260245ffd5b5f61141582610f9f565b915061142083610f9f565b9250826114305761142f6113de565b5b828204905092915050565b5f61144582610f9f565b915061145083610f9f565b925082820390508181111561146857611467611370565b5b92915050565b7f707562206661696c0000000000000000000000000000000000000000000000005f82015250565b5f6114a2600883611214565b91506114ad8261146e565b602082019050919050565b5f6020820190508181035f8301526114cf81611496565b9050919050565b7f646576206661696c0000000000000000000000000000000000000000000000005f82015250565b5f61150a600883611214565b9150611515826114d6565b602082019050919050565b5f6020820190508181035f830152611537816114fe565b9050919050565b5f6060820190506115515f830186610fa8565b61155e6020830185610fa8565b61156b6040830184610fa8565b949350505050565b7f5265656e7472616e637947756172643a207265656e7472616e742063616c6c005f82015250565b5f6115a7601f83611214565b91506115b282611573565b602082019050919050565b5f6020820190508181035f8301526115d48161159b565b9050919050565b5f6040820190506115ee5f8301856110ee565b6115fb602083018461102e565b939250505056fea26469706673582212209111caf337864011d71ea1e6bb80797805e8cb720eea997437474c12e510023364736f6c634300081f0033",
					"opcodes": "PUSH1 0xA0 PUSH1 0x40 MSTORE CALLVALUE DUP1 ISZERO PUSH2 0xF JUMPI PUSH0 PUSH0 REVERT JUMPDEST POP PUSH1 0x40 MLOAD PUSH2 0x1F53 CODESIZE SUB DUP1 PUSH2 0x1F53 DUP4 CODECOPY DUP2 DUP2 ADD PUSH1 0x40 MSTORE DUP2 ADD SWAP1 PUSH2 0x31 SWAP2 SWAP1 PUSH2 0x5D6 JUMP JUMPDEST PUSH1 0x1 DUP1 DUP2 SWAP1 SSTORE POP PUSH0 PUSH20 0xFFFFFFFFFFFFFFFFFFFFFFFFFFFFFFFFFFFFFFFF AND DUP7 PUSH20 0xFFFFFFFFFFFFFFFFFFFFFFFFFFFFFFFFFFFFFFFF AND SUB PUSH2 0xA6 JUMPI PUSH1 0x40 MLOAD PUSH32 0x8C379A000000000000000000000000000000000000000000000000000000000 DUP2 MSTORE PUSH1 0x4 ADD PUSH2 0x9D SWAP1 PUSH2 0x6B9 JUMP JUMPDEST PUSH1 0x40 MLOAD DUP1 SWAP2 SUB SWAP1 REVERT JUMPDEST PUSH0 PUSH20 0xFFFFFFFFFFFFFFFFFFFFFFFFFFFFFFFFFFFFFFFF AND DUP6 PUSH20 0xFFFFFFFFFFFFFFFFFFFFFFFFFFFFFFFFFFFFFFFF AND SUB PUSH2 0x114 JUMPI PUSH1 0x40 MLOAD PUSH32 0x8C379A000000000000000000000000000000000000000000000000000000000 DUP2 MSTORE PUSH1 0x4 ADD PUSH2 0x10B SWAP1 PUSH2 0x721 JUMP JUMPDEST PUSH1 0x40 MLOAD DUP1 SWAP2 SUB SWAP1 REVERT JUMPDEST PUSH0 PUSH20 0xFFFFFFFFFFFFFFFFFFFFFFFFFFFFFFFFFFFFFFFF AND DUP5 PUSH20 0xFFFFFFFFFFFFFFFFFFFFFFFFFFFFFFFFFFFFFFFF AND SUB PUSH2 0x182 JUMPI PUSH1 0x40 MLOAD PUSH32 0x8C379A000000000000000000000000000000000000000000000000000000000 DUP2 MSTORE PUSH1 0x4 ADD PUSH2 0x179 SWAP1 PUSH2 0x789 JUMP JUMPDEST PUSH1 0x40 MLOAD DUP1 SWAP2 SUB SWAP1 REVERT JUMPDEST PUSH2 0x2710 DUP3 DUP5 PUSH2 0x191 SWAP2 SWAP1 PUSH2 0x7D4 JUMP JUMPDEST PUSH2 0xFFFF AND EQ PUSH2 0x1D5 JUMPI PUSH1 0x40 MLOAD PUSH32 0x8C379A000000000000000000000000000000000000000000000000000000000 DUP2 MSTORE PUSH1 0x4 ADD PUSH2 0x1CC SWAP1 PUSH2 0x853 JUMP JUMPDEST PUSH1 0x40 MLOAD DUP1 SWAP2 SUB SWAP1 REVERT JUMPDEST DUP4 PUSH20 0xFFFFFFFFFFFFFFFFFFFFFFFFFFFFFFFFFFFFFFFF AND DUP6 PUSH20 0xFFFFFFFFFFFFFFFFFFFFFFFFFFFFFFFFFFFFFFFF AND SUB PUSH2 0x243 JUMPI PUSH1 0x40 MLOAD PUSH32 0x8C379A000000000000000000000000000000000000000000000000000000000 DUP2 MSTORE PUSH1 0x4 ADD PUSH2 0x23A SWAP1 PUSH2 0x8BB JUMP JUMPDEST PUSH1 0x40 MLOAD DUP1 SWAP2 SUB SWAP1 REVERT JUMPDEST DUP6 PUSH20 0xFFFFFFFFFFFFFFFFFFFFFFFFFFFFFFFFFFFFFFFF AND PUSH1 0x80 DUP2 PUSH20 0xFFFFFFFFFFFFFFFFFFFFFFFFFFFFFFFFFFFFFFFF AND DUP2 MSTORE POP POP DUP5 PUSH1 0x2 PUSH0 PUSH2 0x100 EXP DUP2 SLOAD DUP2 PUSH20 0xFFFFFFFFFFFFFFFFFFFFFFFFFFFFFFFFFFFFFFFF MUL NOT AND SWAP1 DUP4 PUSH20 0xFFFFFFFFFFFFFFFFFFFFFFFFFFFFFFFFFFFFFFFF AND MUL OR SWAP1 SSTORE POP DUP4 PUSH1 0x3 PUSH0 PUSH2 0x100 EXP DUP2 SLOAD DUP2 PUSH20 0xFFFFFFFFFFFFFFFFFFFFFFFFFFFFFFFFFFFFFFFF MUL NOT AND SWAP1 DUP4 PUSH20 0xFFFFFFFFFFFFFFFFFFFFFFFFFFFFFFFFFFFFFFFF AND MUL OR SWAP1 SSTORE POP DUP3 PUSH1 0x3 PUSH1 0x14 PUSH2 0x100 EXP DUP2 SLOAD DUP2 PUSH2 0xFFFF MUL NOT AND SWAP1 DUP4 PUSH2 0xFFFF AND MUL OR SWAP1 SSTORE POP DUP2 PUSH1 0x3 PUSH1 0x16 PUSH2 0x100 EXP DUP2 SLOAD DUP2 PUSH2 0xFFFF MUL NOT AND SWAP1 DUP4 PUSH2 0xFFFF AND MUL OR SWAP1 SSTORE POP PUSH2 0x343 PUSH0 PUSH0 SHL DUP3 PUSH2 0x3E2 PUSH1 0x20 SHL PUSH1 0x20 SHR JUMP JUMPDEST POP PUSH2 0x374 PUSH32 0x241ECF16D79D0F8DBFB92CBC07FE17840425976CF0667F022FE9877CAA831B08 DUP3 PUSH2 0x3E2 PUSH1 0x20 SHL PUSH1 0x20 SHR JUMP JUMPDEST POP PUSH2 0x3A5 PUSH32 0xEBEA61BAC29E76544EF1875472AAFF98E28D2DB11686C8CBEF6C2B35DBE32407 DUP7 PUSH2 0x3E2 PUSH1 0x20 SHL PUSH1 0x20 SHR JUMP JUMPDEST POP PUSH2 0x3D6 PUSH32 0xEBEA61BAC29E76544EF1875472AAFF98E28D2DB11686C8CBEF6C2B35DBE32407 DUP6 PUSH2 0x3E2 PUSH1 0x20 SHL PUSH1 0x20 SHR JUMP JUMPDEST POP POP POP POP POP POP POP PUSH2 0x8D9 JUMP JUMPDEST PUSH0 PUSH2 0x3F3 DUP4 DUP4 PUSH2 0x4D7 PUSH1 0x20 SHL PUSH1 0x20 SHR JUMP JUMPDEST PUSH2 0x4CD JUMPI PUSH1 0x1 PUSH0 PUSH0 DUP6 DUP2 MSTORE PUSH1 0x20 ADD SWAP1 DUP2 MSTORE PUSH1 0x20 ADD PUSH0 KECCAK256 PUSH0 ADD PUSH0 DUP5 PUSH20 0xFFFFFFFFFFFFFFFFFFFFFFFFFFFFFFFFFFFFFFFF AND PUSH20 0xFFFFFFFFFFFFFFFFFFFFFFFFFFFFFFFFFFFFFFFF AND DUP2 MSTORE PUSH1 0x20 ADD SWAP1 DUP2 MSTORE PUSH1 0x20 ADD PUSH0 KECCAK256 PUSH0 PUSH2 0x100 EXP DUP2 SLOAD DUP2 PUSH1 0xFF MUL NOT AND SWAP1 DUP4 ISZERO ISZERO MUL OR SWAP1 SSTORE POP PUSH2 0x46A PUSH2 0x53A PUSH1 0x20 SHL PUSH1 0x20 SHR JUMP JUMPDEST PUSH20 0xFFFFFFFFFFFFFFFFFFFFFFFFFFFFFFFFFFFFFFFF AND DUP3 PUSH20 0xFFFFFFFFFFFFFFFFFFFFFFFFFFFFFFFFFFFFFFFF AND DUP5 PUSH32 0x2F8788117E7EFF1D82E926EC794901D17C78024A50270940304540A733656F0D PUSH1 0x40 MLOAD PUSH1 0x40 MLOAD DUP1 SWAP2 SUB SWAP1 LOG4 PUSH1 0x1 SWAP1 POP PUSH2 0x4D1 JUMP JUMPDEST PUSH0 SWAP1 POP JUMPDEST SWAP3 SWAP2 POP POP JUMP JUMPDEST PUSH0 PUSH0 PUSH0 DUP5 DUP2 MSTORE PUSH1 0x20 ADD SWAP1 DUP2 MSTORE PUSH1 0x20 ADD PUSH0 KECCAK256 PUSH0 ADD PUSH0 DUP4 PUSH20 0xFFFFFFFFFFFFFFFFFFFFFFFFFFFFFFFFFFFFFFFF AND PUSH20 0xFFFFFFFFFFFFFFFFFFFFFFFFFFFFFFFFFFFFFFFF AND DUP2 MSTORE PUSH1 0x20 ADD SWAP1 DUP2 MSTORE PUSH1 0x20 ADD PUSH0 KECCAK256 PUSH0 SWAP1 SLOAD SWAP1 PUSH2 0x100 EXP SWAP1 DIV PUSH1 0xFF AND SWAP1 POP SWAP3 SWAP2 POP POP JUMP JUMPDEST PUSH0 CALLER SWAP1 POP SWAP1 JUMP JUMPDEST PUSH0 PUSH0 REVERT JUMPDEST PUSH0 PUSH20 0xFFFFFFFFFFFFFFFFFFFFFFFFFFFFFFFFFFFFFFFF DUP3 AND SWAP1 POP SWAP2 SWAP1 POP JUMP JUMPDEST PUSH0 PUSH2 0x56E DUP3 PUSH2 0x545 JUMP JUMPDEST SWAP1 POP SWAP2 SWAP1 POP JUMP JUMPDEST PUSH2 0x57E DUP2 PUSH2 0x564 JUMP JUMPDEST DUP2 EQ PUSH2 0x588 JUMPI PUSH0 PUSH0 REVERT JUMPDEST POP JUMP JUMPDEST PUSH0 DUP2 MLOAD SWAP1 POP PUSH2 0x599 DUP2 PUSH2 0x575 JUMP JUMPDEST SWAP3 SWAP2 POP POP JUMP JUMPDEST PUSH0 PUSH2 0xFFFF DUP3 AND SWAP1 POP SWAP2 SWAP1 POP JUMP JUMPDEST PUSH2 0x5B5 DUP2 PUSH2 0x59F JUMP JUMPDEST DUP2 EQ PUSH2 0x5BF JUMPI PUSH0 PUSH0 REVERT JUMPDEST POP JUMP JUMPDEST PUSH0 DUP2 MLOAD SWAP1 POP PUSH2 0x5D0 DUP2 PUSH2 0x5AC JUMP JUMPDEST SWAP3 SWAP2 POP POP JUMP JUMPDEST PUSH0 PUSH0 PUSH0 PUSH0 PUSH0 PUSH0 PUSH1 0xC0 DUP8 DUP10 SUB SLT ISZERO PUSH2 0x5F0 JUMPI PUSH2 0x5EF PUSH2 0x541 JUMP JUMPDEST JUMPDEST PUSH0 PUSH2 0x5FD DUP10 DUP3 DUP11 ADD PUSH2 0x58B JUMP JUMPDEST SWAP7 POP POP PUSH1 0x20 PUSH2 0x60E DUP10 DUP3 DUP11 ADD PUSH2 0x58B JUMP JUMPDEST SWAP6 POP POP PUSH1 0x40 PUSH2 0x61F DUP10 DUP3 DUP11 ADD PUSH2 0x58B JUMP JUMPDEST SWAP5 POP POP PUSH1 0x60 PUSH2 0x630 DUP10 DUP3 DUP11 ADD PUSH2 0x5C2 JUMP JUMPDEST SWAP4 POP POP PUSH1 0x80 PUSH2 0x641 DUP10 DUP3 DUP11 ADD PUSH2 0x5C2 JUMP JUMPDEST SWAP3 POP POP PUSH1 0xA0 PUSH2 0x652 DUP10 DUP3 DUP11 ADD PUSH2 0x58B JUMP JUMPDEST SWAP2 POP POP SWAP3 SWAP6 POP SWAP3 SWAP6 POP SWAP3 SWAP6 JUMP JUMPDEST PUSH0 DUP3 DUP3 MSTORE PUSH1 0x20 DUP3 ADD SWAP1 POP SWAP3 SWAP2 POP POP JUMP JUMPDEST PUSH32 0x746F6B656E3D3000000000000000000000000000000000000000000000000000 PUSH0 DUP3 ADD MSTORE POP JUMP JUMPDEST PUSH0 PUSH2 0x6A3 PUSH1 0x7 DUP4 PUSH2 0x65F JUMP JUMPDEST SWAP2 POP PUSH2 0x6AE DUP3 PUSH2 0x66F JUMP JUMPDEST PUSH1 0x20 DUP3 ADD SWAP1 POP SWAP2 SWAP1 POP JUMP JUMPDEST PUSH0 PUSH1 0x20 DUP3 ADD SWAP1 POP DUP2 DUP2 SUB PUSH0 DUP4 ADD MSTORE PUSH2 0x6D0 DUP2 PUSH2 0x697 JUMP JUMPDEST SWAP1 POP SWAP2 SWAP1 POP JUMP JUMPDEST PUSH32 0x7075623D30000000000000000000000000000000000000000000000000000000 PUSH0 DUP3 ADD MSTORE POP JUMP JUMPDEST PUSH0 PUSH2 0x70B PUSH1 0x5 DUP4 PUSH2 0x65F JUMP JUMPDEST SWAP2 POP PUSH2 0x716 DUP3 PUSH2 0x6D7 JUMP JUMPDEST PUSH1 0x20 DUP3 ADD SWAP1 POP SWAP2 SWAP1 POP JUMP JUMPDEST PUSH0 PUSH1 0x20 DUP3 ADD SWAP1 POP DUP2 DUP2 SUB PUSH0 DUP4 ADD MSTORE PUSH2 0x738 DUP2 PUSH2 0x6FF JUMP JUMPDEST SWAP1 POP SWAP2 SWAP1 POP JUMP JUMPDEST PUSH32 0x646576733D300000000000000000000000000000000000000000000000000000 PUSH0 DUP3 ADD MSTORE POP JUMP JUMPDEST PUSH0 PUSH2 0x773 PUSH1 0x6 DUP4 PUSH2 0x65F JUMP JUMPDEST SWAP2 POP PUSH2 0x77E DUP3 PUSH2 0x73F JUMP JUMPDEST PUSH1 0x20 DUP3 ADD SWAP1 POP SWAP2 SWAP1 POP JUMP JUMPDEST PUSH0 PUSH1 0x20 DUP3 ADD SWAP1 POP DUP2 DUP2 SUB PUSH0 DUP4 ADD MSTORE PUSH2 0x7A0 DUP2 PUSH2 0x767 JUMP JUMPDEST SWAP1 POP SWAP2 SWAP1 POP JUMP JUMPDEST PUSH32 0x4E487B7100000000000000000000000000000000000000000000000000000000 PUSH0 MSTORE PUSH1 0x11 PUSH1 0x4 MSTORE PUSH1 0x24 PUSH0 REVERT JUMPDEST PUSH0 PUSH2 0x7DE DUP3 PUSH2 0x59F JUMP JUMPDEST SWAP2 POP PUSH2 0x7E9 DUP4 PUSH2 0x59F JUMP JUMPDEST SWAP3 POP DUP3 DUP3 ADD SWAP1 POP PUSH2 0xFFFF DUP2 GT ISZERO PUSH2 0x803 JUMPI PUSH2 0x802 PUSH2 0x7A7 JUMP JUMPDEST JUMPDEST SWAP3 SWAP2 POP POP JUMP JUMPDEST PUSH32 0x6270732073756D20213D20313030303000000000000000000000000000000000 PUSH0 DUP3 ADD MSTORE POP JUMP JUMPDEST PUSH0 PUSH2 0x83D PUSH1 0x10 DUP4 PUSH2 0x65F JUMP JUMPDEST SWAP2 POP PUSH2 0x848 DUP3 PUSH2 0x809 JUMP JUMPDEST PUSH1 0x20 DUP3 ADD SWAP1 POP SWAP2 SWAP1 POP JUMP JUMPDEST PUSH0 PUSH1 0x20 DUP3 ADD SWAP1 POP DUP2 DUP2 SUB PUSH0 DUP4 ADD MSTORE PUSH2 0x86A DUP2 PUSH2 0x831 JUMP JUMPDEST SWAP1 POP SWAP2 SWAP1 POP JUMP JUMPDEST PUSH32 0x646576733D707562000000000000000000000000000000000000000000000000 PUSH0 DUP3 ADD MSTORE POP JUMP JUMPDEST PUSH0 PUSH2 0x8A5 PUSH1 0x8 DUP4 PUSH2 0x65F JUMP JUMPDEST SWAP2 POP PUSH2 0x8B0 DUP3 PUSH2 0x871 JUMP JUMPDEST PUSH1 0x20 DUP3 ADD SWAP1 POP SWAP2 SWAP1 POP JUMP JUMPDEST PUSH0 PUSH1 0x20 DUP3 ADD SWAP1 POP DUP2 DUP2 SUB PUSH0 DUP4 ADD MSTORE PUSH2 0x8D2 DUP2 PUSH2 0x899 JUMP JUMPDEST SWAP1 POP SWAP2 SWAP1 POP JUMP JUMPDEST PUSH1 0x80 MLOAD PUSH2 0x1638 PUSH2 0x91B PUSH0 CODECOPY PUSH0 DUP2 DUP2 PUSH2 0x38F ADD MSTORE DUP2 DUP2 PUSH2 0x5E3 ADD MSTORE DUP2 DUP2 PUSH2 0x6BF ADD MSTORE DUP2 DUP2 PUSH2 0x811 ADD MSTORE DUP2 DUP2 PUSH2 0x92C ADD MSTORE DUP2 DUP2 PUSH2 0xA27 ADD MSTORE PUSH2 0xBC7 ADD MSTORE PUSH2 0x1638 PUSH0 RETURN INVALID PUSH1 0x80 PUSH1 0x40 MSTORE CALLVALUE DUP1 ISZERO PUSH2 0xF JUMPI PUSH0 PUSH0 REVERT JUMPDEST POP PUSH1 0x4 CALLDATASIZE LT PUSH2 0x109 JUMPI PUSH0 CALLDATALOAD PUSH1 0xE0 SHR DUP1 PUSH4 0xA217FDDF GT PUSH2 0xA0 JUMPI DUP1 PUSH4 0xE4FC6B6D GT PUSH2 0x6F JUMPI DUP1 PUSH4 0xE4FC6B6D EQ PUSH2 0x291 JUMPI DUP1 PUSH4 0xE98C0990 EQ PUSH2 0x29B JUMPI DUP1 PUSH4 0xEB09C17C EQ PUSH2 0x2B9 JUMPI DUP1 PUSH4 0xEC87621C EQ PUSH2 0x2D7 JUMPI DUP1 PUSH4 0xFC0C546A EQ PUSH2 0x2F5 JUMPI PUSH2 0x109 JUMP JUMPDEST DUP1 PUSH4 0xA217FDDF EQ PUSH2 0x22F JUMPI DUP1 PUSH4 0xAAECFA63 EQ PUSH2 0x24D JUMPI DUP1 PUSH4 0xD547741F EQ PUSH2 0x26B JUMPI DUP1 PUSH4 0xDB2E21BC EQ PUSH2 0x287 JUMPI PUSH2 0x109 JUMP JUMPDEST DUP1 PUSH4 0x36568ABE GT PUSH2 0xDC JUMPI DUP1 PUSH4 0x36568ABE EQ PUSH2 0x1A7 JUMPI DUP1 PUSH4 0x8C72C54E EQ PUSH2 0x1C3 JUMPI DUP1 PUSH4 0x91D14854 EQ PUSH2 0x1E1 JUMPI DUP1 PUSH4 0x9A96F829 EQ PUSH2 0x211 JUMPI PUSH2 0x109 JUMP JUMPDEST DUP1 PUSH4 0x1FFC9A7 EQ PUSH2 0x10D JUMPI DUP1 PUSH4 0x12065FE0 EQ PUSH2 0x13D JUMPI DUP1 PUSH4 0x248A9CA3 EQ PUSH2 0x15B JUMPI DUP1 PUSH4 0x2F2FF15D EQ PUSH2 0x18B JUMPI JUMPDEST PUSH0 PUSH0 REVERT JUMPDEST PUSH2 0x127 PUSH1 0x4 DUP1 CALLDATASIZE SUB DUP2 ADD SWAP1 PUSH2 0x122 SWAP2 SWAP1 PUSH2 0xF41 JUMP JUMPDEST PUSH2 0x313 JUMP JUMPDEST PUSH1 0x40 MLOAD PUSH2 0x134 SWAP2 SWAP1 PUSH2 0xF86 JUMP JUMPDEST PUSH1 0x40 MLOAD DUP1 SWAP2 SUB SWAP1 RETURN JUMPDEST PUSH2 0x145 PUSH2 0x38C JUMP JUMPDEST PUSH1 0x40 MLOAD PUSH2 0x152 SWAP2 SWAP1 PUSH2 0xFB7 JUMP JUMPDEST PUSH1 0x40 MLOAD DUP1 SWAP2 SUB SWAP1 RETURN JUMPDEST PUSH2 0x175 PUSH1 0x4 DUP1 CALLDATASIZE SUB DUP2 ADD SWAP1 PUSH2 0x170 SWAP2 SWAP1 PUSH2 0x1003 JUMP JUMPDEST PUSH2 0x42A JUMP JUMPDEST PUSH1 0x40 MLOAD PUSH2 0x182 SWAP2 SWAP1 PUSH2 0x103D JUMP JUMPDEST PUSH1 0x40 MLOAD DUP1 SWAP2 SUB SWAP1 RETURN JUMPDEST PUSH2 0x1A5 PUSH1 0x4 DUP1 CALLDATASIZE SUB DUP2 ADD SWAP1 PUSH2 0x1A0 SWAP2 SWAP1 PUSH2 0x10B0 JUMP JUMPDEST PUSH2 0x446 JUMP JUMPDEST STOP JUMPDEST PUSH2 0x1C1 PUSH1 0x4 DUP1 CALLDATASIZE SUB DUP2 ADD SWAP1 PUSH2 0x1BC SWAP2 SWAP1 PUSH2 0x10B0 JUMP JUMPDEST PUSH2 0x468 JUMP JUMPDEST STOP JUMPDEST PUSH2 0x1CB PUSH2 0x4E3 JUMP JUMPDEST PUSH1 0x40 MLOAD PUSH2 0x1D8 SWAP2 SWAP1 PUSH2 0x10FD JUMP JUMPDEST PUSH1 0x40 MLOAD DUP1 SWAP2 SUB SWAP1 RETURN JUMPDEST PUSH2 0x1FB PUSH1 0x4 DUP1 CALLDATASIZE SUB DUP2 ADD SWAP1 PUSH2 0x1F6 SWAP2 SWAP1 PUSH2 0x10B0 JUMP JUMPDEST PUSH2 0x508 JUMP JUMPDEST PUSH1 0x40 MLOAD PUSH2 0x208 SWAP2 SWAP1 PUSH2 0xF86 JUMP JUMPDEST PUSH1 0x40 MLOAD DUP1 SWAP2 SUB SWAP1 RETURN JUMPDEST PUSH2 0x219 PUSH2 0x56B JUMP JUMPDEST PUSH1 0x40 MLOAD PUSH2 0x226 SWAP2 SWAP1 PUSH2 0x10FD JUMP JUMPDEST PUSH1 0x40 MLOAD DUP1 SWAP2 SUB SWAP1 RETURN JUMPDEST PUSH2 0x237 PUSH2 0x590 JUMP JUMPDEST PUSH1 0x40 MLOAD PUSH2 0x244 SWAP2 SWAP1 PUSH2 0x103D JUMP JUMPDEST PUSH1 0x40 MLOAD DUP1 SWAP2 SUB SWAP1 RETURN JUMPDEST PUSH2 0x255 PUSH2 0x596 JUMP JUMPDEST PUSH1 0x40 MLOAD PUSH2 0x262 SWAP2 SWAP1 PUSH2 0x1132 JUMP JUMPDEST PUSH1 0x40 MLOAD DUP1 SWAP2 SUB SWAP1 RETURN JUMPDEST PUSH2 0x285 PUSH1 0x4 DUP1 CALLDATASIZE SUB DUP2 ADD SWAP1 PUSH2 0x280 SWAP2 SWAP1 PUSH2 0x10B0 JUMP JUMPDEST PUSH2 0x5AA JUMP JUMPDEST STOP JUMPDEST PUSH2 0x28F PUSH2 0x5CC JUMP JUMPDEST STOP JUMPDEST PUSH2 0x299 PUSH2 0x7DC JUMP JUMPDEST STOP JUMPDEST PUSH2 0x2A3 PUSH2 0xB69 JUMP JUMPDEST PUSH1 0x40 MLOAD PUSH2 0x2B0 SWAP2 SWAP1 PUSH2 0x1132 JUMP JUMPDEST PUSH1 0x40 MLOAD DUP1 SWAP2 SUB SWAP1 RETURN JUMPDEST PUSH2 0x2C1 PUSH2 0xB7D JUMP JUMPDEST PUSH1 0x40 MLOAD PUSH2 0x2CE SWAP2 SWAP1 PUSH2 0x103D JUMP JUMPDEST PUSH1 0x40 MLOAD DUP1 SWAP2 SUB SWAP1 RETURN JUMPDEST PUSH2 0x2DF PUSH2 0xBA1 JUMP JUMPDEST PUSH1 0x40 MLOAD PUSH2 0x2EC SWAP2 SWAP1 PUSH2 0x103D JUMP JUMPDEST PUSH1 0x40 MLOAD DUP1 SWAP2 SUB SWAP1 RETURN JUMPDEST PUSH2 0x2FD PUSH2 0xBC5 JUMP JUMPDEST PUSH1 0x40 MLOAD PUSH2 0x30A SWAP2 SWAP1 PUSH2 0x11A6 JUMP JUMPDEST PUSH1 0x40 MLOAD DUP1 SWAP2 SUB SWAP1 RETURN JUMPDEST PUSH0 PUSH32 0x7965DB0B00000000000000000000000000000000000000000000000000000000 PUSH28 0xFFFFFFFFFFFFFFFFFFFFFFFFFFFFFFFFFFFFFFFFFFFFFFFFFFFFFFFF NOT AND DUP3 PUSH28 0xFFFFFFFFFFFFFFFFFFFFFFFFFFFFFFFFFFFFFFFFFFFFFFFFFFFFFFFF NOT AND EQ DUP1 PUSH2 0x385 JUMPI POP PUSH2 0x384 DUP3 PUSH2 0xBE9 JUMP JUMPDEST JUMPDEST SWAP1 POP SWAP2 SWAP1 POP JUMP JUMPDEST PUSH0 PUSH32 0x0 PUSH20 0xFFFFFFFFFFFFFFFFFFFFFFFFFFFFFFFFFFFFFFFF AND PUSH4 0x70A08231 ADDRESS PUSH1 0x40 MLOAD DUP3 PUSH4 0xFFFFFFFF AND PUSH1 0xE0 SHL DUP2 MSTORE PUSH1 0x4 ADD PUSH2 0x3E6 SWAP2 SWAP1 PUSH2 0x10FD JUMP JUMPDEST PUSH1 0x20 PUSH1 0x40 MLOAD DUP1 DUP4 SUB DUP2 DUP7 GAS STATICCALL ISZERO DUP1 ISZERO PUSH2 0x401 JUMPI RETURNDATASIZE PUSH0 PUSH0 RETURNDATACOPY RETURNDATASIZE PUSH0 REVERT JUMPDEST POP POP POP POP PUSH1 0x40 MLOAD RETURNDATASIZE PUSH1 0x1F NOT PUSH1 0x1F DUP3 ADD AND DUP3 ADD DUP1 PUSH1 0x40 MSTORE POP DUP2 ADD SWAP1 PUSH2 0x425 SWAP2 SWAP1 PUSH2 0x11E9 JUMP JUMPDEST SWAP1 POP SWAP1 JUMP JUMPDEST PUSH0 PUSH0 PUSH0 DUP4 DUP2 MSTORE PUSH1 0x20 ADD SWAP1 DUP2 MSTORE PUSH1 0x20 ADD PUSH0 KECCAK256 PUSH1 0x1 ADD SLOAD SWAP1 POP SWAP2 SWAP1 POP JUMP JUMPDEST PUSH2 0x44F DUP3 PUSH2 0x42A JUMP JUMPDEST PUSH2 0x458 DUP2 PUSH2 0xC52 JUMP JUMPDEST PUSH2 0x462 DUP4 DUP4 PUSH2 0xC66 JUMP JUMPDEST POP POP POP POP JUMP JUMPDEST PUSH2 0x470 PUSH2 0xD4F JUMP JUMPDEST PUSH20 0xFFFFFFFFFFFFFFFFFFFFFFFFFFFFFFFFFFFFFFFF AND DUP2 PUSH20 0xFFFFFFFFFFFFFFFFFFFFFFFFFFFFFFFFFFFFFFFF AND EQ PUSH2 0x4D4 JUMPI PUSH1 0x40 MLOAD PUSH32 0x6697B23200000000000000000000000000000000000000000000000000000000 DUP2 MSTORE PUSH1 0x4 ADD PUSH1 0x40 MLOAD DUP1 SWAP2 SUB SWAP1 REVERT JUMPDEST PUSH2 0x4DE DUP3 DUP3 PUSH2 0xD56 JUMP JUMPDEST POP POP POP JUMP JUMPDEST PUSH1 0x2 PUSH0 SWAP1 SLOAD SWAP1 PUSH2 0x100 EXP SWAP1 DIV PUSH20 0xFFFFFFFFFFFFFFFFFFFFFFFFFFFFFFFFFFFFFFFF AND DUP2 JUMP JUMPDEST PUSH0 PUSH0 PUSH0 DUP5 DUP2 MSTORE PUSH1 0x20 ADD SWAP1 DUP2 MSTORE PUSH1 0x20 ADD PUSH0 KECCAK256 PUSH0 ADD PUSH0 DUP4 PUSH20 0xFFFFFFFFFFFFFFFFFFFFFFFFFFFFFFFFFFFFFFFF AND PUSH20 0xFFFFFFFFFFFFFFFFFFFFFFFFFFFFFFFFFFFFFFFF AND DUP2 MSTORE PUSH1 0x20 ADD SWAP1 DUP2 MSTORE PUSH1 0x20 ADD PUSH0 KECCAK256 PUSH0 SWAP1 SLOAD SWAP1 PUSH2 0x100 EXP SWAP1 DIV PUSH1 0xFF AND SWAP1 POP SWAP3 SWAP2 POP POP JUMP JUMPDEST PUSH1 0x3 PUSH0 SWAP1 SLOAD SWAP1 PUSH2 0x100 EXP SWAP1 DIV PUSH20 0xFFFFFFFFFFFFFFFFFFFFFFFFFFFFFFFFFFFFFFFF AND DUP2 JUMP JUMPDEST PUSH0 PUSH0 SHL DUP2 JUMP JUMPDEST PUSH1 0x3 PUSH1 0x14 SWAP1 SLOAD SWAP1 PUSH2 0x100 EXP SWAP1 DIV PUSH2 0xFFFF AND DUP2 JUMP JUMPDEST PUSH2 0x5B3 DUP3 PUSH2 0x42A JUMP JUMPDEST PUSH2 0x5BC DUP2 PUSH2 0xC52 JUMP JUMPDEST PUSH2 0x5C6 DUP4 DUP4 PUSH2 0xD56 JUMP JUMPDEST POP POP POP POP JUMP JUMPDEST PUSH0 PUSH0 SHL PUSH2 0x5D8 DUP2 PUSH2 0xC52 JUMP JUMPDEST PUSH2 0x5E0 PUSH2 0xE3F JUMP JUMPDEST PUSH0 PUSH32 0x0 PUSH20 0xFFFFFFFFFFFFFFFFFFFFFFFFFFFFFFFFFFFFFFFF AND PUSH4 0x70A08231 ADDRESS PUSH1 0x40 MLOAD DUP3 PUSH4 0xFFFFFFFF AND PUSH1 0xE0 SHL DUP2 MSTORE PUSH1 0x4 ADD PUSH2 0x63A SWAP2 SWAP1 PUSH2 0x10FD JUMP JUMPDEST PUSH1 0x20 PUSH1 0x40 MLOAD DUP1 DUP4 SUB DUP2 DUP7 GAS STATICCALL ISZERO DUP1 ISZERO PUSH2 0x655 JUMPI RETURNDATASIZE PUSH0 PUSH0 RETURNDATACOPY RETURNDATASIZE PUSH0 REVERT JUMPDEST POP POP POP POP PUSH1 0x40 MLOAD RETURNDATASIZE PUSH1 0x1F NOT PUSH1 0x1F DUP3 ADD AND DUP3 ADD DUP1 PUSH1 0x40 MSTORE POP DUP2 ADD SWAP1 PUSH2 0x679 SWAP2 SWAP1 PUSH2 0x11E9 JUMP JUMPDEST SWAP1 POP PUSH0 DUP2 GT PUSH2 0x6BD JUMPI PUSH1 0x40 MLOAD PUSH32 0x8C379A000000000000000000000000000000000000000000000000000000000 DUP2 MSTORE PUSH1 0x4 ADD PUSH2 0x6B4 SWAP1 PUSH2 0x126E JUMP JUMPDEST PUSH1 0x40 MLOAD DUP1 SWAP2 SUB SWAP1 REVERT JUMPDEST PUSH32 0x0 PUSH20 0xFFFFFFFFFFFFFFFFFFFFFFFFFFFFFFFFFFFFFFFF AND PUSH4 0xA9059CBB CALLER DUP4 PUSH1 0x40 MLOAD DUP4 PUSH4 0xFFFFFFFF AND PUSH1 0xE0 SHL DUP2 MSTORE PUSH1 0x4 ADD PUSH2 0x718 SWAP3 SWAP2 SWAP1 PUSH2 0x128C JUMP JUMPDEST PUSH1 0x20 PUSH1 0x40 MLOAD DUP1 DUP4 SUB DUP2 PUSH0 DUP8 GAS CALL ISZERO DUP1 ISZERO PUSH2 0x734 JUMPI RETURNDATASIZE PUSH0 PUSH0 RETURNDATACOPY RETURNDATASIZE PUSH0 REVERT JUMPDEST POP POP POP POP PUSH1 0x40 MLOAD RETURNDATASIZE PUSH1 0x1F NOT PUSH1 0x1F DUP3 ADD AND DUP3 ADD DUP1 PUSH1 0x40 MSTORE POP DUP2 ADD SWAP1 PUSH2 0x758 SWAP2 SWAP1 PUSH2 0x12DD JUMP JUMPDEST PUSH2 0x797 JUMPI PUSH1 0x40 MLOAD PUSH32 0x8C379A000000000000000000000000000000000000000000000000000000000 DUP2 MSTORE PUSH1 0x4 ADD PUSH2 0x78E SWAP1 PUSH2 0x1352 JUMP JUMPDEST PUSH1 0x40 MLOAD DUP1 SWAP2 SUB SWAP1 REVERT JUMPDEST PUSH32 0x5FAFA99D0643513820BE26656B45130B01E1C03062E1266BF36F88CBD3BD9695 CALLER DUP3 PUSH1 0x40 MLOAD PUSH2 0x7C8 SWAP3 SWAP2 SWAP1 PUSH2 0x128C JUMP JUMPDEST PUSH1 0x40 MLOAD DUP1 SWAP2 SUB SWAP1 LOG1 POP PUSH2 0x7D9 PUSH2 0xE8E JUMP JUMPDEST POP JUMP JUMPDEST PUSH2 0x7E4 PUSH2 0xE3F JUMP JUMPDEST PUSH32 0xEBEA61BAC29E76544EF1875472AAFF98E28D2DB11686C8CBEF6C2B35DBE32407 PUSH2 0x80E DUP2 PUSH2 0xC52 JUMP JUMPDEST PUSH0 PUSH32 0x0 PUSH20 0xFFFFFFFFFFFFFFFFFFFFFFFFFFFFFFFFFFFFFFFF AND PUSH4 0x70A08231 ADDRESS PUSH1 0x40 MLOAD DUP3 PUSH4 0xFFFFFFFF AND PUSH1 0xE0 SHL DUP2 MSTORE PUSH1 0x4 ADD PUSH2 0x868 SWAP2 SWAP1 PUSH2 0x10FD JUMP JUMPDEST PUSH1 0x20 PUSH1 0x40 MLOAD DUP1 DUP4 SUB DUP2 DUP7 GAS STATICCALL ISZERO DUP1 ISZERO PUSH2 0x883 JUMPI RETURNDATASIZE PUSH0 PUSH0 RETURNDATACOPY RETURNDATASIZE PUSH0 REVERT JUMPDEST POP POP POP POP PUSH1 0x40 MLOAD RETURNDATASIZE PUSH1 0x1F NOT PUSH1 0x1F DUP3 ADD AND DUP3 ADD DUP1 PUSH1 0x40 MSTORE POP DUP2 ADD SWAP1 PUSH2 0x8A7 SWAP2 SWAP1 PUSH2 0x11E9 JUMP JUMPDEST SWAP1 POP PUSH0 DUP2 GT PUSH2 0x8EB JUMPI PUSH1 0x40 MLOAD PUSH32 0x8C379A000000000000000000000000000000000000000000000000000000000 DUP2 MSTORE PUSH1 0x4 ADD PUSH2 0x8E2 SWAP1 PUSH2 0x126E JUMP JUMPDEST PUSH1 0x40 MLOAD DUP1 SWAP2 SUB SWAP1 REVERT JUMPDEST PUSH0 PUSH2 0x2710 PUSH1 0x3 PUSH1 0x14 SWAP1 SLOAD SWAP1 PUSH2 0x100 EXP SWAP1 DIV PUSH2 0xFFFF AND PUSH2 0xFFFF AND DUP4 PUSH2 0x90F SWAP2 SWAP1 PUSH2 0x139D JUMP JUMPDEST PUSH2 0x919 SWAP2 SWAP1 PUSH2 0x140B JUMP JUMPDEST SWAP1 POP PUSH0 DUP2 DUP4 PUSH2 0x928 SWAP2 SWAP1 PUSH2 0x143B JUMP JUMPDEST SWAP1 POP PUSH32 0x0 PUSH20 0xFFFFFFFFFFFFFFFFFFFFFFFFFFFFFFFFFFFFFFFF AND PUSH4 0xA9059CBB PUSH1 0x2 PUSH0 SWAP1 SLOAD SWAP1 PUSH2 0x100 EXP SWAP1 DIV PUSH20 0xFFFFFFFFFFFFFFFFFFFFFFFFFFFFFFFFFFFFFFFF AND DUP5 PUSH1 0x40 MLOAD DUP4 PUSH4 0xFFFFFFFF AND PUSH1 0xE0 SHL DUP2 MSTORE PUSH1 0x4 ADD PUSH2 0x9A6 SWAP3 SWAP2 SWAP1 PUSH2 0x128C JUMP JUMPDEST PUSH1 0x20 PUSH1 0x40 MLOAD DUP1 DUP4 SUB DUP2 PUSH0 DUP8 GAS CALL ISZERO DUP1 ISZERO PUSH2 0x9C2 JUMPI RETURNDATASIZE PUSH0 PUSH0 RETURNDATACOPY RETURNDATASIZE PUSH0 REVERT JUMPDEST POP POP POP POP PUSH1 0x40 MLOAD RETURNDATASIZE PUSH1 0x1F NOT PUSH1 0x1F DUP3 ADD AND DUP3 ADD DUP1 PUSH1 0x40 MSTORE POP DUP2 ADD SWAP1 PUSH2 0x9E6 SWAP2 SWAP1 PUSH2 0x12DD JUMP JUMPDEST PUSH2 0xA25 JUMPI PUSH1 0x40 MLOAD PUSH32 0x8C379A000000000000000000000000000000000000000000000000000000000 DUP2 MSTORE PUSH1 0x4 ADD PUSH2 0xA1C SWAP1 PUSH2 0x14B8 JUMP JUMPDEST PUSH1 0x40 MLOAD DUP1 SWAP2 SUB SWAP1 REVERT JUMPDEST PUSH32 0x0 PUSH20 0xFFFFFFFFFFFFFFFFFFFFFFFFFFFFFFFFFFFFFFFF AND PUSH4 0xA9059CBB PUSH1 0x3 PUSH0 SWAP1 SLOAD SWAP1 PUSH2 0x100 EXP SWAP1 DIV PUSH20 0xFFFFFFFFFFFFFFFFFFFFFFFFFFFFFFFFFFFFFFFF AND DUP4 PUSH1 0x40 MLOAD DUP4 PUSH4 0xFFFFFFFF AND PUSH1 0xE0 SHL DUP2 MSTORE PUSH1 0x4 ADD PUSH2 0xAA1 SWAP3 SWAP2 SWAP1 PUSH2 0x128C JUMP JUMPDEST PUSH1 0x20 PUSH1 0x40 MLOAD DUP1 DUP4 SUB DUP2 PUSH0 DUP8 GAS CALL ISZERO DUP1 ISZERO PUSH2 0xABD JUMPI RETURNDATASIZE PUSH0 PUSH0 RETURNDATACOPY RETURNDATASIZE PUSH0 REVERT JUMPDEST POP POP POP POP PUSH1 0x40 MLOAD RETURNDATASIZE PUSH1 0x1F NOT PUSH1 0x1F DUP3 ADD AND DUP3 ADD DUP1 PUSH1 0x40 MSTORE POP DUP2 ADD SWAP1 PUSH2 0xAE1 SWAP2 SWAP1 PUSH2 0x12DD JUMP JUMPDEST PUSH2 0xB20 JUMPI PUSH1 0x40 MLOAD PUSH32 0x8C379A000000000000000000000000000000000000000000000000000000000 DUP2 MSTORE PUSH1 0x4 ADD PUSH2 0xB17 SWAP1 PUSH2 0x1520 JUMP JUMPDEST PUSH1 0x40 MLOAD DUP1 SWAP2 SUB SWAP1 REVERT JUMPDEST PUSH32 0xC5D35A65AF09B3042394B742529D10F7FBF9A37294D6B13E4D63D06F9909A15B DUP4 DUP4 DUP4 PUSH1 0x40 MLOAD PUSH2 0xB53 SWAP4 SWAP3 SWAP2 SWAP1 PUSH2 0x153E JUMP JUMPDEST PUSH1 0x40 MLOAD DUP1 SWAP2 SUB SWAP1 LOG1 POP POP POP POP PUSH2 0xB67 PUSH2 0xE8E JUMP JUMPDEST JUMP JUMPDEST PUSH1 0x3 PUSH1 0x16 SWAP1 SLOAD SWAP1 PUSH2 0x100 EXP SWAP1 DIV PUSH2 0xFFFF AND DUP2 JUMP JUMPDEST PUSH32 0xEBEA61BAC29E76544EF1875472AAFF98E28D2DB11686C8CBEF6C2B35DBE32407 DUP2 JUMP JUMPDEST PUSH32 0x241ECF16D79D0F8DBFB92CBC07FE17840425976CF0667F022FE9877CAA831B08 DUP2 JUMP JUMPDEST PUSH32 0x0 DUP2 JUMP JUMPDEST PUSH0 PUSH32 0x1FFC9A700000000000000000000000000000000000000000000000000000000 PUSH28 0xFFFFFFFFFFFFFFFFFFFFFFFFFFFFFFFFFFFFFFFFFFFFFFFFFFFFFFFF NOT AND DUP3 PUSH28 0xFFFFFFFFFFFFFFFFFFFFFFFFFFFFFFFFFFFFFFFFFFFFFFFFFFFFFFFF NOT AND EQ SWAP1 POP SWAP2 SWAP1 POP JUMP JUMPDEST PUSH2 0xC63 DUP2 PUSH2 0xC5E PUSH2 0xD4F JUMP JUMPDEST PUSH2 0xE97 JUMP JUMPDEST POP JUMP JUMPDEST PUSH0 PUSH2 0xC71 DUP4 DUP4 PUSH2 0x508 JUMP JUMPDEST PUSH2 0xD45 JUMPI PUSH1 0x1 PUSH0 PUSH0 DUP6 DUP2 MSTORE PUSH1 0x20 ADD SWAP1 DUP2 MSTORE PUSH1 0x20 ADD PUSH0 KECCAK256 PUSH0 ADD PUSH0 DUP5 PUSH20 0xFFFFFFFFFFFFFFFFFFFFFFFFFFFFFFFFFFFFFFFF AND PUSH20 0xFFFFFFFFFFFFFFFFFFFFFFFFFFFFFFFFFFFFFFFF AND DUP2 MSTORE PUSH1 0x20 ADD SWAP1 DUP2 MSTORE PUSH1 0x20 ADD PUSH0 KECCAK256 PUSH0 PUSH2 0x100 EXP DUP2 SLOAD DUP2 PUSH1 0xFF MUL NOT AND SWAP1 DUP4 ISZERO ISZERO MUL OR SWAP1 SSTORE POP PUSH2 0xCE2 PUSH2 0xD4F JUMP JUMPDEST PUSH20 0xFFFFFFFFFFFFFFFFFFFFFFFFFFFFFFFFFFFFFFFF AND DUP3 PUSH20 0xFFFFFFFFFFFFFFFFFFFFFFFFFFFFFFFFFFFFFFFF AND DUP5 PUSH32 0x2F8788117E7EFF1D82E926EC794901D17C78024A50270940304540A733656F0D PUSH1 0x40 MLOAD PUSH1 0x40 MLOAD DUP1 SWAP2 SUB SWAP1 LOG4 PUSH1 0x1 SWAP1 POP PUSH2 0xD49 JUMP JUMPDEST PUSH0 SWAP1 POP JUMPDEST SWAP3 SWAP2 POP POP JUMP JUMPDEST PUSH0 CALLER SWAP1 POP SWAP1 JUMP JUMPDEST PUSH0 PUSH2 0xD61 DUP4 DUP4 PUSH2 0x508 JUMP JUMPDEST ISZERO PUSH2 0xE35 JUMPI PUSH0 PUSH0 PUSH0 DUP6 DUP2 MSTORE PUSH1 0x20 ADD SWAP1 DUP2 MSTORE PUSH1 0x20 ADD PUSH0 KECCAK256 PUSH0 ADD PUSH0 DUP5 PUSH20 0xFFFFFFFFFFFFFFFFFFFFFFFFFFFFFFFFFFFFFFFF AND PUSH20 0xFFFFFFFFFFFFFFFFFFFFFFFFFFFFFFFFFFFFFFFF AND DUP2 MSTORE PUSH1 0x20 ADD SWAP1 DUP2 MSTORE PUSH1 0x20 ADD PUSH0 KECCAK256 PUSH0 PUSH2 0x100 EXP DUP2 SLOAD DUP2 PUSH1 0xFF MUL NOT AND SWAP1 DUP4 ISZERO ISZERO MUL OR SWAP1 SSTORE POP PUSH2 0xDD2 PUSH2 0xD4F JUMP JUMPDEST PUSH20 0xFFFFFFFFFFFFFFFFFFFFFFFFFFFFFFFFFFFFFFFF AND DUP3 PUSH20 0xFFFFFFFFFFFFFFFFFFFFFFFFFFFFFFFFFFFFFFFF AND DUP5 PUSH32 0xF6391F5C32D9C69D2A47EA670B442974B53935D1EDC7FD64EB21E047A839171B PUSH1 0x40 MLOAD PUSH1 0x40 MLOAD DUP1 SWAP2 SUB SWAP1 LOG4 PUSH1 0x1 SWAP1 POP PUSH2 0xE39 JUMP JUMPDEST PUSH0 SWAP1 POP JUMPDEST SWAP3 SWAP2 POP POP JUMP JUMPDEST PUSH1 0x2 PUSH1 0x1 SLOAD SUB PUSH2 0xE84 JUMPI PUSH1 0x40 MLOAD PUSH32 0x8C379A000000000000000000000000000000000000000000000000000000000 DUP2 MSTORE PUSH1 0x4 ADD PUSH2 0xE7B SWAP1 PUSH2 0x15BD JUMP JUMPDEST PUSH1 0x40 MLOAD DUP1 SWAP2 SUB SWAP1 REVERT JUMPDEST PUSH1 0x2 PUSH1 0x1 DUP2 SWAP1 SSTORE POP JUMP JUMPDEST PUSH1 0x1 DUP1 DUP2 SWAP1 SSTORE POP JUMP JUMPDEST PUSH2 0xEA1 DUP3 DUP3 PUSH2 0x508 JUMP JUMPDEST PUSH2 0xEE4 JUMPI DUP1 DUP3 PUSH1 0x40 MLOAD PUSH32 0xE2517D3F00000000000000000000000000000000000000000000000000000000 DUP2 MSTORE PUSH1 0x4 ADD PUSH2 0xEDB SWAP3 SWAP2 SWAP1 PUSH2 0x15DB JUMP JUMPDEST PUSH1 0x40 MLOAD DUP1 SWAP2 SUB SWAP1 REVERT JUMPDEST POP POP JUMP JUMPDEST PUSH0 PUSH0 REVERT JUMPDEST PUSH0 PUSH32 0xFFFFFFFF00000000000000000000000000000000000000000000000000000000 DUP3 AND SWAP1 POP SWAP2 SWAP1 POP JUMP JUMPDEST PUSH2 0xF20 DUP2 PUSH2 0xEEC JUMP JUMPDEST DUP2 EQ PUSH2 0xF2A JUMPI PUSH0 PUSH0 REVERT JUMPDEST POP JUMP JUMPDEST PUSH0 DUP2 CALLDATALOAD SWAP1 POP PUSH2 0xF3B DUP2 PUSH2 0xF17 JUMP JUMPDEST SWAP3 SWAP2 POP POP JUMP JUMPDEST PUSH0 PUSH1 0x20 DUP3 DUP5 SUB SLT ISZERO PUSH2 0xF56 JUMPI PUSH2 0xF55 PUSH2 0xEE8 JUMP JUMPDEST JUMPDEST PUSH0 PUSH2 0xF63 DUP5 DUP3 DUP6 ADD PUSH2 0xF2D JUMP JUMPDEST SWAP2 POP POP SWAP3 SWAP2 POP POP JUMP JUMPDEST PUSH0 DUP2 ISZERO ISZERO SWAP1 POP SWAP2 SWAP1 POP JUMP JUMPDEST PUSH2 0xF80 DUP2 PUSH2 0xF6C JUMP JUMPDEST DUP3 MSTORE POP POP JUMP JUMPDEST PUSH0 PUSH1 0x20 DUP3 ADD SWAP1 POP PUSH2 0xF99 PUSH0 DUP4 ADD DUP5 PUSH2 0xF77 JUMP JUMPDEST SWAP3 SWAP2 POP POP JUMP JUMPDEST PUSH0 DUP2 SWAP1 POP SWAP2 SWAP1 POP JUMP JUMPDEST PUSH2 0xFB1 DUP2 PUSH2 0xF9F JUMP JUMPDEST DUP3 MSTORE POP POP JUMP JUMPDEST PUSH0 PUSH1 0x20 DUP3 ADD SWAP1 POP PUSH2 0xFCA PUSH0 DUP4 ADD DUP5 PUSH2 0xFA8 JUMP JUMPDEST SWAP3 SWAP2 POP POP JUMP JUMPDEST PUSH0 DUP2 SWAP1 POP SWAP2 SWAP1 POP JUMP JUMPDEST PUSH2 0xFE2 DUP2 PUSH2 0xFD0 JUMP JUMPDEST DUP2 EQ PUSH2 0xFEC JUMPI PUSH0 PUSH0 REVERT JUMPDEST POP JUMP JUMPDEST PUSH0 DUP2 CALLDATALOAD SWAP1 POP PUSH2 0xFFD DUP2 PUSH2 0xFD9 JUMP JUMPDEST SWAP3 SWAP2 POP POP JUMP JUMPDEST PUSH0 PUSH1 0x20 DUP3 DUP5 SUB SLT ISZERO PUSH2 0x1018 JUMPI PUSH2 0x1017 PUSH2 0xEE8 JUMP JUMPDEST JUMPDEST PUSH0 PUSH2 0x1025 DUP5 DUP3 DUP6 ADD PUSH2 0xFEF JUMP JUMPDEST SWAP2 POP POP SWAP3 SWAP2 POP POP JUMP JUMPDEST PUSH2 0x1037 DUP2 PUSH2 0xFD0 JUMP JUMPDEST DUP3 MSTORE POP POP JUMP JUMPDEST PUSH0 PUSH1 0x20 DUP3 ADD SWAP1 POP PUSH2 0x1050 PUSH0 DUP4 ADD DUP5 PUSH2 0x102E JUMP JUMPDEST SWAP3 SWAP2 POP POP JUMP JUMPDEST PUSH0 PUSH20 0xFFFFFFFFFFFFFFFFFFFFFFFFFFFFFFFFFFFFFFFF DUP3 AND SWAP1 POP SWAP2 SWAP1 POP JUMP JUMPDEST PUSH0 PUSH2 0x107F DUP3 PUSH2 0x1056 JUMP JUMPDEST SWAP1 POP SWAP2 SWAP1 POP JUMP JUMPDEST PUSH2 0x108F DUP2 PUSH2 0x1075 JUMP JUMPDEST DUP2 EQ PUSH2 0x1099 JUMPI PUSH0 PUSH0 REVERT JUMPDEST POP JUMP JUMPDEST PUSH0 DUP2 CALLDATALOAD SWAP1 POP PUSH2 0x10AA DUP2 PUSH2 0x1086 JUMP JUMPDEST SWAP3 SWAP2 POP POP JUMP JUMPDEST PUSH0 PUSH0 PUSH1 0x40 DUP4 DUP6 SUB SLT ISZERO PUSH2 0x10C6 JUMPI PUSH2 0x10C5 PUSH2 0xEE8 JUMP JUMPDEST JUMPDEST PUSH0 PUSH2 0x10D3 DUP6 DUP3 DUP7 ADD PUSH2 0xFEF JUMP JUMPDEST SWAP3 POP POP PUSH1 0x20 PUSH2 0x10E4 DUP6 DUP3 DUP7 ADD PUSH2 0x109C JUMP JUMPDEST SWAP2 POP POP SWAP3 POP SWAP3 SWAP1 POP JUMP JUMPDEST PUSH2 0x10F7 DUP2 PUSH2 0x1075 JUMP JUMPDEST DUP3 MSTORE POP POP JUMP JUMPDEST PUSH0 PUSH1 0x20 DUP3 ADD SWAP1 POP PUSH2 0x1110 PUSH0 DUP4 ADD DUP5 PUSH2 0x10EE JUMP JUMPDEST SWAP3 SWAP2 POP POP JUMP JUMPDEST PUSH0 PUSH2 0xFFFF DUP3 AND SWAP1 POP SWAP2 SWAP1 POP JUMP JUMPDEST PUSH2 0x112C DUP2 PUSH2 0x1116 JUMP JUMPDEST DUP3 MSTORE POP POP JUMP JUMPDEST PUSH0 PUSH1 0x20 DUP3 ADD SWAP1 POP PUSH2 0x1145 PUSH0 DUP4 ADD DUP5 PUSH2 0x1123 JUMP JUMPDEST SWAP3 SWAP2 POP POP JUMP JUMPDEST PUSH0 DUP2 SWAP1 POP SWAP2 SWAP1 POP JUMP JUMPDEST PUSH0 PUSH2 0x116E PUSH2 0x1169 PUSH2 0x1164 DUP5 PUSH2 0x1056 JUMP JUMPDEST PUSH2 0x114B JUMP JUMPDEST PUSH2 0x1056 JUMP JUMPDEST SWAP1 POP SWAP2 SWAP1 POP JUMP JUMPDEST PUSH0 PUSH2 0x117F DUP3 PUSH2 0x1154 JUMP JUMPDEST SWAP1 POP SWAP2 SWAP1 POP JUMP JUMPDEST PUSH0 PUSH2 0x1190 DUP3 PUSH2 0x1175 JUMP JUMPDEST SWAP1 POP SWAP2 SWAP1 POP JUMP JUMPDEST PUSH2 0x11A0 DUP2 PUSH2 0x1186 JUMP JUMPDEST DUP3 MSTORE POP POP JUMP JUMPDEST PUSH0 PUSH1 0x20 DUP3 ADD SWAP1 POP PUSH2 0x11B9 PUSH0 DUP4 ADD DUP5 PUSH2 0x1197 JUMP JUMPDEST SWAP3 SWAP2 POP POP JUMP JUMPDEST PUSH2 0x11C8 DUP2 PUSH2 0xF9F JUMP JUMPDEST DUP2 EQ PUSH2 0x11D2 JUMPI PUSH0 PUSH0 REVERT JUMPDEST POP JUMP JUMPDEST PUSH0 DUP2 MLOAD SWAP1 POP PUSH2 0x11E3 DUP2 PUSH2 0x11BF JUMP JUMPDEST SWAP3 SWAP2 POP POP JUMP JUMPDEST PUSH0 PUSH1 0x20 DUP3 DUP5 SUB SLT ISZERO PUSH2 0x11FE JUMPI PUSH2 0x11FD PUSH2 0xEE8 JUMP JUMPDEST JUMPDEST PUSH0 PUSH2 0x120B DUP5 DUP3 DUP6 ADD PUSH2 0x11D5 JUMP JUMPDEST SWAP2 POP POP SWAP3 SWAP2 POP POP JUMP JUMPDEST PUSH0 DUP3 DUP3 MSTORE PUSH1 0x20 DUP3 ADD SWAP1 POP SWAP3 SWAP2 POP POP JUMP JUMPDEST PUSH32 0x6E6F20746F6B656E730000000000000000000000000000000000000000000000 PUSH0 DUP3 ADD MSTORE POP JUMP JUMPDEST PUSH0 PUSH2 0x1258 PUSH1 0x9 DUP4 PUSH2 0x1214 JUMP JUMPDEST SWAP2 POP PUSH2 0x1263 DUP3 PUSH2 0x1224 JUMP JUMPDEST PUSH1 0x20 DUP3 ADD SWAP1 POP SWAP2 SWAP1 POP JUMP JUMPDEST PUSH0 PUSH1 0x20 DUP3 ADD SWAP1 POP DUP2 DUP2 SUB PUSH0 DUP4 ADD MSTORE PUSH2 0x1285 DUP2 PUSH2 0x124C JUMP JUMPDEST SWAP1 POP SWAP2 SWAP1 POP JUMP JUMPDEST PUSH0 PUSH1 0x40 DUP3 ADD SWAP1 POP PUSH2 0x129F PUSH0 DUP4 ADD DUP6 PUSH2 0x10EE JUMP JUMPDEST PUSH2 0x12AC PUSH1 0x20 DUP4 ADD DUP5 PUSH2 0xFA8 JUMP JUMPDEST SWAP4 SWAP3 POP POP POP JUMP JUMPDEST PUSH2 0x12BC DUP2 PUSH2 0xF6C JUMP JUMPDEST DUP2 EQ PUSH2 0x12C6 JUMPI PUSH0 PUSH0 REVERT JUMPDEST POP JUMP JUMPDEST PUSH0 DUP2 MLOAD SWAP1 POP PUSH2 0x12D7 DUP2 PUSH2 0x12B3 JUMP JUMPDEST SWAP3 SWAP2 POP POP JUMP JUMPDEST PUSH0 PUSH1 0x20 DUP3 DUP5 SUB SLT ISZERO PUSH2 0x12F2 JUMPI PUSH2 0x12F1 PUSH2 0xEE8 JUMP JUMPDEST JUMPDEST PUSH0 PUSH2 0x12FF DUP5 DUP3 DUP6 ADD PUSH2 0x12C9 JUMP JUMPDEST SWAP2 POP POP SWAP3 SWAP2 POP POP JUMP JUMPDEST PUSH32 0x7769746864726177206661696C00000000000000000000000000000000000000 PUSH0 DUP3 ADD MSTORE POP JUMP JUMPDEST PUSH0 PUSH2 0x133C PUSH1 0xD DUP4 PUSH2 0x1214 JUMP JUMPDEST SWAP2 POP PUSH2 0x1347 DUP3 PUSH2 0x1308 JUMP JUMPDEST PUSH1 0x20 DUP3 ADD SWAP1 POP SWAP2 SWAP1 POP JUMP JUMPDEST PUSH0 PUSH1 0x20 DUP3 ADD SWAP1 POP DUP2 DUP2 SUB PUSH0 DUP4 ADD MSTORE PUSH2 0x1369 DUP2 PUSH2 0x1330 JUMP JUMPDEST SWAP1 POP SWAP2 SWAP1 POP JUMP JUMPDEST PUSH32 0x4E487B7100000000000000000000000000000000000000000000000000000000 PUSH0 MSTORE PUSH1 0x11 PUSH1 0x4 MSTORE PUSH1 0x24 PUSH0 REVERT JUMPDEST PUSH0 PUSH2 0x13A7 DUP3 PUSH2 0xF9F JUMP JUMPDEST SWAP2 POP PUSH2 0x13B2 DUP4 PUSH2 0xF9F JUMP JUMPDEST SWAP3 POP DUP3 DUP3 MUL PUSH2 0x13C0 DUP2 PUSH2 0xF9F JUMP JUMPDEST SWAP2 POP DUP3 DUP3 DIV DUP5 EQ DUP4 ISZERO OR PUSH2 0x13D7 JUMPI PUSH2 0x13D6 PUSH2 0x1370 JUMP JUMPDEST JUMPDEST POP SWAP3 SWAP2 POP POP JUMP JUMPDEST PUSH32 0x4E487B7100000000000000000000000000000000000000000000000000000000 PUSH0 MSTORE PUSH1 0x12 PUSH1 0x4 MSTORE PUSH1 0x24 PUSH0 REVERT JUMPDEST PUSH0 PUSH2 0x1415 DUP3 PUSH2 0xF9F JUMP JUMPDEST SWAP2 POP PUSH2 0x1420 DUP4 PUSH2 0xF9F JUMP JUMPDEST SWAP3 POP DUP3 PUSH2 0x1430 JUMPI PUSH2 0x142F PUSH2 0x13DE JUMP JUMPDEST JUMPDEST DUP3 DUP3 DIV SWAP1 POP SWAP3 SWAP2 POP POP JUMP JUMPDEST PUSH0 PUSH2 0x1445 DUP3 PUSH2 0xF9F JUMP JUMPDEST SWAP2 POP PUSH2 0x1450 DUP4 PUSH2 0xF9F JUMP JUMPDEST SWAP3 POP DUP3 DUP3 SUB SWAP1 POP DUP2 DUP2 GT ISZERO PUSH2 0x1468 JUMPI PUSH2 0x1467 PUSH2 0x1370 JUMP JUMPDEST JUMPDEST SWAP3 SWAP2 POP POP JUMP JUMPDEST PUSH32 0x707562206661696C000000000000000000000000000000000000000000000000 PUSH0 DUP3 ADD MSTORE POP JUMP JUMPDEST PUSH0 PUSH2 0x14A2 PUSH1 0x8 DUP4 PUSH2 0x1214 JUMP JUMPDEST SWAP2 POP PUSH2 0x14AD DUP3 PUSH2 0x146E JUMP JUMPDEST PUSH1 0x20 DUP3 ADD SWAP1 POP SWAP2 SWAP1 POP JUMP JUMPDEST PUSH0 PUSH1 0x20 DUP3 ADD SWAP1 POP DUP2 DUP2 SUB PUSH0 DUP4 ADD MSTORE PUSH2 0x14CF DUP2 PUSH2 0x1496 JUMP JUMPDEST SWAP1 POP SWAP2 SWAP1 POP JUMP JUMPDEST PUSH32 0x646576206661696C000000000000000000000000000000000000000000000000 PUSH0 DUP3 ADD MSTORE POP JUMP JUMPDEST PUSH0 PUSH2 0x150A PUSH1 0x8 DUP4 PUSH2 0x1214 JUMP JUMPDEST SWAP2 POP PUSH2 0x1515 DUP3 PUSH2 0x14D6 JUMP JUMPDEST PUSH1 0x20 DUP3 ADD SWAP1 POP SWAP2 SWAP1 POP JUMP JUMPDEST PUSH0 PUSH1 0x20 DUP3 ADD SWAP1 POP DUP2 DUP2 SUB PUSH0 DUP4 ADD MSTORE PUSH2 0x1537 DUP2 PUSH2 0x14FE JUMP JUMPDEST SWAP1 POP SWAP2 SWAP1 POP JUMP JUMPDEST PUSH0 PUSH1 0x60 DUP3 ADD SWAP1 POP PUSH2 0x1551 PUSH0 DUP4 ADD DUP7 PUSH2 0xFA8 JUMP JUMPDEST PUSH2 0x155E PUSH1 0x20 DUP4 ADD DUP6 PUSH2 0xFA8 JUMP JUMPDEST PUSH2 0x156B PUSH1 0x40 DUP4 ADD DUP5 PUSH2 0xFA8 JUMP JUMPDEST SWAP5 SWAP4 POP POP POP POP JUMP JUMPDEST PUSH32 0x5265656E7472616E637947756172643A207265656E7472616E742063616C6C00 PUSH0 DUP3 ADD MSTORE POP JUMP JUMPDEST PUSH0 PUSH2 0x15A7 PUSH1 0x1F DUP4 PUSH2 0x1214 JUMP JUMPDEST SWAP2 POP PUSH2 0x15B2 DUP3 PUSH2 0x1573 JUMP JUMPDEST PUSH1 0x20 DUP3 ADD SWAP1 POP SWAP2 SWAP1 POP JUMP JUMPDEST PUSH0 PUSH1 0x20 DUP3 ADD SWAP1 POP DUP2 DUP2 SUB PUSH0 DUP4 ADD MSTORE PUSH2 0x15D4 DUP2 PUSH2 0x159B JUMP JUMPDEST SWAP1 POP SWAP2 SWAP1 POP JUMP JUMPDEST PUSH0 PUSH1 0x40 DUP3 ADD SWAP1 POP PUSH2 0x15EE PUSH0 DUP4 ADD DUP6 PUSH2 0x10EE JUMP JUMPDEST PUSH2 0x15FB PUSH1 0x20 DUP4 ADD DUP5 PUSH2 0x102E JUMP JUMPDEST SWAP4 SWAP3 POP POP POP JUMP INVALID LOG2 PUSH5 0x6970667358 0x22 SLT KECCAK256 SWAP2 GT 0xCA RETURN CALLDATACOPY DUP7 BLOCKHASH GT 0xD7 CLZ LOG1 DUPN 0xBB DUP1 PUSH26 0x7805E8CB720EEA997437474C12E510023364736F6C634300081F STOP CALLER "
				},
				"gasEstimates": {
					"creation": {
						"codeDepositCost": "1137600",
						"executionCost": "infinite",
						"totalCost": "infinite"
					},
					"external": {
						"DEFAULT_ADMIN_ROLE()": "352",
						"MANAGER_ROLE()": "413",
						"SPLITTER_ROLE()": "391",
						"devs()": "2597",
						"devsBps()": "2561",
						"distribute()": "infinite",
						"emergencyWithdraw()": "infinite",
						"getBalance()": "infinite",
						"getRoleAdmin(bytes32)": "infinite",
						"grantRole(bytes32,address)": "infinite",
						"hasRole(bytes32,address)": "3187",
						"publisher()": "2553",
						"publisherBps()": "2562",
						"renounceRole(bytes32,address)": "infinite",
						"revokeRole(bytes32,address)": "infinite",
						"supportsInterface(bytes4)": "741",
						"token()": "infinite"
					}
				},
				"methodIdentifiers": {
					"DEFAULT_ADMIN_ROLE()": "a217fddf",
					"MANAGER_ROLE()": "ec87621c",
					"SPLITTER_ROLE()": "eb09c17c",
					"devs()": "9a96f829",
					"devsBps()": "e98c0990",
					"distribute()": "e4fc6b6d",
					"emergencyWithdraw()": "db2e21bc",
					"getBalance()": "12065fe0",
					"getRoleAdmin(bytes32)": "248a9ca3",
					"grantRole(bytes32,address)": "2f2ff15d",
					"hasRole(bytes32,address)": "91d14854",
					"publisher()": "8c72c54e",
					"publisherBps()": "aaecfa63",
					"renounceRole(bytes32,address)": "36568abe",
					"revokeRole(bytes32,address)": "d547741f",
					"supportsInterface(bytes4)": "01ffc9a7",
					"token()": "fc0c546a"
				}
			},
			"storageLayout": {
				"storage": [
					{
						"astId": 27,
						"contract": "contracts/TesseraFeeSplitter.sol:TesseraFeeSplitter",
						"label": "_roles",
						"offset": 0,
						"slot": "0",
						"type": "t_mapping(t_bytes32,t_struct(RoleData)22_storage)"
					},
					{
						"astId": 390,
						"contract": "contracts/TesseraFeeSplitter.sol:TesseraFeeSplitter",
						"label": "_status",
						"offset": 0,
						"slot": "1",
						"type": "t_uint256"
					},
					{
						"astId": 612,
						"contract": "contracts/TesseraFeeSplitter.sol:TesseraFeeSplitter",
						"label": "publisher",
						"offset": 0,
						"slot": "2",
						"type": "t_address"
					},
					{
						"astId": 614,
						"contract": "contracts/TesseraFeeSplitter.sol:TesseraFeeSplitter",
						"label": "devs",
						"offset": 0,
						"slot": "3",
						"type": "t_address"
					},
					{
						"astId": 616,
						"contract": "contracts/TesseraFeeSplitter.sol:TesseraFeeSplitter",
						"label": "publisherBps",
						"offset": 20,
						"slot": "3",
						"type": "t_uint16"
					},
					{
						"astId": 618,
						"contract": "contracts/TesseraFeeSplitter.sol:TesseraFeeSplitter",
						"label": "devsBps",
						"offset": 22,
						"slot": "3",
						"type": "t_uint16"
					}
				],
				"types": {
					"t_address": {
						"encoding": "inplace",
						"label": "address",
						"numberOfBytes": "20"
					},
					"t_bool": {
						"encoding": "inplace",
						"label": "bool",
						"numberOfBytes": "1"
					},
					"t_bytes32": {
						"encoding": "inplace",
						"label": "bytes32",
						"numberOfBytes": "32"
					},
					"t_mapping(t_address,t_bool)": {
						"encoding": "mapping",
						"key": "t_address",
						"label": "mapping(address => bool)",
						"numberOfBytes": "32",
						"value": "t_bool"
					},
					"t_mapping(t_bytes32,t_struct(RoleData)22_storage)": {
						"encoding": "mapping",
						"key": "t_bytes32",
						"label": "mapping(bytes32 => struct AccessControl.RoleData)",
						"numberOfBytes": "32",
						"value": "t_struct(RoleData)22_storage"
					},
					"t_struct(RoleData)22_storage": {
						"encoding": "inplace",
						"label": "struct AccessControl.RoleData",
						"members": [
							{
								"astId": 19,
								"contract": "contracts/TesseraFeeSplitter.sol:TesseraFeeSplitter",
								"label": "hasRole",
								"offset": 0,
								"slot": "0",
								"type": "t_mapping(t_address,t_bool)"
							},
							{
								"astId": 21,
								"contract": "contracts/TesseraFeeSplitter.sol:TesseraFeeSplitter",
								"label": "adminRole",
								"offset": 0,
								"slot": "1",
								"type": "t_bytes32"
							}
						],
						"numberOfBytes": "64"
					},
					"t_uint16": {
						"encoding": "inplace",
						"label": "uint16",
						"numberOfBytes": "2"
					},
					"t_uint256": {
						"encoding": "inplace",
						"label": "uint256",
						"numberOfBytes": "32"
					}
				}
			},
			"userdoc": {
				"kind": "user",
				"methods": {
					"distribute()": {
						"notice": "Only publisher or devs can call distribute."
					},
					"emergencyWithdraw()": {
						"notice": "Admin can emergency withdraw"
					},
					"getBalance()": {
						"notice": "Check contract's balance"
					}
				},
				"version": 1
			}
		}
	}
}