{
	"data": {
		"bytecode": {
			"linkReferences": {},
			"object": "6080604052348015600e575f5ffd5b506121548061001c5f395ff3fe608060405234801561000f575f5ffd5b5060043610610029575f3560e01c80633aeaaf4a1461002d575b5f5ffd5b61004760048036038101906100429190610194565b61005d565b604051610054919061021a565b60405180910390f35b5f858585858533604051610070906100f2565b61007f96959493929190610242565b604051809103905ff080158015610098573d5f5f3e3d5ffd5b5090503373ffffffffffffffffffffffffffffffffffffffff167f22142b283581f0b2a487f7a23e0422d292eb5783629173717aa106744ad70d60826040516100e1919061021a565b60405180910390a295945050505050565b611e7d806102a283390190565b5f5ffd5b5f73ffffffffffffffffffffffffffffffffffffffff82169050919050565b5f61012c82610103565b9050919050565b61013c81610122565b8114610146575f5ffd5b50565b5f8135905061015781610133565b92915050565b5f61ffff82169050919050565b6101738161015d565b811461017d575f5ffd5b50565b5f8135905061018e8161016a565b92915050565b5f5f5f5f5f60a086880312156101ad576101ac6100ff565b5b5f6101ba88828901610149565b95505060206101cb88828901610149565b94505060406101dc88828901610149565b93505060606101ed88828901610180565b92505060806101fe88828901610180565b9150509295509295909350565b61021481610122565b82525050565b5f60208201905061022d5f83018461020b565b92915050565b61023c8161015d565b82525050565b5f60c0820190506102555f83018961020b565b610262602083018861020b565b61026f604083018761020b565b61027c6060830186610233565b6102896080830185610233565b61029660a083018461020b565b97965050505050505056fe60a060405234801561000f575f5ffd5b50604051611e7d380380611e7d83398181016040528101906100319190610568565b600180819055505f73ffffffffffffffffffffffffffffffffffffffff168673ffffffffffffffffffffffffffffffffffffffff16036100a6576040517f08c379a000000000000000000000000000000000000000000000000000000000815260040161009d9061064b565b60405180910390fd5b5f73ffffffffffffffffffffffffffffffffffffffff168573ffffffffffffffffffffffffffffffffffffffff1603610114576040517f08c379a000000000000000000000000000000000000000000000000000000000815260040161010b906106b3565b60405180910390fd5b5f73ffffffffffffffffffffffffffffffffffffffff168473ffffffffffffffffffffffffffffffffffffffff1603610182576040517f08c379a00000000000000000000000000000000000000000000000000000000081526004016101799061071b565b60405180910390fd5b61271082846101919190610766565b61ffff16146101d5576040517f08c379a00000000000000000000000000000000000000000000000000000000081526004016101cc906107e5565b60405180910390fd5b8573ffffffffffffffffffffffffffffffffffffffff1660808173ffffffffffffffffffffffffffffffffffffffff16815250508460025f6101000a81548173ffffffffffffffffffffffffffffffffffffffff021916908373ffffffffffffffffffffffffffffffffffffffff1602179055508360035f6101000a81548173ffffffffffffffffffffffffffffffffffffffff021916908373ffffffffffffffffffffffffffffffffffffffff16021790555082600360146101000a81548161ffff021916908361ffff16021790555081600360166101000a81548161ffff021916908361ffff1602179055506102d55f5f1b8261037460201b60201c565b506103067f241ecf16d79d0f8dbfb92cbc07fe17840425976cf0667f022fe9877caa831b088261037460201b60201c565b506103377febea61bac29e76544ef1875472aaff98e28d2db11686c8cbef6c2b35dbe324078661037460201b60201c565b506103687febea61bac29e76544ef1875472aaff98e28d2db11686c8cbef6c2b35dbe324078561037460201b60201c565b50505050505050610803565b5f610385838361046960201b60201c565b61045f5760015f5f8581526020019081526020015f205f015f8473ffffffffffffffffffffffffffffffffffffffff1673ffffffffffffffffffffffffffffffffffffffff1681526020019081526020015f205f6101000a81548160ff0219169083151502179055506103fc6104cc60201b60201c565b73ffffffffffffffffffffffffffffffffffffffff168273ffffffffffffffffffffffffffffffffffffffff16847f2f8788117e7eff1d82e926ec794901d17c78024a50270940304540a733656f0d60405160405180910390a460019050610463565b5f90505b92915050565b5f5f5f8481526020019081526020015f205f015f8373ffffffffffffffffffffffffffffffffffffffff1673ffffffffffffffffffffffffffffffffffffffff1681526020019081526020015f205f9054906101000a900460ff16905092915050565b5f33905090565b5f5ffd5b5f73ffffffffffffffffffffffffffffffffffffffff82169050919050565b5f610500826104d7565b9050919050565b610510816104f6565b811461051a575f5ffd5b50565b5f8151905061052b81610507565b92915050565b5f61ffff82169050919050565b61054781610531565b8114610551575f5ffd5b50565b5f815190506105628161053e565b92915050565b5f5f5f5f5f5f60c08789031215610582576105816104d3565b5b5f61058f89828a0161051d565b96505060206105a089828a0161051d565b95505060406105b189828a0161051d565b94505060606105c289828a01610554565b93505060806105d389828a01610554565b92505060a06105e489828a0161051d565b9150509295509295509295565b5f82825260208201905092915050565b7f746f6b656e3d30000000000000000000000000000000000000000000000000005f82015250565b5f6106356007836105f1565b915061064082610601565b602082019050919050565b5f6020820190508181035f83015261066281610629565b9050919050565b7f7075623d300000000000000000000000000000000000000000000000000000005f82015250565b5f61069d6005836105f1565b91506106a882610669565b602082019050919050565b5f6020820190508181035f8301526106ca81610691565b9050919050565b7f646576733d3000000000000000000000000000000000000000000000000000005f82015250565b5f6107056006836105f1565b9150610710826106d1565b602082019050919050565b5f6020820190508181035f830152610732816106f9565b9050919050565b7f4e487b71000000000000000000000000000000000000000000000000000000005f52601160045260245ffd5b5f61077082610531565b915061077b83610531565b9250828201905061ffff81111561079557610794610739565b5b92915050565b7f6270732073756d20213d203130303030000000000000000000000000000000005f82015250565b5f6107cf6010836105f1565b91506107da8261079b565b602082019050919050565b5f6020820190508181035f8301526107fc816107c3565b9050919050565b6080516116386108455f395f818161038f015281816105e3015281816106bf015281816108110152818161092c01528181610a270152610bc701526116385ff3fe608060405234801561000f575f5ffd5b5060043610610109575f3560e01c8063a217fddf116100a0578063e4fc6b6d1161006f578063e4fc6b6d14610291578063e98c09901461029b578063eb09c17c146102b9578063ec87621c146102d7578063fc0c546a146102f557610109565b8063a217fddf1461022f578063aaecfa631461024d578063d547741f1461026b578063db2e21bc1461028757610109565b806336568abe116100dc57806336568abe146101a75780638c72c54e146101c357806391d14854146101e15780639a96f8291461021157610109565b806301ffc9a71461010d57806312065fe01461013d578063248a9ca31461015b5780632f2ff15d1461018b575b5f5ffd5b61012760048036038101906101229190610f41565b610313565b6040516101349190610f86565b60405180910390f35b61014561038c565b6040516101529190610fb7565b60405180910390f35b61017560048036038101906101709190611003565b61042a565b604051610182919061103d565b60405180910390f35b6101a560048036038101906101a091906110b0565b610446565b005b6101c160048036038101906101bc91906110b0565b610468565b005b6101cb6104e3565b6040516101d891906110fd565b60405180910390f35b6101fb60048036038101906101f691906110b0565b610508565b6040516102089190610f86565b60405180910390f35b61021961056b565b60405161022691906110fd565b60405180910390f35b610237610590565b604051610244919061103d565b60405180910390f35b610255610596565b6040516102629190611132565b60405180910390f35b610285600480360381019061028091906110b0565b6105aa565b005b61028f6105cc565b005b6102996107dc565b005b6102a3610b69565b6040516102b09190611132565b60405180910390f35b6102c1610b7d565b6040516102ce919061103d565b60405180910390f35b6102df610ba1565b6040516102ec919061103d565b60405180910390f35b6102fd610bc5565b60405161030a91906111a6565b60405180910390f35b5f7f7965db0b000000000000000000000000000000000000000000000000000000007bffffffffffffffffffffffffffffffffffffffffffffffffffffffff1916827bffffffffffffffffffffffffffffffffffffffffffffffffffffffff19161480610385575061038482610be9565b5b9050919050565b5f7f000000000000000000000000000000000000000000000000000000000000000073ffffffffffffffffffffffffffffffffffffffff166370a08231306040518263ffffffff1660e01b81526004016103e691906110fd565b602060405180830381865afa158015610401573d5f5f3e3d5ffd5b505050506040513d601f19601f8201168201806040525081019061042591906111e9565b905090565b5f5f5f8381526020019081526020015f20600101549050919050565b61044f8261042a565b61045881610c52565b6104628383610c66565b50505050565b610470610d4f565b73ffffffffffffffffffffffffffffffffffffffff168173ffffffffffffffffffffffffffffffffffffffff16146104d4576040517f6697b23200000000000000000000000000000000000000000000000000000000815260040160405180910390fd5b6104de8282610d56565b505050565b60025f9054906101000a900473ffffffffffffffffffffffffffffffffffffffff1681565b5f5f5f8481526020019081526020015f205f015f8373ffffffffffffffffffffffffffffffffffffffff1673ffffffffffffffffffffffffffffffffffffffff1681526020019081526020015f205f9054906101000a900460ff16905092915050565b60035f9054906101000a900473ffffffffffffffffffffffffffffffffffffffff1681565b5f5f1b81565b600360149054906101000a900461ffff1681565b6105b38261042a565b6105bc81610c52565b6105c68383610d56565b50505050565b5f5f1b6105d881610c52565b6105e0610e3f565b5f7f000000000000000000000000000000000000000000000000000000000000000073ffffffffffffffffffffffffffffffffffffffff166370a08231306040518263ffffffff1660e01b815260040161063a91906110fd565b602060405180830381865afa158015610655573d5f5f3e3d5ffd5b505050506040513d601f19601f8201168201806040525081019061067991906111e9565b90505f81116106bd576040517f08c379a00000000000000000000000000000000000000000000000000000000081526004016106b49061126e565b60405180910390fd5b7f000000000000000000000000000000000000000000000000000000000000000073ffffffffffffffffffffffffffffffffffffffff1663a9059cbb33836040518363ffffffff1660e01b815260040161071892919061128c565b6020604051808303815f875af1158015610734573d5f5f3e3d5ffd5b505050506040513d601f19601f8201168201806040525081019061075891906112dd565b610797576040517f08c379a000000000000000000000000000000000000000000000000000000000815260040161078e90611352565b60405180910390fd5b7f5fafa99d0643513820be26656b45130b01e1c03062e1266bf36f88cbd3bd969533826040516107c892919061128c565b60405180910390a1506107d9610e8e565b50565b6107e4610e3f565b7febea61bac29e76544ef1875472aaff98e28d2db11686c8cbef6c2b35dbe3240761080e81610c52565b5f7f000000000000000000000000000000000000000000000000000000000000000073ffffffffffffffffffffffffffffffffffffffff166370a08231306040518263ffffffff1660e01b815260040161086891906110fd565b602060405180830381865afa158015610883573d5f5f3e3d5ffd5b505050506040513d601f19601f820116820180604052508101906108a791906111e9565b90505f81116108eb576040517f08c379a00000000000000000000000000000000000000000000000000000000081526004016108e29061126e565b60405180910390fd5b5f612710600360149054906101000a900461ffff1661ffff168361090f919061139d565b610919919061140b565b90505f8183610928919061143b565b90507f000000000000000000000000000000000000000000000000000000000000000073ffffffffffffffffffffffffffffffffffffffff1663a9059cbb60025f9054906101000a900473ffffffffffffffffffffffffffffffffffffffff16846040518363ffffffff1660e01b81526004016109a692919061128c565b6020604051808303815f875af11580156109c2573d5f5f3e3d5ffd5b505050506040513d601f19601f820116820180604052508101906109e691906112dd565b610a25576040517f08c379a0000000000000000000000000000000000000000000000000000000008152600401610a1c906114b8565b60405180910390fd5b7f000000000000000000000000000000000000000000000000000000000000000073ffffffffffffffffffffffffffffffffffffffff1663a9059cbb60035f9054906101000a900473ffffffffffffffffffffffffffffffffffffffff16836040518363ffffffff1660e01b8152600401610aa192919061128c565b6020604051808303815f875af1158015610abd573d5f5f3e3d5ffd5b505050506040513d601f19601f82011682018060405250810190610ae191906112dd565b610b20576040517f08c379a0000000000000000000000000000000000000000000000000000000008152600401610b1790611520565b60405180910390fd5b7fc5d35a65af09b3042394b742529d10f7fbf9a37294d6b13e4d63d06f9909a15b838383604051610b539392919061153e565b60405180910390a150505050610b67610e8e565b565b600360169054906101000a900461ffff1681565b7febea61bac29e76544ef1875472aaff98e28d2db11686c8cbef6c2b35dbe3240781565b7f241ecf16d79d0f8dbfb92cbc07fe17840425976cf0667f022fe9877caa831b0881565b7f000000000000000000000000000000000000000000000000000000000000000081565b5f7f01ffc9a7000000000000000000000000000000000000000000000000000000007bffffffffffffffffffffffffffffffffffffffffffffffffffffffff1916827bffffffffffffffffffffffffffffffffffffffffffffffffffffffff1916149050919050565b610c6381610c5e610d4f565b610e97565b50565b5f610c718383610508565b610d455760015f5f8581526020019081526020015f205f015f8473ffffffffffffffffffffffffffffffffffffffff1673ffffffffffffffffffffffffffffffffffffffff1681526020019081526020015f205f6101000a81548160ff021916908315150217905550610ce2610d4f565b73ffffffffffffffffffffffffffffffffffffffff168273ffffffffffffffffffffffffffffffffffffffff16847f2f8788117e7eff1d82e926ec794901d17c78024a50270940304540a733656f0d60405160405180910390a460019050610d49565b5f90505b92915050565b5f33905090565b5f610d618383610508565b15610e35575f5f5f8581526020019081526020015f205f015f8473ffffffffffffffffffffffffffffffffffffffff1673ffffffffffffffffffffffffffffffffffffffff1681526020019081526020015f205f6101000a81548160ff021916908315150217905550610dd2610d4f565b73ffffffffffffffffffffffffffffffffffffffff168273ffffffffffffffffffffffffffffffffffffffff16847ff6391f5c32d9c69d2a47ea670b442974b53935d1edc7fd64eb21e047a839171b60405160405180910390a460019050610e39565b5f90505b92915050565b600260015403610e84576040517f08c379a0000000000000000000000000000000000000000000000000000000008152600401610e7b906115bd565b60405180910390fd5b6002600181905550565b60018081905550565b610ea18282610508565b610ee45780826040517fe2517d3f000000000000000000000000000000000000000000000000000000008152600401610edb9291906115db565b60405180910390fd5b5050565b5f5ffd5b5f7fffffffff0000000000000000000000000000000000000000000000000000000082169050919050565b610f2081610eec565b8114610f2a575f5ffd5b50565b5f81359050610f3b81610f17565b92915050565b5f60208284031215610f5657610f55610ee8565b5b5f610f6384828501610f2d565b91505092915050565b5f8115159050919050565b610f8081610f6c565b82525050565b5f602082019050610f995f830184610f77565b92915050565b5f819050919050565b610fb181610f9f565b82525050565b5f602082019050610fca5f830184610fa8565b92915050565b5f819050919050565b610fe281610fd0565b8114610fec575f5ffd5b50565b5f81359050610ffd81610fd9565b92915050565b5f6020828403121561101857611017610ee8565b5b5f61102584828501610fef565b91505092915050565b61103781610fd0565b82525050565b5f6020820190506110505f83018461102e565b92915050565b5f73ffffffffffffffffffffffffffffffffffffffff82169050919050565b5f61107f82611056565b9050919050565b61108f81611075565b8114611099575f5ffd5b50565b5f813590506110aa81611086565b92915050565b5f5f604083850312156110c6576110c5610ee8565b5b5f6110d385828601610fef565b92505060206110e48582860161109c565b9150509250929050565b6110f781611075565b82525050565b5f6020820190506111105f8301846110ee565b92915050565b5f61ffff82169050919050565b61112c81611116565b82525050565b5f6020820190506111455f830184611123565b92915050565b5f819050919050565b5f61116e61116961116484611056565b61114b565b611056565b9050919050565b5f61117f82611154565b9050919050565b5f61119082611175565b9050919050565b6111a081611186565b82525050565b5f6020820190506111b95f830184611197565b92915050565b6111c881610f9f565b81146111d2575f5ffd5b50565b5f815190506111e3816111bf565b92915050565b5f602082840312156111fe576111fd610ee8565b5b5f61120b848285016111d5565b91505092915050565b5f82825260208201905092915050565b7f6e6f20746f6b656e7300000000000000000000000000000000000000000000005f82015250565b5f611258600983611214565b915061126382611224565b602082019050919050565b5f6020820190508181035f8301526112858161124c565b9050919050565b5f60408201905061129f5f8301856110ee565b6112ac6020830184610fa8565b9392505050565b6112bc81610f6c565b81146112c6575f5ffd5b50565b5f815190506112d7816112b3565b92915050565b5f602082840312156112f2576112f1610ee8565b5b5f6112ff848285016112c9565b91505092915050565b7f7769746864726177206661696c000000000000000000000000000000000000005f82015250565b5f61133c600d83611214565b915061134782611308565b602082019050919050565b5f6020820190508181035f83015261136981611330565b9050919050565b7f4e487b71000000000000000000000000000000000000000000000000000000005f52601160045260245ffd5b5f6113a782610f9f565b91506113b283610f9f565b92508282026113c081610f9f565b915082820484148315176113d7576113d6611370565b5b5092915050565b7f4e487b71000000000000000000000000000000000000000000000000000000005f52601260045260245ffd5b5f61141582610f9f565b915061142083610f9f565b9250826114305761142f6113de565b5b828204905092915050565b5f61144582610f9f565b915061145083610f9f565b925082820390508181111561146857611467611370565b5b92915050565b7f707562206661696c0000000000000000000000000000000000000000000000005f82015250565b5f6114a2600883611214565b91506114ad8261146e565b602082019050919050565b5f6020820190508181035f8301526114cf81611496565b9050919050565b7f646576206661696c0000000000000000000000000000000000000000000000005f82015250565b5f61150a600883611214565b9150611515826114d6565b602082019050919050565b5f6020820190508181035f830152611537816114fe565b9050919050565b5f6060820190506115515f830186610fa8565b61155e6020830185610fa8565b61156b6040830184610fa8565b949350505050565b7f5265656e7472616e637947756172643a207265656e7472616e742063616c6c005f82015250565b5f6115a7601f83611214565b91506115b282611573565b602082019050919050565b5f6020820190508181035f8301526115d48161159b565b9050919050565b5f6040820190506115ee5f8301856110ee565b6115fb602083018461102e565b939250505056fea2646970667358221220f70a1197cbc56c1bbf8b6cd5bc09f4d7fcfcf63a9a7aacbfdc39514480879da864736f6c634300081f0033a26469706673582212203fdb6078d565f7aa6cf2db4ca13960497c5ff6d9fe94679059508f72291d658664736f6c634300081f0033",
			"opcodes": "PUSH1 0x80 PUSH1 0x40 MSTORE CALLVALUE DUP1 ISZERO PUSH1 0xE JUMPI PUSH0 PUSH0 REVERT JUMPDEST POP PUSH2 0x2154 DUP1 PUSH2 0x1C PUSH0 CODECOPY PUSH0 RETURN INVALID PUSH1 0x80 PUSH1 0x40 MSTORE CALLVALUE DUP1 ISZERO PUSH2 0xF JUMPI PUSH0 PUSH0 REVERT JUMPDEST POP PUSH1 0x4 CALLDATASIZE LT PUSH2 0x29 JUMPI PUSH0 CALLDATALOAD PUSH1 0xE0 SHR DUP1 PUSH4 0x3AEAAF4A EQ PUSH2 0x2D JUMPI JUMPDEST PUSH0 PUSH0 REVERT JUMPDEST PUSH2 0x47 PUSH1 0x4 DUP1 CALLDATASIZE SUB DUP2 ADD SWAP1 PUSH2 0x42 SWAP2 SWAP1 PUSH2 0x194 JUMP JUMPDEST PUSH2 0x5D JUMP JUMPDEST PUSH1 0x40 MLOAD PUSH2 0x54 SWAP2 SWAP1 PUSH2 0x21A JUMP JUMPDEST PUSH1 0x40 MLOAD DUP1 SWAP2 SUB SWAP1 RETURN JUMPDEST PUSH0 DUP6 DUP6 DUP6 DUP6 DUP6 CALLER PUSH1 0x40 MLOAD PUSH2 0x70 SWAP1 PUSH2 0xF2 JUMP JUMPDEST PUSH2 0x7F SWAP7 SWAP6 SWAP5 SWAP4 SWAP3 SWAP2 SWAP1 PUSH2 0x242 JUMP JUMPDEST PUSH1 0x40 MLOAD DUP1 SWAP2 SUB SWAP1 PUSH0 CREATE DUP1 ISZERO DUP1 ISZERO PUSH2 0x98 JUMPI RETURNDATASIZE PUSH0 PUSH0 RETURNDATACOPY RETURNDATASIZE PUSH0 REVERT JUMPDEST POP SWAP1 POP CALLER PUSH20 0xFFFFFFFFFFFFFFFFFFFFFFFFFFFFFFFFFFFFFFFF AND PUSH32 0x22142B283581F0B2A487F7A23E0422D292EB5783629173717AA106744AD70D60 DUP3 PUSH1 0x40 MLOAD PUSH2 0xE1 SWAP2 SWAP1 PUSH2 0x21A JUMP JUMPDEST PUSH1 0x40 MLOAD DUP1 SWAP2 SUB SWAP1 LOG2 SWAP6 SWAP5 POP POP POP POP POP JUMP JUMPDEST PUSH2 0x1E7D DUP1 PUSH2 0x2A2 DUP4 CODECOPY ADD SWAP1 JUMP JUMPDEST PUSH0 PUSH0 REVERT JUMPDEST PUSH0 PUSH20 0xFFFFFFFFFFFFFFFFFFFFFFFFFFFFFFFFFFFFFFFF DUP3 AND SWAP1 POP SWAP2 SWAP1 POP JUMP JUMPDEST PUSH0 PUSH2 0x12C DUP3 PUSH2 0x103 JUMP JUMPDEST SWAP1 POP SWAP2 SWAP1 POP JUMP JUMPDEST PUSH2 0x13C DUP2 PUSH2 0x122 JUMP JUMPDEST DUP2 EQ PUSH2 0x146 JUMPI PUSH0 PUSH0 REVERT JUMPDEST POP JUMP JUMPDEST PUSH0 DUP2 CALLDATALOAD SWAP1 POP PUSH2 0x157 DUP2 PUSH2 0x133 JUMP JUMPDEST SWAP3 SWAP2 POP POP JUMP JUMPDEST PUSH0 PUSH2 0xFFFF DUP3 AND SWAP1 POP SWAP2 SWAP1 POP JUMP JUMPDEST PUSH2 0x173 DUP2 PUSH2 0x15D JUMP JUMPDEST DUP2 EQ PUSH2 0x17D JUMPI PUSH0 PUSH0 REVERT JUMPDEST POP JUMP JUMPDEST PUSH0 DUP2 CALLDATALOAD SWAP1 POP PUSH2 0x18E DUP2 PUSH2 0x16A JUMP JUMPDEST SWAP3 SWAP2 POP POP JUMP JUMPDEST PUSH0 PUSH0 PUSH0 PUSH0 PUSH0 PUSH1 0xA0 DUP7 DUP9 SUB SLT ISZERO PUSH2 0x1AD JUMPI PUSH2 0x1AC PUSH2 0xFF JUMP JUMPDEST JUMPDEST PUSH0 PUSH2 0x1BA DUP9 DUP3 DUP10 ADD PUSH2 0x149 JUMP JUMPDEST SWAP6 POP POP PUSH1 0x20 PUSH2 0x1CB DUP9 DUP3 DUP10 ADD PUSH2 0x149 JUMP JUMPDEST SWAP5 POP POP PUSH1 0x40 PUSH2 0x1DC DUP9 DUP3 DUP10 ADD PUSH2 0x149 JUMP JUMPDEST SWAP4 POP POP PUSH1 0x60 PUSH2 0x1ED DUP9 DUP3 DUP10 ADD PUSH2 0x180 JUMP JUMPDEST SWAP3 POP POP PUSH1 0x80 PUSH2 0x1FE DUP9 DUP3 DUP10 ADD PUSH2 0x180 JUMP JUMPDEST SWAP2 POP POP SWAP3 SWAP6 POP SWAP3 SWAP6 SWAP1 SWAP4 POP JUMP JUMPDEST PUSH2 0x214 DUP2 PUSH2 0x122 JUMP JUMPDEST DUP3 MSTORE POP POP JUMP JUMPDEST PUSH0 PUSH1 0x20 DUP3 ADD SWAP1 POP PUSH2 0x22D PUSH0 DUP4 ADD DUP5 PUSH2 0x20B JUMP JUMPDEST SWAP3 SWAP2 POP POP JUMP JUMPDEST PUSH2 0x23C DUP2 PUSH2 0x15D JUMP JUMPDEST DUP3 MSTORE POP POP JUMP JUMPDEST PUSH0 PUSH1 0xC0 DUP3 ADD SWAP1 POP PUSH2 0x255 PUSH0 DUP4 ADD DUP10 PUSH2 0x20B JUMP JUMPDEST PUSH2 0x262 PUSH1 0x20 DUP4 ADD DUP9 PUSH2 0x20B JUMP JUMPDEST PUSH2 0x26F PUSH1 0x40 DUP4 ADD DUP8 PUSH2 0x20B JUMP JUMPDEST PUSH2 0x27C PUSH1 0x60 DUP4 ADD DUP7 PUSH2 0x233 JUMP JUMPDEST PUSH2 0x289 PUSH1 0x80 DUP4 ADD DUP6 PUSH2 0x233 JUMP JUMPDEST PUSH2 0x296 PUSH1 0xA0 DUP4 ADD DUP5 PUSH2 0x20B JUMP JUMPDEST SWAP8 SWAP7 POP POP POP POP POP POP POP JUMP INVALID PUSH1 0xA0 PUSH1 0x40 MSTORE CALLVALUE DUP1 ISZERO PUSH2 0xF JUMPI PUSH0 PUSH0 REVERT JUMPDEST POP PUSH1 0x40 MLOAD PUSH2 0x1E7D CODESIZE SUB DUP1 PUSH2 0x1E7D DUP4 CODECOPY DUP2 DUP2 ADD PUSH1 0x40 MSTORE DUP2 ADD SWAP1 PUSH2 0x31 SWAP2 SWAP1 PUSH2 0x568 JUMP JUMPDEST PUSH1 0x1 DUP1 DUP2 SWAP1 SSTORE POP PUSH0 PUSH20 0xFFFFFFFFFFFFFFFFFFFFFFFFFFFFFFFFFFFFFFFF AND DUP7 PUSH20 0xFFFFFFFFFFFFFFFFFFFFFFFFFFFFFFFFFFFFFFFF AND SUB PUSH2 0xA6 JUMPI PUSH1 0x40 MLOAD PUSH32 0x8C379A000000000000000000000000000000000000000000000000000000000 DUP2 MSTORE PUSH1 0x4 ADD PUSH2 0x9D SWAP1 PUSH2 0x64B JUMP JUMPDEST PUSH1 0x40 MLOAD DUP1 SWAP2 SUB SWAP1 REVERT JUMPDEST PUSH0 PUSH20 0xFFFFFFFFFFFFFFFFFFFFFFFFFFFFFFFFFFFFFFFF AND DUP6 PUSH20 0xFFFFFFFFFFFFFFFFFFFFFFFFFFFFFFFFFFFFFFFF AND SUB PUSH2 0x114 JUMPI PUSH1 0x40 MLOAD PUSH32 0x8C379A000000000000000000000000000000000000000000000000000000000 DUP2 MSTORE PUSH1 0x4 ADD PUSH2 0x10B SWAP1 PUSH2 0x6B3 JUMP JUMPDEST PUSH1 0x40 MLOAD DUP1 SWAP2 SUB SWAP1 REVERT JUMPDEST PUSH0 PUSH20 0xFFFFFFFFFFFFFFFFFFFFFFFFFFFFFFFFFFFFFFFF AND DUP5 PUSH20 0xFFFFFFFFFFFFFFFFFFFFFFFFFFFFFFFFFFFFFFFF AND SUB PUSH2 0x182 JUMPI PUSH1 0x40 MLOAD PUSH32 0x8C379A000000000000000000000000000000000000000000000000000000000 DUP2 MSTORE PUSH1 0x4 ADD PUSH2 0x179 SWAP1 PUSH2 0x71B JUMP JUMPDEST PUSH1 0x40 MLOAD DUP1 SWAP2 SUB SWAP1 REVERT JUMPDEST PUSH2 0x2710 DUP3 DUP5 PUSH2 0x191 SWAP2 SWAP1 PUSH2 0x766 JUMP JUMPDEST PUSH2 0xFFFF AND EQ PUSH2 0x1D5 JUMPI PUSH1 0x40 MLOAD PUSH32 0x8C379A000000000000000000000000000000000000000000000000000000000 DUP2 MSTORE PUSH1 0x4 ADD PUSH2 0x1CC SWAP1 PUSH2 0x7E5 JUMP JUMPDEST PUSH1 0x40 MLOAD DUP1 SWAP2 SUB SWAP1 REVERT JUMPDEST DUP6 PUSH20 0xFFFFFFFFFFFFFFFFFFFFFFFFFFFFFFFFFFFFFFFF AND PUSH1 0x80 DUP2 PUSH20 0xFFFFFFFFFFFFFFFFFFFFFFFFFFFFFFFFFFFFFFFF AND DUP2 MSTORE POP POP DUP5 PUSH1 0x2 PUSH0 PUSH2 0x100 EXP DUP2 SLOAD DUP2 PUSH20 0xFFFFFFFFFFFFFFFFFFFFFFFFFFFFFFFFFFFFFFFF MUL NOT AND SWAP1 DUP4 PUSH20 0xFFFFFFFFFFFFFFFFFFFFFFFFFFFFFFFFFFFFFFFF AND MUL OR SWAP1 SSTORE POP DUP4 PUSH1 0x3 PUSH0 PUSH2 0x100 EXP DUP2 SLOAD DUP2 PUSH20 0xFFFFFFFFFFFFFFFFFFFFFFFFFFFFFFFFFFFFFFFF MUL NOT AND SWAP1 DUP4 PUSH20 0xFFFFFFFFFFFFFFFFFFFFFFFFFFFFFFFFFFFFFFFF AND MUL OR SWAP1 SSTORE POP DUP3 PUSH1 0x3 PUSH1 0x14 PUSH2 0x100 EXP DUP2 SLOAD DUP2 PUSH2 0xFFFF MUL NOT AND SWAP1 DUP4 PUSH2 0xFFFF AND MUL OR SWAP1 SSTORE POP DUP2 PUSH1 0x3 PUSH1 0x16 PUSH2 0x100 EXP DUP2 SLOAD DUP2 PUSH2 0xFFFF MUL NOT AND SWAP1 DUP4 PUSH2 0xFFFF AND MUL OR SWAP1 SSTORE POP PUSH2 0x2D5 PUSH0 PUSH0 SHL DUP3 PUSH2 0x374 PUSH1 0x20 SHL PUSH1 0x20 SHR JUMP JUMPDEST POP PUSH2 0x306 PUSH32 0x241ECF16D79D0F8DBFB92CBC07FE17840425976CF0667F022FE9877CAA831B08 DUP3 PUSH2 0x374 PUSH1 0x20 SHL PUSH1 0x20 SHR JUMP JUMPDEST POP PUSH2 0x337 PUSH32 0xEBEA61BAC29E76544EF1875472AAFF98E28D2DB11686C8CBEF6C2B35DBE32407 DUP7 PUSH2 0x374 PUSH1 0x20 SHL PUSH1 0x20 SHR JUMP JUMPDEST POP PUSH2 0x368 PUSH32 0xEBEA61BAC29E76544EF1875472AAFF98E28D2DB11686C8CBEF6C2B35DBE32407 DUP6 PUSH2 0x374 PUSH1 0x20 SHL PUSH1 0x20 SHR JUMP JUMPDEST POP POP POP POP POP POP POP PUSH2 0x803 JUMP JUMPDEST PUSH0 PUSH2 0x385 DUP4 DUP4 PUSH2 0x469 PUSH1 0x20 SHL PUSH1 0x20 SHR JUMP JUMPDEST PUSH2 0x45F JUMPI PUSH1 0x1 PUSH0 PUSH0 DUP6 DUP2 MSTORE PUSH1 0x20 ADD SWAP1 DUP2 MSTORE PUSH1 0x20 ADD PUSH0 KECCAK256 PUSH0 ADD PUSH0 DUP5 PUSH20 0xFFFFFFFFFFFFFFFFFFFFFFFFFFFFFFFFFFFFFFFF AND PUSH20 0xFFFFFFFFFFFFFFFFFFFFFFFFFFFFFFFFFFFFFFFF AND DUP2 MSTORE PUSH1 0x20 ADD SWAP1 DUP2 MSTORE PUSH1 0x20 ADD PUSH0 KECCAK256 PUSH0 PUSH2 0x100 EXP DUP2 SLOAD DUP2 PUSH1 0xFF MUL NOT AND SWAP1 DUP4 ISZERO ISZERO MUL OR SWAP1 SSTORE POP PUSH2 0x3FC PUSH2 0x4CC PUSH1 0x20 SHL PUSH1 0x20 SHR JUMP JUMPDEST PUSH20 0xFFFFFFFFFFFFFFFFFFFFFFFFFFFFFFFFFFFFFFFF AND DUP3 PUSH20 0xFFFFFFFFFFFFFFFFFFFFFFFFFFFFFFFFFFFFFFFF AND DUP5 PUSH32 0x2F8788117E7EFF1D82E926EC794901D17C78024A50270940304540A733656F0D PUSH1 0x40 MLOAD PUSH1 0x40 MLOAD DUP1 SWAP2 SUB SWAP1 LOG4 PUSH1 0x1 SWAP1 POP PUSH2 0x463 JUMP JUMPDEST PUSH0 SWAP1 POP JUMPDEST SWAP3 SWAP2 POP POP JUMP JUMPDEST PUSH0 PUSH0 PUSH0 DUP5 DUP2 MSTORE PUSH1 0x20 ADD SWAP1 DUP2 MSTORE PUSH1 0x20 ADD PUSH0 KECCAK256 PUSH0 ADD PUSH0 DUP4 PUSH20 0xFFFFFFFFFFFFFFFFFFFFFFFFFFFFFFFFFFFFFFFF AND PUSH20 0xFFFFFFFFFFFFFFFFFFFFFFFFFFFFFFFFFFFFFFFF AND DUP2 MSTORE PUSH1 0x20 ADD SWAP1 DUP2 MSTORE PUSH1 0x20 ADD PUSH0 KECCAK256 PUSH0 SWAP1 SLOAD SWAP1 PUSH2 0x100 EXP SWAP1 DIV PUSH1 0xFF AND SWAP1 POP SWAP3 SWAP2 POP POP JUMP JUMPDEST PUSH0 CALLER SWAP1 POP SWAP1 JUMP JUMPDEST PUSH0 PUSH0 REVERT JUMPDEST PUSH0 PUSH20 0xFFFFFFFFFFFFFFFFFFFFFFFFFFFFFFFFFFFFFFFF DUP3 AND SWAP1 POP SWAP2 SWAP1 POP JUMP JUMPDEST PUSH0 PUSH2 0x500 DUP3 PUSH2 0x4D7 JUMP JUMPDEST SWAP1 POP SWAP2 SWAP1 POP JUMP JUMPDEST PUSH2 0x510 DUP2 PUSH2 0x4F6 JUMP JUMPDEST DUP2 EQ PUSH2 0x51A JUMPI PUSH0 PUSH0 REVERT JUMPDEST POP JUMP JUMPDEST PUSH0 DUP2 MLOAD SWAP1 POP PUSH2 0x52B DUP2 PUSH2 0x507 JUMP JUMPDEST SWAP3 SWAP2 POP POP JUMP JUMPDEST PUSH0 PUSH2 0xFFFF DUP3 AND SWAP1 POP SWAP2 SWAP1 POP JUMP JUMPDEST PUSH2 0x547 DUP2 PUSH2 0x531 JUMP JUMPDEST DUP2 EQ PUSH2 0x551 JUMPI PUSH0 PUSH0 REVERT JUMPDEST POP JUMP JUMPDEST PUSH0 DUP2 MLOAD SWAP1 POP PUSH2 0x562 DUP2 PUSH2 0x53E JUMP JUMPDEST SWAP3 SWAP2 POP POP JUMP JUMPDEST PUSH0 PUSH0 PUSH0 PUSH0 PUSH0 PUSH0 PUSH1 0xC0 DUP8 DUP10 SUB SLT ISZERO PUSH2 0x582 JUMPI PUSH2 0x581 PUSH2 0x4D3 JUMP JUMPDEST JUMPDEST PUSH0 PUSH2 0x58F DUP10 DUP3 DUP11 ADD PUSH2 0x51D JUMP JUMPDEST SWAP7 POP POP PUSH1 0x20 PUSH2 0x5A0 DUP10 DUP3 DUP11 ADD PUSH2 0x51D JUMP JUMPDEST SWAP6 POP POP PUSH1 0x40 PUSH2 0x5B1 DUP10 DUP3 DUP11 ADD PUSH2 0x51D JUMP JUMPDEST SWAP5 POP POP PUSH1 0x60 PUSH2 0x5C2 DUP10 DUP3 DUP11 ADD PUSH2 0x554 JUMP JUMPDEST SWAP4 POP POP PUSH1 0x80 PUSH2 0x5D3 DUP10 DUP3 DUP11 ADD PUSH2 0x554 JUMP JUMPDEST SWAP3 POP POP PUSH1 0xA0 PUSH2 0x5E4 DUP10 DUP3 DUP11 ADD PUSH2 0x51D JUMP JUMPDEST SWAP2 POP POP SWAP3 SWAP6 POP SWAP3 SWAP6 POP SWAP3 SWAP6 JUMP JUMPDEST PUSH0 DUP3 DUP3 MSTORE PUSH1 0x20 DUP3 ADD SWAP1 POP SWAP3 SWAP2 POP POP JUMP JUMPDEST PUSH32 0x746F6B656E3D3000000000000000000000000000000000000000000000000000 PUSH0 DUP3 ADD MSTORE POP JUMP JUMPDEST PUSH0 PUSH2 0x635 PUSH1 0x7 DUP4 PUSH2 0x5F1 JUMP JUMPDEST SWAP2 POP PUSH2 0x640 DUP3 PUSH2 0x601 JUMP JUMPDEST PUSH1 0x20 DUP3 ADD SWAP1 POP SWAP2 SWAP1 POP JUMP JUMPDEST PUSH0 PUSH1 0x20 DUP3 ADD SWAP1 POP DUP2 DUP2 SUB PUSH0 DUP4 ADD MSTORE PUSH2 0x662 DUP2 PUSH2 0x629 JUMP JUMPDEST SWAP1 POP SWAP2 SWAP1 POP JUMP JUMPDEST PUSH32 0x7075623D30000000000000000000000000000000000000000000000000000000 PUSH0 DUP3 ADD MSTORE POP JUMP JUMPDEST PUSH0 PUSH2 0x69D PUSH1 0x5 DUP4 PUSH2 0x5F1 JUMP JUMPDEST SWAP2 POP PUSH2 0x6A8 DUP3 PUSH2 0x669 JUMP JUMPDEST PUSH1 0x20 DUP3 ADD SWAP1 POP SWAP2 SWAP1 POP JUMP JUMPDEST PUSH0 PUSH1 0x20 DUP3 ADD SWAP1 POP DUP2 DUP2 SUB PUSH0 DUP4 ADD MSTORE PUSH2 0x6CA DUP2 PUSH2 0x691 JUMP JUMPDEST SWAP1 POP SWAP2 SWAP1 POP JUMP JUMPDEST PUSH32 0x646576733D300000000000000000000000000000000000000000000000000000 PUSH0 DUP3 ADD MSTORE POP JUMP JUMPDEST PUSH0 PUSH2 0x705 PUSH1 0x6 DUP4 PUSH2 0x5F1 JUMP JUMPDEST SWAP2 POP PUSH2 0x710 DUP3 PUSH2 0x6D1 JUMP JUMPDEST PUSH1 0x20 DUP3 ADD SWAP1 POP SWAP2 SWAP1 POP JUMP JUMPDEST PUSH0 PUSH1 0x20 DUP3 ADD SWAP1 POP DUP2 DUP2 SUB PUSH0 DUP4 ADD MSTORE PUSH2 0x732 DUP2 PUSH2 0x6F9 JUMP JUMPDEST SWAP1 POP SWAP2 SWAP1 POP JUMP JUMPDEST PUSH32 0x4E487B7100000000000000000000000000000000000000000000000000000000 PUSH0 MSTORE PUSH1 0x11 PUSH1 0x4 MSTORE PUSH1 0x24 PUSH0 REVERT JUMPDEST PUSH0 PUSH2 0x770 DUP3 PUSH2 0x531 JUMP JUMPDEST SWAP2 POP PUSH2 0x77B DUP4 PUSH2 0x531 JUMP JUMPDEST SWAP3 POP DUP3 DUP3 ADD SWAP1 POP PUSH2 0xFFFF DUP2 GT ISZERO PUSH2 0x795 JUMPI PUSH2 0x794 PUSH2 0x739 JUMP JUMPDEST JUMPDEST SWAP3 SWAP2 POP POP JUMP JUMPDEST PUSH32 0x6270732073756D20213D20313030303000000000000000000000000000000000 PUSH0 DUP3 ADD MSTORE POP JUMP JUMPDEST PUSH0 PUSH2 0x7CF PUSH1 0x10 DUP4 PUSH2 0x5F1 JUMP JUMPDEST SWAP2 POP PUSH2 0x7DA DUP3 PUSH2 0x79B JUMP JUMPDEST PUSH1 0x20 DUP3 ADD SWAP1 POP SWAP2 SWAP1 POP JUMP JUMPDEST PUSH0 PUSH1 0x20 DUP3 ADD SWAP1 POP DUP2 DUP2 SUB PUSH0 DUP4 ADD MSTORE PUSH2 0x7FC DUP2 PUSH2 0x7C3 JUMP JUMPDEST SWAP1 POP SWAP2 SWAP1 POP JUMP JUMPDEST PUSH1 0x80 MLOAD PUSH2 0x1638 PUSH2 0x845 PUSH0 CODECOPY PUSH0 DUP2 DUP2 PUSH2 0x38F ADD MSTORE DUP2 DUP2 PUSH2 0x5E3 ADD MSTORE DUP2 DUP2 PUSH2 0x6BF ADD MSTORE DUP2 DUP2 PUSH2 0x811 ADD MSTORE DUP2 DUP2 PUSH2 0x92C ADD MSTORE DUP2 DUP2 PUSH2 0xA27 ADD MSTORE PUSH2 0xBC7 ADD MSTORE PUSH2 0x1638 PUSH0 RETURN INVALID PUSH1 0x80 PUSH1 0x40 MSTORE CALLVALUE DUP1 ISZERO PUSH2 0xF JUMPI PUSH0 PUSH0 REVERT JUMPDEST POP PUSH1 0x4 CALLDATASIZE LT PUSH2 0x109 JUMPI PUSH0 CALLDATALOAD PUSH1 0xE0 SHR DUP1 PUSH4 0xA217FDDF GT PUSH2 0xA0 JUMPI DUP1 PUSH4 0xE4FC6B6D GT PUSH2 0x6F JUMPI DUP1 PUSH4 0xE4FC6B6D EQ PUSH2 0x291 JUMPI DUP1 PUSH4 0xE98C0990 EQ PUSH2 0x29B JUMPI DUP1 PUSH4 0xEB09C17C EQ PUSH2 0x2B9 JUMPI DUP1 PUSH4 0xEC87621C EQ PUSH2 0x2D7 JUMPI DUP1 PUSH4 0xFC0C546A EQ PUSH2 0x2F5 JUMPI PUSH2 0x109 JUMP JUMPDEST DUP1 PUSH4 0xA217FDDF EQ PUSH2 0x22F JUMPI DUP1 PUSH4 0xAAECFA63 EQ PUSH2 0x24D JUMPI DUP1 PUSH4 0xD547741F EQ PUSH2 0x26B JUMPI DUP1 PUSH4 0xDB2E21BC EQ PUSH2 0x287 JUMPI PUSH2 0x109 JUMP JUMPDEST DUP1 PUSH4 0x36568ABE GT PUSH2 0xDC JUMPI DUP1 PUSH4 0x36568ABE EQ PUSH2 0x1A7 JUMPI DUP1 PUSH4 0x8C72C54E EQ PUSH2 0x1C3 JUMPI DUP1 PUSH4 0x91D14854 EQ PUSH2 0x1E1 JUMPI DUP1 PUSH4 0x9A96F829 EQ PUSH2 0x211 JUMPI PUSH2 0x109 JUMP JUMPDEST DUP1 PUSH4 0x1FFC9A7 EQ PUSH2 0x10D JUMPI DUP1 PUSH4 0x12065FE0 EQ PUSH2 0x13D JUMPI DUP1 PUSH4 0x248A9CA3 EQ PUSH2 0x15B JUMPI DUP1 PUSH4 0x2F2FF15D EQ PUSH2 0x18B JUMPI JUMPDEST PUSH0 PUSH0 REVERT JUMPDEST PUSH2 0x127 PUSH1 0x4 DUP1 CALLDATASIZE SUB DUP2 ADD SWAP1 PUSH2 0x122 SWAP2 SWAP1 PUSH2 0xF41 JUMP JUMPDEST PUSH2 0x313 JUMP JUMPDEST PUSH1 0x40 MLOAD PUSH2 0x134 SWAP2 SWAP1 PUSH2 0xF86 JUMP JUMPDEST PUSH1 0x40 MLOAD DUP1 SWAP2 SUB SWAP1 RETURN JUMPDEST PUSH2 0x145 PUSH2 0x38C JUMP JUMPDEST PUSH1 0x40 MLOAD PUSH2 0x152 SWAP2 SWAP1 PUSH2 0xFB7 JUMP JUMPDEST PUSH1 0x40 MLOAD DUP1 SWAP2 SUB SWAP1 RETURN JUMPDEST PUSH2 0x175 PUSH1 0x4 DUP1 CALLDATASIZE SUB DUP2 ADD SWAP1 PUSH2 0x170 SWAP2 SWAP1 PUSH2 0x1003 JUMP JUMPDEST PUSH2 0x42A JUMP JUMPDEST PUSH1 0x40 MLOAD PUSH2 0x182 SWAP2 SWAP1 PUSH2 0x103D JUMP JUMPDEST PUSH1 0x40 MLOAD DUP1 SWAP2 SUB SWAP1 RETURN JUMPDEST PUSH2 0x1A5 PUSH1 0x4 DUP1 CALLDATASIZE SUB DUP2 ADD SWAP1 PUSH2 0x1A0 SWAP2 SWAP1 PUSH2 0x10B0 JUMP JUMPDEST PUSH2 0x446 JUMP JUMPDEST STOP JUMPDEST PUSH2 0x1C1 PUSH1 0x4 DUP1 CALLDATASIZE SUB DUP2 ADD SWAP1 PUSH2 0x1BC SWAP2 SWAP1 PUSH2 0x10B0 JUMP JUMPDEST PUSH2 0x468 JUMP JUMPDEST STOP JUMPDEST PUSH2 0x1CB PUSH2 0x4E3 JUMP JUMPDEST PUSH1 0x40 MLOAD PUSH2 0x1D8 SWAP2 SWAP1 PUSH2 0x10FD JUMP JUMPDEST PUSH1 0x40 MLOAD DUP1 SWAP2 SUB SWAP1 RETURN JUMPDEST PUSH2 0x1FB PUSH1 0x4 DUP1 CALLDATASIZE SUB DUP2 ADD SWAP1 PUSH2 0x1F6 SWAP2 SWAP1 PUSH2 0x10B0 JUMP JUMPDEST PUSH2 0x508 JUMP JUMPDEST PUSH1 0x40 MLOAD PUSH2 0x208 SWAP2 SWAP1 PUSH2 0xF86 JUMP JUMPDEST PUSH1 0x40 MLOAD DUP1 SWAP2 SUB SWAP1 RETURN JUMPDEST PUSH2 0x219 PUSH2 0x56B JUMP JUMPDEST PUSH1 0x40 MLOAD PUSH2 0x226 SWAP2 SWAP1 PUSH2 0x10FD JUMP JUMPDEST PUSH1 0x40 MLOAD DUP1 SWAP2 SUB SWAP1 RETURN JUMPDEST PUSH2 0x237 PUSH2 0x590 JUMP JUMPDEST PUSH1 0x40 MLOAD PUSH2 0x244 SWAP2 SWAP1 PUSH2 0x103D JUMP JUMPDEST PUSH1 0x40 MLOAD DUP1 SWAP2 SUB SWAP1 RETURN JUMPDEST PUSH2 0x255 PUSH2 0x596 JUMP JUMPDEST PUSH1 0x40 MLOAD PUSH2 0x262 SWAP2 SWAP1 PUSH2 0x1132 JUMP JUMPDEST PUSH1 0x40 MLOAD DUP1 SWAP2 SUB SWAP1 RETURN JUMPDEST PUSH2 0x285 PUSH1 0x4 DUP1 CALLDATASIZE SUB DUP2 ADD SWAP1 PUSH2 0x280 SWAP2 SWAP1 PUSH2 0x10B0 JUMP JUMPDEST PUSH2 0x5AA JUMP JUMPDEST STOP JUMPDEST PUSH2 0x28F PUSH2 0x5CC JUMP JUMPDEST STOP JUMPDEST PUSH2 0x299 PUSH2 0x7DC JUMP JUMPDEST STOP JUMPDEST PUSH2 0x2A3 PUSH2 0xB69 JUMP JUMPDEST PUSH1 0x40 MLOAD PUSH2 0x2B0 SWAP2 SWAP1 PUSH2 0x1132 JUMP JUMPDEST PUSH1 0x40 MLOAD DUP1 SWAP2 SUB SWAP1 RETURN JUMPDEST PUSH2 0x2C1 PUSH2 0xB7D JUMP JUMPDEST PUSH1 0x40 MLOAD PUSH2 0x2CE SWAP2 SWAP1 PUSH2 0x103D JUMP JUMPDEST PUSH1 0x40 MLOAD DUP1 SWAP2 SUB SWAP1 RETURN JUMPDEST PUSH2 0x2DF PUSH2 0xBA1 JUMP JUMPDEST PUSH1 0x40 MLOAD PUSH2 0x2EC SWAP2 SWAP1 PUSH2 0x103D JUMP JUMPDEST PUSH1 0x40 MLOAD DUP1 SWAP2 SUB SWAP1 RETURN JUMPDEST PUSH2 0x2FD PUSH2 0xBC5 JUMP JUMPDEST PUSH1 0x40 MLOAD PUSH2 0x30A SWAP2 SWAP1 PUSH2 0x11A6 JUMP JUMPDEST PUSH1 0x40 MLOAD DUP1 SWAP2 SUB SWAP1 RETURN JUMPDEST PUSH0 PUSH32 0x7965DB0B00000000000000000000000000000000000000000000000000000000 PUSH28 0xFFFFFFFFFFFFFFFFFFFFFFFFFFFFFFFFFFFFFFFFFFFFFFFFFFFFFFFF NOT AND DUP3 PUSH28 0xFFFFFFFFFFFFFFFFFFFFFFFFFFFFFFFFFFFFFFFFFFFFFFFFFFFFFFFF NOT AND EQ DUP1 PUSH2 0x385 JUMPI POP PUSH2 0x384 DUP3 PUSH2 0xBE9 JUMP JUMPDEST JUMPDEST SWAP1 POP SWAP2 SWAP1 POP JUMP JUMPDEST PUSH0 PUSH32 0x0 PUSH20 0xFFFFFFFFFFFFFFFFFFFFFFFFFFFFFFFFFFFFFFFF AND PUSH4 0x70A08231 ADDRESS PUSH1 0x40 MLOAD DUP3 PUSH4 0xFFFFFFFF AND PUSH1 0xE0 SHL DUP2 MSTORE PUSH1 0x4 ADD PUSH2 0x3E6 SWAP2 SWAP1 PUSH2 0x10FD JUMP JUMPDEST PUSH1 0x20 PUSH1 0x40 MLOAD DUP1 DUP4 SUB DUP2 DUP7 GAS STATICCALL ISZERO DUP1 ISZERO PUSH2 0x401 JUMPI RETURNDATASIZE PUSH0 PUSH0 RETURNDATACOPY RETURNDATASIZE PUSH0 REVERT JUMPDEST POP POP POP POP PUSH1 0x40 MLOAD RETURNDATASIZE PUSH1 0x1F NOT PUSH1 0x1F DUP3 ADD AND DUP3 ADD DUP1 PUSH1 0x40 MSTORE POP DUP2 ADD SWAP1 PUSH2 0x425 SWAP2 SWAP1 PUSH2 0x11E9 JUMP JUMPDEST SWAP1 POP SWAP1 JUMP JUMPDEST PUSH0 PUSH0 PUSH0 DUP4 DUP2 MSTORE PUSH1 0x20 ADD SWAP1 DUP2 MSTORE PUSH1 0x20 ADD PUSH0 KECCAK256 PUSH1 0x1 ADD SLOAD SWAP1 POP SWAP2 SWAP1 POP JUMP JUMPDEST PUSH2 0x44F DUP3 PUSH2 0x42A JUMP JUMPDEST PUSH2 0x458 DUP2 PUSH2 0xC52 JUMP JUMPDEST PUSH2 0x462 DUP4 DUP4 PUSH2 0xC66 JUMP JUMPDEST POP POP POP POP JUMP JUMPDEST PUSH2 0x470 PUSH2 0xD4F JUMP JUMPDEST PUSH20 0xFFFFFFFFFFFFFFFFFFFFFFFFFFFFFFFFFFFFFFFF AND DUP2 PUSH20 0xFFFFFFFFFFFFFFFFFFFFFFFFFFFFFFFFFFFFFFFF AND EQ PUSH2 0x4D4 JUMPI PUSH1 0x40 MLOAD PUSH32 0x6697B23200000000000000000000000000000000000000000000000000000000 DUP2 MSTORE PUSH1 0x4 ADD PUSH1 0x40 MLOAD DUP1 SWAP2 SUB SWAP1 REVERT JUMPDEST PUSH2 0x4DE DUP3 DUP3 PUSH2 0xD56 JUMP JUMPDEST POP POP POP JUMP JUMPDEST PUSH1 0x2 PUSH0 SWAP1 SLOAD SWAP1 PUSH2 0x100 EXP SWAP1 DIV PUSH20 0xFFFFFFFFFFFFFFFFFFFFFFFFFFFFFFFFFFFFFFFF AND DUP2 JUMP JUMPDEST PUSH0 PUSH0 PUSH0 DUP5 DUP2 MSTORE PUSH1 0x20 ADD SWAP1 DUP2 MSTORE PUSH1 0x20 ADD PUSH0 KECCAK256 PUSH0 ADD PUSH0 DUP4 PUSH20 0xFFFFFFFFFFFFFFFFFFFFFFFFFFFFFFFFFFFFFFFF AND PUSH20 0xFFFFFFFFFFFFFFFFFFFFFFFFFFFFFFFFFFFFFFFF AND DUP2 MSTORE PUSH1 0x20 ADD SWAP1 DUP2 MSTORE PUSH1 0x20 ADD PUSH0 KECCAK256 PUSH0 SWAP1 SLOAD SWAP1 PUSH2 0x100 EXP SWAP1 DIV PUSH1 0xFF AND SWAP1 POP SWAP3 SWAP2 POP POP JUMP JUMPDEST PUSH1 0x3 PUSH0 SWAP1 SLOAD SWAP1 PUSH2 0x100 EXP SWAP1 DIV PUSH20 0xFFFFFFFFFFFFFFFFFFFFFFFFFFFFFFFFFFFFFFFF AND DUP2 JUMP JUMPDEST PUSH0 PUSH0 SHL DUP2 JUMP JUMPDEST PUSH1 0x3 PUSH1 0x14 SWAP1 SLOAD SWAP1 PUSH2 0x100 EXP SWAP1 DIV PUSH2 0xFFFF AND DUP2 JUMP JUMPDEST PUSH2 0x5B3 DUP3 PUSH2 0x42A JUMP JUMPDEST PUSH2 0x5BC DUP2 PUSH2 0xC52 JUMP JUMPDEST PUSH2 0x5C6 DUP4 DUP4 PUSH2 0xD56 JUMP JUMPDEST POP POP POP POP JUMP JUMPDEST PUSH0 PUSH0 SHL PUSH2 0x5D8 DUP2 PUSH2 0xC52 JUMP JUMPDEST PUSH2 0x5E0 PUSH2 0xE3F JUMP JUMPDEST PUSH0 PUSH32 0x0 PUSH20 0xFFFFFFFFFFFFFFFFFFFFFFFFFFFFFFFFFFFFFFFF AND PUSH4 0x70A08231 ADDRESS PUSH1 0x40 MLOAD DUP3 PUSH4 0xFFFFFFFF AND PUSH1 0xE0 SHL DUP2 MSTORE PUSH1 0x4 ADD PUSH2 0x63A SWAP2 SWAP1 PUSH2 0x10FD JUMP JUMPDEST PUSH1 0x20 PUSH1 0x40 MLOAD DUP1 DUP4 SUB DUP2 DUP7 GAS STATICCALL ISZERO DUP1 ISZERO PUSH2 0x655 JUMPI RETURNDATASIZE PUSH0 PUSH0 RETURNDATACOPY RETURNDATASIZE PUSH0 REVERT JUMPDEST POP POP POP POP PUSH1 0x40 MLOAD RETURNDATASIZE PUSH1 0x1F NOT PUSH1 0x1F DUP3 ADD AND DUP3 ADD DUP1 PUSH1 0x40 MSTORE POP DUP2 ADD SWAP1 PUSH2 0x679 SWAP2 SWAP1 PUSH2 0x11E9 JUMP JUMPDEST SWAP1 POP PUSH0 DUP2 GT PUSH2 0x6BD JUMPI PUSH1 0x40 MLOAD PUSH32 0x8C379A000000000000000000000000000000000000000000000000000000000 DUP2 MSTORE PUSH1 0x4 ADD PUSH2 0x6B4 SWAP1 PUSH2 0x126E JUMP JUMPDEST PUSH1 0x40 MLOAD DUP1 SWAP2 SUB SWAP1 REVERT JUMPDEST PUSH32 0x0 PUSH20 0xFFFFFFFFFFFFFFFFFFFFFFFFFFFFFFFFFFFFFFFF AND PUSH4 0xA9059CBB CALLER DUP4 PUSH1 0x40 MLOAD DUP4 PUSH4 0xFFFFFFFF AND PUSH1 0xE0 SHL DUP2 MSTORE PUSH1 0x4 ADD PUSH2 0x718 SWAP3 SWAP2 SWAP1 PUSH2 0x128C JUMP JUMPDEST PUSH1 0x20 PUSH1 0x40 MLOAD DUP1 DUP4 SUB DUP2 PUSH0 DUP8 GAS CALL ISZERO DUP1 ISZERO PUSH2 0x734 JUMPI RETURNDATASIZE PUSH0 PUSH0 RETURNDATACOPY RETURNDATASIZE PUSH0 REVERT JUMPDEST POP POP POP POP PUSH1 0x40 MLOAD RETURNDATASIZE PUSH1 0x1F NOT PUSH1 0x1F DUP3 ADD AND DUP3 ADD DUP1 PUSH1 0x40 MSTORE POP DUP2 ADD SWAP1 PUSH2 0x758 SWAP2 SWAP1 PUSH2 0x12DD JUMP JUMPDEST PUSH2 0x797 JUMPI PUSH1 0x40 MLOAD PUSH32 0x8C379A000000000000000000000000000000000000000000000000000000000 DUP2 MSTORE PUSH1 0x4 ADD PUSH2 0x78E SWAP1 PUSH2 0x1352 JUMP JUMPDEST PUSH1 0x40 MLOAD DUP1 SWAP2 SUB SWAP1 REVERT JUMPDEST PUSH32 0x5FAFA99D0643513820BE26656B45130B01E1C03062E1266BF36F88CBD3BD9695 CALLER DUP3 PUSH1 0x40 MLOAD PUSH2 0x7C8 SWAP3 SWAP2 SWAP1 PUSH2 0x128C JUMP JUMPDEST PUSH1 0x40 MLOAD DUP1 SWAP2 SUB SWAP1 LOG1 POP PUSH2 0x7D9 PUSH2 0xE8E JUMP JUMPDEST POP JUMP JUMPDEST PUSH2 0x7E4 PUSH2 0xE3F JUMP JUMPDEST PUSH32 0xEBEA61BAC29E76544EF1875472AAFF98E28D2DB11686C8CBEF6C2B35DBE32407 PUSH2 0x80E DUP2 PUSH2 0xC52 JUMP JUMPDEST PUSH0 PUSH32 0x0 PUSH20 0xFFFFFFFFFFFFFFFFFFFFFFFFFFFFFFFFFFFFFFFF AND PUSH4 0x70A08231 ADDRESS PUSH1 0x40 MLOAD DUP3 PUSH4 0xFFFFFFFF AND PUSH1 0xE0 SHL DUP2 MSTORE PUSH1 0x4 ADD PUSH2 0x868 SWAP2 SWAP1 PUSH2 0x10FD JUMP JUMPDEST PUSH1 0x20 PUSH1 0x40 MLOAD DUP1 DUP4 SUB DUP2 DUP7 GAS STATICCALL ISZERO DUP1 ISZERO PUSH2 0x883 JUMPI RETURNDATASIZE PUSH0 PUSH0 RETURNDATACOPY RETURNDATASIZE PUSH0 REVERT JUMPDEST POP POP POP POP PUSH1 0x40 MLOAD RETURNDATASIZE PUSH1 0x1F NOT PUSH1 0x1F DUP3 ADD AND DUP3 ADD DUP1 PUSH1 0x40 MSTORE POP DUP2 ADD SWAP1 PUSH2 0x8A7 SWAP2 SWAP1 PUSH2 0x11E9 JUMP JUMPDEST SWAP1 POP PUSH0 DUP2 GT PUSH2 0x8EB JUMPI PUSH1 0x40 MLOAD PUSH32 0x8C379A000000000000000000000000000000000000000000000000000000000 DUP2 MSTORE PUSH1 0x4 ADD PUSH2 0x8E2 SWAP1 PUSH2 0x126E JUMP JUMPDEST PUSH1 0x40 MLOAD DUP1 SWAP2 SUB SWAP1 REVERT JUMPDEST PUSH0 PUSH2 0x2710 PUSH1 0x3 PUSH1 0x14 SWAP1 SLOAD SWAP1 PUSH2 0x100 EXP SWAP1 DIV PUSH2 0xFFFF AND PUSH2 0xFFFF AND DUP4 PUSH2 0x90F SWAP2 SWAP1 PUSH2 0x139D JUMP JUMPDEST PUSH2 0x919 SWAP2 SWAP1 PUSH2 0x140B JUMP JUMPDEST SWAP1 POP PUSH0 DUP2 DUP4 PUSH2 0x928 SWAP2 SWAP1 PUSH2 0x143B JUMP JUMPDEST SWAP1 POP PUSH32 0x0 PUSH20 0xFFFFFFFFFFFFFFFFFFFFFFFFFFFFFFFFFFFFFFFF AND PUSH4 0xA9059CBB PUSH1 0x2 PUSH0 SWAP1 SLOAD SWAP1 PUSH2 0x100 EXP SWAP1 DIV PUSH20 0xFFFFFFFFFFFFFFFFFFFFFFFFFFFFFFFFFFFFFFFF AND DUP5 PUSH1 0x40 MLOAD DUP4 PUSH4 0xFFFFFFFF AND PUSH1 0xE0 SHL DUP2 MSTORE PUSH1 0x4 ADD PUSH2 0x9A6 SWAP3 SWAP2 SWAP1 PUSH2 0x128C JUMP JUMPDEST PUSH1 0x20 PUSH1 0x40 MLOAD DUP1 DUP4 SUB DUP2 PUSH0 DUP8 GAS CALL ISZERO DUP1 ISZERO PUSH2 0x9C2 JUMPI RETURNDATASIZE PUSH0 PUSH0 RETURNDATACOPY RETURNDATASIZE PUSH0 REVERT JUMPDEST POP POP POP POP PUSH1 0x40 MLOAD RETURNDATASIZE PUSH1 0x1F NOT PUSH1 0x1F DUP3 ADD AND DUP3 ADD DUP1 PUSH1 0x40 MSTORE POP DUP2 ADD SWAP1 PUSH2 0x9E6 SWAP2 SWAP1 PUSH2 0x12DD JUMP JUMPDEST PUSH2 0xA25 JUMPI PUSH1 0x40 MLOAD PUSH32 0x8C379A000000000000000000000000000000000000000000000000000000000 DUP2 MSTORE PUSH1 0x4 ADD PUSH2 0xA1C SWAP1 PUSH2 0x14B8 JUMP JUMPDEST PUSH1 0x40 MLOAD DUP1 SWAP2 SUB SWAP1 REVERT JUMPDEST PUSH32 0x0 PUSH20 0xFFFFFFFFFFFFFFFFFFFFFFFFFFFFFFFFFFFFFFFF AND PUSH4 0xA9059CBB PUSH1 0x3 PUSH0 SWAP1 SLOAD SWAP1 PUSH2 0x100 EXP SWAP1 DIV PUSH20 0xFFFFFFFFFFFFFFFFFFFFFFFFFFFFFFFFFFFFFFFF AND DUP4 PUSH1 0x40 MLOAD DUP4 PUSH4 0xFFFFFFFF AND PUSH1 0xE0 SHL DUP2 MSTORE PUSH1 0x4 ADD PUSH2 0xAA1 SWAP3 SWAP2 SWAP1 PUSH2 0x128C JUMP JUMPDEST PUSH1 0x20 PUSH1 0x40 MLOAD DUP1 DUP4 SUB DUP2 PUSH0 DUP8 GAS CALL ISZERO DUP1 ISZERO PUSH2 0xABD JUMPI RETURNDATASIZE PUSH0 PUSH0 RETURNDATACOPY RETURNDATASIZE PUSH0 REVERT JUMPDEST POP POP POP POP PUSH1 0x40 MLOAD RETURNDATASIZE PUSH1 0x1F NOT PUSH1 0x1F DUP3 ADD AND DUP3 ADD DUP1 PUSH1 0x40 MSTORE POP DUP2 ADD SWAP1 PUSH2 0xAE1 SWAP2 SWAP1 PUSH2 0x12DD JUMP JUMPDEST PUSH2 0xB20 JUMPI PUSH1 0x40 MLOAD PUSH32 0x8C379A000000000000000000000000000000000000000000000000000000000 DUP2 MSTORE PUSH1 0x4 ADD PUSH2 0xB17 SWAP1 PUSH2 0x1520 JUMP JUMPDEST PUSH1 0x40 MLOAD DUP1 SWAP2 SUB SWAP1 REVERT JUMPDEST PUSH32 0xC5D35A65AF09B3042394B742529D10F7FBF9A37294D6B13E4D63D06F9909A15B DUP4 DUP4 DUP4 PUSH1 0x40 MLOAD PUSH2 0xB53 SWAP4 SWAP3 SWAP2 SWAP1 PUSH2 0x153E JUMP JUMPDEST PUSH1 0x40 MLOAD DUP1 SWAP2 SUB SWAP1 LOG1 POP POP POP POP PUSH2 0xB67 PUSH2 0xE8E JUMP JUMPDEST JUMP JUMPDEST PUSH1 0x3 PUSH1 0x16 SWAP1 SLOAD SWAP1 PUSH2 0x100 EXP SWAP1 DIV PUSH2 0xFFFF AND DUP2 JUMP JUMPDEST PUSH32 0xEBEA61BAC29E76544EF1875472AAFF98E28D2DB11686C8CBEF6C2B35DBE32407 DUP2 JUMP JUMPDEST PUSH32 0x241ECF16D79D0F8DBFB92CBC07FE17840425976CF0667F022FE9877CAA831B08 DUP2 JUMP JUMPDEST PUSH32 0x0 DUP2 JUMP JUMPDEST PUSH0 PUSH32 0x1FFC9A700000000000000000000000000000000000000000000000000000000 PUSH28 0xFFFFFFFFFFFFFFFFFFFFFFFFFFFFFFFFFFFFFFFFFFFFFFFFFFFFFFFF NOT AND DUP3 PUSH28 0xFFFFFFFFFFFFFFFFFFFFFFFFFFFFFFFFFFFFFFFFFFFFFFFFFFFFFFFF NOT AND EQ SWAP1 POP SWAP2 SWAP1 POP JUMP JUMPDEST PUSH2 0xC63 DUP2 PUSH2 0xC5E PUSH2 0xD4F JUMP JUMPDEST PUSH2 0xE97 JUMP JUMPDEST POP JUMP JUMPDEST PUSH0 PUSH2 0xC71 DUP4 DUP4 PUSH2 0x508 JUMP JUMPDEST PUSH2 0xD45 JUMPI PUSH1 0x1 PUSH0 PUSH0 DUP6 DUP2 MSTORE PUSH1 0x20 ADD SWAP1 DUP2 MSTORE PUSH1 0x20 ADD PUSH0 KECCAK256 PUSH0 ADD PUSH0 DUP5 PUSH20 0xFFFFFFFFFFFFFFFFFFFFFFFFFFFFFFFFFFFFFFFF AND PUSH20 0xFFFFFFFFFFFFFFFFFFFFFFFFFFFFFFFFFFFFFFFF AND DUP2 MSTORE PUSH1 0x20 ADD SWAP1 DUP2 MSTORE PUSH1 0x20 ADD PUSH0 KECCAK256 PUSH0 PUSH2 0x100 EXP DUP2 SLOAD DUP2 PUSH1 0xFF MUL NOT AND SWAP1 DUP4 ISZERO ISZERO MUL OR SWAP1 SSTORE POP PUSH2 0xCE2 PUSH2 0xD4F JUMP JUMPDEST PUSH20 0xFFFFFFFFFFFFFFFFFFFFFFFFFFFFFFFFFFFFFFFF AND DUP3 PUSH20 0xFFFFFFFFFFFFFFFFFFFFFFFFFFFFFFFFFFFFFFFF AND DUP5 PUSH32 0x2F8788117E7EFF1D82E926EC794901D17C78024A50270940304540A733656F0D PUSH1 0x40 MLOAD PUSH1 0x40 MLOAD DUP1 SWAP2 SUB SWAP1 LOG4 PUSH1 0x1 SWAP1 POP PUSH2 0xD49 JUMP JUMPDEST PUSH0 SWAP1 POP JUMPDEST SWAP3 SWAP2 POP POP JUMP JUMPDEST PUSH0 CALLER SWAP1 POP SWAP1 JUMP JUMPDEST PUSH0 PUSH2 0xD61 DUP4 DUP4 PUSH2 0x508 JUMP JUMPDEST ISZERO PUSH2 0xE35 JUMPI PUSH0 PUSH0 PUSH0 DUP6 DUP2 MSTORE PUSH1 0x20 ADD SWAP1 DUP2 MSTORE PUSH1 0x20 ADD PUSH0 KECCAK256 PUSH0 ADD PUSH0 DUP5 PUSH20 0xFFFFFFFFFFFFFFFFFFFFFFFFFFFFFFFFFFFFFFFF AND PUSH20 0xFFFFFFFFFFFFFFFFFFFFFFFFFFFFFFFFFFFFFFFF AND DUP2 MSTORE PUSH1 0x20 ADD SWAP1 DUP2 MSTORE PUSH1 0x20 ADD PUSH0 KECCAK256 PUSH0 PUSH2 0x100 EXP DUP2 SLOAD DUP2 PUSH1 0xFF MUL NOT AND SWAP1 DUP4 ISZERO ISZERO MUL OR SWAP1 SSTORE POP PUSH2 0xDD2 PUSH2 0xD4F JUMP JUMPDEST PUSH20 0xFFFFFFFFFFFFFFFFFFFFFFFFFFFFFFFFFFFFFFFF AND DUP3 PUSH20 0xFFFFFFFFFFFFFFFFFFFFFFFFFFFFFFFFFFFFFFFF AND DUP5 PUSH32 0xF6391F5C32D9C69D2A47EA670B442974B53935D1EDC7FD64EB21E047A839171B PUSH1 0x40 MLOAD PUSH1 0x40 MLOAD DUP1 SWAP2 SUB SWAP1 LOG4 PUSH1 0x1 SWAP1 POP PUSH2 0xE39 JUMP JUMPDEST PUSH0 SWAP1 POP JUMPDEST SWAP3 SWAP2 POP POP JUMP JUMPDEST PUSH1 0x2 PUSH1 0x1 SLOAD SUB PUSH2 0xE84 JUMPI PUSH1 0x40 MLOAD PUSH32 0x8C379A000000000000000000000000000000000000000000000000000000000 DUP2 MSTORE PUSH1 0x4 ADD PUSH2 0xE7B SWAP1 PUSH2 0x15BD JUMP JUMPDEST PUSH1 0x40 MLOAD DUP1 SWAP2 SUB SWAP1 REVERT JUMPDEST PUSH1 0x2 PUSH1 0x1 DUP2 SWAP1 SSTORE POP JUMP JUMPDEST PUSH1 0x1 DUP1 DUP2 SWAP1 SSTORE POP JUMP JUMPDEST PUSH2 0xEA1 DUP3 DUP3 PUSH2 0x508 JUMP JUMPDEST PUSH2 0xEE4 JUMPI DUP1 DUP3 PUSH1 0x40 MLOAD PUSH32 0xE2517D3F00000000000000000000000000000000000000000000000000000000 DUP2 MSTORE PUSH1 0x4 ADD PUSH2 0xEDB SWAP3 SWAP2 SWAP1 PUSH2 0x15DB JUMP JUMPDEST PUSH1 0x40 MLOAD DUP1 SWAP2 SUB SWAP1 REVERT JUMPDEST POP POP JUMP JUMPDEST PUSH0 PUSH0 REVERT JUMPDEST PUSH0 PUSH32 0xFFFFFFFF00000000000000000000000000000000000000000000000000000000 DUP3 AND SWAP1 POP SWAP2 SWAP1 POP JUMP JUMPDEST PUSH2 0xF20 DUP2 PUSH2 0xEEC JUMP JUMPDEST DUP2 EQ PUSH2 0xF2A JUMPI PUSH0 PUSH0 REVERT JUMPDEST POP JUMP JUMPDEST PUSH0 DUP2 CALLDATALOAD SWAP1 POP PUSH2 0xF3B DUP2 PUSH2 0xF17 JUMP JUMPDEST SWAP3 SWAP2 POP POP JUMP JUMPDEST PUSH0 PUSH1 0x20 DUP3 DUP5 SUB SLT ISZERO PUSH2 0xF56 JUMPI PUSH2 0xF55 PUSH2 0xEE8 JUMP JUMPDEST JUMPDEST PUSH0 PUSH2 0xF63 DUP5 DUP3 DUP6 ADD PUSH2 0xF2D JUMP JUMPDEST SWAP2 POP POP SWAP3 SWAP2 POP POP JUMP JUMPDEST PUSH0 DUP2 ISZERO ISZERO SWAP1 POP SWAP2 SWAP1 POP JUMP JUMPDEST PUSH2 0xF80 DUP2 PUSH2 0xF6C JUMP JUMPDEST DUP3 MSTORE POP POP JUMP JUMPDEST PUSH0 PUSH1 0x20 DUP3 ADD SWAP1 POP PUSH2 0xF99 PUSH0 DUP4 ADD DUP5 PUSH2 0xF77 JUMP JUMPDEST SWAP3 SWAP2 POP POP JUMP JUMPDEST PUSH0 DUP2 SWAP1 POP SWAP2 SWAP1 POP JUMP JUMPDEST PUSH2 0xFB1 DUP2 PUSH2 0xF9F JUMP JUMPDEST DUP3 MSTORE POP POP JUMP JUMPDEST PUSH0 PUSH1 0x20 DUP3 ADD SWAP1 POP PUSH2 0xFCA PUSH0 DUP4 ADD DUP5 PUSH2 0xFA8 JUMP JUMPDEST SWAP3 SWAP2 POP POP JUMP JUMPDEST PUSH0 DUP2 SWAP1 POP SWAP2 SWAP1 POP JUMP JUMPDEST PUSH2 0xFE2 DUP2 PUSH2 0xFD0 JUMP JUMPDEST DUP2 EQ PUSH2 0xFEC JUMPI PUSH0 PUSH0 REVERT JUMPDEST POP JUMP JUMPDEST PUSH0 DUP2 CALLDATALOAD SWAP1 POP PUSH2 0xFFD DUP2 PUSH2 0xFD9 JUMP JUMPDEST SWAP3 SWAP2 POP POP JUMP JUMPDEST PUSH0 PUSH1 0x20 DUP3 DUP5 SUB SLT ISZERO PUSH2 0x1018 JUMPI PUSH2 0x1017 PUSH2 0xEE8 JUMP JUMPDEST JUMPDEST PUSH0 PUSH2 0x1025 DUP5 DUP3 DUP6 ADD PUSH2 0xFEF JUMP JUMPDEST SWAP2 POP POP SWAP3 SWAP2 POP POP JUMP JUMPDEST PUSH2 0x1037 DUP2 PUSH2 0xFD0 JUMP JUMPDEST DUP3 MSTORE POP POP JUMP JUMPDEST PUSH0 PUSH1 0x20 DUP3 ADD SWAP1 POP PUSH2 0x1050 PUSH0 DUP4 ADD DUP5 PUSH2 0x102E JUMP JUMPDEST SWAP3 SWAP2 POP POP JUMP JUMPDEST PUSH0 PUSH20 0xFFFFFFFFFFFFFFFFFFFFFFFFFFFFFFFFFFFFFFFF DUP3 AND SWAP1 POP SWAP2 SWAP1 POP JUMP JUMPDEST PUSH0 PUSH2 0x107F DUP3 PUSH2 0x1056 JUMP JUMPDEST SWAP1 POP SWAP2 SWAP1 POP JUMP JUMPDEST PUSH2 0x108F DUP2 PUSH2 0x1075 JUMP JUMPDEST DUP2 EQ PUSH2 0x1099 JUMPI PUSH0 PUSH0 REVERT JUMPDEST POP JUMP JUMPDEST PUSH0 DUP2 CALLDATALOAD SWAP1 POP PUSH2 0x10AA DUP2 PUSH2 0x1086 JUMP JUMPDEST SWAP3 SWAP2 POP POP JUMP JUMPDEST PUSH0 PUSH0 PUSH1 0x40 DUP4 DUP6 SUB SLT ISZERO PUSH2 0x10C6 JUMPI PUSH2 0x10C5 PUSH2 0xEE8 JUMP JUMPDEST JUMPDEST PUSH0 PUSH2 0x10D3 DUP6 DUP3 DUP7 ADD PUSH2 0xFEF JUMP JUMPDEST SWAP3 POP POP PUSH1 0x20 PUSH2 0x10E4 DUP6 DUP3 DUP7 ADD PUSH2 0x109C JUMP JUMPDEST SWAP2 POP POP SWAP3 POP SWAP3 SWAP1 POP JUMP JUMPDEST PUSH2 0x10F7 DUP2 PUSH2 0x1075 JUMP JUMPDEST DUP3 MSTORE POP POP JUMP JUMPDEST PUSH0 PUSH1 0x20 DUP3 ADD SWAP1 POP PUSH2 0x1110 PUSH0 DUP4 ADD DUP5 PUSH2 0x10EE JUMP JUMPDEST SWAP3 SWAP2 POP POP JUMP JUMPDEST PUSH0 PUSH2 0xFFFF DUP3 AND SWAP1 POP SWAP2 SWAP1 POP JUMP JUMPDEST PUSH2 0x112C DUP2 PUSH2 0x1116 JUMP JUMPDEST DUP3 MSTORE POP POP JUMP JUMPDEST PUSH0 PUSH1 0x20 DUP3 ADD SWAP1 POP PUSH2 0x1145 PUSH0 DUP4 ADD DUP5 PUSH2 0x1123 JUMP JUMPDEST SWAP3 SWAP2 POP POP JUMP JUMPDEST PUSH0 DUP2 SWAP1 POP SWAP2 SWAP1 POP JUMP JUMPDEST PUSH0 PUSH2 0x116E PUSH2 0x1169 PUSH2 0x1164 DUP5 PUSH2 0x1056 JUMP JUMPDEST PUSH2 0x114B JUMP JUMPDEST PUSH2 0x1056 JUMP JUMPDEST SWAP1 POP SWAP2 SWAP1 POP JUMP JUMPDEST PUSH0 PUSH2 0x117F DUP3 PUSH2 0x1154 JUMP JUMPDEST SWAP1 POP SWAP2 SWAP1 POP JUMP JUMPDEST PUSH0 PUSH2 0x1190 DUP3 PUSH2 0x1175 JUMP JUMPDEST SWAP1 POP SWAP2 SWAP1 POP JUMP JUMPDEST PUSH2 0x11A0 DUP2 PUSH2 0x1186 JUMP JUMPDEST DUP3 MSTORE POP POP JUMP JUMPDEST PUSH0 PUSH1 0x20 DUP3 ADD SWAP1 POP PUSH2 0x11B9 PUSH0 DUP4 ADD DUP5 PUSH2 0x1197 JUMP JUMPDEST SWAP3 SWAP2 POP POP JUMP JUMPDEST PUSH2 0x11C8 DUP2 PUSH2 0xF9F JUMP JUMPDEST DUP2 EQ PUSH2 0x11D2 JUMPI PUSH0 PUSH0 REVERT JUMPDEST POP JUMP JUMPDEST PUSH0 DUP2 MLOAD SWAP1 POP PUSH2 0x11E3 DUP2 PUSH2 0x11BF JUMP JUMPDEST SWAP3 SWAP2 POP POP JUMP JUMPDEST PUSH0 PUSH1 0x20 DUP3 DUP5 SUB SLT ISZERO PUSH2 0x11FE JUMPI PUSH2 0x11FD PUSH2 0xEE8 JUMP JUMPDEST JUMPDEST PUSH0 PUSH2 0x120B DUP5 DUP3 DUP6 ADD PUSH2 0x11D5 JUMP JUMPDEST SWAP2 POP POP SWAP3 SWAP2 POP POP JUMP JUMPDEST PUSH0 DUP3 DUP3 MSTORE PUSH1 0x20 DUP3 ADD SWAP1 POP SWAP3 SWAP2 POP POP JUMP JUMPDEST PUSH32 0x6E6F20746F6B656E730000000000000000000000000000000000000000000000 PUSH0 DUP3 ADD MSTORE POP JUMP JUMPDEST PUSH0 PUSH2 0x1258 PUSH1 0x9 DUP4 PUSH2 0x1214 JUMP JUMPDEST SWAP2 POP PUSH2 0x1263 DUP3 PUSH2 0x1224 JUMP JUMPDEST PUSH1 0x20 DUP3 ADD SWAP1 POP SWAP2 SWAP1 POP JUMP JUMPDEST PUSH0 PUSH1 0x20 DUP3 ADD SWAP1 POP DUP2 DUP2 SUB PUSH0 DUP4 ADD MSTORE PUSH2 0x1285 DUP2 PUSH2 0x124C JUMP JUMPDEST SWAP1 POP SWAP2 SWAP1 POP JUMP JUMPDEST PUSH0 PUSH1 0x40 DUP3 ADD SWAP1 POP PUSH2 0x129F PUSH0 DUP4 ADD DUP6 PUSH2 0x10EE JUMP JUMPDEST PUSH2 0x12AC PUSH1 0x20 DUP4 ADD DUP5 PUSH2 0xFA8 JUMP JUMPDEST SWAP4 SWAP3 POP POP POP JUMP JUMPDEST PUSH2 0x12BC DUP2 PUSH2 0xF6C JUMP JUMPDEST DUP2 EQ PUSH2 0x12C6 JUMPI PUSH0 PUSH0 REVERT JUMPDEST POP JUMP JUMPDEST PUSH0 DUP2 MLOAD SWAP1 POP PUSH2 0x12D7 DUP2 PUSH2 0x12B3 JUMP JUMPDEST SWAP3 SWAP2 POP POP JUMP JUMPDEST PUSH0 PUSH1 0x20 DUP3 DUP5 SUB SLT ISZERO PUSH2 0x12F2 JUMPI PUSH2 0x12F1 PUSH2 0xEE8 JUMP JUMPDEST JUMPDEST PUSH0 PUSH2 0x12FF DUP5 DUP3 DUP6 ADD PUSH2 0x12C9 JUMP JUMPDEST SWAP2 POP POP SWAP3 SWAP2 POP POP JUMP JUMPDEST PUSH32 0x7769746864726177206661696C00000000000000000000000000000000000000 PUSH0 DUP3 ADD MSTORE POP JUMP JUMPDEST PUSH0 PUSH2 0x133C PUSH1 0xD DUP4 PUSH2 0x1214 JUMP JUMPDEST SWAP2 POP PUSH2 0x1347 DUP3 PUSH2 0x1308 JUMP JUMPDEST PUSH1 0x20 DUP3 ADD SWAP1 POP SWAP2 SWAP1 POP JUMP JUMPDEST PUSH0 PUSH1 0x20 DUP3 ADD SWAP1 POP DUP2 DUP2 SUB PUSH0 DUP4 ADD MSTORE PUSH2 0x1369 DUP2 PUSH2 0x1330 JUMP JUMPDEST SWAP1 POP SWAP2 SWAP1 POP JUMP JUMPDEST PUSH32 0x4E487B7100000000000000000000000000000000000000000000000000000000 PUSH0 MSTORE PUSH1 0x11 PUSH1 0x4 MSTORE PUSH1 0x24 PUSH0 REVERT JUMPDEST PUSH0 PUSH2 0x13A7 DUP3 PUSH2 0xF9F JUMP JUMPDEST SWAP2 POP PUSH2 0x13B2 DUP4 PUSH2 0xF9F JUMP JUMPDEST SWAP3 POP DUP3 DUP3 MUL PUSH2 0x13C0 DUP2 PUSH2 0xF9F JUMP JUMPDEST SWAP2 POP DUP3 DUP3 DIV DUP5 EQ DUP4 ISZERO OR PUSH2 0x13D7 JUMPI PUSH2 0x13D6 PUSH2 0x1370 JUMP JUMPDEST JUMPDEST POP SWAP3 SWAP2 POP POP JUMP JUMPDEST PUSH32 0x4E487B7100000000000000000000000000000000000000000000000000000000 PUSH0 MSTORE PUSH1 0x12 PUSH1 0x4 MSTORE PUSH1 0x24 PUSH0 REVERT JUMPDEST PUSH0 PUSH2 0x1415 DUP3 PUSH2 0xF9F JUMP JUMPDEST SWAP2 POP PUSH2 0x1420 DUP4 PUSH2 0xF9F JUMP JUMPDEST SWAP3 POP DUP3 PUSH2 0x1430 JUMPI PUSH2 0x142F PUSH2 0x13DE JUMP JUMPDEST JUMPDEST DUP3 DUP3 DIV SWAP1 POP SWAP3 SWAP2 POP POP JUMP JUMPDEST PUSH0 PUSH2 0x1445 DUP3 PUSH2 0xF9F JUMP JUMPDEST SWAP2 POP PUSH2 0x1450 DUP4 PUSH2 0xF9F JUMP JUMPDEST SWAP3 POP DUP3 DUP3 SUB SWAP1 POP DUP2 DUP2 GT ISZERO PUSH2 0x1468 JUMPI PUSH2 0x1467 PUSH2 0x1370 JUMP JUMPDEST JUMPDEST SWAP3 SWAP2 POP POP JUMP JUMPDEST PUSH32 0x707562206661696C000000000000000000000000000000000000000000000000 PUSH0 DUP3 ADD MSTORE POP JUMP JUMPDEST PUSH0 PUSH2 0x14A2 PUSH1 0x8 DUP4 PUSH2 0x1214 JUMP JUMPDEST SWAP2 POP PUSH2 0x14AD DUP3 PUSH2 0x146E JUMP JUMPDEST PUSH1 0x20 DUP3 ADD SWAP1 POP SWAP2 SWAP1 POP JUMP JUMPDEST PUSH0 PUSH1 0x20 DUP3 ADD SWAP1 POP DUP2 DUP2 SUB PUSH0 DUP4 ADD MSTORE PUSH2 0x14CF DUP2 PUSH2 0x1496 JUMP JUMPDEST SWAP1 POP SWAP2 SWAP1 POP JUMP JUMPDEST PUSH32 0x646576206661696C000000000000000000000000000000000000000000000000 PUSH0 DUP3 ADD MSTORE POP JUMP JUMPDEST PUSH0 PUSH2 0x150A PUSH1 0x8 DUP4 PUSH2 0x1214 JUMP JUMPDEST SWAP2 POP PUSH2 0x1515 DUP3 PUSH2 0x14D6 JUMP JUMPDEST PUSH1 0x20 DUP3 ADD SWAP1 POP SWAP2 SWAP1 POP JUMP JUMPDEST PUSH0 PUSH1 0x20 DUP3 ADD SWAP1 POP DUP2 DUP2 SUB PUSH0 DUP4 ADD MSTORE PUSH2 0x1537 DUP2 PUSH2 0x14FE JUMP JUMPDEST SWAP1 POP SWAP2 SWAP1 POP JUMP JUMPDEST PUSH0 PUSH1 0x60 DUP3 ADD SWAP1 POP PUSH2 0x1551 PUSH0 DUP4 ADD DUP7 PUSH2 0xFA8 JUMP JUMPDEST PUSH2 0x155E PUSH1 0x20 DUP4 ADD DUP6 PUSH2 0xFA8 JUMP JUMPDEST PUSH2 0x156B PUSH1 0x40 DUP4 ADD DUP5 PUSH2 0xFA8 JUMP JUMPDEST SWAP5 SWAP4 POP POP POP POP JUMP JUMPDEST PUSH32 0x5265656E7472616E637947756172643A207265656E7472616E742063616C6C00 PUSH0 DUP3 ADD MSTORE POP JUMP JUMPDEST PUSH0 PUSH2 0x15A7 PUSH1 0x1F DUP4 PUSH2 0x1214 JUMP JUMPDEST SWAP2 POP PUSH2 0x15B2 DUP3 PUSH2 0x1573 JUMP JUMPDEST PUSH1 0x20 DUP3 ADD SWAP1 POP SWAP2 SWAP1 POP JUMP JUMPDEST PUSH0 PUSH1 0x20 DUP3 ADD SWAP1 POP DUP2 DUP2 SUB PUSH0 DUP4 ADD MSTORE PUSH2 0x15D4 DUP2 PUSH2 0x159B JUMP JUMPDEST SWAP1 POP SWAP2 SWAP1 POP JUMP JUMPDEST PUSH0 PUSH1 0x40 DUP3 ADD SWAP1 POP PUSH2 0x15EE PUSH0 DUP4 ADD DUP6 PUSH2 0x10EE JUMP JUMPDEST PUSH2 0x15FB PUSH1 0x20 DUP4 ADD DUP5 PUSH2 0x102E JUMP JUMPDEST SWAP4 SWAP3 POP POP POP JUMP INVALID LOG2 PUSH5 0x6970667358 0x22 SLT KECCAK256 0xF7 EXP GT SWAP8 0xCB 0xC5 PUSH13 0x1BBF8B6CD5BC09F4D7FCFCF63A SWAP11 PUSH27 0xACBFDC39514480879DA864736F6C634300081F0033A26469706673 PC 0x22 SLT KECCAK256 EXTCODEHASH 0xDB PUSH1 0x78 0xD5 PUSH6 0xF7AA6CF2DB4C LOG1 CODECOPY PUSH1 0x49 PUSH29 0x5FF6D9FE94679059508F72291D658664736F6C634300081F0033000000 "
		},
		"gasEstimates": {
			"creation": {
				"codeDepositCost": "1706400",
				"executionCost": "1790",
				"totalCost": "1708190"
			},
			"external": {
				"createSplitter(address,address,address,uint16,uint16)": "infinite"
			}
		},
		"methodIdentifiers": {
			"createSplitter(address,address,address,uint16,uint16)": "3aeaaf4a"
		}
	},
	"abi": [
		{
			"anonymous": false,
			"inputs": [
				{
					"indexed": true,
					"internalType": "address",
					"name": "creator",
					"type": "address"
				},
				{
					"indexed": false,
					"internalType": "address",
					"name": "splitter",
					"type": "address"
				}
			],
			"name": "SplitterCreated",
			"type": "event"
		},
		{
			"inputs": [
				{
					"internalType": "address",
					"name": "token",
					"type": "address"
				},
				{
					"internalType": "address",
					"name": "publisher",
					"type": "address"
				},
				{
					"internalType": "address",
					"name": "devs",
					"type": "address"
				},
				{
					"internalType": "uint16",
					"name": "publisherBps",
					"type": "uint16"
				},
				{
					"internalType": "uint16",
					"name": "devsBps",
					"type": "uint16"
				}
			],
			"name": "createSplitter",
			"outputs": [
				{
					"internalType": "address",
					"name": "splitter",
					"type": "address"
				}
			],
			"stateMutability": "nonpayable",
			"type": "function"
		}
	]
}